{
  "src/Distributor.sol": {
    "Distributor": {
      "abi": [
        {
          "inputs": [
            {
              "internalType": "address",
              "name": "_usdcAddress",
              "type": "address"
            }
          ],
          "stateMutability": "nonpayable",
          "type": "constructor"
        },
        {
          "inputs": [],
          "name": "ArrayLengthMismatch",
          "type": "error"
        },
        {
          "inputs": [],
          "name": "EmptyTitle",
          "type": "error"
        },
        {
          "inputs": [
            {
              "internalType": "uint256",
              "name": "requested",
              "type": "uint256"
            },
            {
              "internalType": "uint256",
              "name": "available",
              "type": "uint256"
            }
          ],
          "name": "InsufficientBalance",
          "type": "error"
        },
        {
          "inputs": [],
          "name": "InvalidCreatorPercentage",
          "type": "error"
        },
        {
          "inputs": [],
          "name": "InvalidDonationAmount",
          "type": "error"
        },
        {
          "inputs": [],
          "name": "InvalidInvitationCode",
          "type": "error"
        },
        {
          "inputs": [
            {
              "internalType": "uint256",
              "name": "percentage",
              "type": "uint256"
            }
          ],
          "name": "InvalidMemberPercentage",
          "type": "error"
        },
        {
          "inputs": [
            {
              "internalType": "uint256",
              "name": "totalPercentage",
              "type": "uint256"
            }
          ],
          "name": "InvalidTotalPercentage",
          "type": "error"
        },
        {
          "inputs": [],
          "name": "InvalidWithdrawalAmount",
          "type": "error"
        },
        {
          "inputs": [],
          "name": "MemberAlreadyInPool",
          "type": "error"
        },
        {
          "inputs": [],
          "name": "NoInvitationCodeForSlot",
          "type": "error"
        },
        {
          "inputs": [
            {
              "internalType": "address",
              "name": "caller",
              "type": "address"
            },
            {
              "internalType": "uint256",
              "name": "poolId",
              "type": "uint256"
            }
          ],
          "name": "NotPoolCreator",
          "type": "error"
        },
        {
          "inputs": [
            {
              "internalType": "address",
              "name": "caller",
              "type": "address"
            },
            {
              "internalType": "uint256",
              "name": "poolId",
              "type": "uint256"
            }
          ],
          "name": "NotPoolMember",
          "type": "error"
        },
        {
          "inputs": [
            {
              "internalType": "uint256",
              "name": "poolId",
              "type": "uint256"
            }
          ],
          "name": "PoolInactive",
          "type": "error"
        },
        {
          "inputs": [
            {
              "internalType": "uint256",
              "name": "poolId",
              "type": "uint256"
            }
          ],
          "name": "PoolNotFound",
          "type": "error"
        },
        {
          "inputs": [
            {
              "internalType": "uint256",
              "name": "poolId",
              "type": "uint256"
            }
          ],
          "name": "PoolPending",
          "type": "error"
        },
        {
          "inputs": [],
          "name": "SlotAlreadyFilled",
          "type": "error"
        },
        {
          "inputs": [],
          "name": "TransferFailed",
          "type": "error"
        },
        {
          "anonymous": false,
          "inputs": [
            {
              "indexed": true,
              "internalType": "uint256",
              "name": "poolId",
              "type": "uint256"
            },
            {
              "indexed": true,
              "internalType": "address",
              "name": "donor",
              "type": "address"
            },
            {
              "indexed": false,
              "internalType": "uint256",
              "name": "amount",
              "type": "uint256"
            }
          ],
          "name": "DonationMade",
          "type": "event"
        },
        {
          "anonymous": false,
          "inputs": [
            {
              "indexed": true,
              "internalType": "address",
              "name": "member",
              "type": "address"
            },
            {
              "indexed": true,
              "internalType": "address",
              "name": "recipient",
              "type": "address"
            },
            {
              "indexed": false,
              "internalType": "uint256",
              "name": "amount",
              "type": "uint256"
            }
          ],
          "name": "FundsWithdrawn",
          "type": "event"
        },
        {
          "anonymous": false,
          "inputs": [
            {
              "indexed": true,
              "internalType": "uint256",
              "name": "poolId",
              "type": "uint256"
            },
            {
              "indexed": true,
              "internalType": "address",
              "name": "member",
              "type": "address"
            },
            {
              "indexed": false,
              "internalType": "uint256",
              "name": "percentage",
              "type": "uint256"
            }
          ],
          "name": "MemberJoined",
          "type": "event"
        },
        {
          "anonymous": false,
          "inputs": [
            {
              "indexed": true,
              "internalType": "uint256",
              "name": "poolId",
              "type": "uint256"
            },
            {
              "indexed": true,
              "internalType": "address",
              "name": "creator",
              "type": "address"
            },
            {
              "indexed": false,
              "internalType": "string",
              "name": "title",
              "type": "string"
            },
            {
              "indexed": false,
              "internalType": "string",
              "name": "description",
              "type": "string"
            },
            {
              "indexed": false,
              "internalType": "string",
              "name": "imageUri",
              "type": "string"
            }
          ],
          "name": "PoolCreated",
          "type": "event"
        },
        {
          "anonymous": false,
          "inputs": [
            {
              "indexed": true,
              "internalType": "uint256",
              "name": "poolId",
              "type": "uint256"
            },
            {
              "indexed": true,
              "internalType": "address",
              "name": "deactivatedBy",
              "type": "address"
            }
          ],
          "name": "PoolDeactivated",
          "type": "event"
        },
        {
          "inputs": [
            {
              "internalType": "string",
              "name": "title",
              "type": "string"
            },
            {
              "internalType": "string",
              "name": "description",
              "type": "string"
            },
            {
              "internalType": "string",
              "name": "imageUri",
              "type": "string"
            },
            {
              "internalType": "bytes32[]",
              "name": "invitationCodes",
              "type": "bytes32[]"
            },
            {
              "internalType": "uint256[]",
              "name": "percentages",
              "type": "uint256[]"
            }
          ],
          "name": "createPool",
          "outputs": [
            {
              "internalType": "uint256",
              "name": "poolId",
              "type": "uint256"
            }
          ],
          "stateMutability": "nonpayable",
          "type": "function"
        },
        {
          "inputs": [
            {
              "internalType": "uint256",
              "name": "poolId",
              "type": "uint256"
            }
          ],
          "name": "deactivatePool",
          "outputs": [],
          "stateMutability": "nonpayable",
          "type": "function"
        },
        {
          "inputs": [
            {
              "internalType": "uint256",
              "name": "poolId",
              "type": "uint256"
            },
            {
              "internalType": "uint256",
              "name": "amount",
              "type": "uint256"
            }
          ],
          "name": "donate",
          "outputs": [],
          "stateMutability": "nonpayable",
          "type": "function"
        },
        {
          "inputs": [
            {
              "internalType": "uint256",
              "name": "poolId",
              "type": "uint256"
            }
          ],
          "name": "getPool",
          "outputs": [
            {
              "components": [
                {
                  "internalType": "uint256",
                  "name": "id",
                  "type": "uint256"
                },
                {
                  "internalType": "address",
                  "name": "creator",
                  "type": "address"
                },
                {
                  "internalType": "string",
                  "name": "title",
                  "type": "string"
                },
                {
                  "internalType": "string",
                  "name": "description",
                  "type": "string"
                },
                {
                  "internalType": "string",
                  "name": "imageUri",
                  "type": "string"
                },
                {
                  "internalType": "uint256",
                  "name": "createdAt",
                  "type": "uint256"
                },
                {
                  "internalType": "enum IDistributorStructs.PoolStatus",
                  "name": "status",
                  "type": "uint8"
                }
              ],
              "internalType": "struct IDistributorStructs.Pool",
              "name": "pool",
              "type": "tuple"
            }
          ],
          "stateMutability": "view",
          "type": "function"
        },
        {
          "inputs": [
            {
              "internalType": "uint256",
              "name": "poolId",
              "type": "uint256"
            },
            {
              "internalType": "uint256",
              "name": "offset",
              "type": "uint256"
            },
            {
              "internalType": "uint256",
              "name": "limit",
              "type": "uint256"
            }
          ],
          "name": "getPoolMembers",
          "outputs": [
            {
              "components": [
                {
                  "internalType": "address",
                  "name": "member",
                  "type": "address"
                },
                {
                  "internalType": "bytes32",
                  "name": "invitationCodeHash",
                  "type": "bytes32"
                },
                {
                  "internalType": "uint256",
                  "name": "percentage",
                  "type": "uint256"
                }
              ],
              "internalType": "struct IDistributorStructs.Member[]",
              "name": "members",
              "type": "tuple[]"
            }
          ],
          "stateMutability": "view",
          "type": "function"
        },
        {
          "inputs": [
            {
              "internalType": "uint256",
              "name": "poolId",
              "type": "uint256"
            }
          ],
          "name": "getPoolMembersCount",
          "outputs": [
            {
              "internalType": "uint256",
              "name": "total",
              "type": "uint256"
            }
          ],
          "stateMutability": "view",
          "type": "function"
        },
        {
          "inputs": [
            {
              "internalType": "uint256",
              "name": "poolId",
              "type": "uint256"
            }
          ],
          "name": "getPoolSummary",
          "outputs": [
            {
              "components": [
                {
                  "internalType": "uint256",
                  "name": "totalDonationsAmount",
                  "type": "uint256"
                },
                {
                  "internalType": "uint256",
                  "name": "totalDonationsCount",
                  "type": "uint256"
                },
                {
                  "internalType": "uint256",
                  "name": "uniqueDonatorsCount",
                  "type": "uint256"
                }
              ],
              "internalType": "struct IDistributorStructs.PoolSummary",
              "name": "summary",
              "type": "tuple"
            }
          ],
          "stateMutability": "view",
          "type": "function"
        },
        {
          "inputs": [
            {
              "internalType": "address",
              "name": "user",
              "type": "address"
            },
            {
              "internalType": "uint256",
              "name": "offset",
              "type": "uint256"
            },
            {
              "internalType": "uint256",
              "name": "limit",
              "type": "uint256"
            }
          ],
          "name": "getUserPools",
          "outputs": [
            {
              "components": [
                {
                  "internalType": "uint256",
                  "name": "id",
                  "type": "uint256"
                },
                {
                  "internalType": "address",
                  "name": "creator",
                  "type": "address"
                },
                {
                  "internalType": "string",
                  "name": "title",
                  "type": "string"
                },
                {
                  "internalType": "string",
                  "name": "description",
                  "type": "string"
                },
                {
                  "internalType": "string",
                  "name": "imageUri",
                  "type": "string"
                },
                {
                  "internalType": "uint256",
                  "name": "createdAt",
                  "type": "uint256"
                },
                {
                  "internalType": "enum IDistributorStructs.PoolStatus",
                  "name": "status",
                  "type": "uint8"
                }
              ],
              "internalType": "struct IDistributorStructs.Pool[]",
              "name": "pools",
              "type": "tuple[]"
            }
          ],
          "stateMutability": "view",
          "type": "function"
        },
        {
          "inputs": [
            {
              "internalType": "address",
              "name": "user",
              "type": "address"
            }
          ],
          "name": "getUserPoolsCount",
          "outputs": [
            {
              "internalType": "uint256",
              "name": "total",
              "type": "uint256"
            }
          ],
          "stateMutability": "view",
          "type": "function"
        },
        {
          "inputs": [
            {
              "internalType": "address",
              "name": "user",
              "type": "address"
            }
          ],
          "name": "getUserSummary",
          "outputs": [
            {
              "components": [
                {
                  "internalType": "uint256",
                  "name": "totalDonationsAmount",
                  "type": "uint256"
                },
                {
                  "internalType": "uint256",
                  "name": "totalDonationsCount",
                  "type": "uint256"
                },
                {
                  "internalType": "uint256",
                  "name": "poolCount",
                  "type": "uint256"
                }
              ],
              "internalType": "struct IDistributorStructs.UserSummary",
              "name": "summary",
              "type": "tuple"
            }
          ],
          "stateMutability": "view",
          "type": "function"
        },
        {
          "inputs": [
            {
              "internalType": "uint256",
              "name": "poolId",
              "type": "uint256"
            },
            {
              "internalType": "bytes32",
              "name": "invitationCode",
              "type": "bytes32"
            }
          ],
          "name": "joinPool",
          "outputs": [],
          "stateMutability": "nonpayable",
          "type": "function"
        },
        {
          "inputs": [],
          "name": "nextPoolId",
          "outputs": [
            {
              "internalType": "uint256",
              "name": "",
              "type": "uint256"
            }
          ],
          "stateMutability": "view",
          "type": "function"
        },
        {
          "inputs": [],
          "name": "usdc",
          "outputs": [
            {
              "internalType": "contract IERC20",
              "name": "",
              "type": "address"
            }
          ],
          "stateMutability": "view",
          "type": "function"
        }
      ],
      "evm": {
        "bytecode": {
          "linkReferences": {},
          "object": "60a034607457601f611ab038819003918201601f19168301916001600160401b03831184841017607957808492602094604052833981010312607457516001600160a01b038116908190036074576001600055608052604051611a20908161009082396080518181816103780152610eff0152f35b600080fd5b634e487b7160e01b600052604160045260246000fdfe60a0604052600436101561001257600080fd5b60003560e01c8063068bcd8d1461113f5780630cdd53f614610e8957806312b3208214610e0057806314d056f814610d8f57806318e5613114610d715780631c014f16146105dd57806326e73670146103a75780633e413bee146103625780638fbd0c2d1461024b5780639abd9b05146101a65780639ee64b651461016c578063f535a4f5146101405763f75b9afa146100ab57600080fd5b3461013b57606036600319011261013b576100d46100c7611310565b6044359060243590611818565b6040518091602082016020835281518091526040830190602060408260051b8601019301916000905b82821061010c57505050500390f35b9193600191939550602061012b8192603f198a82030186528851611239565b96019201920185949391926100fd565b600080fd5b3461013b57602036600319011261013b5760043560005260036020526020604060002054604051908152f35b3461013b57602036600319011261013b576001600160a01b0361018d611310565b1660005260046020526020604060002054604051908152f35b3461013b57602036600319011261013b5760043580600052600160205260406000208054156000146101e757506302ad881560e41b60005260045260246000fd5b60018101546001600160a01b0316330361023257600601805460ff1916600217905533907f72e6fc67ca93cc3cedc1e023204888c2cab750fbb5526e1faf3445c0327ee0ef600080a3005b506302a20f2560e21b6000523360045260245260446000fd5b3461013b57602036600319011261013b57610264611310565b61026c61152a565b906001600160a01b03166020820160005b82600052600460205260406000205481101561030e576001908360005260046020526102ad8160406000206117aa565b90549060031b1c60005260026020526102cc60406000205486516114ea565b85528360005260046020526102e58160406000206117aa565b90549060031b1c6000526002602052610306826040600020015484516114ea565b83520161027d565b5090606092519151906000526004602052604060002054906040519261033384611341565b83526020830152604082015261036060405180926040809180518452602081015160208501520151910152565bf35b3461013b57600036600319011261013b576040517f00000000000000000000000000000000000000000000000000000000000000006001600160a01b03168152602090f35b3461013b57604036600319011261013b5760043580600052600160205260406000208054156105c8576006015460ff1660038110156105b25760021461059e57600081815260056020908152604080832033845290915290205460ff1661058d57604051602081019060243582526020815261042460408261135c565b519020908060005260036020526040600020600080809481908454915b828110610511575b505050156105005761045a916114b8565b5080546001600160a01b031916339081179091556000828152600560209081526040808320938352928152828220805460ff1916600117905560049052206104a39082906117c2565b6104ac8161199d565b6104df575b6040519182527ff4f82575ee84a81aac4be52b6a368e9ba9df524b4f5cf8177d7cfbabe861820c60203393a3005b8060005260016020526006604060002001600160ff198254161790556104b1565b63046aa5bf60e01b60005260046000fd5b61051b81876114b8565b50546001600160a01b03161580610576575b8061055f575b61053f57600101610441565b965050505050600261055184836114b8565b500154926001858080610449565b50600161056c82886114b8565b5001541515610533565b5081600161058483896114b8565b5001541461052d565b634c0d3fed60e11b60005260046000fd5b63423b515f60e01b60005260045260246000fd5b634e487b7160e01b600052602160045260246000fd5b506302ad881560e41b60005260045260246000fd5b3461013b5760a036600319011261013b576004356001600160401b03811161013b5761060d9036906004016112b3565b6024356001600160401b03811161013b5761062c9036906004016112b3565b926044356001600160401b03811161013b5761064c9036906004016112b3565b9390926064356001600160401b03811161013b5761066e9036906004016112e0565b6084979197356001600160401b03811161013b576106909036906004016112e0565b98908515610d6057828a03610d4f57600091825b8b8110610cda5750612710831015610cc55761271083810311610caf578261271014610c9e576000546080526106db6080516114f7565b6000558a610c975760015b604051888b8d6107326107108e6106fc87611326565b6080518752602087019533875236916116f6565b6040860190815292610723368d8f6116f6565b926060870193845236916116f6565b916080850192835260a085019342855261075060c087019788611494565b608051600090815260016020819052604090912096518755905190860180546001600160a01b0319166001600160a01b039290921691909117905551805160028601916001600160401b038211610afb5781906107ad84546113b6565b601f8111610c44575b50602090601f8311600114610bdf57600092610bd4575b50508160011b916000199060031b1c19161790555b51805160038501916001600160401b038211610afb57819061080484546113b6565b601f8111610b81575b50602090601f8311600114610b1c57600092610b11575b50508160011b916000199060031b1c19161790555b51805160048401916001600160401b038211610afb5761085983546113b6565b601f8111610ab3575b50602090601f8311600114610a47576006959493929160009183610a3c575b50508160011b916000199060031b1c19161790555b5160058201550190519360038510156105b2576109299160009560ff801983541691161790556040516108c881611341565b858152600260208201878152604083019088825260805189528260205260408920935184555160018401555191015560805185526003602052604085206040519161091283611341565b33835286602084015261271003604083015261173c565b608051835260056020526040832060018060a01b033316845260205260408320600160ff19825416179055338352600460205261096b608051604085206117c2565b825b8b81106109e8578a8a7f3488d52145f2da8302f4410707e81efde09f4f605b2182bbfb96b966837e32cd8b8b6109d96109c68d8d6109b86040519687966060885260608801916117f7565b9185830360208701526117f7565b82810360408401523396608051966117f7565b0390a360206040516080518152f35b60019060805185526003602052610a368d610a08836040892092886116e6565b3590610a15848a886116e6565b359160405192610a2484611341565b8984526020840152604083015261173c565b0161096d565b015190503880610881565b90601f1983169184600052816000209260005b818110610a9b57509160019391856006999897969410610a82575b505050811b019055610896565b015160001960f88460031b161c19169055388080610a75565b92936020600181928786015181550195019301610a5a565b836000526020600020601f840160051c81019160208510610af1575b601f0160051c01905b818110610ae55750610862565b60008155600101610ad8565b9091508190610acf565b634e487b7160e01b600052604160045260246000fd5b015190503880610824565b60008581528281209350601f198516905b818110610b695750908460019594939210610b50575b505050811b019055610839565b015160001960f88460031b161c19169055388080610b43565b92936020600181928786015181550195019301610b2d565b909150836000526020600020601f840160051c81019160208510610bca575b90601f859493920160051c01905b818110610bbb575061080d565b60008155849350600101610bae565b9091508190610ba0565b0151905038806107cd565b60008581528281209350601f198516905b818110610c2c5750908460019594939210610c13575b505050811b0190556107e2565b015160001960f88460031b161c19169055388080610c06565b92936020600181928786015181550195019301610bf0565b909150836000526020600020601f840160051c81019160208510610c8d575b90601f859493920160051c01905b818110610c7e57506107b6565b60008155849350600101610c71565b9091508190610c63565b60006106e6565b630781666160e51b60005260046000fd5b634e487b7160e01b600052601160045260246000fd5b82634a31414760e01b60005260045260246000fd5b92610ce6848d856116e6565b3515848d8215610d36575b5050610d1657610d0f600191610d08868f876116e6565b35906114ea565b93016106a4565b610d21848d856116e6565b3563447e90bf60e11b60005260045260246000fd5b612710925090610d4691866116e6565b3511848d610cf1565b63512509d360e11b60005260046000fd5b6352ddcdef60e11b60005260046000fd5b3461013b57600036600319011261013b576020600054604051908152f35b3461013b57602036600319011261013b57610da861152a565b50600435600052600260205260606040600020600260405191610dca83611341565b80548352600181015460208401520154604082015261036060405180926040809180518452602081015160208501520151910152565b3461013b57606036600319011261013b57610e2260443560243560043561155d565b60405180916020820160208352815180915260206040840192019060005b818110610e4e575050500390f35b825180516001600160a01b03168552602081810151818701526040918201519186019190915286955060609094019390920191600101610e40565b3461013b57604036600319011261013b576004356024359080600052600160205260406000208054156105c8576006015460ff169160038310156105b2576002831461112a5760009215611116578015611107576040516323b872dd60e01b8152336004820152306024820152604481018290527f00000000000000000000000000000000000000000000000000000000000000006001600160a01b03169060208160648188865af19081156110fc5785916110dd575b50156110ce57828452600360205260408420845b8154811015611019576002610f6982846114b8565b50015490818502918583040361100557612710610f8682856114b8565b505460405163a9059cbb60e01b81526001600160a01b039091166004820152920460248301526020826044818a885af1918215610ffa57600192610fcc575b5001610f54565b610fec9060203d8111610ff3575b610fe4818361135c565b8101906114a0565b5087610fc5565b503d610fda565b6040513d89823e3d90fd5b634e487b7160e01b87526011600452602487fd5b505050908083526002602052604083206110348382546114ea565b81556001810161104481546114f7565b905581845260066020908152604080862033875290915284205460ff1615611097575b506040519182527fe555da28bdb778f65d22794d88927ebaeca03f7de9d1b7d39245bc8fb5ca078a60203393a380f35b6002016110a481546114f7565b90558083526006602090815260408085203386529091528320805460ff1916600117905583611067565b6312171d8360e31b8452600484fd5b6110f6915060203d602011610ff357610fe4818361135c565b85610f40565b6040513d87823e3d90fd5b63bdd5839b60e01b8352600483fd5b63da8944ed60e01b83526004829052602483fd5b5063423b515f60e01b60005260045260246000fd5b3461013b57602036600319011261013b5761115861137d565b5060043560005260016020526111f460406000206111e060ff60066040519361118085611326565b8054855260018101546001600160a01b031660208601526111a3600282016113f0565b60408601526111b4600382016113f0565b60608601526111c5600482016113f0565b6080860152600581015460a086015201541660c08301611494565b604051918291602083526020830190611239565b0390f35b919082519283825260005b848110611224575050826000602080949584010152601f8019910116010190565b80602080928401015182828601015201611203565b908151815260018060a01b03602083015116602082015260c0611295611283611271604086015160e0604087015260e08601906111f8565b606086015185820360608701526111f8565b608085015184820360808601526111f8565b9260a081015160a084015201519060038210156105b25760c0015290565b9181601f8401121561013b578235916001600160401b03831161013b576020838186019501011161013b57565b9181601f8401121561013b578235916001600160401b03831161013b576020808501948460051b01011161013b57565b600435906001600160a01b038216820361013b57565b60e081019081106001600160401b03821117610afb57604052565b606081019081106001600160401b03821117610afb57604052565b90601f801991011681019081106001600160401b03821117610afb57604052565b6040519061138a82611326565b600060c08382815282602082015260606040820152606080820152606060808201528260a08201520152565b90600182811c921680156113e6575b60208310146113d057565b634e487b7160e01b600052602260045260246000fd5b91607f16916113c5565b9060405191826000825492611404846113b6565b8084529360018116908115611472575060011461142b575b506114299250038361135c565b565b90506000929192526020600020906000915b818310611456575050906020611429928201013861141c565b602091935080600191548385890101520191019091849261143d565b90506020925061142994915060ff191682840152151560051b8201013861141c565b60038210156105b25752565b9081602091031261013b5751801515810361013b5790565b80548210156114d4576000526003602060002091020190600090565b634e487b7160e01b600052603260045260246000fd5b91908201809211610caf57565b6000198114610caf5760010190565b91908203918211610caf57565b6001600160401b038111610afb5760051b60200190565b6040519061153782611341565b60006040838281528260208201520152565b80518210156114d45760209160051b010190565b929190836000526001602052604060002054156116d15783600052600360205260406000205481116000146115ca57505060405190915060006115a160208361135c565b81526000805b8181106115b357505090565b6020906115be61152a565b828286010152016115a7565b6115d482826114ea565b846000526003602052604060002054106116b1575b6115f282611513565b90611600604051928361135c565b828252601f1961160f84611513565b0160005b81811061169a575050819460005b84811061162f575050505050565b600190826000526003602052611653604060002061164d86846114ea565b906114b8565b5060026040519161166383611341565b848060a01b038154168352848101546020840152015460408201526116888287611549565b526116938186611549565b5001611621565b6020906116a561152a565b82828701015201611613565b90508260005260036020526116cb81604060002054611506565b906115e9565b836302ad881560e41b60005260045260246000fd5b91908110156114d45760051b0190565b9291926001600160401b038211610afb576040519161171f601f8201601f19166020018461135c565b82948184528183011161013b578281602093846000960137010152565b8054600160401b811015610afb57611759916001820181556114b8565b91909161179457805182546001600160a01b0319166001600160a01b0391909116178255602081015160018301556040015160029190910155565b634e487b7160e01b600052600060045260246000fd5b80548210156114d45760005260206000200190600090565b8054600160401b811015610afb576117df916001820181556117aa565b819291549060031b91821b91600019901b1916179055565b908060209392818452848401376000828201840152601f01601f1916010190565b6001600160a01b0316600081815260046020526040902054909392919081111561187a575050604051909150600061185160208361135c565b81526000805b81811061186357505090565b60209061186e61137d565b82828601015201611857565b61188482826114ea565b8460005260046020526040600020541061197d575b6118a282611513565b906118b0604051928361135c565b828252601f196118bf84611513565b0160005b818110611966575050819460005b8481106118df575050505050565b60019082600052600460205261190360406000206118fd86846114ea565b906117aa565b90549060031b1c60005281602052604060002061194a60ff60066040519361192a85611326565b80548552868060a01b03878201541660208601526111a3600282016113f0565b6119548287611549565b5261195f8186611549565b50016118d1565b60209061197161137d565b828287010152016118c3565b905082600052600460205261199781604060002054611506565b90611899565b600052600360205260406000206000908054915b8281106119c057505050600190565b6119ca81836114b8565b50546001600160a01b0316156119e2576001016119b1565b50505060009056fea26469706673582212202e78685afb60dfc773e8cae817fe1f1eaba60d666cc135d5b4a9d090952b3fa864736f6c634300081c0033",
          "opcodes": "PUSH1 0xA0 CALLVALUE PUSH1 0x74 JUMPI PUSH1 0x1F PUSH2 0x1AB0 CODESIZE DUP2 SWAP1 SUB SWAP2 DUP3 ADD PUSH1 0x1F NOT AND DUP4 ADD SWAP2 PUSH1 0x1 PUSH1 0x1 PUSH1 0x40 SHL SUB DUP4 GT DUP5 DUP5 LT OR PUSH1 0x79 JUMPI DUP1 DUP5 SWAP3 PUSH1 0x20 SWAP5 PUSH1 0x40 MSTORE DUP4 CODECOPY DUP2 ADD SUB SLT PUSH1 0x74 JUMPI MLOAD PUSH1 0x1 PUSH1 0x1 PUSH1 0xA0 SHL SUB DUP2 AND SWAP1 DUP2 SWAP1 SUB PUSH1 0x74 JUMPI PUSH1 0x1 PUSH1 0x0 SSTORE PUSH1 0x80 MSTORE PUSH1 0x40 MLOAD PUSH2 0x1A20 SWAP1 DUP2 PUSH2 0x90 DUP3 CODECOPY PUSH1 0x80 MLOAD DUP2 DUP2 DUP2 PUSH2 0x378 ADD MSTORE PUSH2 0xEFF ADD MSTORE RETURN JUMPDEST PUSH1 0x0 DUP1 REVERT JUMPDEST PUSH4 0x4E487B71 PUSH1 0xE0 SHL PUSH1 0x0 MSTORE PUSH1 0x41 PUSH1 0x4 MSTORE PUSH1 0x24 PUSH1 0x0 REVERT INVALID PUSH1 0xA0 PUSH1 0x40 MSTORE PUSH1 0x4 CALLDATASIZE LT ISZERO PUSH2 0x12 JUMPI PUSH1 0x0 DUP1 REVERT JUMPDEST PUSH1 0x0 CALLDATALOAD PUSH1 0xE0 SHR DUP1 PUSH4 0x68BCD8D EQ PUSH2 0x113F JUMPI DUP1 PUSH4 0xCDD53F6 EQ PUSH2 0xE89 JUMPI DUP1 PUSH4 0x12B32082 EQ PUSH2 0xE00 JUMPI DUP1 PUSH4 0x14D056F8 EQ PUSH2 0xD8F JUMPI DUP1 PUSH4 0x18E56131 EQ PUSH2 0xD71 JUMPI DUP1 PUSH4 0x1C014F16 EQ PUSH2 0x5DD JUMPI DUP1 PUSH4 0x26E73670 EQ PUSH2 0x3A7 JUMPI DUP1 PUSH4 0x3E413BEE EQ PUSH2 0x362 JUMPI DUP1 PUSH4 0x8FBD0C2D EQ PUSH2 0x24B JUMPI DUP1 PUSH4 0x9ABD9B05 EQ PUSH2 0x1A6 JUMPI DUP1 PUSH4 0x9EE64B65 EQ PUSH2 0x16C JUMPI DUP1 PUSH4 0xF535A4F5 EQ PUSH2 0x140 JUMPI PUSH4 0xF75B9AFA EQ PUSH2 0xAB JUMPI PUSH1 0x0 DUP1 REVERT JUMPDEST CALLVALUE PUSH2 0x13B JUMPI PUSH1 0x60 CALLDATASIZE PUSH1 0x3 NOT ADD SLT PUSH2 0x13B JUMPI PUSH2 0xD4 PUSH2 0xC7 PUSH2 0x1310 JUMP JUMPDEST PUSH1 0x44 CALLDATALOAD SWAP1 PUSH1 0x24 CALLDATALOAD SWAP1 PUSH2 0x1818 JUMP JUMPDEST PUSH1 0x40 MLOAD DUP1 SWAP2 PUSH1 0x20 DUP3 ADD PUSH1 0x20 DUP4 MSTORE DUP2 MLOAD DUP1 SWAP2 MSTORE PUSH1 0x40 DUP4 ADD SWAP1 PUSH1 0x20 PUSH1 0x40 DUP3 PUSH1 0x5 SHL DUP7 ADD ADD SWAP4 ADD SWAP2 PUSH1 0x0 SWAP1 JUMPDEST DUP3 DUP3 LT PUSH2 0x10C JUMPI POP POP POP POP SUB SWAP1 RETURN JUMPDEST SWAP2 SWAP4 PUSH1 0x1 SWAP2 SWAP4 SWAP6 POP PUSH1 0x20 PUSH2 0x12B DUP2 SWAP3 PUSH1 0x3F NOT DUP11 DUP3 SUB ADD DUP7 MSTORE DUP9 MLOAD PUSH2 0x1239 JUMP JUMPDEST SWAP7 ADD SWAP3 ADD SWAP3 ADD DUP6 SWAP5 SWAP4 SWAP2 SWAP3 PUSH2 0xFD JUMP JUMPDEST PUSH1 0x0 DUP1 REVERT JUMPDEST CALLVALUE PUSH2 0x13B JUMPI PUSH1 0x20 CALLDATASIZE PUSH1 0x3 NOT ADD SLT PUSH2 0x13B JUMPI PUSH1 0x4 CALLDATALOAD PUSH1 0x0 MSTORE PUSH1 0x3 PUSH1 0x20 MSTORE PUSH1 0x20 PUSH1 0x40 PUSH1 0x0 KECCAK256 SLOAD PUSH1 0x40 MLOAD SWAP1 DUP2 MSTORE RETURN JUMPDEST CALLVALUE PUSH2 0x13B JUMPI PUSH1 0x20 CALLDATASIZE PUSH1 0x3 NOT ADD SLT PUSH2 0x13B JUMPI PUSH1 0x1 PUSH1 0x1 PUSH1 0xA0 SHL SUB PUSH2 0x18D PUSH2 0x1310 JUMP JUMPDEST AND PUSH1 0x0 MSTORE PUSH1 0x4 PUSH1 0x20 MSTORE PUSH1 0x20 PUSH1 0x40 PUSH1 0x0 KECCAK256 SLOAD PUSH1 0x40 MLOAD SWAP1 DUP2 MSTORE RETURN JUMPDEST CALLVALUE PUSH2 0x13B JUMPI PUSH1 0x20 CALLDATASIZE PUSH1 0x3 NOT ADD SLT PUSH2 0x13B JUMPI PUSH1 0x4 CALLDATALOAD DUP1 PUSH1 0x0 MSTORE PUSH1 0x1 PUSH1 0x20 MSTORE PUSH1 0x40 PUSH1 0x0 KECCAK256 DUP1 SLOAD ISZERO PUSH1 0x0 EQ PUSH2 0x1E7 JUMPI POP PUSH4 0x2AD8815 PUSH1 0xE4 SHL PUSH1 0x0 MSTORE PUSH1 0x4 MSTORE PUSH1 0x24 PUSH1 0x0 REVERT JUMPDEST PUSH1 0x1 DUP2 ADD SLOAD PUSH1 0x1 PUSH1 0x1 PUSH1 0xA0 SHL SUB AND CALLER SUB PUSH2 0x232 JUMPI PUSH1 0x6 ADD DUP1 SLOAD PUSH1 0xFF NOT AND PUSH1 0x2 OR SWAP1 SSTORE CALLER SWAP1 PUSH32 0x72E6FC67CA93CC3CEDC1E023204888C2CAB750FBB5526E1FAF3445C0327EE0EF PUSH1 0x0 DUP1 LOG3 STOP JUMPDEST POP PUSH4 0x2A20F25 PUSH1 0xE2 SHL PUSH1 0x0 MSTORE CALLER PUSH1 0x4 MSTORE PUSH1 0x24 MSTORE PUSH1 0x44 PUSH1 0x0 REVERT JUMPDEST CALLVALUE PUSH2 0x13B JUMPI PUSH1 0x20 CALLDATASIZE PUSH1 0x3 NOT ADD SLT PUSH2 0x13B JUMPI PUSH2 0x264 PUSH2 0x1310 JUMP JUMPDEST PUSH2 0x26C PUSH2 0x152A JUMP JUMPDEST SWAP1 PUSH1 0x1 PUSH1 0x1 PUSH1 0xA0 SHL SUB AND PUSH1 0x20 DUP3 ADD PUSH1 0x0 JUMPDEST DUP3 PUSH1 0x0 MSTORE PUSH1 0x4 PUSH1 0x20 MSTORE PUSH1 0x40 PUSH1 0x0 KECCAK256 SLOAD DUP2 LT ISZERO PUSH2 0x30E JUMPI PUSH1 0x1 SWAP1 DUP4 PUSH1 0x0 MSTORE PUSH1 0x4 PUSH1 0x20 MSTORE PUSH2 0x2AD DUP2 PUSH1 0x40 PUSH1 0x0 KECCAK256 PUSH2 0x17AA JUMP JUMPDEST SWAP1 SLOAD SWAP1 PUSH1 0x3 SHL SHR PUSH1 0x0 MSTORE PUSH1 0x2 PUSH1 0x20 MSTORE PUSH2 0x2CC PUSH1 0x40 PUSH1 0x0 KECCAK256 SLOAD DUP7 MLOAD PUSH2 0x14EA JUMP JUMPDEST DUP6 MSTORE DUP4 PUSH1 0x0 MSTORE PUSH1 0x4 PUSH1 0x20 MSTORE PUSH2 0x2E5 DUP2 PUSH1 0x40 PUSH1 0x0 KECCAK256 PUSH2 0x17AA JUMP JUMPDEST SWAP1 SLOAD SWAP1 PUSH1 0x3 SHL SHR PUSH1 0x0 MSTORE PUSH1 0x2 PUSH1 0x20 MSTORE PUSH2 0x306 DUP3 PUSH1 0x40 PUSH1 0x0 KECCAK256 ADD SLOAD DUP5 MLOAD PUSH2 0x14EA JUMP JUMPDEST DUP4 MSTORE ADD PUSH2 0x27D JUMP JUMPDEST POP SWAP1 PUSH1 0x60 SWAP3 MLOAD SWAP2 MLOAD SWAP1 PUSH1 0x0 MSTORE PUSH1 0x4 PUSH1 0x20 MSTORE PUSH1 0x40 PUSH1 0x0 KECCAK256 SLOAD SWAP1 PUSH1 0x40 MLOAD SWAP3 PUSH2 0x333 DUP5 PUSH2 0x1341 JUMP JUMPDEST DUP4 MSTORE PUSH1 0x20 DUP4 ADD MSTORE PUSH1 0x40 DUP3 ADD MSTORE PUSH2 0x360 PUSH1 0x40 MLOAD DUP1 SWAP3 PUSH1 0x40 DUP1 SWAP2 DUP1 MLOAD DUP5 MSTORE PUSH1 0x20 DUP2 ADD MLOAD PUSH1 0x20 DUP6 ADD MSTORE ADD MLOAD SWAP2 ADD MSTORE JUMP JUMPDEST RETURN JUMPDEST CALLVALUE PUSH2 0x13B JUMPI PUSH1 0x0 CALLDATASIZE PUSH1 0x3 NOT ADD SLT PUSH2 0x13B JUMPI PUSH1 0x40 MLOAD PUSH32 0x0 PUSH1 0x1 PUSH1 0x1 PUSH1 0xA0 SHL SUB AND DUP2 MSTORE PUSH1 0x20 SWAP1 RETURN JUMPDEST CALLVALUE PUSH2 0x13B JUMPI PUSH1 0x40 CALLDATASIZE PUSH1 0x3 NOT ADD SLT PUSH2 0x13B JUMPI PUSH1 0x4 CALLDATALOAD DUP1 PUSH1 0x0 MSTORE PUSH1 0x1 PUSH1 0x20 MSTORE PUSH1 0x40 PUSH1 0x0 KECCAK256 DUP1 SLOAD ISZERO PUSH2 0x5C8 JUMPI PUSH1 0x6 ADD SLOAD PUSH1 0xFF AND PUSH1 0x3 DUP2 LT ISZERO PUSH2 0x5B2 JUMPI PUSH1 0x2 EQ PUSH2 0x59E JUMPI PUSH1 0x0 DUP2 DUP2 MSTORE PUSH1 0x5 PUSH1 0x20 SWAP1 DUP2 MSTORE PUSH1 0x40 DUP1 DUP4 KECCAK256 CALLER DUP5 MSTORE SWAP1 SWAP2 MSTORE SWAP1 KECCAK256 SLOAD PUSH1 0xFF AND PUSH2 0x58D JUMPI PUSH1 0x40 MLOAD PUSH1 0x20 DUP2 ADD SWAP1 PUSH1 0x24 CALLDATALOAD DUP3 MSTORE PUSH1 0x20 DUP2 MSTORE PUSH2 0x424 PUSH1 0x40 DUP3 PUSH2 0x135C JUMP JUMPDEST MLOAD SWAP1 KECCAK256 SWAP1 DUP1 PUSH1 0x0 MSTORE PUSH1 0x3 PUSH1 0x20 MSTORE PUSH1 0x40 PUSH1 0x0 KECCAK256 PUSH1 0x0 DUP1 DUP1 SWAP5 DUP2 SWAP1 DUP5 SLOAD SWAP2 JUMPDEST DUP3 DUP2 LT PUSH2 0x511 JUMPI JUMPDEST POP POP POP ISZERO PUSH2 0x500 JUMPI PUSH2 0x45A SWAP2 PUSH2 0x14B8 JUMP JUMPDEST POP DUP1 SLOAD PUSH1 0x1 PUSH1 0x1 PUSH1 0xA0 SHL SUB NOT AND CALLER SWAP1 DUP2 OR SWAP1 SWAP2 SSTORE PUSH1 0x0 DUP3 DUP2 MSTORE PUSH1 0x5 PUSH1 0x20 SWAP1 DUP2 MSTORE PUSH1 0x40 DUP1 DUP4 KECCAK256 SWAP4 DUP4 MSTORE SWAP3 DUP2 MSTORE DUP3 DUP3 KECCAK256 DUP1 SLOAD PUSH1 0xFF NOT AND PUSH1 0x1 OR SWAP1 SSTORE PUSH1 0x4 SWAP1 MSTORE KECCAK256 PUSH2 0x4A3 SWAP1 DUP3 SWAP1 PUSH2 0x17C2 JUMP JUMPDEST PUSH2 0x4AC DUP2 PUSH2 0x199D JUMP JUMPDEST PUSH2 0x4DF JUMPI JUMPDEST PUSH1 0x40 MLOAD SWAP2 DUP3 MSTORE PUSH32 0xF4F82575EE84A81AAC4BE52B6A368E9BA9DF524B4F5CF8177D7CFBABE861820C PUSH1 0x20 CALLER SWAP4 LOG3 STOP JUMPDEST DUP1 PUSH1 0x0 MSTORE PUSH1 0x1 PUSH1 0x20 MSTORE PUSH1 0x6 PUSH1 0x40 PUSH1 0x0 KECCAK256 ADD PUSH1 0x1 PUSH1 0xFF NOT DUP3 SLOAD AND OR SWAP1 SSTORE PUSH2 0x4B1 JUMP JUMPDEST PUSH4 0x46AA5BF PUSH1 0xE0 SHL PUSH1 0x0 MSTORE PUSH1 0x4 PUSH1 0x0 REVERT JUMPDEST PUSH2 0x51B DUP2 DUP8 PUSH2 0x14B8 JUMP JUMPDEST POP SLOAD PUSH1 0x1 PUSH1 0x1 PUSH1 0xA0 SHL SUB AND ISZERO DUP1 PUSH2 0x576 JUMPI JUMPDEST DUP1 PUSH2 0x55F JUMPI JUMPDEST PUSH2 0x53F JUMPI PUSH1 0x1 ADD PUSH2 0x441 JUMP JUMPDEST SWAP7 POP POP POP POP POP PUSH1 0x2 PUSH2 0x551 DUP5 DUP4 PUSH2 0x14B8 JUMP JUMPDEST POP ADD SLOAD SWAP3 PUSH1 0x1 DUP6 DUP1 DUP1 PUSH2 0x449 JUMP JUMPDEST POP PUSH1 0x1 PUSH2 0x56C DUP3 DUP9 PUSH2 0x14B8 JUMP JUMPDEST POP ADD SLOAD ISZERO ISZERO PUSH2 0x533 JUMP JUMPDEST POP DUP2 PUSH1 0x1 PUSH2 0x584 DUP4 DUP10 PUSH2 0x14B8 JUMP JUMPDEST POP ADD SLOAD EQ PUSH2 0x52D JUMP JUMPDEST PUSH4 0x4C0D3FED PUSH1 0xE1 SHL PUSH1 0x0 MSTORE PUSH1 0x4 PUSH1 0x0 REVERT JUMPDEST PUSH4 0x423B515F PUSH1 0xE0 SHL PUSH1 0x0 MSTORE PUSH1 0x4 MSTORE PUSH1 0x24 PUSH1 0x0 REVERT JUMPDEST PUSH4 0x4E487B71 PUSH1 0xE0 SHL PUSH1 0x0 MSTORE PUSH1 0x21 PUSH1 0x4 MSTORE PUSH1 0x24 PUSH1 0x0 REVERT JUMPDEST POP PUSH4 0x2AD8815 PUSH1 0xE4 SHL PUSH1 0x0 MSTORE PUSH1 0x4 MSTORE PUSH1 0x24 PUSH1 0x0 REVERT JUMPDEST CALLVALUE PUSH2 0x13B JUMPI PUSH1 0xA0 CALLDATASIZE PUSH1 0x3 NOT ADD SLT PUSH2 0x13B JUMPI PUSH1 0x4 CALLDATALOAD PUSH1 0x1 PUSH1 0x1 PUSH1 0x40 SHL SUB DUP2 GT PUSH2 0x13B JUMPI PUSH2 0x60D SWAP1 CALLDATASIZE SWAP1 PUSH1 0x4 ADD PUSH2 0x12B3 JUMP JUMPDEST PUSH1 0x24 CALLDATALOAD PUSH1 0x1 PUSH1 0x1 PUSH1 0x40 SHL SUB DUP2 GT PUSH2 0x13B JUMPI PUSH2 0x62C SWAP1 CALLDATASIZE SWAP1 PUSH1 0x4 ADD PUSH2 0x12B3 JUMP JUMPDEST SWAP3 PUSH1 0x44 CALLDATALOAD PUSH1 0x1 PUSH1 0x1 PUSH1 0x40 SHL SUB DUP2 GT PUSH2 0x13B JUMPI PUSH2 0x64C SWAP1 CALLDATASIZE SWAP1 PUSH1 0x4 ADD PUSH2 0x12B3 JUMP JUMPDEST SWAP4 SWAP1 SWAP3 PUSH1 0x64 CALLDATALOAD PUSH1 0x1 PUSH1 0x1 PUSH1 0x40 SHL SUB DUP2 GT PUSH2 0x13B JUMPI PUSH2 0x66E SWAP1 CALLDATASIZE SWAP1 PUSH1 0x4 ADD PUSH2 0x12E0 JUMP JUMPDEST PUSH1 0x84 SWAP8 SWAP2 SWAP8 CALLDATALOAD PUSH1 0x1 PUSH1 0x1 PUSH1 0x40 SHL SUB DUP2 GT PUSH2 0x13B JUMPI PUSH2 0x690 SWAP1 CALLDATASIZE SWAP1 PUSH1 0x4 ADD PUSH2 0x12E0 JUMP JUMPDEST SWAP9 SWAP1 DUP6 ISZERO PUSH2 0xD60 JUMPI DUP3 DUP11 SUB PUSH2 0xD4F JUMPI PUSH1 0x0 SWAP2 DUP3 JUMPDEST DUP12 DUP2 LT PUSH2 0xCDA JUMPI POP PUSH2 0x2710 DUP4 LT ISZERO PUSH2 0xCC5 JUMPI PUSH2 0x2710 DUP4 DUP2 SUB GT PUSH2 0xCAF JUMPI DUP3 PUSH2 0x2710 EQ PUSH2 0xC9E JUMPI PUSH1 0x0 SLOAD PUSH1 0x80 MSTORE PUSH2 0x6DB PUSH1 0x80 MLOAD PUSH2 0x14F7 JUMP JUMPDEST PUSH1 0x0 SSTORE DUP11 PUSH2 0xC97 JUMPI PUSH1 0x1 JUMPDEST PUSH1 0x40 MLOAD DUP9 DUP12 DUP14 PUSH2 0x732 PUSH2 0x710 DUP15 PUSH2 0x6FC DUP8 PUSH2 0x1326 JUMP JUMPDEST PUSH1 0x80 MLOAD DUP8 MSTORE PUSH1 0x20 DUP8 ADD SWAP6 CALLER DUP8 MSTORE CALLDATASIZE SWAP2 PUSH2 0x16F6 JUMP JUMPDEST PUSH1 0x40 DUP7 ADD SWAP1 DUP2 MSTORE SWAP3 PUSH2 0x723 CALLDATASIZE DUP14 DUP16 PUSH2 0x16F6 JUMP JUMPDEST SWAP3 PUSH1 0x60 DUP8 ADD SWAP4 DUP5 MSTORE CALLDATASIZE SWAP2 PUSH2 0x16F6 JUMP JUMPDEST SWAP2 PUSH1 0x80 DUP6 ADD SWAP3 DUP4 MSTORE PUSH1 0xA0 DUP6 ADD SWAP4 TIMESTAMP DUP6 MSTORE PUSH2 0x750 PUSH1 0xC0 DUP8 ADD SWAP8 DUP9 PUSH2 0x1494 JUMP JUMPDEST PUSH1 0x80 MLOAD PUSH1 0x0 SWAP1 DUP2 MSTORE PUSH1 0x1 PUSH1 0x20 DUP2 SWAP1 MSTORE PUSH1 0x40 SWAP1 SWAP2 KECCAK256 SWAP7 MLOAD DUP8 SSTORE SWAP1 MLOAD SWAP1 DUP7 ADD DUP1 SLOAD PUSH1 0x1 PUSH1 0x1 PUSH1 0xA0 SHL SUB NOT AND PUSH1 0x1 PUSH1 0x1 PUSH1 0xA0 SHL SUB SWAP3 SWAP1 SWAP3 AND SWAP2 SWAP1 SWAP2 OR SWAP1 SSTORE MLOAD DUP1 MLOAD PUSH1 0x2 DUP7 ADD SWAP2 PUSH1 0x1 PUSH1 0x1 PUSH1 0x40 SHL SUB DUP3 GT PUSH2 0xAFB JUMPI DUP2 SWAP1 PUSH2 0x7AD DUP5 SLOAD PUSH2 0x13B6 JUMP JUMPDEST PUSH1 0x1F DUP2 GT PUSH2 0xC44 JUMPI JUMPDEST POP PUSH1 0x20 SWAP1 PUSH1 0x1F DUP4 GT PUSH1 0x1 EQ PUSH2 0xBDF JUMPI PUSH1 0x0 SWAP3 PUSH2 0xBD4 JUMPI JUMPDEST POP POP DUP2 PUSH1 0x1 SHL SWAP2 PUSH1 0x0 NOT SWAP1 PUSH1 0x3 SHL SHR NOT AND OR SWAP1 SSTORE JUMPDEST MLOAD DUP1 MLOAD PUSH1 0x3 DUP6 ADD SWAP2 PUSH1 0x1 PUSH1 0x1 PUSH1 0x40 SHL SUB DUP3 GT PUSH2 0xAFB JUMPI DUP2 SWAP1 PUSH2 0x804 DUP5 SLOAD PUSH2 0x13B6 JUMP JUMPDEST PUSH1 0x1F DUP2 GT PUSH2 0xB81 JUMPI JUMPDEST POP PUSH1 0x20 SWAP1 PUSH1 0x1F DUP4 GT PUSH1 0x1 EQ PUSH2 0xB1C JUMPI PUSH1 0x0 SWAP3 PUSH2 0xB11 JUMPI JUMPDEST POP POP DUP2 PUSH1 0x1 SHL SWAP2 PUSH1 0x0 NOT SWAP1 PUSH1 0x3 SHL SHR NOT AND OR SWAP1 SSTORE JUMPDEST MLOAD DUP1 MLOAD PUSH1 0x4 DUP5 ADD SWAP2 PUSH1 0x1 PUSH1 0x1 PUSH1 0x40 SHL SUB DUP3 GT PUSH2 0xAFB JUMPI PUSH2 0x859 DUP4 SLOAD PUSH2 0x13B6 JUMP JUMPDEST PUSH1 0x1F DUP2 GT PUSH2 0xAB3 JUMPI JUMPDEST POP PUSH1 0x20 SWAP1 PUSH1 0x1F DUP4 GT PUSH1 0x1 EQ PUSH2 0xA47 JUMPI PUSH1 0x6 SWAP6 SWAP5 SWAP4 SWAP3 SWAP2 PUSH1 0x0 SWAP2 DUP4 PUSH2 0xA3C JUMPI JUMPDEST POP POP DUP2 PUSH1 0x1 SHL SWAP2 PUSH1 0x0 NOT SWAP1 PUSH1 0x3 SHL SHR NOT AND OR SWAP1 SSTORE JUMPDEST MLOAD PUSH1 0x5 DUP3 ADD SSTORE ADD SWAP1 MLOAD SWAP4 PUSH1 0x3 DUP6 LT ISZERO PUSH2 0x5B2 JUMPI PUSH2 0x929 SWAP2 PUSH1 0x0 SWAP6 PUSH1 0xFF DUP1 NOT DUP4 SLOAD AND SWAP2 AND OR SWAP1 SSTORE PUSH1 0x40 MLOAD PUSH2 0x8C8 DUP2 PUSH2 0x1341 JUMP JUMPDEST DUP6 DUP2 MSTORE PUSH1 0x2 PUSH1 0x20 DUP3 ADD DUP8 DUP2 MSTORE PUSH1 0x40 DUP4 ADD SWAP1 DUP9 DUP3 MSTORE PUSH1 0x80 MLOAD DUP10 MSTORE DUP3 PUSH1 0x20 MSTORE PUSH1 0x40 DUP10 KECCAK256 SWAP4 MLOAD DUP5 SSTORE MLOAD PUSH1 0x1 DUP5 ADD SSTORE MLOAD SWAP2 ADD SSTORE PUSH1 0x80 MLOAD DUP6 MSTORE PUSH1 0x3 PUSH1 0x20 MSTORE PUSH1 0x40 DUP6 KECCAK256 PUSH1 0x40 MLOAD SWAP2 PUSH2 0x912 DUP4 PUSH2 0x1341 JUMP JUMPDEST CALLER DUP4 MSTORE DUP7 PUSH1 0x20 DUP5 ADD MSTORE PUSH2 0x2710 SUB PUSH1 0x40 DUP4 ADD MSTORE PUSH2 0x173C JUMP JUMPDEST PUSH1 0x80 MLOAD DUP4 MSTORE PUSH1 0x5 PUSH1 0x20 MSTORE PUSH1 0x40 DUP4 KECCAK256 PUSH1 0x1 DUP1 PUSH1 0xA0 SHL SUB CALLER AND DUP5 MSTORE PUSH1 0x20 MSTORE PUSH1 0x40 DUP4 KECCAK256 PUSH1 0x1 PUSH1 0xFF NOT DUP3 SLOAD AND OR SWAP1 SSTORE CALLER DUP4 MSTORE PUSH1 0x4 PUSH1 0x20 MSTORE PUSH2 0x96B PUSH1 0x80 MLOAD PUSH1 0x40 DUP6 KECCAK256 PUSH2 0x17C2 JUMP JUMPDEST DUP3 JUMPDEST DUP12 DUP2 LT PUSH2 0x9E8 JUMPI DUP11 DUP11 PUSH32 0x3488D52145F2DA8302F4410707E81EFDE09F4F605B2182BBFB96B966837E32CD DUP12 DUP12 PUSH2 0x9D9 PUSH2 0x9C6 DUP14 DUP14 PUSH2 0x9B8 PUSH1 0x40 MLOAD SWAP7 DUP8 SWAP7 PUSH1 0x60 DUP9 MSTORE PUSH1 0x60 DUP9 ADD SWAP2 PUSH2 0x17F7 JUMP JUMPDEST SWAP2 DUP6 DUP4 SUB PUSH1 0x20 DUP8 ADD MSTORE PUSH2 0x17F7 JUMP JUMPDEST DUP3 DUP2 SUB PUSH1 0x40 DUP5 ADD MSTORE CALLER SWAP7 PUSH1 0x80 MLOAD SWAP7 PUSH2 0x17F7 JUMP JUMPDEST SUB SWAP1 LOG3 PUSH1 0x20 PUSH1 0x40 MLOAD PUSH1 0x80 MLOAD DUP2 MSTORE RETURN JUMPDEST PUSH1 0x1 SWAP1 PUSH1 0x80 MLOAD DUP6 MSTORE PUSH1 0x3 PUSH1 0x20 MSTORE PUSH2 0xA36 DUP14 PUSH2 0xA08 DUP4 PUSH1 0x40 DUP10 KECCAK256 SWAP3 DUP9 PUSH2 0x16E6 JUMP JUMPDEST CALLDATALOAD SWAP1 PUSH2 0xA15 DUP5 DUP11 DUP9 PUSH2 0x16E6 JUMP JUMPDEST CALLDATALOAD SWAP2 PUSH1 0x40 MLOAD SWAP3 PUSH2 0xA24 DUP5 PUSH2 0x1341 JUMP JUMPDEST DUP10 DUP5 MSTORE PUSH1 0x20 DUP5 ADD MSTORE PUSH1 0x40 DUP4 ADD MSTORE PUSH2 0x173C JUMP JUMPDEST ADD PUSH2 0x96D JUMP JUMPDEST ADD MLOAD SWAP1 POP CODESIZE DUP1 PUSH2 0x881 JUMP JUMPDEST SWAP1 PUSH1 0x1F NOT DUP4 AND SWAP2 DUP5 PUSH1 0x0 MSTORE DUP2 PUSH1 0x0 KECCAK256 SWAP3 PUSH1 0x0 JUMPDEST DUP2 DUP2 LT PUSH2 0xA9B JUMPI POP SWAP2 PUSH1 0x1 SWAP4 SWAP2 DUP6 PUSH1 0x6 SWAP10 SWAP9 SWAP8 SWAP7 SWAP5 LT PUSH2 0xA82 JUMPI JUMPDEST POP POP POP DUP2 SHL ADD SWAP1 SSTORE PUSH2 0x896 JUMP JUMPDEST ADD MLOAD PUSH1 0x0 NOT PUSH1 0xF8 DUP5 PUSH1 0x3 SHL AND SHR NOT AND SWAP1 SSTORE CODESIZE DUP1 DUP1 PUSH2 0xA75 JUMP JUMPDEST SWAP3 SWAP4 PUSH1 0x20 PUSH1 0x1 DUP2 SWAP3 DUP8 DUP7 ADD MLOAD DUP2 SSTORE ADD SWAP6 ADD SWAP4 ADD PUSH2 0xA5A JUMP JUMPDEST DUP4 PUSH1 0x0 MSTORE PUSH1 0x20 PUSH1 0x0 KECCAK256 PUSH1 0x1F DUP5 ADD PUSH1 0x5 SHR DUP2 ADD SWAP2 PUSH1 0x20 DUP6 LT PUSH2 0xAF1 JUMPI JUMPDEST PUSH1 0x1F ADD PUSH1 0x5 SHR ADD SWAP1 JUMPDEST DUP2 DUP2 LT PUSH2 0xAE5 JUMPI POP PUSH2 0x862 JUMP JUMPDEST PUSH1 0x0 DUP2 SSTORE PUSH1 0x1 ADD PUSH2 0xAD8 JUMP JUMPDEST SWAP1 SWAP2 POP DUP2 SWAP1 PUSH2 0xACF JUMP JUMPDEST PUSH4 0x4E487B71 PUSH1 0xE0 SHL PUSH1 0x0 MSTORE PUSH1 0x41 PUSH1 0x4 MSTORE PUSH1 0x24 PUSH1 0x0 REVERT JUMPDEST ADD MLOAD SWAP1 POP CODESIZE DUP1 PUSH2 0x824 JUMP JUMPDEST PUSH1 0x0 DUP6 DUP2 MSTORE DUP3 DUP2 KECCAK256 SWAP4 POP PUSH1 0x1F NOT DUP6 AND SWAP1 JUMPDEST DUP2 DUP2 LT PUSH2 0xB69 JUMPI POP SWAP1 DUP5 PUSH1 0x1 SWAP6 SWAP5 SWAP4 SWAP3 LT PUSH2 0xB50 JUMPI JUMPDEST POP POP POP DUP2 SHL ADD SWAP1 SSTORE PUSH2 0x839 JUMP JUMPDEST ADD MLOAD PUSH1 0x0 NOT PUSH1 0xF8 DUP5 PUSH1 0x3 SHL AND SHR NOT AND SWAP1 SSTORE CODESIZE DUP1 DUP1 PUSH2 0xB43 JUMP JUMPDEST SWAP3 SWAP4 PUSH1 0x20 PUSH1 0x1 DUP2 SWAP3 DUP8 DUP7 ADD MLOAD DUP2 SSTORE ADD SWAP6 ADD SWAP4 ADD PUSH2 0xB2D JUMP JUMPDEST SWAP1 SWAP2 POP DUP4 PUSH1 0x0 MSTORE PUSH1 0x20 PUSH1 0x0 KECCAK256 PUSH1 0x1F DUP5 ADD PUSH1 0x5 SHR DUP2 ADD SWAP2 PUSH1 0x20 DUP6 LT PUSH2 0xBCA JUMPI JUMPDEST SWAP1 PUSH1 0x1F DUP6 SWAP5 SWAP4 SWAP3 ADD PUSH1 0x5 SHR ADD SWAP1 JUMPDEST DUP2 DUP2 LT PUSH2 0xBBB JUMPI POP PUSH2 0x80D JUMP JUMPDEST PUSH1 0x0 DUP2 SSTORE DUP5 SWAP4 POP PUSH1 0x1 ADD PUSH2 0xBAE JUMP JUMPDEST SWAP1 SWAP2 POP DUP2 SWAP1 PUSH2 0xBA0 JUMP JUMPDEST ADD MLOAD SWAP1 POP CODESIZE DUP1 PUSH2 0x7CD JUMP JUMPDEST PUSH1 0x0 DUP6 DUP2 MSTORE DUP3 DUP2 KECCAK256 SWAP4 POP PUSH1 0x1F NOT DUP6 AND SWAP1 JUMPDEST DUP2 DUP2 LT PUSH2 0xC2C JUMPI POP SWAP1 DUP5 PUSH1 0x1 SWAP6 SWAP5 SWAP4 SWAP3 LT PUSH2 0xC13 JUMPI JUMPDEST POP POP POP DUP2 SHL ADD SWAP1 SSTORE PUSH2 0x7E2 JUMP JUMPDEST ADD MLOAD PUSH1 0x0 NOT PUSH1 0xF8 DUP5 PUSH1 0x3 SHL AND SHR NOT AND SWAP1 SSTORE CODESIZE DUP1 DUP1 PUSH2 0xC06 JUMP JUMPDEST SWAP3 SWAP4 PUSH1 0x20 PUSH1 0x1 DUP2 SWAP3 DUP8 DUP7 ADD MLOAD DUP2 SSTORE ADD SWAP6 ADD SWAP4 ADD PUSH2 0xBF0 JUMP JUMPDEST SWAP1 SWAP2 POP DUP4 PUSH1 0x0 MSTORE PUSH1 0x20 PUSH1 0x0 KECCAK256 PUSH1 0x1F DUP5 ADD PUSH1 0x5 SHR DUP2 ADD SWAP2 PUSH1 0x20 DUP6 LT PUSH2 0xC8D JUMPI JUMPDEST SWAP1 PUSH1 0x1F DUP6 SWAP5 SWAP4 SWAP3 ADD PUSH1 0x5 SHR ADD SWAP1 JUMPDEST DUP2 DUP2 LT PUSH2 0xC7E JUMPI POP PUSH2 0x7B6 JUMP JUMPDEST PUSH1 0x0 DUP2 SSTORE DUP5 SWAP4 POP PUSH1 0x1 ADD PUSH2 0xC71 JUMP JUMPDEST SWAP1 SWAP2 POP DUP2 SWAP1 PUSH2 0xC63 JUMP JUMPDEST PUSH1 0x0 PUSH2 0x6E6 JUMP JUMPDEST PUSH4 0x7816661 PUSH1 0xE5 SHL PUSH1 0x0 MSTORE PUSH1 0x4 PUSH1 0x0 REVERT JUMPDEST PUSH4 0x4E487B71 PUSH1 0xE0 SHL PUSH1 0x0 MSTORE PUSH1 0x11 PUSH1 0x4 MSTORE PUSH1 0x24 PUSH1 0x0 REVERT JUMPDEST DUP3 PUSH4 0x4A314147 PUSH1 0xE0 SHL PUSH1 0x0 MSTORE PUSH1 0x4 MSTORE PUSH1 0x24 PUSH1 0x0 REVERT JUMPDEST SWAP3 PUSH2 0xCE6 DUP5 DUP14 DUP6 PUSH2 0x16E6 JUMP JUMPDEST CALLDATALOAD ISZERO DUP5 DUP14 DUP3 ISZERO PUSH2 0xD36 JUMPI JUMPDEST POP POP PUSH2 0xD16 JUMPI PUSH2 0xD0F PUSH1 0x1 SWAP2 PUSH2 0xD08 DUP7 DUP16 DUP8 PUSH2 0x16E6 JUMP JUMPDEST CALLDATALOAD SWAP1 PUSH2 0x14EA JUMP JUMPDEST SWAP4 ADD PUSH2 0x6A4 JUMP JUMPDEST PUSH2 0xD21 DUP5 DUP14 DUP6 PUSH2 0x16E6 JUMP JUMPDEST CALLDATALOAD PUSH4 0x447E90BF PUSH1 0xE1 SHL PUSH1 0x0 MSTORE PUSH1 0x4 MSTORE PUSH1 0x24 PUSH1 0x0 REVERT JUMPDEST PUSH2 0x2710 SWAP3 POP SWAP1 PUSH2 0xD46 SWAP2 DUP7 PUSH2 0x16E6 JUMP JUMPDEST CALLDATALOAD GT DUP5 DUP14 PUSH2 0xCF1 JUMP JUMPDEST PUSH4 0x512509D3 PUSH1 0xE1 SHL PUSH1 0x0 MSTORE PUSH1 0x4 PUSH1 0x0 REVERT JUMPDEST PUSH4 0x52DDCDEF PUSH1 0xE1 SHL PUSH1 0x0 MSTORE PUSH1 0x4 PUSH1 0x0 REVERT JUMPDEST CALLVALUE PUSH2 0x13B JUMPI PUSH1 0x0 CALLDATASIZE PUSH1 0x3 NOT ADD SLT PUSH2 0x13B JUMPI PUSH1 0x20 PUSH1 0x0 SLOAD PUSH1 0x40 MLOAD SWAP1 DUP2 MSTORE RETURN JUMPDEST CALLVALUE PUSH2 0x13B JUMPI PUSH1 0x20 CALLDATASIZE PUSH1 0x3 NOT ADD SLT PUSH2 0x13B JUMPI PUSH2 0xDA8 PUSH2 0x152A JUMP JUMPDEST POP PUSH1 0x4 CALLDATALOAD PUSH1 0x0 MSTORE PUSH1 0x2 PUSH1 0x20 MSTORE PUSH1 0x60 PUSH1 0x40 PUSH1 0x0 KECCAK256 PUSH1 0x2 PUSH1 0x40 MLOAD SWAP2 PUSH2 0xDCA DUP4 PUSH2 0x1341 JUMP JUMPDEST DUP1 SLOAD DUP4 MSTORE PUSH1 0x1 DUP2 ADD SLOAD PUSH1 0x20 DUP5 ADD MSTORE ADD SLOAD PUSH1 0x40 DUP3 ADD MSTORE PUSH2 0x360 PUSH1 0x40 MLOAD DUP1 SWAP3 PUSH1 0x40 DUP1 SWAP2 DUP1 MLOAD DUP5 MSTORE PUSH1 0x20 DUP2 ADD MLOAD PUSH1 0x20 DUP6 ADD MSTORE ADD MLOAD SWAP2 ADD MSTORE JUMP JUMPDEST CALLVALUE PUSH2 0x13B JUMPI PUSH1 0x60 CALLDATASIZE PUSH1 0x3 NOT ADD SLT PUSH2 0x13B JUMPI PUSH2 0xE22 PUSH1 0x44 CALLDATALOAD PUSH1 0x24 CALLDATALOAD PUSH1 0x4 CALLDATALOAD PUSH2 0x155D JUMP JUMPDEST PUSH1 0x40 MLOAD DUP1 SWAP2 PUSH1 0x20 DUP3 ADD PUSH1 0x20 DUP4 MSTORE DUP2 MLOAD DUP1 SWAP2 MSTORE PUSH1 0x20 PUSH1 0x40 DUP5 ADD SWAP3 ADD SWAP1 PUSH1 0x0 JUMPDEST DUP2 DUP2 LT PUSH2 0xE4E JUMPI POP POP POP SUB SWAP1 RETURN JUMPDEST DUP3 MLOAD DUP1 MLOAD PUSH1 0x1 PUSH1 0x1 PUSH1 0xA0 SHL SUB AND DUP6 MSTORE PUSH1 0x20 DUP2 DUP2 ADD MLOAD DUP2 DUP8 ADD MSTORE PUSH1 0x40 SWAP2 DUP3 ADD MLOAD SWAP2 DUP7 ADD SWAP2 SWAP1 SWAP2 MSTORE DUP7 SWAP6 POP PUSH1 0x60 SWAP1 SWAP5 ADD SWAP4 SWAP1 SWAP3 ADD SWAP2 PUSH1 0x1 ADD PUSH2 0xE40 JUMP JUMPDEST CALLVALUE PUSH2 0x13B JUMPI PUSH1 0x40 CALLDATASIZE PUSH1 0x3 NOT ADD SLT PUSH2 0x13B JUMPI PUSH1 0x4 CALLDATALOAD PUSH1 0x24 CALLDATALOAD SWAP1 DUP1 PUSH1 0x0 MSTORE PUSH1 0x1 PUSH1 0x20 MSTORE PUSH1 0x40 PUSH1 0x0 KECCAK256 DUP1 SLOAD ISZERO PUSH2 0x5C8 JUMPI PUSH1 0x6 ADD SLOAD PUSH1 0xFF AND SWAP2 PUSH1 0x3 DUP4 LT ISZERO PUSH2 0x5B2 JUMPI PUSH1 0x2 DUP4 EQ PUSH2 0x112A JUMPI PUSH1 0x0 SWAP3 ISZERO PUSH2 0x1116 JUMPI DUP1 ISZERO PUSH2 0x1107 JUMPI PUSH1 0x40 MLOAD PUSH4 0x23B872DD PUSH1 0xE0 SHL DUP2 MSTORE CALLER PUSH1 0x4 DUP3 ADD MSTORE ADDRESS PUSH1 0x24 DUP3 ADD MSTORE PUSH1 0x44 DUP2 ADD DUP3 SWAP1 MSTORE PUSH32 0x0 PUSH1 0x1 PUSH1 0x1 PUSH1 0xA0 SHL SUB AND SWAP1 PUSH1 0x20 DUP2 PUSH1 0x64 DUP2 DUP9 DUP7 GAS CALL SWAP1 DUP2 ISZERO PUSH2 0x10FC JUMPI DUP6 SWAP2 PUSH2 0x10DD JUMPI JUMPDEST POP ISZERO PUSH2 0x10CE JUMPI DUP3 DUP5 MSTORE PUSH1 0x3 PUSH1 0x20 MSTORE PUSH1 0x40 DUP5 KECCAK256 DUP5 JUMPDEST DUP2 SLOAD DUP2 LT ISZERO PUSH2 0x1019 JUMPI PUSH1 0x2 PUSH2 0xF69 DUP3 DUP5 PUSH2 0x14B8 JUMP JUMPDEST POP ADD SLOAD SWAP1 DUP2 DUP6 MUL SWAP2 DUP6 DUP4 DIV SUB PUSH2 0x1005 JUMPI PUSH2 0x2710 PUSH2 0xF86 DUP3 DUP6 PUSH2 0x14B8 JUMP JUMPDEST POP SLOAD PUSH1 0x40 MLOAD PUSH4 0xA9059CBB PUSH1 0xE0 SHL DUP2 MSTORE PUSH1 0x1 PUSH1 0x1 PUSH1 0xA0 SHL SUB SWAP1 SWAP2 AND PUSH1 0x4 DUP3 ADD MSTORE SWAP3 DIV PUSH1 0x24 DUP4 ADD MSTORE PUSH1 0x20 DUP3 PUSH1 0x44 DUP2 DUP11 DUP9 GAS CALL SWAP2 DUP3 ISZERO PUSH2 0xFFA JUMPI PUSH1 0x1 SWAP3 PUSH2 0xFCC JUMPI JUMPDEST POP ADD PUSH2 0xF54 JUMP JUMPDEST PUSH2 0xFEC SWAP1 PUSH1 0x20 RETURNDATASIZE DUP2 GT PUSH2 0xFF3 JUMPI JUMPDEST PUSH2 0xFE4 DUP2 DUP4 PUSH2 0x135C JUMP JUMPDEST DUP2 ADD SWAP1 PUSH2 0x14A0 JUMP JUMPDEST POP DUP8 PUSH2 0xFC5 JUMP JUMPDEST POP RETURNDATASIZE PUSH2 0xFDA JUMP JUMPDEST PUSH1 0x40 MLOAD RETURNDATASIZE DUP10 DUP3 RETURNDATACOPY RETURNDATASIZE SWAP1 REVERT JUMPDEST PUSH4 0x4E487B71 PUSH1 0xE0 SHL DUP8 MSTORE PUSH1 0x11 PUSH1 0x4 MSTORE PUSH1 0x24 DUP8 REVERT JUMPDEST POP POP POP SWAP1 DUP1 DUP4 MSTORE PUSH1 0x2 PUSH1 0x20 MSTORE PUSH1 0x40 DUP4 KECCAK256 PUSH2 0x1034 DUP4 DUP3 SLOAD PUSH2 0x14EA JUMP JUMPDEST DUP2 SSTORE PUSH1 0x1 DUP2 ADD PUSH2 0x1044 DUP2 SLOAD PUSH2 0x14F7 JUMP JUMPDEST SWAP1 SSTORE DUP2 DUP5 MSTORE PUSH1 0x6 PUSH1 0x20 SWAP1 DUP2 MSTORE PUSH1 0x40 DUP1 DUP7 KECCAK256 CALLER DUP8 MSTORE SWAP1 SWAP2 MSTORE DUP5 KECCAK256 SLOAD PUSH1 0xFF AND ISZERO PUSH2 0x1097 JUMPI JUMPDEST POP PUSH1 0x40 MLOAD SWAP2 DUP3 MSTORE PUSH32 0xE555DA28BDB778F65D22794D88927EBAECA03F7DE9D1B7D39245BC8FB5CA078A PUSH1 0x20 CALLER SWAP4 LOG3 DUP1 RETURN JUMPDEST PUSH1 0x2 ADD PUSH2 0x10A4 DUP2 SLOAD PUSH2 0x14F7 JUMP JUMPDEST SWAP1 SSTORE DUP1 DUP4 MSTORE PUSH1 0x6 PUSH1 0x20 SWAP1 DUP2 MSTORE PUSH1 0x40 DUP1 DUP6 KECCAK256 CALLER DUP7 MSTORE SWAP1 SWAP2 MSTORE DUP4 KECCAK256 DUP1 SLOAD PUSH1 0xFF NOT AND PUSH1 0x1 OR SWAP1 SSTORE DUP4 PUSH2 0x1067 JUMP JUMPDEST PUSH4 0x12171D83 PUSH1 0xE3 SHL DUP5 MSTORE PUSH1 0x4 DUP5 REVERT JUMPDEST PUSH2 0x10F6 SWAP2 POP PUSH1 0x20 RETURNDATASIZE PUSH1 0x20 GT PUSH2 0xFF3 JUMPI PUSH2 0xFE4 DUP2 DUP4 PUSH2 0x135C JUMP JUMPDEST DUP6 PUSH2 0xF40 JUMP JUMPDEST PUSH1 0x40 MLOAD RETURNDATASIZE DUP8 DUP3 RETURNDATACOPY RETURNDATASIZE SWAP1 REVERT JUMPDEST PUSH4 0xBDD5839B PUSH1 0xE0 SHL DUP4 MSTORE PUSH1 0x4 DUP4 REVERT JUMPDEST PUSH4 0xDA8944ED PUSH1 0xE0 SHL DUP4 MSTORE PUSH1 0x4 DUP3 SWAP1 MSTORE PUSH1 0x24 DUP4 REVERT JUMPDEST POP PUSH4 0x423B515F PUSH1 0xE0 SHL PUSH1 0x0 MSTORE PUSH1 0x4 MSTORE PUSH1 0x24 PUSH1 0x0 REVERT JUMPDEST CALLVALUE PUSH2 0x13B JUMPI PUSH1 0x20 CALLDATASIZE PUSH1 0x3 NOT ADD SLT PUSH2 0x13B JUMPI PUSH2 0x1158 PUSH2 0x137D JUMP JUMPDEST POP PUSH1 0x4 CALLDATALOAD PUSH1 0x0 MSTORE PUSH1 0x1 PUSH1 0x20 MSTORE PUSH2 0x11F4 PUSH1 0x40 PUSH1 0x0 KECCAK256 PUSH2 0x11E0 PUSH1 0xFF PUSH1 0x6 PUSH1 0x40 MLOAD SWAP4 PUSH2 0x1180 DUP6 PUSH2 0x1326 JUMP JUMPDEST DUP1 SLOAD DUP6 MSTORE PUSH1 0x1 DUP2 ADD SLOAD PUSH1 0x1 PUSH1 0x1 PUSH1 0xA0 SHL SUB AND PUSH1 0x20 DUP7 ADD MSTORE PUSH2 0x11A3 PUSH1 0x2 DUP3 ADD PUSH2 0x13F0 JUMP JUMPDEST PUSH1 0x40 DUP7 ADD MSTORE PUSH2 0x11B4 PUSH1 0x3 DUP3 ADD PUSH2 0x13F0 JUMP JUMPDEST PUSH1 0x60 DUP7 ADD MSTORE PUSH2 0x11C5 PUSH1 0x4 DUP3 ADD PUSH2 0x13F0 JUMP JUMPDEST PUSH1 0x80 DUP7 ADD MSTORE PUSH1 0x5 DUP2 ADD SLOAD PUSH1 0xA0 DUP7 ADD MSTORE ADD SLOAD AND PUSH1 0xC0 DUP4 ADD PUSH2 0x1494 JUMP JUMPDEST PUSH1 0x40 MLOAD SWAP2 DUP3 SWAP2 PUSH1 0x20 DUP4 MSTORE PUSH1 0x20 DUP4 ADD SWAP1 PUSH2 0x1239 JUMP JUMPDEST SUB SWAP1 RETURN JUMPDEST SWAP2 SWAP1 DUP3 MLOAD SWAP3 DUP4 DUP3 MSTORE PUSH1 0x0 JUMPDEST DUP5 DUP2 LT PUSH2 0x1224 JUMPI POP POP DUP3 PUSH1 0x0 PUSH1 0x20 DUP1 SWAP5 SWAP6 DUP5 ADD ADD MSTORE PUSH1 0x1F DUP1 NOT SWAP2 ADD AND ADD ADD SWAP1 JUMP JUMPDEST DUP1 PUSH1 0x20 DUP1 SWAP3 DUP5 ADD ADD MLOAD DUP3 DUP3 DUP7 ADD ADD MSTORE ADD PUSH2 0x1203 JUMP JUMPDEST SWAP1 DUP2 MLOAD DUP2 MSTORE PUSH1 0x1 DUP1 PUSH1 0xA0 SHL SUB PUSH1 0x20 DUP4 ADD MLOAD AND PUSH1 0x20 DUP3 ADD MSTORE PUSH1 0xC0 PUSH2 0x1295 PUSH2 0x1283 PUSH2 0x1271 PUSH1 0x40 DUP7 ADD MLOAD PUSH1 0xE0 PUSH1 0x40 DUP8 ADD MSTORE PUSH1 0xE0 DUP7 ADD SWAP1 PUSH2 0x11F8 JUMP JUMPDEST PUSH1 0x60 DUP7 ADD MLOAD DUP6 DUP3 SUB PUSH1 0x60 DUP8 ADD MSTORE PUSH2 0x11F8 JUMP JUMPDEST PUSH1 0x80 DUP6 ADD MLOAD DUP5 DUP3 SUB PUSH1 0x80 DUP7 ADD MSTORE PUSH2 0x11F8 JUMP JUMPDEST SWAP3 PUSH1 0xA0 DUP2 ADD MLOAD PUSH1 0xA0 DUP5 ADD MSTORE ADD MLOAD SWAP1 PUSH1 0x3 DUP3 LT ISZERO PUSH2 0x5B2 JUMPI PUSH1 0xC0 ADD MSTORE SWAP1 JUMP JUMPDEST SWAP2 DUP2 PUSH1 0x1F DUP5 ADD SLT ISZERO PUSH2 0x13B JUMPI DUP3 CALLDATALOAD SWAP2 PUSH1 0x1 PUSH1 0x1 PUSH1 0x40 SHL SUB DUP4 GT PUSH2 0x13B JUMPI PUSH1 0x20 DUP4 DUP2 DUP7 ADD SWAP6 ADD ADD GT PUSH2 0x13B JUMPI JUMP JUMPDEST SWAP2 DUP2 PUSH1 0x1F DUP5 ADD SLT ISZERO PUSH2 0x13B JUMPI DUP3 CALLDATALOAD SWAP2 PUSH1 0x1 PUSH1 0x1 PUSH1 0x40 SHL SUB DUP4 GT PUSH2 0x13B JUMPI PUSH1 0x20 DUP1 DUP6 ADD SWAP5 DUP5 PUSH1 0x5 SHL ADD ADD GT PUSH2 0x13B JUMPI JUMP JUMPDEST PUSH1 0x4 CALLDATALOAD SWAP1 PUSH1 0x1 PUSH1 0x1 PUSH1 0xA0 SHL SUB DUP3 AND DUP3 SUB PUSH2 0x13B JUMPI JUMP JUMPDEST PUSH1 0xE0 DUP2 ADD SWAP1 DUP2 LT PUSH1 0x1 PUSH1 0x1 PUSH1 0x40 SHL SUB DUP3 GT OR PUSH2 0xAFB JUMPI PUSH1 0x40 MSTORE JUMP JUMPDEST PUSH1 0x60 DUP2 ADD SWAP1 DUP2 LT PUSH1 0x1 PUSH1 0x1 PUSH1 0x40 SHL SUB DUP3 GT OR PUSH2 0xAFB JUMPI PUSH1 0x40 MSTORE JUMP JUMPDEST SWAP1 PUSH1 0x1F DUP1 NOT SWAP2 ADD AND DUP2 ADD SWAP1 DUP2 LT PUSH1 0x1 PUSH1 0x1 PUSH1 0x40 SHL SUB DUP3 GT OR PUSH2 0xAFB JUMPI PUSH1 0x40 MSTORE JUMP JUMPDEST PUSH1 0x40 MLOAD SWAP1 PUSH2 0x138A DUP3 PUSH2 0x1326 JUMP JUMPDEST PUSH1 0x0 PUSH1 0xC0 DUP4 DUP3 DUP2 MSTORE DUP3 PUSH1 0x20 DUP3 ADD MSTORE PUSH1 0x60 PUSH1 0x40 DUP3 ADD MSTORE PUSH1 0x60 DUP1 DUP3 ADD MSTORE PUSH1 0x60 PUSH1 0x80 DUP3 ADD MSTORE DUP3 PUSH1 0xA0 DUP3 ADD MSTORE ADD MSTORE JUMP JUMPDEST SWAP1 PUSH1 0x1 DUP3 DUP2 SHR SWAP3 AND DUP1 ISZERO PUSH2 0x13E6 JUMPI JUMPDEST PUSH1 0x20 DUP4 LT EQ PUSH2 0x13D0 JUMPI JUMP JUMPDEST PUSH4 0x4E487B71 PUSH1 0xE0 SHL PUSH1 0x0 MSTORE PUSH1 0x22 PUSH1 0x4 MSTORE PUSH1 0x24 PUSH1 0x0 REVERT JUMPDEST SWAP2 PUSH1 0x7F AND SWAP2 PUSH2 0x13C5 JUMP JUMPDEST SWAP1 PUSH1 0x40 MLOAD SWAP2 DUP3 PUSH1 0x0 DUP3 SLOAD SWAP3 PUSH2 0x1404 DUP5 PUSH2 0x13B6 JUMP JUMPDEST DUP1 DUP5 MSTORE SWAP4 PUSH1 0x1 DUP2 AND SWAP1 DUP2 ISZERO PUSH2 0x1472 JUMPI POP PUSH1 0x1 EQ PUSH2 0x142B JUMPI JUMPDEST POP PUSH2 0x1429 SWAP3 POP SUB DUP4 PUSH2 0x135C JUMP JUMPDEST JUMP JUMPDEST SWAP1 POP PUSH1 0x0 SWAP3 SWAP2 SWAP3 MSTORE PUSH1 0x20 PUSH1 0x0 KECCAK256 SWAP1 PUSH1 0x0 SWAP2 JUMPDEST DUP2 DUP4 LT PUSH2 0x1456 JUMPI POP POP SWAP1 PUSH1 0x20 PUSH2 0x1429 SWAP3 DUP3 ADD ADD CODESIZE PUSH2 0x141C JUMP JUMPDEST PUSH1 0x20 SWAP2 SWAP4 POP DUP1 PUSH1 0x1 SWAP2 SLOAD DUP4 DUP6 DUP10 ADD ADD MSTORE ADD SWAP2 ADD SWAP1 SWAP2 DUP5 SWAP3 PUSH2 0x143D JUMP JUMPDEST SWAP1 POP PUSH1 0x20 SWAP3 POP PUSH2 0x1429 SWAP5 SWAP2 POP PUSH1 0xFF NOT AND DUP3 DUP5 ADD MSTORE ISZERO ISZERO PUSH1 0x5 SHL DUP3 ADD ADD CODESIZE PUSH2 0x141C JUMP JUMPDEST PUSH1 0x3 DUP3 LT ISZERO PUSH2 0x5B2 JUMPI MSTORE JUMP JUMPDEST SWAP1 DUP2 PUSH1 0x20 SWAP2 SUB SLT PUSH2 0x13B JUMPI MLOAD DUP1 ISZERO ISZERO DUP2 SUB PUSH2 0x13B JUMPI SWAP1 JUMP JUMPDEST DUP1 SLOAD DUP3 LT ISZERO PUSH2 0x14D4 JUMPI PUSH1 0x0 MSTORE PUSH1 0x3 PUSH1 0x20 PUSH1 0x0 KECCAK256 SWAP2 MUL ADD SWAP1 PUSH1 0x0 SWAP1 JUMP JUMPDEST PUSH4 0x4E487B71 PUSH1 0xE0 SHL PUSH1 0x0 MSTORE PUSH1 0x32 PUSH1 0x4 MSTORE PUSH1 0x24 PUSH1 0x0 REVERT JUMPDEST SWAP2 SWAP1 DUP3 ADD DUP1 SWAP3 GT PUSH2 0xCAF JUMPI JUMP JUMPDEST PUSH1 0x0 NOT DUP2 EQ PUSH2 0xCAF JUMPI PUSH1 0x1 ADD SWAP1 JUMP JUMPDEST SWAP2 SWAP1 DUP3 SUB SWAP2 DUP3 GT PUSH2 0xCAF JUMPI JUMP JUMPDEST PUSH1 0x1 PUSH1 0x1 PUSH1 0x40 SHL SUB DUP2 GT PUSH2 0xAFB JUMPI PUSH1 0x5 SHL PUSH1 0x20 ADD SWAP1 JUMP JUMPDEST PUSH1 0x40 MLOAD SWAP1 PUSH2 0x1537 DUP3 PUSH2 0x1341 JUMP JUMPDEST PUSH1 0x0 PUSH1 0x40 DUP4 DUP3 DUP2 MSTORE DUP3 PUSH1 0x20 DUP3 ADD MSTORE ADD MSTORE JUMP JUMPDEST DUP1 MLOAD DUP3 LT ISZERO PUSH2 0x14D4 JUMPI PUSH1 0x20 SWAP2 PUSH1 0x5 SHL ADD ADD SWAP1 JUMP JUMPDEST SWAP3 SWAP2 SWAP1 DUP4 PUSH1 0x0 MSTORE PUSH1 0x1 PUSH1 0x20 MSTORE PUSH1 0x40 PUSH1 0x0 KECCAK256 SLOAD ISZERO PUSH2 0x16D1 JUMPI DUP4 PUSH1 0x0 MSTORE PUSH1 0x3 PUSH1 0x20 MSTORE PUSH1 0x40 PUSH1 0x0 KECCAK256 SLOAD DUP2 GT PUSH1 0x0 EQ PUSH2 0x15CA JUMPI POP POP PUSH1 0x40 MLOAD SWAP1 SWAP2 POP PUSH1 0x0 PUSH2 0x15A1 PUSH1 0x20 DUP4 PUSH2 0x135C JUMP JUMPDEST DUP2 MSTORE PUSH1 0x0 DUP1 JUMPDEST DUP2 DUP2 LT PUSH2 0x15B3 JUMPI POP POP SWAP1 JUMP JUMPDEST PUSH1 0x20 SWAP1 PUSH2 0x15BE PUSH2 0x152A JUMP JUMPDEST DUP3 DUP3 DUP7 ADD ADD MSTORE ADD PUSH2 0x15A7 JUMP JUMPDEST PUSH2 0x15D4 DUP3 DUP3 PUSH2 0x14EA JUMP JUMPDEST DUP5 PUSH1 0x0 MSTORE PUSH1 0x3 PUSH1 0x20 MSTORE PUSH1 0x40 PUSH1 0x0 KECCAK256 SLOAD LT PUSH2 0x16B1 JUMPI JUMPDEST PUSH2 0x15F2 DUP3 PUSH2 0x1513 JUMP JUMPDEST SWAP1 PUSH2 0x1600 PUSH1 0x40 MLOAD SWAP3 DUP4 PUSH2 0x135C JUMP JUMPDEST DUP3 DUP3 MSTORE PUSH1 0x1F NOT PUSH2 0x160F DUP5 PUSH2 0x1513 JUMP JUMPDEST ADD PUSH1 0x0 JUMPDEST DUP2 DUP2 LT PUSH2 0x169A JUMPI POP POP DUP2 SWAP5 PUSH1 0x0 JUMPDEST DUP5 DUP2 LT PUSH2 0x162F JUMPI POP POP POP POP POP JUMP JUMPDEST PUSH1 0x1 SWAP1 DUP3 PUSH1 0x0 MSTORE PUSH1 0x3 PUSH1 0x20 MSTORE PUSH2 0x1653 PUSH1 0x40 PUSH1 0x0 KECCAK256 PUSH2 0x164D DUP7 DUP5 PUSH2 0x14EA JUMP JUMPDEST SWAP1 PUSH2 0x14B8 JUMP JUMPDEST POP PUSH1 0x2 PUSH1 0x40 MLOAD SWAP2 PUSH2 0x1663 DUP4 PUSH2 0x1341 JUMP JUMPDEST DUP5 DUP1 PUSH1 0xA0 SHL SUB DUP2 SLOAD AND DUP4 MSTORE DUP5 DUP2 ADD SLOAD PUSH1 0x20 DUP5 ADD MSTORE ADD SLOAD PUSH1 0x40 DUP3 ADD MSTORE PUSH2 0x1688 DUP3 DUP8 PUSH2 0x1549 JUMP JUMPDEST MSTORE PUSH2 0x1693 DUP2 DUP7 PUSH2 0x1549 JUMP JUMPDEST POP ADD PUSH2 0x1621 JUMP JUMPDEST PUSH1 0x20 SWAP1 PUSH2 0x16A5 PUSH2 0x152A JUMP JUMPDEST DUP3 DUP3 DUP8 ADD ADD MSTORE ADD PUSH2 0x1613 JUMP JUMPDEST SWAP1 POP DUP3 PUSH1 0x0 MSTORE PUSH1 0x3 PUSH1 0x20 MSTORE PUSH2 0x16CB DUP2 PUSH1 0x40 PUSH1 0x0 KECCAK256 SLOAD PUSH2 0x1506 JUMP JUMPDEST SWAP1 PUSH2 0x15E9 JUMP JUMPDEST DUP4 PUSH4 0x2AD8815 PUSH1 0xE4 SHL PUSH1 0x0 MSTORE PUSH1 0x4 MSTORE PUSH1 0x24 PUSH1 0x0 REVERT JUMPDEST SWAP2 SWAP1 DUP2 LT ISZERO PUSH2 0x14D4 JUMPI PUSH1 0x5 SHL ADD SWAP1 JUMP JUMPDEST SWAP3 SWAP2 SWAP3 PUSH1 0x1 PUSH1 0x1 PUSH1 0x40 SHL SUB DUP3 GT PUSH2 0xAFB JUMPI PUSH1 0x40 MLOAD SWAP2 PUSH2 0x171F PUSH1 0x1F DUP3 ADD PUSH1 0x1F NOT AND PUSH1 0x20 ADD DUP5 PUSH2 0x135C JUMP JUMPDEST DUP3 SWAP5 DUP2 DUP5 MSTORE DUP2 DUP4 ADD GT PUSH2 0x13B JUMPI DUP3 DUP2 PUSH1 0x20 SWAP4 DUP5 PUSH1 0x0 SWAP7 ADD CALLDATACOPY ADD ADD MSTORE JUMP JUMPDEST DUP1 SLOAD PUSH1 0x1 PUSH1 0x40 SHL DUP2 LT ISZERO PUSH2 0xAFB JUMPI PUSH2 0x1759 SWAP2 PUSH1 0x1 DUP3 ADD DUP2 SSTORE PUSH2 0x14B8 JUMP JUMPDEST SWAP2 SWAP1 SWAP2 PUSH2 0x1794 JUMPI DUP1 MLOAD DUP3 SLOAD PUSH1 0x1 PUSH1 0x1 PUSH1 0xA0 SHL SUB NOT AND PUSH1 0x1 PUSH1 0x1 PUSH1 0xA0 SHL SUB SWAP2 SWAP1 SWAP2 AND OR DUP3 SSTORE PUSH1 0x20 DUP2 ADD MLOAD PUSH1 0x1 DUP4 ADD SSTORE PUSH1 0x40 ADD MLOAD PUSH1 0x2 SWAP2 SWAP1 SWAP2 ADD SSTORE JUMP JUMPDEST PUSH4 0x4E487B71 PUSH1 0xE0 SHL PUSH1 0x0 MSTORE PUSH1 0x0 PUSH1 0x4 MSTORE PUSH1 0x24 PUSH1 0x0 REVERT JUMPDEST DUP1 SLOAD DUP3 LT ISZERO PUSH2 0x14D4 JUMPI PUSH1 0x0 MSTORE PUSH1 0x20 PUSH1 0x0 KECCAK256 ADD SWAP1 PUSH1 0x0 SWAP1 JUMP JUMPDEST DUP1 SLOAD PUSH1 0x1 PUSH1 0x40 SHL DUP2 LT ISZERO PUSH2 0xAFB JUMPI PUSH2 0x17DF SWAP2 PUSH1 0x1 DUP3 ADD DUP2 SSTORE PUSH2 0x17AA JUMP JUMPDEST DUP2 SWAP3 SWAP2 SLOAD SWAP1 PUSH1 0x3 SHL SWAP2 DUP3 SHL SWAP2 PUSH1 0x0 NOT SWAP1 SHL NOT AND OR SWAP1 SSTORE JUMP JUMPDEST SWAP1 DUP1 PUSH1 0x20 SWAP4 SWAP3 DUP2 DUP5 MSTORE DUP5 DUP5 ADD CALLDATACOPY PUSH1 0x0 DUP3 DUP3 ADD DUP5 ADD MSTORE PUSH1 0x1F ADD PUSH1 0x1F NOT AND ADD ADD SWAP1 JUMP JUMPDEST PUSH1 0x1 PUSH1 0x1 PUSH1 0xA0 SHL SUB AND PUSH1 0x0 DUP2 DUP2 MSTORE PUSH1 0x4 PUSH1 0x20 MSTORE PUSH1 0x40 SWAP1 KECCAK256 SLOAD SWAP1 SWAP4 SWAP3 SWAP2 SWAP1 DUP2 GT ISZERO PUSH2 0x187A JUMPI POP POP PUSH1 0x40 MLOAD SWAP1 SWAP2 POP PUSH1 0x0 PUSH2 0x1851 PUSH1 0x20 DUP4 PUSH2 0x135C JUMP JUMPDEST DUP2 MSTORE PUSH1 0x0 DUP1 JUMPDEST DUP2 DUP2 LT PUSH2 0x1863 JUMPI POP POP SWAP1 JUMP JUMPDEST PUSH1 0x20 SWAP1 PUSH2 0x186E PUSH2 0x137D JUMP JUMPDEST DUP3 DUP3 DUP7 ADD ADD MSTORE ADD PUSH2 0x1857 JUMP JUMPDEST PUSH2 0x1884 DUP3 DUP3 PUSH2 0x14EA JUMP JUMPDEST DUP5 PUSH1 0x0 MSTORE PUSH1 0x4 PUSH1 0x20 MSTORE PUSH1 0x40 PUSH1 0x0 KECCAK256 SLOAD LT PUSH2 0x197D JUMPI JUMPDEST PUSH2 0x18A2 DUP3 PUSH2 0x1513 JUMP JUMPDEST SWAP1 PUSH2 0x18B0 PUSH1 0x40 MLOAD SWAP3 DUP4 PUSH2 0x135C JUMP JUMPDEST DUP3 DUP3 MSTORE PUSH1 0x1F NOT PUSH2 0x18BF DUP5 PUSH2 0x1513 JUMP JUMPDEST ADD PUSH1 0x0 JUMPDEST DUP2 DUP2 LT PUSH2 0x1966 JUMPI POP POP DUP2 SWAP5 PUSH1 0x0 JUMPDEST DUP5 DUP2 LT PUSH2 0x18DF JUMPI POP POP POP POP POP JUMP JUMPDEST PUSH1 0x1 SWAP1 DUP3 PUSH1 0x0 MSTORE PUSH1 0x4 PUSH1 0x20 MSTORE PUSH2 0x1903 PUSH1 0x40 PUSH1 0x0 KECCAK256 PUSH2 0x18FD DUP7 DUP5 PUSH2 0x14EA JUMP JUMPDEST SWAP1 PUSH2 0x17AA JUMP JUMPDEST SWAP1 SLOAD SWAP1 PUSH1 0x3 SHL SHR PUSH1 0x0 MSTORE DUP2 PUSH1 0x20 MSTORE PUSH1 0x40 PUSH1 0x0 KECCAK256 PUSH2 0x194A PUSH1 0xFF PUSH1 0x6 PUSH1 0x40 MLOAD SWAP4 PUSH2 0x192A DUP6 PUSH2 0x1326 JUMP JUMPDEST DUP1 SLOAD DUP6 MSTORE DUP7 DUP1 PUSH1 0xA0 SHL SUB DUP8 DUP3 ADD SLOAD AND PUSH1 0x20 DUP7 ADD MSTORE PUSH2 0x11A3 PUSH1 0x2 DUP3 ADD PUSH2 0x13F0 JUMP JUMPDEST PUSH2 0x1954 DUP3 DUP8 PUSH2 0x1549 JUMP JUMPDEST MSTORE PUSH2 0x195F DUP2 DUP7 PUSH2 0x1549 JUMP JUMPDEST POP ADD PUSH2 0x18D1 JUMP JUMPDEST PUSH1 0x20 SWAP1 PUSH2 0x1971 PUSH2 0x137D JUMP JUMPDEST DUP3 DUP3 DUP8 ADD ADD MSTORE ADD PUSH2 0x18C3 JUMP JUMPDEST SWAP1 POP DUP3 PUSH1 0x0 MSTORE PUSH1 0x4 PUSH1 0x20 MSTORE PUSH2 0x1997 DUP2 PUSH1 0x40 PUSH1 0x0 KECCAK256 SLOAD PUSH2 0x1506 JUMP JUMPDEST SWAP1 PUSH2 0x1899 JUMP JUMPDEST PUSH1 0x0 MSTORE PUSH1 0x3 PUSH1 0x20 MSTORE PUSH1 0x40 PUSH1 0x0 KECCAK256 PUSH1 0x0 SWAP1 DUP1 SLOAD SWAP2 JUMPDEST DUP3 DUP2 LT PUSH2 0x19C0 JUMPI POP POP POP PUSH1 0x1 SWAP1 JUMP JUMPDEST PUSH2 0x19CA DUP2 DUP4 PUSH2 0x14B8 JUMP JUMPDEST POP SLOAD PUSH1 0x1 PUSH1 0x1 PUSH1 0xA0 SHL SUB AND ISZERO PUSH2 0x19E2 JUMPI PUSH1 0x1 ADD PUSH2 0x19B1 JUMP JUMPDEST POP POP POP PUSH1 0x0 SWAP1 JUMP INVALID LOG2 PUSH5 0x6970667358 0x22 SLT KECCAK256 0x2E PUSH25 0x685AFB60DFC773E8CAE817FE1F1EABA60D666CC135D5B4A9D0 SWAP1 SWAP6 0x2B EXTCODEHASH 0xA8 PUSH5 0x736F6C6343 STOP ADDMOD SHR STOP CALLER "
        },
        "methodIdentifiers": {
          "createPool(string,string,string,bytes32[],uint256[])": "1c014f16",
          "deactivatePool(uint256)": "9abd9b05",
          "donate(uint256,uint256)": "0cdd53f6",
          "getPool(uint256)": "068bcd8d",
          "getPoolMembers(uint256,uint256,uint256)": "12b32082",
          "getPoolMembersCount(uint256)": "f535a4f5",
          "getPoolSummary(uint256)": "14d056f8",
          "getUserPools(address,uint256,uint256)": "f75b9afa",
          "getUserPoolsCount(address)": "9ee64b65",
          "getUserSummary(address)": "8fbd0c2d",
          "joinPool(uint256,bytes32)": "26e73670",
          "nextPoolId()": "18e56131",
          "usdc()": "3e413bee"
        }
      }
    }
  }
}