{
  "_format": "hh-sol-artifact-1",
  "contractName": "Distributor",
  "sourceName": "src/Distributor.sol",
  "abi": [
    {
      "inputs": [
        {
          "internalType": "address",
          "name": "_usdcAddress",
          "type": "address"
        }
      ],
      "stateMutability": "nonpayable",
      "type": "constructor"
    },
    {
      "inputs": [],
      "name": "ArrayLengthMismatch",
      "type": "error"
    },
    {
      "inputs": [],
      "name": "EmptyTitle",
      "type": "error"
    },
    {
      "inputs": [
        {
          "internalType": "uint256",
          "name": "requested",
          "type": "uint256"
        },
        {
          "internalType": "uint256",
          "name": "available",
          "type": "uint256"
        }
      ],
      "name": "InsufficientBalance",
      "type": "error"
    },
    {
      "inputs": [],
      "name": "InvalidCreatorPercentage",
      "type": "error"
    },
    {
      "inputs": [],
      "name": "InvalidDonationAmount",
      "type": "error"
    },
    {
      "inputs": [],
      "name": "InvalidInvitationCode",
      "type": "error"
    },
    {
      "inputs": [
        {
          "internalType": "uint256",
          "name": "percentage",
          "type": "uint256"
        }
      ],
      "name": "InvalidMemberPercentage",
      "type": "error"
    },
    {
      "inputs": [
        {
          "internalType": "uint256",
          "name": "totalPercentage",
          "type": "uint256"
        }
      ],
      "name": "InvalidTotalPercentage",
      "type": "error"
    },
    {
      "inputs": [],
      "name": "InvalidWithdrawalAmount",
      "type": "error"
    },
    {
      "inputs": [],
      "name": "MemberAlreadyInPool",
      "type": "error"
    },
    {
      "inputs": [],
      "name": "NoInvitationCodeForSlot",
      "type": "error"
    },
    {
      "inputs": [
        {
          "internalType": "address",
          "name": "caller",
          "type": "address"
        },
        {
          "internalType": "uint256",
          "name": "poolId",
          "type": "uint256"
        }
      ],
      "name": "NotPoolCreator",
      "type": "error"
    },
    {
      "inputs": [
        {
          "internalType": "address",
          "name": "caller",
          "type": "address"
        },
        {
          "internalType": "uint256",
          "name": "poolId",
          "type": "uint256"
        }
      ],
      "name": "NotPoolMember",
      "type": "error"
    },
    {
      "inputs": [
        {
          "internalType": "uint256",
          "name": "poolId",
          "type": "uint256"
        }
      ],
      "name": "PoolInactive",
      "type": "error"
    },
    {
      "inputs": [
        {
          "internalType": "uint256",
          "name": "poolId",
          "type": "uint256"
        }
      ],
      "name": "PoolNotFound",
      "type": "error"
    },
    {
      "inputs": [
        {
          "internalType": "uint256",
          "name": "poolId",
          "type": "uint256"
        }
      ],
      "name": "PoolPending",
      "type": "error"
    },
    {
      "inputs": [],
      "name": "SlotAlreadyFilled",
      "type": "error"
    },
    {
      "inputs": [],
      "name": "TransferFailed",
      "type": "error"
    },
    {
      "anonymous": false,
      "inputs": [
        {
          "indexed": true,
          "internalType": "uint256",
          "name": "poolId",
          "type": "uint256"
        },
        {
          "indexed": true,
          "internalType": "address",
          "name": "donor",
          "type": "address"
        },
        {
          "indexed": false,
          "internalType": "uint256",
          "name": "amount",
          "type": "uint256"
        }
      ],
      "name": "DonationMade",
      "type": "event"
    },
    {
      "anonymous": false,
      "inputs": [
        {
          "indexed": true,
          "internalType": "address",
          "name": "member",
          "type": "address"
        },
        {
          "indexed": true,
          "internalType": "address",
          "name": "recipient",
          "type": "address"
        },
        {
          "indexed": false,
          "internalType": "uint256",
          "name": "amount",
          "type": "uint256"
        }
      ],
      "name": "FundsWithdrawn",
      "type": "event"
    },
    {
      "anonymous": false,
      "inputs": [
        {
          "indexed": true,
          "internalType": "uint256",
          "name": "poolId",
          "type": "uint256"
        },
        {
          "indexed": true,
          "internalType": "address",
          "name": "member",
          "type": "address"
        },
        {
          "indexed": false,
          "internalType": "uint256",
          "name": "percentage",
          "type": "uint256"
        }
      ],
      "name": "MemberJoined",
      "type": "event"
    },
    {
      "anonymous": false,
      "inputs": [
        {
          "indexed": true,
          "internalType": "uint256",
          "name": "poolId",
          "type": "uint256"
        },
        {
          "indexed": true,
          "internalType": "address",
          "name": "creator",
          "type": "address"
        },
        {
          "indexed": false,
          "internalType": "string",
          "name": "title",
          "type": "string"
        },
        {
          "indexed": false,
          "internalType": "string",
          "name": "description",
          "type": "string"
        },
        {
          "indexed": false,
          "internalType": "string",
          "name": "imageUri",
          "type": "string"
        }
      ],
      "name": "PoolCreated",
      "type": "event"
    },
    {
      "anonymous": false,
      "inputs": [
        {
          "indexed": true,
          "internalType": "uint256",
          "name": "poolId",
          "type": "uint256"
        },
        {
          "indexed": true,
          "internalType": "address",
          "name": "deactivatedBy",
          "type": "address"
        }
      ],
      "name": "PoolDeactivated",
      "type": "event"
    },
    {
      "inputs": [
        {
          "internalType": "string",
          "name": "title",
          "type": "string"
        },
        {
          "internalType": "string",
          "name": "description",
          "type": "string"
        },
        {
          "internalType": "string",
          "name": "imageUri",
          "type": "string"
        },
        {
          "internalType": "bytes32[]",
          "name": "invitationCodes",
          "type": "bytes32[]"
        },
        {
          "internalType": "uint256[]",
          "name": "percentages",
          "type": "uint256[]"
        }
      ],
      "name": "createPool",
      "outputs": [
        {
          "internalType": "uint256",
          "name": "poolId",
          "type": "uint256"
        }
      ],
      "stateMutability": "nonpayable",
      "type": "function"
    },
    {
      "inputs": [
        {
          "internalType": "uint256",
          "name": "poolId",
          "type": "uint256"
        }
      ],
      "name": "deactivatePool",
      "outputs": [],
      "stateMutability": "nonpayable",
      "type": "function"
    },
    {
      "inputs": [
        {
          "internalType": "uint256",
          "name": "poolId",
          "type": "uint256"
        },
        {
          "internalType": "uint256",
          "name": "amount",
          "type": "uint256"
        }
      ],
      "name": "donate",
      "outputs": [],
      "stateMutability": "nonpayable",
      "type": "function"
    },
    {
      "inputs": [
        {
          "internalType": "address",
          "name": "member",
          "type": "address"
        }
      ],
      "name": "getBalanceOf",
      "outputs": [
        {
          "internalType": "uint256",
          "name": "availableAmount",
          "type": "uint256"
        }
      ],
      "stateMutability": "view",
      "type": "function"
    },
    {
      "inputs": [
        {
          "internalType": "uint256",
          "name": "poolId",
          "type": "uint256"
        }
      ],
      "name": "getPool",
      "outputs": [
        {
          "components": [
            {
              "internalType": "uint256",
              "name": "id",
              "type": "uint256"
            },
            {
              "internalType": "address",
              "name": "creator",
              "type": "address"
            },
            {
              "internalType": "string",
              "name": "title",
              "type": "string"
            },
            {
              "internalType": "string",
              "name": "description",
              "type": "string"
            },
            {
              "internalType": "string",
              "name": "imageUri",
              "type": "string"
            },
            {
              "internalType": "uint256",
              "name": "createdAt",
              "type": "uint256"
            },
            {
              "internalType": "enum IDistributorStructs.PoolStatus",
              "name": "status",
              "type": "uint8"
            }
          ],
          "internalType": "struct IDistributorStructs.Pool",
          "name": "pool",
          "type": "tuple"
        }
      ],
      "stateMutability": "view",
      "type": "function"
    },
    {
      "inputs": [
        {
          "internalType": "uint256",
          "name": "poolId",
          "type": "uint256"
        },
        {
          "internalType": "uint256",
          "name": "offset",
          "type": "uint256"
        },
        {
          "internalType": "uint256",
          "name": "limit",
          "type": "uint256"
        }
      ],
      "name": "getPoolMembers",
      "outputs": [
        {
          "components": [
            {
              "internalType": "address",
              "name": "member",
              "type": "address"
            },
            {
              "internalType": "bytes32",
              "name": "invitationCodeHash",
              "type": "bytes32"
            },
            {
              "internalType": "uint256",
              "name": "percentage",
              "type": "uint256"
            }
          ],
          "internalType": "struct IDistributorStructs.Member[]",
          "name": "members",
          "type": "tuple[]"
        }
      ],
      "stateMutability": "view",
      "type": "function"
    },
    {
      "inputs": [
        {
          "internalType": "uint256",
          "name": "poolId",
          "type": "uint256"
        }
      ],
      "name": "getPoolMembersCount",
      "outputs": [
        {
          "internalType": "uint256",
          "name": "total",
          "type": "uint256"
        }
      ],
      "stateMutability": "view",
      "type": "function"
    },
    {
      "inputs": [
        {
          "internalType": "uint256",
          "name": "poolId",
          "type": "uint256"
        }
      ],
      "name": "getPoolSummary",
      "outputs": [
        {
          "components": [
            {
              "internalType": "uint256",
              "name": "totalDonationsAmount",
              "type": "uint256"
            },
            {
              "internalType": "uint256",
              "name": "totalDonationsCount",
              "type": "uint256"
            },
            {
              "internalType": "uint256",
              "name": "uniqueDonatorsCount",
              "type": "uint256"
            }
          ],
          "internalType": "struct IDistributorStructs.PoolSummary",
          "name": "summary",
          "type": "tuple"
        }
      ],
      "stateMutability": "view",
      "type": "function"
    },
    {
      "inputs": [
        {
          "internalType": "address",
          "name": "user",
          "type": "address"
        },
        {
          "internalType": "uint256",
          "name": "offset",
          "type": "uint256"
        },
        {
          "internalType": "uint256",
          "name": "limit",
          "type": "uint256"
        }
      ],
      "name": "getUserPools",
      "outputs": [
        {
          "components": [
            {
              "internalType": "uint256",
              "name": "id",
              "type": "uint256"
            },
            {
              "internalType": "address",
              "name": "creator",
              "type": "address"
            },
            {
              "internalType": "string",
              "name": "title",
              "type": "string"
            },
            {
              "internalType": "string",
              "name": "description",
              "type": "string"
            },
            {
              "internalType": "string",
              "name": "imageUri",
              "type": "string"
            },
            {
              "internalType": "uint256",
              "name": "createdAt",
              "type": "uint256"
            },
            {
              "internalType": "enum IDistributorStructs.PoolStatus",
              "name": "status",
              "type": "uint8"
            }
          ],
          "internalType": "struct IDistributorStructs.Pool[]",
          "name": "pools",
          "type": "tuple[]"
        }
      ],
      "stateMutability": "view",
      "type": "function"
    },
    {
      "inputs": [
        {
          "internalType": "address",
          "name": "user",
          "type": "address"
        }
      ],
      "name": "getUserPoolsCount",
      "outputs": [
        {
          "internalType": "uint256",
          "name": "total",
          "type": "uint256"
        }
      ],
      "stateMutability": "view",
      "type": "function"
    },
    {
      "inputs": [
        {
          "internalType": "address",
          "name": "user",
          "type": "address"
        }
      ],
      "name": "getUserSummary",
      "outputs": [
        {
          "components": [
            {
              "internalType": "uint256",
              "name": "totalDonationsAmount",
              "type": "uint256"
            },
            {
              "internalType": "uint256",
              "name": "totalDonationsCount",
              "type": "uint256"
            },
            {
              "internalType": "uint256",
              "name": "poolCount",
              "type": "uint256"
            }
          ],
          "internalType": "struct IDistributorStructs.UserSummary",
          "name": "summary",
          "type": "tuple"
        }
      ],
      "stateMutability": "view",
      "type": "function"
    },
    {
      "inputs": [
        {
          "internalType": "uint256",
          "name": "poolId",
          "type": "uint256"
        },
        {
          "internalType": "bytes32",
          "name": "invitationCode",
          "type": "bytes32"
        }
      ],
      "name": "joinPool",
      "outputs": [],
      "stateMutability": "nonpayable",
      "type": "function"
    },
    {
      "inputs": [],
      "name": "nextPoolId",
      "outputs": [
        {
          "internalType": "uint256",
          "name": "",
          "type": "uint256"
        }
      ],
      "stateMutability": "view",
      "type": "function"
    },
    {
      "inputs": [],
      "name": "usdc",
      "outputs": [
        {
          "internalType": "contract IERC20",
          "name": "",
          "type": "address"
        }
      ],
      "stateMutability": "view",
      "type": "function"
    },
    {
      "inputs": [
        {
          "internalType": "uint256",
          "name": "amount",
          "type": "uint256"
        },
        {
          "internalType": "address",
          "name": "recipient",
          "type": "address"
        }
      ],
      "name": "withdraw",
      "outputs": [],
      "stateMutability": "nonpayable",
      "type": "function"
    }
  ],
  "bytecode": "0x60a034607b57601f611c1938819003918201601f19168301916001600160401b03831184841017608057808492602094604052833981010312607b57516001600160a01b03811690819003607b576001600055608052604051611b82908161009782396080518181816103c701528181610f5501526112880152f35b600080fd5b634e487b7160e01b600052604160045260246000fdfe60a0604052600436101561001257600080fd5b60003560e01c8062f714ce14611201578063068bcd8d146111485780630cdd53f614610ed857806312b3208214610e4f57806314d056f814610dde57806318e5613114610dc05780631c014f161461062c57806326e73670146103f65780633e413bee146103b15780638fbd0c2d1461029a5780639abd9b05146101f55780639b96eece146101bb5780639ee64b6514610181578063f535a4f5146101555763f75b9afa146100c057600080fd5b34610150576060366003190112610150576100e96100dc61135a565b604435906024359061197a565b6040518091602082016020835281518091526040830190602060408260051b8601019301916000905b82821061012157505050500390f35b919360019193955060206101408192603f198a820301865288516113b1565b9601920192018594939192610112565b600080fd5b346101505760203660031901126101505760043560005260046020526020604060002054604051908152f35b34610150576020366003190112610150576001600160a01b036101a261135a565b1660005260056020526020604060002054604051908152f35b34610150576020366003190112610150576001600160a01b036101dc61135a565b1660005260076020526020604060002054604051908152f35b3461015057602036600319011261015057600435806000526001602052604060002080541560001461023657506302ad881560e41b60005260045260246000fd5b60018101546001600160a01b0316330361028157600601805460ff1916600217905533907f72e6fc67ca93cc3cedc1e023204888c2cab750fbb5526e1faf3445c0327ee0ef600080a3005b506302a20f2560e21b6000523360045260245260446000fd5b34610150576020366003190112610150576102b361135a565b6102bb61168c565b906001600160a01b03166020820160005b82600052600560205260406000205481101561035d576001908360005260056020526102fc81604060002061190c565b90549060031b1c600052600260205261031b6040600020548651611659565b855283600052600560205261033481604060002061190c565b90549060031b1c600052600260205261035582604060002001548451611659565b8352016102cc565b50906060925191519060005260056020526040600020549060405192610382846114b0565b8352602083015260408201526103af60405180926040809180518452602081015160208501520151910152565bf35b34610150576000366003190112610150576040517f00000000000000000000000000000000000000000000000000000000000000006001600160a01b03168152602090f35b34610150576040366003190112610150576004358060005260016020526040600020805415610617576006015460ff166003811015610601576002146105ed57600081815260066020908152604080832033845290915290205460ff166105dc5760405160208101906024358252602081526104736040826114cb565b519020908060005260046020526040600020600080809481908454915b828110610560575b5050501561054f576104a991611627565b5080546001600160a01b031916339081179091556000828152600660209081526040808320938352928152828220805460ff1916600117905560059052206104f2908290611924565b6104fb81611aff565b61052e575b6040519182527ff4f82575ee84a81aac4be52b6a368e9ba9df524b4f5cf8177d7cfbabe861820c60203393a3005b8060005260016020526006604060002001600160ff19825416179055610500565b63046aa5bf60e01b60005260046000fd5b61056a8187611627565b50546001600160a01b031615806105c5575b806105ae575b61058e57600101610490565b96505050505060026105a08483611627565b500154926001858080610498565b5060016105bb8288611627565b5001541515610582565b508160016105d38389611627565b5001541461057c565b634c0d3fed60e11b60005260046000fd5b63423b515f60e01b60005260045260246000fd5b634e487b7160e01b600052602160045260246000fd5b506302ad881560e41b60005260045260246000fd5b346101505760a0366003190112610150576004356001600160401b0381116101505761065c90369060040161142b565b6024356001600160401b0381116101505761067b90369060040161142b565b926044356001600160401b0381116101505761069b90369060040161142b565b9390926064356001600160401b038111610150576106bd903690600401611458565b6084979197356001600160401b038111610150576106df903690600401611458565b98908515610daf57828a03610d9e57600091825b8b8110610d295750612710831015610d145761271083810311610cfe578261271014610ced5760005460805261072a608051611666565b6000558a610ce65760015b604051888b8d61078161075f8e61074b87611495565b608051875260208701953387523691611858565b6040860190815292610772368d8f611858565b92606087019384523691611858565b916080850192835260a085019342855261079f60c08701978861161b565b608051600090815260016020819052604090912096518755905190860180546001600160a01b0319166001600160a01b039290921691909117905551805160028601916001600160401b038211610b4a5781906107fc845461153d565b601f8111610c93575b50602090601f8311600114610c2e57600092610c23575b50508160011b916000199060031b1c19161790555b51805160038501916001600160401b038211610b4a578190610853845461153d565b601f8111610bd0575b50602090601f8311600114610b6b57600092610b60575b50508160011b916000199060031b1c19161790555b51805160048401916001600160401b038211610b4a576108a8835461153d565b601f8111610b02575b50602090601f8311600114610a96576006959493929160009183610a8b575b50508160011b916000199060031b1c19161790555b516005820155019051936003851015610601576109789160009560ff80198354169116179055604051610917816114b0565b8581526002602082018781526040830190888252608051895282602052604089209351845551600184015551910155608051855260046020526040852060405191610961836114b0565b33835286602084015261271003604083015261189e565b608051835260066020526040832060018060a01b033316845260205260408320600160ff1982541617905533835260056020526109ba60805160408520611924565b825b8b8110610a37578a8a7f3488d52145f2da8302f4410707e81efde09f4f605b2182bbfb96b966837e32cd8b8b610a28610a158d8d610a07604051968796606088526060880191611959565b918583036020870152611959565b8281036040840152339660805196611959565b0390a360206040516080518152f35b60019060805185526004602052610a858d610a5783604089209288611848565b3590610a64848a88611848565b359160405192610a73846114b0565b8984526020840152604083015261189e565b016109bc565b0151905038806108d0565b90601f1983169184600052816000209260005b818110610aea57509160019391856006999897969410610ad1575b505050811b0190556108e5565b015160001960f88460031b161c19169055388080610ac4565b92936020600181928786015181550195019301610aa9565b836000526020600020601f840160051c81019160208510610b40575b601f0160051c01905b818110610b3457506108b1565b60008155600101610b27565b9091508190610b1e565b634e487b7160e01b600052604160045260246000fd5b015190503880610873565b60008581528281209350601f198516905b818110610bb85750908460019594939210610b9f575b505050811b019055610888565b015160001960f88460031b161c19169055388080610b92565b92936020600181928786015181550195019301610b7c565b909150836000526020600020601f840160051c81019160208510610c19575b90601f859493920160051c01905b818110610c0a575061085c565b60008155849350600101610bfd565b9091508190610bef565b01519050388061081c565b60008581528281209350601f198516905b818110610c7b5750908460019594939210610c62575b505050811b019055610831565b015160001960f88460031b161c19169055388080610c55565b92936020600181928786015181550195019301610c3f565b909150836000526020600020601f840160051c81019160208510610cdc575b90601f859493920160051c01905b818110610ccd5750610805565b60008155849350600101610cc0565b9091508190610cb2565b6000610735565b630781666160e51b60005260046000fd5b634e487b7160e01b600052601160045260246000fd5b82634a31414760e01b60005260045260246000fd5b92610d35848d85611848565b3515848d8215610d85575b5050610d6557610d5e600191610d57868f87611848565b3590611659565b93016106f3565b610d70848d85611848565b3563447e90bf60e11b60005260045260246000fd5b612710925090610d959186611848565b3511848d610d40565b63512509d360e11b60005260046000fd5b6352ddcdef60e11b60005260046000fd5b34610150576000366003190112610150576020600054604051908152f35b3461015057602036600319011261015057610df761168c565b50600435600052600260205260606040600020600260405191610e19836114b0565b8054835260018101546020840152015460408201526103af60405180926040809180518452602081015160208501520151910152565b3461015057606036600319011261015057610e716044356024356004356116bf565b60405180916020820160208352815180915260206040840192019060005b818110610e9d575050500390f35b825180516001600160a01b03168552602081810151818701526040918201519186019190915286955060609094019390920191600101610e8f565b3461015057604036600319011261015057600435602435908060005260016020526040600020805415610617576006015460ff169160038310156106015760028314611133576000921561111f578015611110576040516323b872dd60e01b815233600482015230602482015260448101829052602081606481877f00000000000000000000000000000000000000000000000000000000000000006001600160a01b03165af19081156111055784916110d6575b50156110c757818352600460205260408320835b8154811015611013576002610fb68284611627565b5001548084029084820403610fff5790600191610fd38285611627565b50838060a01b0390541687526007602052610ff76127106040892092048254611659565b905501610fa1565b634e487b7160e01b86526011600452602486fd5b50509080835260026020526040832061102d838254611659565b81556001810161103d8154611666565b905581845260036020908152604080862033875290915284205460ff1615611090575b506040519182527fe555da28bdb778f65d22794d88927ebaeca03f7de9d1b7d39245bc8fb5ca078a60203393a380f35b60020161109d8154611666565b90558083526003602090815260408085203386529091528320805460ff1916600117905583611060565b6312171d8360e31b8352600483fd5b6110f8915060203d6020116110fe575b6110f081836114cb565b8101906114ec565b84610f8d565b503d6110e6565b6040513d86823e3d90fd5b63bdd5839b60e01b8352600483fd5b63da8944ed60e01b83526004829052602483fd5b5063423b515f60e01b60005260045260246000fd5b3461015057602036600319011261015057611161611504565b5060043560005260016020526111fd60406000206111e960ff60066040519361118985611495565b8054855260018101546001600160a01b031660208601526111ac60028201611577565b60408601526111bd60038201611577565b60608601526111ce60048201611577565b6080860152600581015460a086015201541660c0830161161b565b6040519182916020835260208301906113b1565b0390f35b34610150576040366003190112610150576024356001600160a01b03811690600435908290036101505780156113495733600052600760205260406000205480821161133157503360005260076020526040600020611261828254611488565b905560405163a9059cbb60e01b8152600481018390526024810182905260208160448160007f00000000000000000000000000000000000000000000000000000000000000006001600160a01b03165af190811561132557600091611306575b50156112f5576040519081527fa92ff919b850e4909ab2261d907ef955f11bc1716733a6cbece38d163a69af8a60203392a3005b6312171d8360e31b60005260046000fd5b61131f915060203d6020116110fe576110f081836114cb565b836112c1565b6040513d6000823e3d90fd5b9063cf47918160e01b60005260045260245260446000fd5b639abc749160e01b60005260046000fd5b600435906001600160a01b038216820361015057565b919082519283825260005b84811061139c575050826000602080949584010152601f8019910116010190565b8060208092840101518282860101520161137b565b908151815260018060a01b03602083015116602082015260c061140d6113fb6113e9604086015160e0604087015260e0860190611370565b60608601518582036060870152611370565b60808501518482036080860152611370565b9260a081015160a084015201519060038210156106015760c0015290565b9181601f84011215610150578235916001600160401b038311610150576020838186019501011161015057565b9181601f84011215610150578235916001600160401b038311610150576020808501948460051b01011161015057565b91908203918211610cfe57565b60e081019081106001600160401b03821117610b4a57604052565b606081019081106001600160401b03821117610b4a57604052565b90601f801991011681019081106001600160401b03821117610b4a57604052565b90816020910312610150575180151581036101505790565b6040519061151182611495565b600060c08382815282602082015260606040820152606080820152606060808201528260a08201520152565b90600182811c9216801561156d575b602083101461155757565b634e487b7160e01b600052602260045260246000fd5b91607f169161154c565b906040519182600082549261158b8461153d565b80845293600181169081156115f957506001146115b2575b506115b0925003836114cb565b565b90506000929192526020600020906000915b8183106115dd5750509060206115b092820101386115a3565b60209193508060019154838589010152019101909184926115c4565b9050602092506115b094915060ff191682840152151560051b820101386115a3565b60038210156106015752565b8054821015611643576000526003602060002091020190600090565b634e487b7160e01b600052603260045260246000fd5b91908201809211610cfe57565b6000198114610cfe5760010190565b6001600160401b038111610b4a5760051b60200190565b60405190611699826114b0565b60006040838281528260208201520152565b80518210156116435760209160051b010190565b9291908360005260016020526040600020541561183357836000526004602052604060002054811160001461172c57505060405190915060006117036020836114cb565b81526000805b81811061171557505090565b60209061172061168c565b82828601015201611709565b6117368282611659565b84600052600460205260406000205410611813575b61175482611675565b9061176260405192836114cb565b828252601f1961177184611675565b0160005b8181106117fc575050819460005b848110611791575050505050565b6001908260005260046020526117b560406000206117af8684611659565b90611627565b506002604051916117c5836114b0565b848060a01b038154168352848101546020840152015460408201526117ea82876116ab565b526117f581866116ab565b5001611783565b60209061180761168c565b82828701015201611775565b905082600052600460205261182d81604060002054611488565b9061174b565b836302ad881560e41b60005260045260246000fd5b91908110156116435760051b0190565b9291926001600160401b038211610b4a5760405191611881601f8201601f1916602001846114cb565b829481845281830111610150578281602093846000960137010152565b8054600160401b811015610b4a576118bb91600182018155611627565b9190916118f657805182546001600160a01b0319166001600160a01b0391909116178255602081015160018301556040015160029190910155565b634e487b7160e01b600052600060045260246000fd5b80548210156116435760005260206000200190600090565b8054600160401b811015610b4a576119419160018201815561190c565b819291549060031b91821b91600019901b1916179055565b908060209392818452848401376000828201840152601f01601f1916010190565b6001600160a01b031660008181526005602052604090205490939291908111156119dc57505060405190915060006119b36020836114cb565b81526000805b8181106119c557505090565b6020906119d0611504565b828286010152016119b9565b6119e68282611659565b84600052600560205260406000205410611adf575b611a0482611675565b90611a1260405192836114cb565b828252601f19611a2184611675565b0160005b818110611ac8575050819460005b848110611a41575050505050565b600190826000526005602052611a656040600020611a5f8684611659565b9061190c565b90549060031b1c600052816020526040600020611aac60ff600660405193611a8c85611495565b80548552868060a01b03878201541660208601526111ac60028201611577565b611ab682876116ab565b52611ac181866116ab565b5001611a33565b602090611ad3611504565b82828701015201611a25565b9050826000526005602052611af981604060002054611488565b906119fb565b600052600460205260406000206000908054915b828110611b2257505050600190565b611b2c8183611627565b50546001600160a01b031615611b4457600101611b13565b50505060009056fea2646970667358221220ae39eb84b13d0de9d6d47ca202a21edf40f6be277040effa8e61f498a0fb09fc64736f6c634300081c0033",
  "linkReferences": {},
  "deployedLinkReferences": {}
}