{
  "_format": "hh-sol-artifact-1",
  "contractName": "Distributor",
  "sourceName": "src/Distributor.sol",
  "abi": [
    {
      "inputs": [
        {
          "internalType": "address",
          "name": "_usdcAddress",
          "type": "address"
        }
      ],
      "stateMutability": "nonpayable",
      "type": "constructor"
    },
    {
      "inputs": [],
      "name": "ArrayLengthMismatch",
      "type": "error"
    },
    {
      "inputs": [],
      "name": "EmptyTitle",
      "type": "error"
    },
    {
      "inputs": [
        {
          "internalType": "uint256",
          "name": "requested",
          "type": "uint256"
        },
        {
          "internalType": "uint256",
          "name": "available",
          "type": "uint256"
        }
      ],
      "name": "InsufficientBalance",
      "type": "error"
    },
    {
      "inputs": [],
      "name": "InvalidCreatorPercentage",
      "type": "error"
    },
    {
      "inputs": [],
      "name": "InvalidDonationAmount",
      "type": "error"
    },
    {
      "inputs": [],
      "name": "InvalidInvitationCode",
      "type": "error"
    },
    {
      "inputs": [
        {
          "internalType": "uint256",
          "name": "percentage",
          "type": "uint256"
        }
      ],
      "name": "InvalidMemberPercentage",
      "type": "error"
    },
    {
      "inputs": [
        {
          "internalType": "uint256",
          "name": "totalPercentage",
          "type": "uint256"
        }
      ],
      "name": "InvalidTotalPercentage",
      "type": "error"
    },
    {
      "inputs": [],
      "name": "InvalidWithdrawalAmount",
      "type": "error"
    },
    {
      "inputs": [],
      "name": "MemberAlreadyInPool",
      "type": "error"
    },
    {
      "inputs": [],
      "name": "NoInvitationCodeForSlot",
      "type": "error"
    },
    {
      "inputs": [
        {
          "internalType": "address",
          "name": "caller",
          "type": "address"
        },
        {
          "internalType": "uint256",
          "name": "poolId",
          "type": "uint256"
        }
      ],
      "name": "NotPoolCreator",
      "type": "error"
    },
    {
      "inputs": [
        {
          "internalType": "address",
          "name": "caller",
          "type": "address"
        },
        {
          "internalType": "uint256",
          "name": "poolId",
          "type": "uint256"
        }
      ],
      "name": "NotPoolMember",
      "type": "error"
    },
    {
      "inputs": [
        {
          "internalType": "uint256",
          "name": "poolId",
          "type": "uint256"
        }
      ],
      "name": "PoolInactive",
      "type": "error"
    },
    {
      "inputs": [
        {
          "internalType": "uint256",
          "name": "poolId",
          "type": "uint256"
        }
      ],
      "name": "PoolNotFound",
      "type": "error"
    },
    {
      "inputs": [
        {
          "internalType": "uint256",
          "name": "poolId",
          "type": "uint256"
        }
      ],
      "name": "PoolPending",
      "type": "error"
    },
    {
      "inputs": [],
      "name": "SlotAlreadyFilled",
      "type": "error"
    },
    {
      "inputs": [],
      "name": "TransferFailed",
      "type": "error"
    },
    {
      "anonymous": false,
      "inputs": [
        {
          "indexed": true,
          "internalType": "uint256",
          "name": "poolId",
          "type": "uint256"
        },
        {
          "indexed": true,
          "internalType": "address",
          "name": "donor",
          "type": "address"
        },
        {
          "indexed": false,
          "internalType": "uint256",
          "name": "amount",
          "type": "uint256"
        }
      ],
      "name": "DonationMade",
      "type": "event"
    },
    {
      "anonymous": false,
      "inputs": [
        {
          "indexed": true,
          "internalType": "address",
          "name": "member",
          "type": "address"
        },
        {
          "indexed": true,
          "internalType": "address",
          "name": "recipient",
          "type": "address"
        },
        {
          "indexed": false,
          "internalType": "uint256",
          "name": "amount",
          "type": "uint256"
        }
      ],
      "name": "FundsWithdrawn",
      "type": "event"
    },
    {
      "anonymous": false,
      "inputs": [
        {
          "indexed": true,
          "internalType": "uint256",
          "name": "poolId",
          "type": "uint256"
        },
        {
          "indexed": true,
          "internalType": "address",
          "name": "member",
          "type": "address"
        },
        {
          "indexed": false,
          "internalType": "uint256",
          "name": "percentage",
          "type": "uint256"
        }
      ],
      "name": "MemberJoined",
      "type": "event"
    },
    {
      "anonymous": false,
      "inputs": [
        {
          "indexed": true,
          "internalType": "uint256",
          "name": "poolId",
          "type": "uint256"
        },
        {
          "indexed": true,
          "internalType": "address",
          "name": "creator",
          "type": "address"
        },
        {
          "indexed": false,
          "internalType": "string",
          "name": "title",
          "type": "string"
        },
        {
          "indexed": false,
          "internalType": "string",
          "name": "description",
          "type": "string"
        },
        {
          "indexed": false,
          "internalType": "string",
          "name": "imageUri",
          "type": "string"
        }
      ],
      "name": "PoolCreated",
      "type": "event"
    },
    {
      "anonymous": false,
      "inputs": [
        {
          "indexed": true,
          "internalType": "uint256",
          "name": "poolId",
          "type": "uint256"
        },
        {
          "indexed": true,
          "internalType": "address",
          "name": "deactivatedBy",
          "type": "address"
        }
      ],
      "name": "PoolDeactivated",
      "type": "event"
    },
    {
      "inputs": [
        {
          "internalType": "string",
          "name": "title",
          "type": "string"
        },
        {
          "internalType": "string",
          "name": "description",
          "type": "string"
        },
        {
          "internalType": "string",
          "name": "imageUri",
          "type": "string"
        },
        {
          "internalType": "bytes32[]",
          "name": "invitationCodes",
          "type": "bytes32[]"
        },
        {
          "internalType": "uint256[]",
          "name": "percentages",
          "type": "uint256[]"
        }
      ],
      "name": "createPool",
      "outputs": [
        {
          "internalType": "uint256",
          "name": "poolId",
          "type": "uint256"
        }
      ],
      "stateMutability": "nonpayable",
      "type": "function"
    },
    {
      "inputs": [
        {
          "internalType": "uint256",
          "name": "poolId",
          "type": "uint256"
        }
      ],
      "name": "deactivatePool",
      "outputs": [],
      "stateMutability": "nonpayable",
      "type": "function"
    },
    {
      "inputs": [
        {
          "internalType": "uint256",
          "name": "poolId",
          "type": "uint256"
        },
        {
          "internalType": "uint256",
          "name": "amount",
          "type": "uint256"
        }
      ],
      "name": "donate",
      "outputs": [],
      "stateMutability": "nonpayable",
      "type": "function"
    },
    {
      "inputs": [
        {
          "internalType": "address",
          "name": "member",
          "type": "address"
        }
      ],
      "name": "getBalanceOf",
      "outputs": [
        {
          "internalType": "uint256",
          "name": "availableAmount",
          "type": "uint256"
        }
      ],
      "stateMutability": "view",
      "type": "function"
    },
    {
      "inputs": [
        {
          "internalType": "uint256",
          "name": "poolId",
          "type": "uint256"
        }
      ],
      "name": "getPool",
      "outputs": [
        {
          "components": [
            {
              "internalType": "uint256",
              "name": "id",
              "type": "uint256"
            },
            {
              "internalType": "address",
              "name": "creator",
              "type": "address"
            },
            {
              "internalType": "string",
              "name": "title",
              "type": "string"
            },
            {
              "internalType": "string",
              "name": "description",
              "type": "string"
            },
            {
              "internalType": "string",
              "name": "imageUri",
              "type": "string"
            },
            {
              "internalType": "uint256",
              "name": "createdAt",
              "type": "uint256"
            },
            {
              "internalType": "enum IDistributorStructs.PoolStatus",
              "name": "status",
              "type": "uint8"
            }
          ],
          "internalType": "struct IDistributorStructs.Pool",
          "name": "pool",
          "type": "tuple"
        }
      ],
      "stateMutability": "view",
      "type": "function"
    },
    {
      "inputs": [
        {
          "internalType": "uint256",
          "name": "poolId",
          "type": "uint256"
        },
        {
          "internalType": "uint256",
          "name": "offset",
          "type": "uint256"
        },
        {
          "internalType": "uint256",
          "name": "limit",
          "type": "uint256"
        }
      ],
      "name": "getPoolMembers",
      "outputs": [
        {
          "components": [
            {
              "internalType": "address",
              "name": "member",
              "type": "address"
            },
            {
              "internalType": "bytes32",
              "name": "invitationCodeHash",
              "type": "bytes32"
            },
            {
              "internalType": "uint256",
              "name": "percentage",
              "type": "uint256"
            }
          ],
          "internalType": "struct IDistributorStructs.Member[]",
          "name": "members",
          "type": "tuple[]"
        }
      ],
      "stateMutability": "view",
      "type": "function"
    },
    {
      "inputs": [
        {
          "internalType": "uint256",
          "name": "poolId",
          "type": "uint256"
        }
      ],
      "name": "getPoolMembersCount",
      "outputs": [
        {
          "internalType": "uint256",
          "name": "total",
          "type": "uint256"
        }
      ],
      "stateMutability": "view",
      "type": "function"
    },
    {
      "inputs": [
        {
          "internalType": "uint256",
          "name": "poolId",
          "type": "uint256"
        }
      ],
      "name": "getPoolSummary",
      "outputs": [
        {
          "components": [
            {
              "internalType": "uint256",
              "name": "totalDonationsAmount",
              "type": "uint256"
            },
            {
              "internalType": "uint256",
              "name": "totalDonationsCount",
              "type": "uint256"
            },
            {
              "internalType": "uint256",
              "name": "uniqueDonatorsCount",
              "type": "uint256"
            }
          ],
          "internalType": "struct IDistributorStructs.PoolSummary",
          "name": "summary",
          "type": "tuple"
        }
      ],
      "stateMutability": "view",
      "type": "function"
    },
    {
      "inputs": [
        {
          "internalType": "address",
          "name": "user",
          "type": "address"
        },
        {
          "internalType": "uint256",
          "name": "offset",
          "type": "uint256"
        },
        {
          "internalType": "uint256",
          "name": "limit",
          "type": "uint256"
        }
      ],
      "name": "getUserPools",
      "outputs": [
        {
          "components": [
            {
              "internalType": "uint256",
              "name": "id",
              "type": "uint256"
            },
            {
              "internalType": "address",
              "name": "creator",
              "type": "address"
            },
            {
              "internalType": "string",
              "name": "title",
              "type": "string"
            },
            {
              "internalType": "string",
              "name": "description",
              "type": "string"
            },
            {
              "internalType": "string",
              "name": "imageUri",
              "type": "string"
            },
            {
              "internalType": "uint256",
              "name": "createdAt",
              "type": "uint256"
            },
            {
              "internalType": "enum IDistributorStructs.PoolStatus",
              "name": "status",
              "type": "uint8"
            }
          ],
          "internalType": "struct IDistributorStructs.Pool[]",
          "name": "pools",
          "type": "tuple[]"
        }
      ],
      "stateMutability": "view",
      "type": "function"
    },
    {
      "inputs": [
        {
          "internalType": "address",
          "name": "user",
          "type": "address"
        }
      ],
      "name": "getUserPoolsCount",
      "outputs": [
        {
          "internalType": "uint256",
          "name": "total",
          "type": "uint256"
        }
      ],
      "stateMutability": "view",
      "type": "function"
    },
    {
      "inputs": [
        {
          "internalType": "address",
          "name": "user",
          "type": "address"
        }
      ],
      "name": "getUserSummary",
      "outputs": [
        {
          "components": [
            {
              "internalType": "uint256",
              "name": "totalDonationsAmount",
              "type": "uint256"
            },
            {
              "internalType": "uint256",
              "name": "totalDonationsCount",
              "type": "uint256"
            },
            {
              "internalType": "uint256",
              "name": "poolCount",
              "type": "uint256"
            }
          ],
          "internalType": "struct IDistributorStructs.UserSummary",
          "name": "summary",
          "type": "tuple"
        }
      ],
      "stateMutability": "view",
      "type": "function"
    },
    {
      "inputs": [
        {
          "internalType": "uint256",
          "name": "poolId",
          "type": "uint256"
        },
        {
          "internalType": "string",
          "name": "invitationCode",
          "type": "string"
        }
      ],
      "name": "joinPool",
      "outputs": [],
      "stateMutability": "nonpayable",
      "type": "function"
    },
    {
      "inputs": [],
      "name": "nextPoolId",
      "outputs": [
        {
          "internalType": "uint256",
          "name": "",
          "type": "uint256"
        }
      ],
      "stateMutability": "view",
      "type": "function"
    },
    {
      "inputs": [],
      "name": "usdc",
      "outputs": [
        {
          "internalType": "contract IERC20",
          "name": "",
          "type": "address"
        }
      ],
      "stateMutability": "view",
      "type": "function"
    },
    {
      "inputs": [
        {
          "internalType": "uint256",
          "name": "amount",
          "type": "uint256"
        },
        {
          "internalType": "address",
          "name": "recipient",
          "type": "address"
        }
      ],
      "name": "withdraw",
      "outputs": [],
      "stateMutability": "nonpayable",
      "type": "function"
    }
  ],
  "bytecode": "0x60a034607b57601f611c4538819003918201601f19168301916001600160401b03831184841017608057808492602094604052833981010312607b57516001600160a01b03811690819003607b576001600055608052604051611bae9081610097823960805181818161062901528181610f8101526112c90152f35b600080fd5b634e487b7160e01b600052604160045260246000fdfe60a0604052600436101561001257600080fd5b60003560e01c8062f714ce14611242578063068bcd8d146111895780630cdd53f614610f0457806312b3208214610e7b57806314d056f814610e0a57806318e5613114610dec5780631c014f16146106585780633e413bee1461061357806387115102146103b15780638fbd0c2d1461029a5780639abd9b05146101f55780639b96eece146101bb5780639ee64b6514610181578063f535a4f5146101555763f75b9afa146100c057600080fd5b34610150576060366003190112610150576100e96100dc61139b565b60443590602435906119a6565b6040518091602082016020835281518091526040830190602060408260051b8601019301916000905b82821061012157505050500390f35b919360019193955060206101408192603f198a820301865288516113f2565b9601920192018594939192610112565b600080fd5b346101505760203660031901126101505760043560005260046020526020604060002054604051908152f35b34610150576020366003190112610150576001600160a01b036101a261139b565b1660005260056020526020604060002054604051908152f35b34610150576020366003190112610150576001600160a01b036101dc61139b565b1660005260076020526020604060002054604051908152f35b3461015057602036600319011261015057600435806000526001602052604060002080541560001461023657506302ad881560e41b60005260045260246000fd5b60018101546001600160a01b0316330361028157600601805460ff1916600217905533907f72e6fc67ca93cc3cedc1e023204888c2cab750fbb5526e1faf3445c0327ee0ef600080a3005b506302a20f2560e21b6000523360045260245260446000fd5b34610150576020366003190112610150576102b361139b565b6102bb6116cd565b906001600160a01b03166020820160005b82600052600560205260406000205481101561035d576001908360005260056020526102fc816040600020611938565b90549060031b1c600052600260205261031b604060002054865161169a565b8552836000526005602052610334816040600020611938565b90549060031b1c60005260026020526103558260406000200154845161169a565b8352016102cc565b50906060925191519060005260056020526040600020549060405192610382846114f1565b8352602083015260408201526103af60405180926040809180518452602081015160208501520151910152565bf35b34610150576040366003190112610150576004356024356001600160401b038111610150576103e490369060040161146c565b82600052600160205260406000208054156105fe576006015460ff1660038110156105e8576002146105d357600083815260066020908152604080832033845290915290205460ff166105c257610459602060405183819483830196873781016000838201520301601f19810183528261150c565b519020908060005260046020526040600020600080809481908454915b828110610546575b505050156105355761048f91611668565b5080546001600160a01b031916339081179091556000828152600660209081526040808320938352928152828220805460ff1916600117905560059052206104d8908290611950565b6104e181611b2b565b610514575b6040519182527ff4f82575ee84a81aac4be52b6a368e9ba9df524b4f5cf8177d7cfbabe861820c60203393a3005b8060005260016020526006604060002001600160ff198254161790556104e6565b63046aa5bf60e01b60005260046000fd5b6105508187611668565b50546001600160a01b031615806105ab575b80610594575b61057457600101610476565b96505050505060026105868483611668565b50015492600185808061047e565b5060016105a18288611668565b5001541515610568565b508160016105b98389611668565b50015414610562565b634c0d3fed60e11b60005260046000fd5b8263423b515f60e01b60005260045260246000fd5b634e487b7160e01b600052602160045260246000fd5b836302ad881560e41b60005260045260246000fd5b34610150576000366003190112610150576040517f00000000000000000000000000000000000000000000000000000000000000006001600160a01b03168152602090f35b346101505760a0366003190112610150576004356001600160401b0381116101505761068890369060040161146c565b6024356001600160401b038111610150576106a790369060040161146c565b926044356001600160401b038111610150576106c790369060040161146c565b9390926064356001600160401b038111610150576106e9903690600401611499565b6084979197356001600160401b0381116101505761070b903690600401611499565b98908515610ddb57828a03610dca57600091825b8b8110610d555750612710831015610d405761271083810311610d2a578261271014610d19576000546080526107566080516116a7565b6000558a610d125760015b604051888b8d6107ad61078b8e610777876114d6565b608051875260208701953387523691611884565b604086019081529261079e368d8f611884565b92606087019384523691611884565b916080850192835260a08501934285526107cb60c08701978861165c565b608051600090815260016020819052604090912096518755905190860180546001600160a01b0319166001600160a01b039290921691909117905551805160028601916001600160401b038211610b76578190610828845461157e565b601f8111610cbf575b50602090601f8311600114610c5a57600092610c4f575b50508160011b916000199060031b1c19161790555b51805160038501916001600160401b038211610b7657819061087f845461157e565b601f8111610bfc575b50602090601f8311600114610b9757600092610b8c575b50508160011b916000199060031b1c19161790555b51805160048401916001600160401b038211610b76576108d4835461157e565b601f8111610b2e575b50602090601f8311600114610ac2576006959493929160009183610ab7575b50508160011b916000199060031b1c19161790555b5160058201550190519360038510156105e8576109a49160009560ff80198354169116179055604051610943816114f1565b858152600260208201878152604083019088825260805189528260205260408920935184555160018401555191015560805185526004602052604085206040519161098d836114f1565b3383528660208401526127100360408301526118ca565b608051835260066020526040832060018060a01b033316845260205260408320600160ff1982541617905533835260056020526109e660805160408520611950565b825b8b8110610a63578a8a7f3488d52145f2da8302f4410707e81efde09f4f605b2182bbfb96b966837e32cd8b8b610a54610a418d8d610a33604051968796606088526060880191611985565b918583036020870152611985565b8281036040840152339660805196611985565b0390a360206040516080518152f35b60019060805185526004602052610ab18d610a8383604089209288611874565b3590610a90848a88611874565b359160405192610a9f846114f1565b898452602084015260408301526118ca565b016109e8565b0151905038806108fc565b90601f1983169184600052816000209260005b818110610b1657509160019391856006999897969410610afd575b505050811b019055610911565b015160001960f88460031b161c19169055388080610af0565b92936020600181928786015181550195019301610ad5565b836000526020600020601f840160051c81019160208510610b6c575b601f0160051c01905b818110610b6057506108dd565b60008155600101610b53565b9091508190610b4a565b634e487b7160e01b600052604160045260246000fd5b01519050388061089f565b60008581528281209350601f198516905b818110610be45750908460019594939210610bcb575b505050811b0190556108b4565b015160001960f88460031b161c19169055388080610bbe565b92936020600181928786015181550195019301610ba8565b909150836000526020600020601f840160051c81019160208510610c45575b90601f859493920160051c01905b818110610c365750610888565b60008155849350600101610c29565b9091508190610c1b565b015190503880610848565b60008581528281209350601f198516905b818110610ca75750908460019594939210610c8e575b505050811b01905561085d565b015160001960f88460031b161c19169055388080610c81565b92936020600181928786015181550195019301610c6b565b909150836000526020600020601f840160051c81019160208510610d08575b90601f859493920160051c01905b818110610cf95750610831565b60008155849350600101610cec565b9091508190610cde565b6000610761565b630781666160e51b60005260046000fd5b634e487b7160e01b600052601160045260246000fd5b82634a31414760e01b60005260045260246000fd5b92610d61848d85611874565b3515848d8215610db1575b5050610d9157610d8a600191610d83868f87611874565b359061169a565b930161071f565b610d9c848d85611874565b3563447e90bf60e11b60005260045260246000fd5b612710925090610dc19186611874565b3511848d610d6c565b63512509d360e11b60005260046000fd5b6352ddcdef60e11b60005260046000fd5b34610150576000366003190112610150576020600054604051908152f35b3461015057602036600319011261015057610e236116cd565b50600435600052600260205260606040600020600260405191610e45836114f1565b8054835260018101546020840152015460408201526103af60405180926040809180518452602081015160208501520151910152565b3461015057606036600319011261015057610e9d604435602435600435611700565b60405180916020820160208352815180915260206040840192019060005b818110610ec9575050500390f35b825180516001600160a01b03168552602081810151818701526040918201519186019190915286955060609094019390920191600101610ebb565b3461015057604036600319011261015057600435602435908060005260016020526040600020805415611174576006015460ff169160038310156105e8576002831461115f576000921561114b57801561113c576040516323b872dd60e01b815233600482015230602482015260448101829052602081606481877f00000000000000000000000000000000000000000000000000000000000000006001600160a01b03165af1908115611131578491611102575b50156110f357818352600460205260408320835b815481101561103f576002610fe28284611668565b500154808402908482040361102b5790600191610fff8285611668565b50838060a01b0390541687526007602052611023612710604089209204825461169a565b905501610fcd565b634e487b7160e01b86526011600452602486fd5b50509080835260026020526040832061105983825461169a565b81556001810161106981546116a7565b905581845260036020908152604080862033875290915284205460ff16156110bc575b506040519182527fe555da28bdb778f65d22794d88927ebaeca03f7de9d1b7d39245bc8fb5ca078a60203393a380f35b6002016110c981546116a7565b90558083526003602090815260408085203386529091528320805460ff191660011790558361108c565b6312171d8360e31b8352600483fd5b611124915060203d60201161112a575b61111c818361150c565b81019061152d565b84610fb9565b503d611112565b6040513d86823e3d90fd5b63bdd5839b60e01b8352600483fd5b63da8944ed60e01b83526004829052602483fd5b5063423b515f60e01b60005260045260246000fd5b506302ad881560e41b60005260045260246000fd5b34610150576020366003190112610150576111a2611545565b50600435600052600160205261123e604060002061122a60ff6006604051936111ca856114d6565b8054855260018101546001600160a01b031660208601526111ed600282016115b8565b60408601526111fe600382016115b8565b606086015261120f600482016115b8565b6080860152600581015460a086015201541660c0830161165c565b6040519182916020835260208301906113f2565b0390f35b34610150576040366003190112610150576024356001600160a01b038116906004359082900361015057801561138a57336000526007602052604060002054808211611372575033600052600760205260406000206112a28282546114c9565b905560405163a9059cbb60e01b8152600481018390526024810182905260208160448160007f00000000000000000000000000000000000000000000000000000000000000006001600160a01b03165af190811561136657600091611347575b5015611336576040519081527fa92ff919b850e4909ab2261d907ef955f11bc1716733a6cbece38d163a69af8a60203392a3005b6312171d8360e31b60005260046000fd5b611360915060203d60201161112a5761111c818361150c565b83611302565b6040513d6000823e3d90fd5b9063cf47918160e01b60005260045260245260446000fd5b639abc749160e01b60005260046000fd5b600435906001600160a01b038216820361015057565b919082519283825260005b8481106113dd575050826000602080949584010152601f8019910116010190565b806020809284010151828286010152016113bc565b908151815260018060a01b03602083015116602082015260c061144e61143c61142a604086015160e0604087015260e08601906113b1565b606086015185820360608701526113b1565b608085015184820360808601526113b1565b9260a081015160a084015201519060038210156105e85760c0015290565b9181601f84011215610150578235916001600160401b038311610150576020838186019501011161015057565b9181601f84011215610150578235916001600160401b038311610150576020808501948460051b01011161015057565b91908203918211610d2a57565b60e081019081106001600160401b03821117610b7657604052565b606081019081106001600160401b03821117610b7657604052565b90601f801991011681019081106001600160401b03821117610b7657604052565b90816020910312610150575180151581036101505790565b60405190611552826114d6565b600060c08382815282602082015260606040820152606080820152606060808201528260a08201520152565b90600182811c921680156115ae575b602083101461159857565b634e487b7160e01b600052602260045260246000fd5b91607f169161158d565b90604051918260008254926115cc8461157e565b808452936001811690811561163a57506001146115f3575b506115f19250038361150c565b565b90506000929192526020600020906000915b81831061161e5750509060206115f192820101386115e4565b6020919350806001915483858901015201910190918492611605565b9050602092506115f194915060ff191682840152151560051b820101386115e4565b60038210156105e85752565b8054821015611684576000526003602060002091020190600090565b634e487b7160e01b600052603260045260246000fd5b91908201809211610d2a57565b6000198114610d2a5760010190565b6001600160401b038111610b765760051b60200190565b604051906116da826114f1565b60006040838281528260208201520152565b80518210156116845760209160051b010190565b929190836000526001602052604060002054156105fe57836000526004602052604060002054811160001461176d575050604051909150600061174460208361150c565b81526000805b81811061175657505090565b6020906117616116cd565b8282860101520161174a565b611777828261169a565b84600052600460205260406000205410611854575b611795826116b6565b906117a3604051928361150c565b828252601f196117b2846116b6565b0160005b81811061183d575050819460005b8481106117d2575050505050565b6001908260005260046020526117f660406000206117f0868461169a565b90611668565b50600260405191611806836114f1565b848060a01b0381541683528481015460208401520154604082015261182b82876116ec565b5261183681866116ec565b50016117c4565b6020906118486116cd565b828287010152016117b6565b905082600052600460205261186e816040600020546114c9565b9061178c565b91908110156116845760051b0190565b9291926001600160401b038211610b7657604051916118ad601f8201601f19166020018461150c565b829481845281830111610150578281602093846000960137010152565b8054600160401b811015610b76576118e791600182018155611668565b91909161192257805182546001600160a01b0319166001600160a01b0391909116178255602081015160018301556040015160029190910155565b634e487b7160e01b600052600060045260246000fd5b80548210156116845760005260206000200190600090565b8054600160401b811015610b765761196d91600182018155611938565b819291549060031b91821b91600019901b1916179055565b908060209392818452848401376000828201840152601f01601f1916010190565b6001600160a01b03166000818152600560205260409020549093929190811115611a0857505060405190915060006119df60208361150c565b81526000805b8181106119f157505090565b6020906119fc611545565b828286010152016119e5565b611a12828261169a565b84600052600560205260406000205410611b0b575b611a30826116b6565b90611a3e604051928361150c565b828252601f19611a4d846116b6565b0160005b818110611af4575050819460005b848110611a6d575050505050565b600190826000526005602052611a916040600020611a8b868461169a565b90611938565b90549060031b1c600052816020526040600020611ad860ff600660405193611ab8856114d6565b80548552868060a01b03878201541660208601526111ed600282016115b8565b611ae282876116ec565b52611aed81866116ec565b5001611a5f565b602090611aff611545565b82828701015201611a51565b9050826000526005602052611b25816040600020546114c9565b90611a27565b600052600460205260406000206000908054915b828110611b4e57505050600190565b611b588183611668565b50546001600160a01b031615611b7057600101611b3f565b50505060009056fea2646970667358221220357851103ff83b186e8b166ade5bfa8361e6634dc7e0511de7f886a59d93ae8164736f6c634300081c0033",
  "linkReferences": {},
  "deployedLinkReferences": {}
}