{
  "src/Distributor.sol": {
    "Distributor": {
      "abi": [
        {
          "inputs": [
            {
              "internalType": "address",
              "name": "_usdcAddress",
              "type": "address"
            }
          ],
          "stateMutability": "nonpayable",
          "type": "constructor"
        },
        {
          "inputs": [],
          "name": "ArrayLengthMismatch",
          "type": "error"
        },
        {
          "inputs": [],
          "name": "EmptyTitle",
          "type": "error"
        },
        {
          "inputs": [
            {
              "internalType": "uint256",
              "name": "requested",
              "type": "uint256"
            },
            {
              "internalType": "uint256",
              "name": "available",
              "type": "uint256"
            }
          ],
          "name": "InsufficientBalance",
          "type": "error"
        },
        {
          "inputs": [],
          "name": "InvalidCreatorPercentage",
          "type": "error"
        },
        {
          "inputs": [],
          "name": "InvalidDonationAmount",
          "type": "error"
        },
        {
          "inputs": [],
          "name": "InvalidInvitationCode",
          "type": "error"
        },
        {
          "inputs": [
            {
              "internalType": "uint256",
              "name": "percentage",
              "type": "uint256"
            }
          ],
          "name": "InvalidMemberPercentage",
          "type": "error"
        },
        {
          "inputs": [
            {
              "internalType": "uint256",
              "name": "totalPercentage",
              "type": "uint256"
            }
          ],
          "name": "InvalidTotalPercentage",
          "type": "error"
        },
        {
          "inputs": [],
          "name": "InvalidWithdrawalAmount",
          "type": "error"
        },
        {
          "inputs": [],
          "name": "MemberAlreadyInPool",
          "type": "error"
        },
        {
          "inputs": [],
          "name": "NoInvitationCodeForSlot",
          "type": "error"
        },
        {
          "inputs": [
            {
              "internalType": "address",
              "name": "caller",
              "type": "address"
            },
            {
              "internalType": "uint256",
              "name": "poolId",
              "type": "uint256"
            }
          ],
          "name": "NotPoolCreator",
          "type": "error"
        },
        {
          "inputs": [
            {
              "internalType": "address",
              "name": "caller",
              "type": "address"
            },
            {
              "internalType": "uint256",
              "name": "poolId",
              "type": "uint256"
            }
          ],
          "name": "NotPoolMember",
          "type": "error"
        },
        {
          "inputs": [
            {
              "internalType": "uint256",
              "name": "poolId",
              "type": "uint256"
            }
          ],
          "name": "PoolInactive",
          "type": "error"
        },
        {
          "inputs": [
            {
              "internalType": "uint256",
              "name": "poolId",
              "type": "uint256"
            }
          ],
          "name": "PoolNotFound",
          "type": "error"
        },
        {
          "inputs": [
            {
              "internalType": "uint256",
              "name": "poolId",
              "type": "uint256"
            }
          ],
          "name": "PoolPending",
          "type": "error"
        },
        {
          "inputs": [],
          "name": "SlotAlreadyFilled",
          "type": "error"
        },
        {
          "inputs": [],
          "name": "TransferFailed",
          "type": "error"
        },
        {
          "anonymous": false,
          "inputs": [
            {
              "indexed": true,
              "internalType": "uint256",
              "name": "poolId",
              "type": "uint256"
            },
            {
              "indexed": true,
              "internalType": "address",
              "name": "donor",
              "type": "address"
            },
            {
              "indexed": false,
              "internalType": "uint256",
              "name": "amount",
              "type": "uint256"
            }
          ],
          "name": "DonationMade",
          "type": "event"
        },
        {
          "anonymous": false,
          "inputs": [
            {
              "indexed": true,
              "internalType": "address",
              "name": "member",
              "type": "address"
            },
            {
              "indexed": true,
              "internalType": "address",
              "name": "recipient",
              "type": "address"
            },
            {
              "indexed": false,
              "internalType": "uint256",
              "name": "amount",
              "type": "uint256"
            }
          ],
          "name": "FundsWithdrawn",
          "type": "event"
        },
        {
          "anonymous": false,
          "inputs": [
            {
              "indexed": true,
              "internalType": "uint256",
              "name": "poolId",
              "type": "uint256"
            },
            {
              "indexed": true,
              "internalType": "address",
              "name": "member",
              "type": "address"
            },
            {
              "indexed": false,
              "internalType": "uint256",
              "name": "percentage",
              "type": "uint256"
            }
          ],
          "name": "MemberJoined",
          "type": "event"
        },
        {
          "anonymous": false,
          "inputs": [
            {
              "indexed": true,
              "internalType": "uint256",
              "name": "poolId",
              "type": "uint256"
            },
            {
              "indexed": true,
              "internalType": "address",
              "name": "creator",
              "type": "address"
            },
            {
              "indexed": false,
              "internalType": "string",
              "name": "title",
              "type": "string"
            },
            {
              "indexed": false,
              "internalType": "string",
              "name": "description",
              "type": "string"
            },
            {
              "indexed": false,
              "internalType": "string",
              "name": "imageUri",
              "type": "string"
            }
          ],
          "name": "PoolCreated",
          "type": "event"
        },
        {
          "anonymous": false,
          "inputs": [
            {
              "indexed": true,
              "internalType": "uint256",
              "name": "poolId",
              "type": "uint256"
            },
            {
              "indexed": true,
              "internalType": "address",
              "name": "deactivatedBy",
              "type": "address"
            }
          ],
          "name": "PoolDeactivated",
          "type": "event"
        },
        {
          "inputs": [
            {
              "internalType": "string",
              "name": "title",
              "type": "string"
            },
            {
              "internalType": "string",
              "name": "description",
              "type": "string"
            },
            {
              "internalType": "string",
              "name": "imageUri",
              "type": "string"
            },
            {
              "internalType": "bytes32[]",
              "name": "invitationCodes",
              "type": "bytes32[]"
            },
            {
              "internalType": "uint256[]",
              "name": "percentages",
              "type": "uint256[]"
            }
          ],
          "name": "createPool",
          "outputs": [
            {
              "internalType": "uint256",
              "name": "poolId",
              "type": "uint256"
            }
          ],
          "stateMutability": "nonpayable",
          "type": "function"
        },
        {
          "inputs": [
            {
              "internalType": "uint256",
              "name": "poolId",
              "type": "uint256"
            }
          ],
          "name": "deactivatePool",
          "outputs": [],
          "stateMutability": "nonpayable",
          "type": "function"
        },
        {
          "inputs": [
            {
              "internalType": "uint256",
              "name": "poolId",
              "type": "uint256"
            },
            {
              "internalType": "uint256",
              "name": "amount",
              "type": "uint256"
            }
          ],
          "name": "donate",
          "outputs": [],
          "stateMutability": "nonpayable",
          "type": "function"
        },
        {
          "inputs": [
            {
              "internalType": "address",
              "name": "member",
              "type": "address"
            }
          ],
          "name": "getBalanceOf",
          "outputs": [
            {
              "internalType": "uint256",
              "name": "availableAmount",
              "type": "uint256"
            }
          ],
          "stateMutability": "view",
          "type": "function"
        },
        {
          "inputs": [
            {
              "internalType": "uint256",
              "name": "poolId",
              "type": "uint256"
            }
          ],
          "name": "getDonationsCount",
          "outputs": [
            {
              "internalType": "uint256",
              "name": "total",
              "type": "uint256"
            }
          ],
          "stateMutability": "view",
          "type": "function"
        },
        {
          "inputs": [
            {
              "internalType": "uint256",
              "name": "poolId",
              "type": "uint256"
            }
          ],
          "name": "getPool",
          "outputs": [
            {
              "components": [
                {
                  "internalType": "uint256",
                  "name": "id",
                  "type": "uint256"
                },
                {
                  "internalType": "address",
                  "name": "creator",
                  "type": "address"
                },
                {
                  "internalType": "string",
                  "name": "title",
                  "type": "string"
                },
                {
                  "internalType": "string",
                  "name": "description",
                  "type": "string"
                },
                {
                  "internalType": "string",
                  "name": "imageUri",
                  "type": "string"
                },
                {
                  "internalType": "uint256",
                  "name": "totalDonationsAmount",
                  "type": "uint256"
                },
                {
                  "internalType": "uint256",
                  "name": "totalDonationsCount",
                  "type": "uint256"
                },
                {
                  "internalType": "uint256",
                  "name": "uniqueDonatorsCount",
                  "type": "uint256"
                },
                {
                  "internalType": "uint256",
                  "name": "createdAt",
                  "type": "uint256"
                },
                {
                  "internalType": "enum IDistributorStructs.PoolStatus",
                  "name": "status",
                  "type": "uint8"
                }
              ],
              "internalType": "struct IDistributorStructs.Pool",
              "name": "pool",
              "type": "tuple"
            }
          ],
          "stateMutability": "view",
          "type": "function"
        },
        {
          "inputs": [
            {
              "internalType": "uint256",
              "name": "poolId",
              "type": "uint256"
            },
            {
              "internalType": "uint256",
              "name": "offset",
              "type": "uint256"
            },
            {
              "internalType": "uint256",
              "name": "limit",
              "type": "uint256"
            }
          ],
          "name": "getPoolMembers",
          "outputs": [
            {
              "components": [
                {
                  "internalType": "address",
                  "name": "member",
                  "type": "address"
                },
                {
                  "internalType": "bytes32",
                  "name": "invitationCodeHash",
                  "type": "bytes32"
                },
                {
                  "internalType": "uint256",
                  "name": "percentage",
                  "type": "uint256"
                }
              ],
              "internalType": "struct IDistributorStructs.Member[]",
              "name": "members",
              "type": "tuple[]"
            }
          ],
          "stateMutability": "view",
          "type": "function"
        },
        {
          "inputs": [
            {
              "internalType": "uint256",
              "name": "poolId",
              "type": "uint256"
            }
          ],
          "name": "getPoolMembersCount",
          "outputs": [
            {
              "internalType": "uint256",
              "name": "total",
              "type": "uint256"
            }
          ],
          "stateMutability": "view",
          "type": "function"
        },
        {
          "inputs": [
            {
              "internalType": "address",
              "name": "user",
              "type": "address"
            },
            {
              "internalType": "uint256",
              "name": "offset",
              "type": "uint256"
            },
            {
              "internalType": "uint256",
              "name": "limit",
              "type": "uint256"
            }
          ],
          "name": "getUserPools",
          "outputs": [
            {
              "components": [
                {
                  "internalType": "uint256",
                  "name": "id",
                  "type": "uint256"
                },
                {
                  "internalType": "address",
                  "name": "creator",
                  "type": "address"
                },
                {
                  "internalType": "string",
                  "name": "title",
                  "type": "string"
                },
                {
                  "internalType": "string",
                  "name": "description",
                  "type": "string"
                },
                {
                  "internalType": "string",
                  "name": "imageUri",
                  "type": "string"
                },
                {
                  "internalType": "uint256",
                  "name": "totalDonationsAmount",
                  "type": "uint256"
                },
                {
                  "internalType": "uint256",
                  "name": "totalDonationsCount",
                  "type": "uint256"
                },
                {
                  "internalType": "uint256",
                  "name": "uniqueDonatorsCount",
                  "type": "uint256"
                },
                {
                  "internalType": "uint256",
                  "name": "createdAt",
                  "type": "uint256"
                },
                {
                  "internalType": "enum IDistributorStructs.PoolStatus",
                  "name": "status",
                  "type": "uint8"
                }
              ],
              "internalType": "struct IDistributorStructs.Pool[]",
              "name": "pools",
              "type": "tuple[]"
            }
          ],
          "stateMutability": "view",
          "type": "function"
        },
        {
          "inputs": [
            {
              "internalType": "address",
              "name": "user",
              "type": "address"
            }
          ],
          "name": "getUserPoolsCount",
          "outputs": [
            {
              "internalType": "uint256",
              "name": "total",
              "type": "uint256"
            }
          ],
          "stateMutability": "view",
          "type": "function"
        },
        {
          "inputs": [
            {
              "internalType": "uint256",
              "name": "poolId",
              "type": "uint256"
            },
            {
              "internalType": "string",
              "name": "invitationCode",
              "type": "string"
            }
          ],
          "name": "joinPool",
          "outputs": [],
          "stateMutability": "nonpayable",
          "type": "function"
        },
        {
          "inputs": [],
          "name": "nextPoolId",
          "outputs": [
            {
              "internalType": "uint256",
              "name": "",
              "type": "uint256"
            }
          ],
          "stateMutability": "view",
          "type": "function"
        },
        {
          "inputs": [],
          "name": "usdc",
          "outputs": [
            {
              "internalType": "contract IERC20",
              "name": "",
              "type": "address"
            }
          ],
          "stateMutability": "view",
          "type": "function"
        },
        {
          "inputs": [
            {
              "internalType": "uint256",
              "name": "amount",
              "type": "uint256"
            },
            {
              "internalType": "address",
              "name": "recipient",
              "type": "address"
            }
          ],
          "name": "withdraw",
          "outputs": [],
          "stateMutability": "nonpayable",
          "type": "function"
        }
      ],
      "evm": {
        "bytecode": {
          "linkReferences": {},
          "object": "60a034607b57601f611abf38819003918201601f19168301916001600160401b03831184841017608057808492602094604052833981010312607b57516001600160a01b03811690819003607b576001600055608052604051611a289081610097823960805181818161052401528181610de701526111460152f35b600080fd5b634e487b7160e01b600052604160045260246000fdfe60a0604052600436101561001257600080fd5b60003560e01c8062f714ce146110bf578063068bcd8d14610fe65780630cdd53f614610d6957806312b3208214610ce057806318e5613114610cc25780631c014f16146105535780633e413bee1461050e578063683d6e58146104df578063871151021461028f5780639abd9b05146101ea5780639b96eece146101b05780639ee64b6514610176578063f535a4f51461014a5763f75b9afa146100b557600080fd5b34610145576060366003190112610145576100de6100d1611218565b604435906024359061181f565b6040518091602082016020835281518091526040830190602060408260051b8601019301916000905b82821061011657505050500390f35b919360019193955060206101358192603f198a8203018652885161126f565b9601920192018594939192610107565b600080fd5b346101455760203660031901126101455760043560005260026020526020604060002054604051908152f35b34610145576020366003190112610145576001600160a01b03610197611218565b1660005260046020526020604060002054604051908152f35b34610145576020366003190112610145576001600160a01b036101d1611218565b1660005260066020526020604060002054604051908152f35b3461014557602036600319011261014557600435806000526001602052604060002080541560001461022b57506302ad881560e41b60005260045260246000fd5b60018101546001600160a01b0316330361027657600901805460ff1916600217905533907f72e6fc67ca93cc3cedc1e023204888c2cab750fbb5526e1faf3445c0327ee0ef600080a3005b506302a20f2560e21b6000523360045260245260446000fd5b34610145576040366003190112610145576004356024356001600160401b038111610145576102c290369060040161130d565b82600052600160205260406000208054156104ca576009015460ff1660038110156104b45760021461049f57600083815260056020908152604080832033845290915290205460ff1661048e57610337602060405183819483830196873781016000838201520301601f1981018352826113ae565b519020908060005260026020526040600020600080809481908454915b828110610412575b505050156104015761036d9161151e565b5080546001600160a01b03191633908117909155600082815260056020908152604080832093835292905220805460ff191660011790556103ad816119a5565b6103e0575b6040519182527ff4f82575ee84a81aac4be52b6a368e9ba9df524b4f5cf8177d7cfbabe861820c60203393a3005b8060005260016020526009604060002001600160ff198254161790556103b2565b63046aa5bf60e01b60005260046000fd5b61041c818761151e565b50546001600160a01b03161580610477575b80610460575b61044057600101610354565b9650505050506002610452848361151e565b50015492600185808061035c565b50600161046d828861151e565b5001541515610434565b50816001610485838961151e565b5001541461042e565b634c0d3fed60e11b60005260046000fd5b8263423b515f60e01b60005260045260246000fd5b634e487b7160e01b600052602160045260246000fd5b836302ad881560e41b60005260045260246000fd5b346101455760203660031901126101455760043560005260016020526020600660406000200154604051908152f35b34610145576000366003190112610145576040517f00000000000000000000000000000000000000000000000000000000000000006001600160a01b03168152602090f35b346101455760a0366003190112610145576004356001600160401b0381116101455761058390369060040161130d565b6024356001600160401b038111610145576105a290369060040161130d565b926044356001600160401b038111610145576105c290369060040161130d565b9390926064356001600160401b038111610145576105e490369060040161133a565b6084979197356001600160401b0381116101455761060690369060040161133a565b98908515610cb157828a03610ca057600091825b8b8110610c2b5750612710831015610c165761271083810311610c00578261271014610bef5760005460805261065160805161155d565b6000558a610be85760015b604051888b8d6106a86106868e61067287611377565b608051875260208701953387523691611745565b6040860190815292610699368d8f611745565b92606087019384523691611745565b6080850190815260a08501906000825260c08601926000845260e0870194600086526101008801964288526106e26101208a019a8b611512565b608051600090815260016020819052604090912099518a55905190890180546001600160a01b0319166001600160a01b039290921691909117905551805160028901916001600160401b038211610a4c57819061073f8454611434565b601f8111610b95575b50602090601f8311600114610b3057600092610b25575b50508160011b916000199060031b1c19161790555b51805160038801916001600160401b038211610a4c5781906107968454611434565b601f8111610ad2575b50602090601f8311600114610a6d57600092610a62575b50508160011b916000199060031b1c19161790555b51805160048701916001600160401b038211610a4c576107eb8354611434565b601f8111610a04575b50602090601f831160011461099557600998979695949392916000918361098a575b50508160011b916000199060031b1c19161790555b5160058501555160068401555160078301555160088201550190519360038510156104b4576108959160009560ff8019835416911617905560805185526002602052604085206040519161087e83611393565b33835286602084015261271003604083015261178b565b60805183526005602090815260408085203386529091528320805460ff19166001179055825b8b8110610936578a8a7f3488d52145f2da8302f4410707e81efde09f4f605b2182bbfb96b966837e32cd8b8b6109276109148d8d6109066040519687966060885260608801916117fe565b9185830360208701526117fe565b82810360408401523396608051966117fe565b0390a360206040516080518152f35b600190608051855260026020526109848d61095683604089209288611735565b3590610963848a88611735565b35916040519261097284611393565b8984526020840152604083015261178b565b016108bb565b015190503880610816565b90601f1983169184600052816000209260005b8181106109ec575091600193918560099c9b9a9998979694106109d3575b505050811b01905561082b565b015160001960f88460031b161c191690553880806109c6565b929360206001819287860151815501950193016109a8565b836000526020600020601f840160051c81019160208510610a42575b601f0160051c01905b818110610a3657506107f4565b60008155600101610a29565b9091508190610a20565b634e487b7160e01b600052604160045260246000fd5b0151905038806107b6565b60008581528281209350601f198516905b818110610aba5750908460019594939210610aa1575b505050811b0190556107cb565b015160001960f88460031b161c19169055388080610a94565b92936020600181928786015181550195019301610a7e565b909150836000526020600020601f840160051c81019160208510610b1b575b90601f859493920160051c01905b818110610b0c575061079f565b60008155849350600101610aff565b9091508190610af1565b01519050388061075f565b60008581528281209350601f198516905b818110610b7d5750908460019594939210610b64575b505050811b019055610774565b015160001960f88460031b161c19169055388080610b57565b92936020600181928786015181550195019301610b41565b909150836000526020600020601f840160051c81019160208510610bde575b90601f859493920160051c01905b818110610bcf5750610748565b60008155849350600101610bc2565b9091508190610bb4565b600061065c565b630781666160e51b60005260046000fd5b634e487b7160e01b600052601160045260246000fd5b82634a31414760e01b60005260045260246000fd5b92610c37848d85611735565b3515848d8215610c87575b5050610c6757610c60600191610c59868f87611735565b3590611550565b930161061a565b610c72848d85611735565b3563447e90bf60e11b60005260045260246000fd5b612710925090610c979186611735565b3511848d610c42565b63512509d360e11b60005260046000fd5b6352ddcdef60e11b60005260046000fd5b34610145576000366003190112610145576020600054604051908152f35b3461014557606036600319011261014557610d02604435602435600435611597565b60405180916020820160208352815180915260206040840192019060005b818110610d2e575050500390f35b825180516001600160a01b03168552602081810151818701526040918201519186019190915286955060609094019390920191600101610d20565b3461014557604036600319011261014557600435602435816000526001602052604060002090815415610fd15760ff6009830154169260038410156104b45760028414610fbd5760009315610fab578115610f9c576040516323b872dd60e01b815233600482015230602482015260448101839052602081606481887f00000000000000000000000000000000000000000000000000000000000000006001600160a01b03165af1908115610f91578591610f62575b5015610f535780845260026020526040842090845b8254811015610ea6576002610e49828561151e565b5001548085029085820403610e925790600191610e66828661151e565b50838060a01b0390541688526006602052610e8a61271060408a2092048254611550565b905501610e34565b634e487b7160e01b87526011600452602487fd5b8584838760058101610eb9848254611550565b905560068101610ec9815461155d565b905581845260036020908152604080862033875290915284205460ff1615610f1c575b506040519182527fe555da28bdb778f65d22794d88927ebaeca03f7de9d1b7d39245bc8fb5ca078a60203393a380f35b600701610f29815461155d565b90558083526003602090815260408085203386529091528320805460ff1916600117905583610eec565b6312171d8360e31b8452600484fd5b610f84915060203d602011610f8a575b610f7c81836113ae565b8101906113cf565b85610e1f565b503d610f72565b6040513d87823e3d90fd5b63bdd5839b60e01b8452600484fd5b63da8944ed60e01b8452600452602483fd5b63423b515f60e01b60005260045260246000fd5b826302ad881560e41b60005260045260246000fd5b3461014557602036600319011261014557610fff6113e7565b5060043560005260016020526110bb60406000206110a760ff60096040519361102785611377565b8054855260018101546001600160a01b0316602086015261104a6002820161146e565b604086015261105b6003820161146e565b606086015261106c6004820161146e565b6080860152600581015460a0860152600681015460c0860152600781015460e086015260088101546101008601520154166101208301611512565b60405191829160208352602083019061126f565b0390f35b34610145576040366003190112610145576024356001600160a01b0381169060043590829003610145578015611207573360005260066020526040600020548082116111ef5750336000526006602052604060002061111f82825461136a565b905560405163a9059cbb60e01b8152600481018390526024810182905260208160448160007f00000000000000000000000000000000000000000000000000000000000000006001600160a01b03165af19081156111e3576000916111c4575b50156111b3576040519081527fa92ff919b850e4909ab2261d907ef955f11bc1716733a6cbece38d163a69af8a60203392a3005b6312171d8360e31b60005260046000fd5b6111dd915060203d602011610f8a57610f7c81836113ae565b8361117f565b6040513d6000823e3d90fd5b9063cf47918160e01b60005260045260245260446000fd5b639abc749160e01b60005260046000fd5b600435906001600160a01b038216820361014557565b919082519283825260005b84811061125a575050826000602080949584010152601f8019910116010190565b80602080928401015182828601015201611239565b908151815260018060a01b0360208301511660208201526101206112ce6112bc6112aa6040860151610140604087015261014086019061122e565b6060860151858203606087015261122e565b6080850151848203608086015261122e565b9260a081015160a084015260c081015160c084015260e081015160e084015261010081015161010084015201519060038210156104b457610120015290565b9181601f84011215610145578235916001600160401b038311610145576020838186019501011161014557565b9181601f84011215610145578235916001600160401b038311610145576020808501948460051b01011161014557565b91908203918211610c0057565b61014081019081106001600160401b03821117610a4c57604052565b606081019081106001600160401b03821117610a4c57604052565b90601f801991011681019081106001600160401b03821117610a4c57604052565b90816020910312610145575180151581036101455790565b604051906113f482611377565b60006101208382815282602082015260606040820152606080820152606060808201528260a08201528260c08201528260e0820152826101008201520152565b90600182811c92168015611464575b602083101461144e57565b634e487b7160e01b600052602260045260246000fd5b91607f1691611443565b906040519182600082549261148284611434565b80845293600181169081156114f057506001146114a9575b506114a7925003836113ae565b565b90506000929192526020600020906000915b8183106114d45750509060206114a7928201013861149a565b60209193508060019154838589010152019101909184926114bb565b9050602092506114a794915060ff191682840152151560051b8201013861149a565b60038210156104b45752565b805482101561153a576000526003602060002091020190600090565b634e487b7160e01b600052603260045260246000fd5b91908201809211610c0057565b6000198114610c005760010190565b6001600160401b038111610a4c5760051b60200190565b805182101561153a5760209160051b010190565b929190836000526001602052604060002054156104ca57836000526002602052604060002054811160001461161957505060405190915060006115db6020836113ae565b81526000805b8181106115ed57505090565b6020906040516115fc81611393565b6000815260008382015260006040820152828286010152016115e1565b6116238282611550565b84600052600260205260406000205410611715575b6116418261156c565b9061164f60405192836113ae565b828252601f1961165e8461156c565b0160005b8181106116e9575050819460005b84811061167e575050505050565b6001908260005260026020526116a2604060002061169c8684611550565b9061151e565b506002604051916116b283611393565b848060a01b038154168352848101546020840152015460408201526116d78287611583565b526116e28186611583565b5001611670565b6020906040516116f881611393565b600081526000838201526000604082015282828701015201611662565b905082600052600260205261172f8160406000205461136a565b90611638565b919081101561153a5760051b0190565b9291926001600160401b038211610a4c576040519161176e601f8201601f1916602001846113ae565b829481845281830111610145578281602093846000960137010152565b805468010000000000000000811015610a4c576117ad9160018201815561151e565b9190916117e857805182546001600160a01b0319166001600160a01b0391909116178255602081015160018301556040015160029190910155565b634e487b7160e01b600052600060045260246000fd5b908060209392818452848401376000828201840152601f01601f1916010190565b6001600160a01b03166000818152600460205260409020549093929082111561188057505060405190915060006118576020836113ae565b81526000805b81811061186957505090565b6020906118746113e7565b8282860101520161185d565b61188a8183611550565b84600052600460205260406000205410611987575b6118a88161156c565b916118b660405193846113ae565b818352601f196118c58361156c565b0160005b818110611970575050829460005b8381106118e5575050505050565b8160005260046020526040600020906118fe8482611550565b825481101561153a576001926000526020600020015460005281602052604060002061195460ff60096040519361193485611377565b80548552868060a01b038782015416602086015261104a6002820161146e565b61195e8288611583565b526119698187611583565b50016118d7565b60209061197b6113e7565b828288010152016118c9565b508260005260046020526119a08160406000205461136a565b61189f565b600052600260205260406000206000908054915b8281106119c857505050600190565b6119d2818361151e565b50546001600160a01b0316156119ea576001016119b9565b50505060009056fea264697066735822122036ab5c31d54ba5c931618e65cfcc166aa420ac4bb53136ac20b06edd4a375bef64736f6c634300081c0033",
          "opcodes": "PUSH1 0xA0 CALLVALUE PUSH1 0x7B JUMPI PUSH1 0x1F PUSH2 0x1ABF CODESIZE DUP2 SWAP1 SUB SWAP2 DUP3 ADD PUSH1 0x1F NOT AND DUP4 ADD SWAP2 PUSH1 0x1 PUSH1 0x1 PUSH1 0x40 SHL SUB DUP4 GT DUP5 DUP5 LT OR PUSH1 0x80 JUMPI DUP1 DUP5 SWAP3 PUSH1 0x20 SWAP5 PUSH1 0x40 MSTORE DUP4 CODECOPY DUP2 ADD SUB SLT PUSH1 0x7B JUMPI MLOAD PUSH1 0x1 PUSH1 0x1 PUSH1 0xA0 SHL SUB DUP2 AND SWAP1 DUP2 SWAP1 SUB PUSH1 0x7B JUMPI PUSH1 0x1 PUSH1 0x0 SSTORE PUSH1 0x80 MSTORE PUSH1 0x40 MLOAD PUSH2 0x1A28 SWAP1 DUP2 PUSH2 0x97 DUP3 CODECOPY PUSH1 0x80 MLOAD DUP2 DUP2 DUP2 PUSH2 0x524 ADD MSTORE DUP2 DUP2 PUSH2 0xDE7 ADD MSTORE PUSH2 0x1146 ADD MSTORE RETURN JUMPDEST PUSH1 0x0 DUP1 REVERT JUMPDEST PUSH4 0x4E487B71 PUSH1 0xE0 SHL PUSH1 0x0 MSTORE PUSH1 0x41 PUSH1 0x4 MSTORE PUSH1 0x24 PUSH1 0x0 REVERT INVALID PUSH1 0xA0 PUSH1 0x40 MSTORE PUSH1 0x4 CALLDATASIZE LT ISZERO PUSH2 0x12 JUMPI PUSH1 0x0 DUP1 REVERT JUMPDEST PUSH1 0x0 CALLDATALOAD PUSH1 0xE0 SHR DUP1 PUSH3 0xF714CE EQ PUSH2 0x10BF JUMPI DUP1 PUSH4 0x68BCD8D EQ PUSH2 0xFE6 JUMPI DUP1 PUSH4 0xCDD53F6 EQ PUSH2 0xD69 JUMPI DUP1 PUSH4 0x12B32082 EQ PUSH2 0xCE0 JUMPI DUP1 PUSH4 0x18E56131 EQ PUSH2 0xCC2 JUMPI DUP1 PUSH4 0x1C014F16 EQ PUSH2 0x553 JUMPI DUP1 PUSH4 0x3E413BEE EQ PUSH2 0x50E JUMPI DUP1 PUSH4 0x683D6E58 EQ PUSH2 0x4DF JUMPI DUP1 PUSH4 0x87115102 EQ PUSH2 0x28F JUMPI DUP1 PUSH4 0x9ABD9B05 EQ PUSH2 0x1EA JUMPI DUP1 PUSH4 0x9B96EECE EQ PUSH2 0x1B0 JUMPI DUP1 PUSH4 0x9EE64B65 EQ PUSH2 0x176 JUMPI DUP1 PUSH4 0xF535A4F5 EQ PUSH2 0x14A JUMPI PUSH4 0xF75B9AFA EQ PUSH2 0xB5 JUMPI PUSH1 0x0 DUP1 REVERT JUMPDEST CALLVALUE PUSH2 0x145 JUMPI PUSH1 0x60 CALLDATASIZE PUSH1 0x3 NOT ADD SLT PUSH2 0x145 JUMPI PUSH2 0xDE PUSH2 0xD1 PUSH2 0x1218 JUMP JUMPDEST PUSH1 0x44 CALLDATALOAD SWAP1 PUSH1 0x24 CALLDATALOAD SWAP1 PUSH2 0x181F JUMP JUMPDEST PUSH1 0x40 MLOAD DUP1 SWAP2 PUSH1 0x20 DUP3 ADD PUSH1 0x20 DUP4 MSTORE DUP2 MLOAD DUP1 SWAP2 MSTORE PUSH1 0x40 DUP4 ADD SWAP1 PUSH1 0x20 PUSH1 0x40 DUP3 PUSH1 0x5 SHL DUP7 ADD ADD SWAP4 ADD SWAP2 PUSH1 0x0 SWAP1 JUMPDEST DUP3 DUP3 LT PUSH2 0x116 JUMPI POP POP POP POP SUB SWAP1 RETURN JUMPDEST SWAP2 SWAP4 PUSH1 0x1 SWAP2 SWAP4 SWAP6 POP PUSH1 0x20 PUSH2 0x135 DUP2 SWAP3 PUSH1 0x3F NOT DUP11 DUP3 SUB ADD DUP7 MSTORE DUP9 MLOAD PUSH2 0x126F JUMP JUMPDEST SWAP7 ADD SWAP3 ADD SWAP3 ADD DUP6 SWAP5 SWAP4 SWAP2 SWAP3 PUSH2 0x107 JUMP JUMPDEST PUSH1 0x0 DUP1 REVERT JUMPDEST CALLVALUE PUSH2 0x145 JUMPI PUSH1 0x20 CALLDATASIZE PUSH1 0x3 NOT ADD SLT PUSH2 0x145 JUMPI PUSH1 0x4 CALLDATALOAD PUSH1 0x0 MSTORE PUSH1 0x2 PUSH1 0x20 MSTORE PUSH1 0x20 PUSH1 0x40 PUSH1 0x0 KECCAK256 SLOAD PUSH1 0x40 MLOAD SWAP1 DUP2 MSTORE RETURN JUMPDEST CALLVALUE PUSH2 0x145 JUMPI PUSH1 0x20 CALLDATASIZE PUSH1 0x3 NOT ADD SLT PUSH2 0x145 JUMPI PUSH1 0x1 PUSH1 0x1 PUSH1 0xA0 SHL SUB PUSH2 0x197 PUSH2 0x1218 JUMP JUMPDEST AND PUSH1 0x0 MSTORE PUSH1 0x4 PUSH1 0x20 MSTORE PUSH1 0x20 PUSH1 0x40 PUSH1 0x0 KECCAK256 SLOAD PUSH1 0x40 MLOAD SWAP1 DUP2 MSTORE RETURN JUMPDEST CALLVALUE PUSH2 0x145 JUMPI PUSH1 0x20 CALLDATASIZE PUSH1 0x3 NOT ADD SLT PUSH2 0x145 JUMPI PUSH1 0x1 PUSH1 0x1 PUSH1 0xA0 SHL SUB PUSH2 0x1D1 PUSH2 0x1218 JUMP JUMPDEST AND PUSH1 0x0 MSTORE PUSH1 0x6 PUSH1 0x20 MSTORE PUSH1 0x20 PUSH1 0x40 PUSH1 0x0 KECCAK256 SLOAD PUSH1 0x40 MLOAD SWAP1 DUP2 MSTORE RETURN JUMPDEST CALLVALUE PUSH2 0x145 JUMPI PUSH1 0x20 CALLDATASIZE PUSH1 0x3 NOT ADD SLT PUSH2 0x145 JUMPI PUSH1 0x4 CALLDATALOAD DUP1 PUSH1 0x0 MSTORE PUSH1 0x1 PUSH1 0x20 MSTORE PUSH1 0x40 PUSH1 0x0 KECCAK256 DUP1 SLOAD ISZERO PUSH1 0x0 EQ PUSH2 0x22B JUMPI POP PUSH4 0x2AD8815 PUSH1 0xE4 SHL PUSH1 0x0 MSTORE PUSH1 0x4 MSTORE PUSH1 0x24 PUSH1 0x0 REVERT JUMPDEST PUSH1 0x1 DUP2 ADD SLOAD PUSH1 0x1 PUSH1 0x1 PUSH1 0xA0 SHL SUB AND CALLER SUB PUSH2 0x276 JUMPI PUSH1 0x9 ADD DUP1 SLOAD PUSH1 0xFF NOT AND PUSH1 0x2 OR SWAP1 SSTORE CALLER SWAP1 PUSH32 0x72E6FC67CA93CC3CEDC1E023204888C2CAB750FBB5526E1FAF3445C0327EE0EF PUSH1 0x0 DUP1 LOG3 STOP JUMPDEST POP PUSH4 0x2A20F25 PUSH1 0xE2 SHL PUSH1 0x0 MSTORE CALLER PUSH1 0x4 MSTORE PUSH1 0x24 MSTORE PUSH1 0x44 PUSH1 0x0 REVERT JUMPDEST CALLVALUE PUSH2 0x145 JUMPI PUSH1 0x40 CALLDATASIZE PUSH1 0x3 NOT ADD SLT PUSH2 0x145 JUMPI PUSH1 0x4 CALLDATALOAD PUSH1 0x24 CALLDATALOAD PUSH1 0x1 PUSH1 0x1 PUSH1 0x40 SHL SUB DUP2 GT PUSH2 0x145 JUMPI PUSH2 0x2C2 SWAP1 CALLDATASIZE SWAP1 PUSH1 0x4 ADD PUSH2 0x130D JUMP JUMPDEST DUP3 PUSH1 0x0 MSTORE PUSH1 0x1 PUSH1 0x20 MSTORE PUSH1 0x40 PUSH1 0x0 KECCAK256 DUP1 SLOAD ISZERO PUSH2 0x4CA JUMPI PUSH1 0x9 ADD SLOAD PUSH1 0xFF AND PUSH1 0x3 DUP2 LT ISZERO PUSH2 0x4B4 JUMPI PUSH1 0x2 EQ PUSH2 0x49F JUMPI PUSH1 0x0 DUP4 DUP2 MSTORE PUSH1 0x5 PUSH1 0x20 SWAP1 DUP2 MSTORE PUSH1 0x40 DUP1 DUP4 KECCAK256 CALLER DUP5 MSTORE SWAP1 SWAP2 MSTORE SWAP1 KECCAK256 SLOAD PUSH1 0xFF AND PUSH2 0x48E JUMPI PUSH2 0x337 PUSH1 0x20 PUSH1 0x40 MLOAD DUP4 DUP2 SWAP5 DUP4 DUP4 ADD SWAP7 DUP8 CALLDATACOPY DUP2 ADD PUSH1 0x0 DUP4 DUP3 ADD MSTORE SUB ADD PUSH1 0x1F NOT DUP2 ADD DUP4 MSTORE DUP3 PUSH2 0x13AE JUMP JUMPDEST MLOAD SWAP1 KECCAK256 SWAP1 DUP1 PUSH1 0x0 MSTORE PUSH1 0x2 PUSH1 0x20 MSTORE PUSH1 0x40 PUSH1 0x0 KECCAK256 PUSH1 0x0 DUP1 DUP1 SWAP5 DUP2 SWAP1 DUP5 SLOAD SWAP2 JUMPDEST DUP3 DUP2 LT PUSH2 0x412 JUMPI JUMPDEST POP POP POP ISZERO PUSH2 0x401 JUMPI PUSH2 0x36D SWAP2 PUSH2 0x151E JUMP JUMPDEST POP DUP1 SLOAD PUSH1 0x1 PUSH1 0x1 PUSH1 0xA0 SHL SUB NOT AND CALLER SWAP1 DUP2 OR SWAP1 SWAP2 SSTORE PUSH1 0x0 DUP3 DUP2 MSTORE PUSH1 0x5 PUSH1 0x20 SWAP1 DUP2 MSTORE PUSH1 0x40 DUP1 DUP4 KECCAK256 SWAP4 DUP4 MSTORE SWAP3 SWAP1 MSTORE KECCAK256 DUP1 SLOAD PUSH1 0xFF NOT AND PUSH1 0x1 OR SWAP1 SSTORE PUSH2 0x3AD DUP2 PUSH2 0x19A5 JUMP JUMPDEST PUSH2 0x3E0 JUMPI JUMPDEST PUSH1 0x40 MLOAD SWAP2 DUP3 MSTORE PUSH32 0xF4F82575EE84A81AAC4BE52B6A368E9BA9DF524B4F5CF8177D7CFBABE861820C PUSH1 0x20 CALLER SWAP4 LOG3 STOP JUMPDEST DUP1 PUSH1 0x0 MSTORE PUSH1 0x1 PUSH1 0x20 MSTORE PUSH1 0x9 PUSH1 0x40 PUSH1 0x0 KECCAK256 ADD PUSH1 0x1 PUSH1 0xFF NOT DUP3 SLOAD AND OR SWAP1 SSTORE PUSH2 0x3B2 JUMP JUMPDEST PUSH4 0x46AA5BF PUSH1 0xE0 SHL PUSH1 0x0 MSTORE PUSH1 0x4 PUSH1 0x0 REVERT JUMPDEST PUSH2 0x41C DUP2 DUP8 PUSH2 0x151E JUMP JUMPDEST POP SLOAD PUSH1 0x1 PUSH1 0x1 PUSH1 0xA0 SHL SUB AND ISZERO DUP1 PUSH2 0x477 JUMPI JUMPDEST DUP1 PUSH2 0x460 JUMPI JUMPDEST PUSH2 0x440 JUMPI PUSH1 0x1 ADD PUSH2 0x354 JUMP JUMPDEST SWAP7 POP POP POP POP POP PUSH1 0x2 PUSH2 0x452 DUP5 DUP4 PUSH2 0x151E JUMP JUMPDEST POP ADD SLOAD SWAP3 PUSH1 0x1 DUP6 DUP1 DUP1 PUSH2 0x35C JUMP JUMPDEST POP PUSH1 0x1 PUSH2 0x46D DUP3 DUP9 PUSH2 0x151E JUMP JUMPDEST POP ADD SLOAD ISZERO ISZERO PUSH2 0x434 JUMP JUMPDEST POP DUP2 PUSH1 0x1 PUSH2 0x485 DUP4 DUP10 PUSH2 0x151E JUMP JUMPDEST POP ADD SLOAD EQ PUSH2 0x42E JUMP JUMPDEST PUSH4 0x4C0D3FED PUSH1 0xE1 SHL PUSH1 0x0 MSTORE PUSH1 0x4 PUSH1 0x0 REVERT JUMPDEST DUP3 PUSH4 0x423B515F PUSH1 0xE0 SHL PUSH1 0x0 MSTORE PUSH1 0x4 MSTORE PUSH1 0x24 PUSH1 0x0 REVERT JUMPDEST PUSH4 0x4E487B71 PUSH1 0xE0 SHL PUSH1 0x0 MSTORE PUSH1 0x21 PUSH1 0x4 MSTORE PUSH1 0x24 PUSH1 0x0 REVERT JUMPDEST DUP4 PUSH4 0x2AD8815 PUSH1 0xE4 SHL PUSH1 0x0 MSTORE PUSH1 0x4 MSTORE PUSH1 0x24 PUSH1 0x0 REVERT JUMPDEST CALLVALUE PUSH2 0x145 JUMPI PUSH1 0x20 CALLDATASIZE PUSH1 0x3 NOT ADD SLT PUSH2 0x145 JUMPI PUSH1 0x4 CALLDATALOAD PUSH1 0x0 MSTORE PUSH1 0x1 PUSH1 0x20 MSTORE PUSH1 0x20 PUSH1 0x6 PUSH1 0x40 PUSH1 0x0 KECCAK256 ADD SLOAD PUSH1 0x40 MLOAD SWAP1 DUP2 MSTORE RETURN JUMPDEST CALLVALUE PUSH2 0x145 JUMPI PUSH1 0x0 CALLDATASIZE PUSH1 0x3 NOT ADD SLT PUSH2 0x145 JUMPI PUSH1 0x40 MLOAD PUSH32 0x0 PUSH1 0x1 PUSH1 0x1 PUSH1 0xA0 SHL SUB AND DUP2 MSTORE PUSH1 0x20 SWAP1 RETURN JUMPDEST CALLVALUE PUSH2 0x145 JUMPI PUSH1 0xA0 CALLDATASIZE PUSH1 0x3 NOT ADD SLT PUSH2 0x145 JUMPI PUSH1 0x4 CALLDATALOAD PUSH1 0x1 PUSH1 0x1 PUSH1 0x40 SHL SUB DUP2 GT PUSH2 0x145 JUMPI PUSH2 0x583 SWAP1 CALLDATASIZE SWAP1 PUSH1 0x4 ADD PUSH2 0x130D JUMP JUMPDEST PUSH1 0x24 CALLDATALOAD PUSH1 0x1 PUSH1 0x1 PUSH1 0x40 SHL SUB DUP2 GT PUSH2 0x145 JUMPI PUSH2 0x5A2 SWAP1 CALLDATASIZE SWAP1 PUSH1 0x4 ADD PUSH2 0x130D JUMP JUMPDEST SWAP3 PUSH1 0x44 CALLDATALOAD PUSH1 0x1 PUSH1 0x1 PUSH1 0x40 SHL SUB DUP2 GT PUSH2 0x145 JUMPI PUSH2 0x5C2 SWAP1 CALLDATASIZE SWAP1 PUSH1 0x4 ADD PUSH2 0x130D JUMP JUMPDEST SWAP4 SWAP1 SWAP3 PUSH1 0x64 CALLDATALOAD PUSH1 0x1 PUSH1 0x1 PUSH1 0x40 SHL SUB DUP2 GT PUSH2 0x145 JUMPI PUSH2 0x5E4 SWAP1 CALLDATASIZE SWAP1 PUSH1 0x4 ADD PUSH2 0x133A JUMP JUMPDEST PUSH1 0x84 SWAP8 SWAP2 SWAP8 CALLDATALOAD PUSH1 0x1 PUSH1 0x1 PUSH1 0x40 SHL SUB DUP2 GT PUSH2 0x145 JUMPI PUSH2 0x606 SWAP1 CALLDATASIZE SWAP1 PUSH1 0x4 ADD PUSH2 0x133A JUMP JUMPDEST SWAP9 SWAP1 DUP6 ISZERO PUSH2 0xCB1 JUMPI DUP3 DUP11 SUB PUSH2 0xCA0 JUMPI PUSH1 0x0 SWAP2 DUP3 JUMPDEST DUP12 DUP2 LT PUSH2 0xC2B JUMPI POP PUSH2 0x2710 DUP4 LT ISZERO PUSH2 0xC16 JUMPI PUSH2 0x2710 DUP4 DUP2 SUB GT PUSH2 0xC00 JUMPI DUP3 PUSH2 0x2710 EQ PUSH2 0xBEF JUMPI PUSH1 0x0 SLOAD PUSH1 0x80 MSTORE PUSH2 0x651 PUSH1 0x80 MLOAD PUSH2 0x155D JUMP JUMPDEST PUSH1 0x0 SSTORE DUP11 PUSH2 0xBE8 JUMPI PUSH1 0x1 JUMPDEST PUSH1 0x40 MLOAD DUP9 DUP12 DUP14 PUSH2 0x6A8 PUSH2 0x686 DUP15 PUSH2 0x672 DUP8 PUSH2 0x1377 JUMP JUMPDEST PUSH1 0x80 MLOAD DUP8 MSTORE PUSH1 0x20 DUP8 ADD SWAP6 CALLER DUP8 MSTORE CALLDATASIZE SWAP2 PUSH2 0x1745 JUMP JUMPDEST PUSH1 0x40 DUP7 ADD SWAP1 DUP2 MSTORE SWAP3 PUSH2 0x699 CALLDATASIZE DUP14 DUP16 PUSH2 0x1745 JUMP JUMPDEST SWAP3 PUSH1 0x60 DUP8 ADD SWAP4 DUP5 MSTORE CALLDATASIZE SWAP2 PUSH2 0x1745 JUMP JUMPDEST PUSH1 0x80 DUP6 ADD SWAP1 DUP2 MSTORE PUSH1 0xA0 DUP6 ADD SWAP1 PUSH1 0x0 DUP3 MSTORE PUSH1 0xC0 DUP7 ADD SWAP3 PUSH1 0x0 DUP5 MSTORE PUSH1 0xE0 DUP8 ADD SWAP5 PUSH1 0x0 DUP7 MSTORE PUSH2 0x100 DUP9 ADD SWAP7 TIMESTAMP DUP9 MSTORE PUSH2 0x6E2 PUSH2 0x120 DUP11 ADD SWAP11 DUP12 PUSH2 0x1512 JUMP JUMPDEST PUSH1 0x80 MLOAD PUSH1 0x0 SWAP1 DUP2 MSTORE PUSH1 0x1 PUSH1 0x20 DUP2 SWAP1 MSTORE PUSH1 0x40 SWAP1 SWAP2 KECCAK256 SWAP10 MLOAD DUP11 SSTORE SWAP1 MLOAD SWAP1 DUP10 ADD DUP1 SLOAD PUSH1 0x1 PUSH1 0x1 PUSH1 0xA0 SHL SUB NOT AND PUSH1 0x1 PUSH1 0x1 PUSH1 0xA0 SHL SUB SWAP3 SWAP1 SWAP3 AND SWAP2 SWAP1 SWAP2 OR SWAP1 SSTORE MLOAD DUP1 MLOAD PUSH1 0x2 DUP10 ADD SWAP2 PUSH1 0x1 PUSH1 0x1 PUSH1 0x40 SHL SUB DUP3 GT PUSH2 0xA4C JUMPI DUP2 SWAP1 PUSH2 0x73F DUP5 SLOAD PUSH2 0x1434 JUMP JUMPDEST PUSH1 0x1F DUP2 GT PUSH2 0xB95 JUMPI JUMPDEST POP PUSH1 0x20 SWAP1 PUSH1 0x1F DUP4 GT PUSH1 0x1 EQ PUSH2 0xB30 JUMPI PUSH1 0x0 SWAP3 PUSH2 0xB25 JUMPI JUMPDEST POP POP DUP2 PUSH1 0x1 SHL SWAP2 PUSH1 0x0 NOT SWAP1 PUSH1 0x3 SHL SHR NOT AND OR SWAP1 SSTORE JUMPDEST MLOAD DUP1 MLOAD PUSH1 0x3 DUP9 ADD SWAP2 PUSH1 0x1 PUSH1 0x1 PUSH1 0x40 SHL SUB DUP3 GT PUSH2 0xA4C JUMPI DUP2 SWAP1 PUSH2 0x796 DUP5 SLOAD PUSH2 0x1434 JUMP JUMPDEST PUSH1 0x1F DUP2 GT PUSH2 0xAD2 JUMPI JUMPDEST POP PUSH1 0x20 SWAP1 PUSH1 0x1F DUP4 GT PUSH1 0x1 EQ PUSH2 0xA6D JUMPI PUSH1 0x0 SWAP3 PUSH2 0xA62 JUMPI JUMPDEST POP POP DUP2 PUSH1 0x1 SHL SWAP2 PUSH1 0x0 NOT SWAP1 PUSH1 0x3 SHL SHR NOT AND OR SWAP1 SSTORE JUMPDEST MLOAD DUP1 MLOAD PUSH1 0x4 DUP8 ADD SWAP2 PUSH1 0x1 PUSH1 0x1 PUSH1 0x40 SHL SUB DUP3 GT PUSH2 0xA4C JUMPI PUSH2 0x7EB DUP4 SLOAD PUSH2 0x1434 JUMP JUMPDEST PUSH1 0x1F DUP2 GT PUSH2 0xA04 JUMPI JUMPDEST POP PUSH1 0x20 SWAP1 PUSH1 0x1F DUP4 GT PUSH1 0x1 EQ PUSH2 0x995 JUMPI PUSH1 0x9 SWAP9 SWAP8 SWAP7 SWAP6 SWAP5 SWAP4 SWAP3 SWAP2 PUSH1 0x0 SWAP2 DUP4 PUSH2 0x98A JUMPI JUMPDEST POP POP DUP2 PUSH1 0x1 SHL SWAP2 PUSH1 0x0 NOT SWAP1 PUSH1 0x3 SHL SHR NOT AND OR SWAP1 SSTORE JUMPDEST MLOAD PUSH1 0x5 DUP6 ADD SSTORE MLOAD PUSH1 0x6 DUP5 ADD SSTORE MLOAD PUSH1 0x7 DUP4 ADD SSTORE MLOAD PUSH1 0x8 DUP3 ADD SSTORE ADD SWAP1 MLOAD SWAP4 PUSH1 0x3 DUP6 LT ISZERO PUSH2 0x4B4 JUMPI PUSH2 0x895 SWAP2 PUSH1 0x0 SWAP6 PUSH1 0xFF DUP1 NOT DUP4 SLOAD AND SWAP2 AND OR SWAP1 SSTORE PUSH1 0x80 MLOAD DUP6 MSTORE PUSH1 0x2 PUSH1 0x20 MSTORE PUSH1 0x40 DUP6 KECCAK256 PUSH1 0x40 MLOAD SWAP2 PUSH2 0x87E DUP4 PUSH2 0x1393 JUMP JUMPDEST CALLER DUP4 MSTORE DUP7 PUSH1 0x20 DUP5 ADD MSTORE PUSH2 0x2710 SUB PUSH1 0x40 DUP4 ADD MSTORE PUSH2 0x178B JUMP JUMPDEST PUSH1 0x80 MLOAD DUP4 MSTORE PUSH1 0x5 PUSH1 0x20 SWAP1 DUP2 MSTORE PUSH1 0x40 DUP1 DUP6 KECCAK256 CALLER DUP7 MSTORE SWAP1 SWAP2 MSTORE DUP4 KECCAK256 DUP1 SLOAD PUSH1 0xFF NOT AND PUSH1 0x1 OR SWAP1 SSTORE DUP3 JUMPDEST DUP12 DUP2 LT PUSH2 0x936 JUMPI DUP11 DUP11 PUSH32 0x3488D52145F2DA8302F4410707E81EFDE09F4F605B2182BBFB96B966837E32CD DUP12 DUP12 PUSH2 0x927 PUSH2 0x914 DUP14 DUP14 PUSH2 0x906 PUSH1 0x40 MLOAD SWAP7 DUP8 SWAP7 PUSH1 0x60 DUP9 MSTORE PUSH1 0x60 DUP9 ADD SWAP2 PUSH2 0x17FE JUMP JUMPDEST SWAP2 DUP6 DUP4 SUB PUSH1 0x20 DUP8 ADD MSTORE PUSH2 0x17FE JUMP JUMPDEST DUP3 DUP2 SUB PUSH1 0x40 DUP5 ADD MSTORE CALLER SWAP7 PUSH1 0x80 MLOAD SWAP7 PUSH2 0x17FE JUMP JUMPDEST SUB SWAP1 LOG3 PUSH1 0x20 PUSH1 0x40 MLOAD PUSH1 0x80 MLOAD DUP2 MSTORE RETURN JUMPDEST PUSH1 0x1 SWAP1 PUSH1 0x80 MLOAD DUP6 MSTORE PUSH1 0x2 PUSH1 0x20 MSTORE PUSH2 0x984 DUP14 PUSH2 0x956 DUP4 PUSH1 0x40 DUP10 KECCAK256 SWAP3 DUP9 PUSH2 0x1735 JUMP JUMPDEST CALLDATALOAD SWAP1 PUSH2 0x963 DUP5 DUP11 DUP9 PUSH2 0x1735 JUMP JUMPDEST CALLDATALOAD SWAP2 PUSH1 0x40 MLOAD SWAP3 PUSH2 0x972 DUP5 PUSH2 0x1393 JUMP JUMPDEST DUP10 DUP5 MSTORE PUSH1 0x20 DUP5 ADD MSTORE PUSH1 0x40 DUP4 ADD MSTORE PUSH2 0x178B JUMP JUMPDEST ADD PUSH2 0x8BB JUMP JUMPDEST ADD MLOAD SWAP1 POP CODESIZE DUP1 PUSH2 0x816 JUMP JUMPDEST SWAP1 PUSH1 0x1F NOT DUP4 AND SWAP2 DUP5 PUSH1 0x0 MSTORE DUP2 PUSH1 0x0 KECCAK256 SWAP3 PUSH1 0x0 JUMPDEST DUP2 DUP2 LT PUSH2 0x9EC JUMPI POP SWAP2 PUSH1 0x1 SWAP4 SWAP2 DUP6 PUSH1 0x9 SWAP13 SWAP12 SWAP11 SWAP10 SWAP9 SWAP8 SWAP7 SWAP5 LT PUSH2 0x9D3 JUMPI JUMPDEST POP POP POP DUP2 SHL ADD SWAP1 SSTORE PUSH2 0x82B JUMP JUMPDEST ADD MLOAD PUSH1 0x0 NOT PUSH1 0xF8 DUP5 PUSH1 0x3 SHL AND SHR NOT AND SWAP1 SSTORE CODESIZE DUP1 DUP1 PUSH2 0x9C6 JUMP JUMPDEST SWAP3 SWAP4 PUSH1 0x20 PUSH1 0x1 DUP2 SWAP3 DUP8 DUP7 ADD MLOAD DUP2 SSTORE ADD SWAP6 ADD SWAP4 ADD PUSH2 0x9A8 JUMP JUMPDEST DUP4 PUSH1 0x0 MSTORE PUSH1 0x20 PUSH1 0x0 KECCAK256 PUSH1 0x1F DUP5 ADD PUSH1 0x5 SHR DUP2 ADD SWAP2 PUSH1 0x20 DUP6 LT PUSH2 0xA42 JUMPI JUMPDEST PUSH1 0x1F ADD PUSH1 0x5 SHR ADD SWAP1 JUMPDEST DUP2 DUP2 LT PUSH2 0xA36 JUMPI POP PUSH2 0x7F4 JUMP JUMPDEST PUSH1 0x0 DUP2 SSTORE PUSH1 0x1 ADD PUSH2 0xA29 JUMP JUMPDEST SWAP1 SWAP2 POP DUP2 SWAP1 PUSH2 0xA20 JUMP JUMPDEST PUSH4 0x4E487B71 PUSH1 0xE0 SHL PUSH1 0x0 MSTORE PUSH1 0x41 PUSH1 0x4 MSTORE PUSH1 0x24 PUSH1 0x0 REVERT JUMPDEST ADD MLOAD SWAP1 POP CODESIZE DUP1 PUSH2 0x7B6 JUMP JUMPDEST PUSH1 0x0 DUP6 DUP2 MSTORE DUP3 DUP2 KECCAK256 SWAP4 POP PUSH1 0x1F NOT DUP6 AND SWAP1 JUMPDEST DUP2 DUP2 LT PUSH2 0xABA JUMPI POP SWAP1 DUP5 PUSH1 0x1 SWAP6 SWAP5 SWAP4 SWAP3 LT PUSH2 0xAA1 JUMPI JUMPDEST POP POP POP DUP2 SHL ADD SWAP1 SSTORE PUSH2 0x7CB JUMP JUMPDEST ADD MLOAD PUSH1 0x0 NOT PUSH1 0xF8 DUP5 PUSH1 0x3 SHL AND SHR NOT AND SWAP1 SSTORE CODESIZE DUP1 DUP1 PUSH2 0xA94 JUMP JUMPDEST SWAP3 SWAP4 PUSH1 0x20 PUSH1 0x1 DUP2 SWAP3 DUP8 DUP7 ADD MLOAD DUP2 SSTORE ADD SWAP6 ADD SWAP4 ADD PUSH2 0xA7E JUMP JUMPDEST SWAP1 SWAP2 POP DUP4 PUSH1 0x0 MSTORE PUSH1 0x20 PUSH1 0x0 KECCAK256 PUSH1 0x1F DUP5 ADD PUSH1 0x5 SHR DUP2 ADD SWAP2 PUSH1 0x20 DUP6 LT PUSH2 0xB1B JUMPI JUMPDEST SWAP1 PUSH1 0x1F DUP6 SWAP5 SWAP4 SWAP3 ADD PUSH1 0x5 SHR ADD SWAP1 JUMPDEST DUP2 DUP2 LT PUSH2 0xB0C JUMPI POP PUSH2 0x79F JUMP JUMPDEST PUSH1 0x0 DUP2 SSTORE DUP5 SWAP4 POP PUSH1 0x1 ADD PUSH2 0xAFF JUMP JUMPDEST SWAP1 SWAP2 POP DUP2 SWAP1 PUSH2 0xAF1 JUMP JUMPDEST ADD MLOAD SWAP1 POP CODESIZE DUP1 PUSH2 0x75F JUMP JUMPDEST PUSH1 0x0 DUP6 DUP2 MSTORE DUP3 DUP2 KECCAK256 SWAP4 POP PUSH1 0x1F NOT DUP6 AND SWAP1 JUMPDEST DUP2 DUP2 LT PUSH2 0xB7D JUMPI POP SWAP1 DUP5 PUSH1 0x1 SWAP6 SWAP5 SWAP4 SWAP3 LT PUSH2 0xB64 JUMPI JUMPDEST POP POP POP DUP2 SHL ADD SWAP1 SSTORE PUSH2 0x774 JUMP JUMPDEST ADD MLOAD PUSH1 0x0 NOT PUSH1 0xF8 DUP5 PUSH1 0x3 SHL AND SHR NOT AND SWAP1 SSTORE CODESIZE DUP1 DUP1 PUSH2 0xB57 JUMP JUMPDEST SWAP3 SWAP4 PUSH1 0x20 PUSH1 0x1 DUP2 SWAP3 DUP8 DUP7 ADD MLOAD DUP2 SSTORE ADD SWAP6 ADD SWAP4 ADD PUSH2 0xB41 JUMP JUMPDEST SWAP1 SWAP2 POP DUP4 PUSH1 0x0 MSTORE PUSH1 0x20 PUSH1 0x0 KECCAK256 PUSH1 0x1F DUP5 ADD PUSH1 0x5 SHR DUP2 ADD SWAP2 PUSH1 0x20 DUP6 LT PUSH2 0xBDE JUMPI JUMPDEST SWAP1 PUSH1 0x1F DUP6 SWAP5 SWAP4 SWAP3 ADD PUSH1 0x5 SHR ADD SWAP1 JUMPDEST DUP2 DUP2 LT PUSH2 0xBCF JUMPI POP PUSH2 0x748 JUMP JUMPDEST PUSH1 0x0 DUP2 SSTORE DUP5 SWAP4 POP PUSH1 0x1 ADD PUSH2 0xBC2 JUMP JUMPDEST SWAP1 SWAP2 POP DUP2 SWAP1 PUSH2 0xBB4 JUMP JUMPDEST PUSH1 0x0 PUSH2 0x65C JUMP JUMPDEST PUSH4 0x7816661 PUSH1 0xE5 SHL PUSH1 0x0 MSTORE PUSH1 0x4 PUSH1 0x0 REVERT JUMPDEST PUSH4 0x4E487B71 PUSH1 0xE0 SHL PUSH1 0x0 MSTORE PUSH1 0x11 PUSH1 0x4 MSTORE PUSH1 0x24 PUSH1 0x0 REVERT JUMPDEST DUP3 PUSH4 0x4A314147 PUSH1 0xE0 SHL PUSH1 0x0 MSTORE PUSH1 0x4 MSTORE PUSH1 0x24 PUSH1 0x0 REVERT JUMPDEST SWAP3 PUSH2 0xC37 DUP5 DUP14 DUP6 PUSH2 0x1735 JUMP JUMPDEST CALLDATALOAD ISZERO DUP5 DUP14 DUP3 ISZERO PUSH2 0xC87 JUMPI JUMPDEST POP POP PUSH2 0xC67 JUMPI PUSH2 0xC60 PUSH1 0x1 SWAP2 PUSH2 0xC59 DUP7 DUP16 DUP8 PUSH2 0x1735 JUMP JUMPDEST CALLDATALOAD SWAP1 PUSH2 0x1550 JUMP JUMPDEST SWAP4 ADD PUSH2 0x61A JUMP JUMPDEST PUSH2 0xC72 DUP5 DUP14 DUP6 PUSH2 0x1735 JUMP JUMPDEST CALLDATALOAD PUSH4 0x447E90BF PUSH1 0xE1 SHL PUSH1 0x0 MSTORE PUSH1 0x4 MSTORE PUSH1 0x24 PUSH1 0x0 REVERT JUMPDEST PUSH2 0x2710 SWAP3 POP SWAP1 PUSH2 0xC97 SWAP2 DUP7 PUSH2 0x1735 JUMP JUMPDEST CALLDATALOAD GT DUP5 DUP14 PUSH2 0xC42 JUMP JUMPDEST PUSH4 0x512509D3 PUSH1 0xE1 SHL PUSH1 0x0 MSTORE PUSH1 0x4 PUSH1 0x0 REVERT JUMPDEST PUSH4 0x52DDCDEF PUSH1 0xE1 SHL PUSH1 0x0 MSTORE PUSH1 0x4 PUSH1 0x0 REVERT JUMPDEST CALLVALUE PUSH2 0x145 JUMPI PUSH1 0x0 CALLDATASIZE PUSH1 0x3 NOT ADD SLT PUSH2 0x145 JUMPI PUSH1 0x20 PUSH1 0x0 SLOAD PUSH1 0x40 MLOAD SWAP1 DUP2 MSTORE RETURN JUMPDEST CALLVALUE PUSH2 0x145 JUMPI PUSH1 0x60 CALLDATASIZE PUSH1 0x3 NOT ADD SLT PUSH2 0x145 JUMPI PUSH2 0xD02 PUSH1 0x44 CALLDATALOAD PUSH1 0x24 CALLDATALOAD PUSH1 0x4 CALLDATALOAD PUSH2 0x1597 JUMP JUMPDEST PUSH1 0x40 MLOAD DUP1 SWAP2 PUSH1 0x20 DUP3 ADD PUSH1 0x20 DUP4 MSTORE DUP2 MLOAD DUP1 SWAP2 MSTORE PUSH1 0x20 PUSH1 0x40 DUP5 ADD SWAP3 ADD SWAP1 PUSH1 0x0 JUMPDEST DUP2 DUP2 LT PUSH2 0xD2E JUMPI POP POP POP SUB SWAP1 RETURN JUMPDEST DUP3 MLOAD DUP1 MLOAD PUSH1 0x1 PUSH1 0x1 PUSH1 0xA0 SHL SUB AND DUP6 MSTORE PUSH1 0x20 DUP2 DUP2 ADD MLOAD DUP2 DUP8 ADD MSTORE PUSH1 0x40 SWAP2 DUP3 ADD MLOAD SWAP2 DUP7 ADD SWAP2 SWAP1 SWAP2 MSTORE DUP7 SWAP6 POP PUSH1 0x60 SWAP1 SWAP5 ADD SWAP4 SWAP1 SWAP3 ADD SWAP2 PUSH1 0x1 ADD PUSH2 0xD20 JUMP JUMPDEST CALLVALUE PUSH2 0x145 JUMPI PUSH1 0x40 CALLDATASIZE PUSH1 0x3 NOT ADD SLT PUSH2 0x145 JUMPI PUSH1 0x4 CALLDATALOAD PUSH1 0x24 CALLDATALOAD DUP2 PUSH1 0x0 MSTORE PUSH1 0x1 PUSH1 0x20 MSTORE PUSH1 0x40 PUSH1 0x0 KECCAK256 SWAP1 DUP2 SLOAD ISZERO PUSH2 0xFD1 JUMPI PUSH1 0xFF PUSH1 0x9 DUP4 ADD SLOAD AND SWAP3 PUSH1 0x3 DUP5 LT ISZERO PUSH2 0x4B4 JUMPI PUSH1 0x2 DUP5 EQ PUSH2 0xFBD JUMPI PUSH1 0x0 SWAP4 ISZERO PUSH2 0xFAB JUMPI DUP2 ISZERO PUSH2 0xF9C JUMPI PUSH1 0x40 MLOAD PUSH4 0x23B872DD PUSH1 0xE0 SHL DUP2 MSTORE CALLER PUSH1 0x4 DUP3 ADD MSTORE ADDRESS PUSH1 0x24 DUP3 ADD MSTORE PUSH1 0x44 DUP2 ADD DUP4 SWAP1 MSTORE PUSH1 0x20 DUP2 PUSH1 0x64 DUP2 DUP9 PUSH32 0x0 PUSH1 0x1 PUSH1 0x1 PUSH1 0xA0 SHL SUB AND GAS CALL SWAP1 DUP2 ISZERO PUSH2 0xF91 JUMPI DUP6 SWAP2 PUSH2 0xF62 JUMPI JUMPDEST POP ISZERO PUSH2 0xF53 JUMPI DUP1 DUP5 MSTORE PUSH1 0x2 PUSH1 0x20 MSTORE PUSH1 0x40 DUP5 KECCAK256 SWAP1 DUP5 JUMPDEST DUP3 SLOAD DUP2 LT ISZERO PUSH2 0xEA6 JUMPI PUSH1 0x2 PUSH2 0xE49 DUP3 DUP6 PUSH2 0x151E JUMP JUMPDEST POP ADD SLOAD DUP1 DUP6 MUL SWAP1 DUP6 DUP3 DIV SUB PUSH2 0xE92 JUMPI SWAP1 PUSH1 0x1 SWAP2 PUSH2 0xE66 DUP3 DUP7 PUSH2 0x151E JUMP JUMPDEST POP DUP4 DUP1 PUSH1 0xA0 SHL SUB SWAP1 SLOAD AND DUP9 MSTORE PUSH1 0x6 PUSH1 0x20 MSTORE PUSH2 0xE8A PUSH2 0x2710 PUSH1 0x40 DUP11 KECCAK256 SWAP3 DIV DUP3 SLOAD PUSH2 0x1550 JUMP JUMPDEST SWAP1 SSTORE ADD PUSH2 0xE34 JUMP JUMPDEST PUSH4 0x4E487B71 PUSH1 0xE0 SHL DUP8 MSTORE PUSH1 0x11 PUSH1 0x4 MSTORE PUSH1 0x24 DUP8 REVERT JUMPDEST DUP6 DUP5 DUP4 DUP8 PUSH1 0x5 DUP2 ADD PUSH2 0xEB9 DUP5 DUP3 SLOAD PUSH2 0x1550 JUMP JUMPDEST SWAP1 SSTORE PUSH1 0x6 DUP2 ADD PUSH2 0xEC9 DUP2 SLOAD PUSH2 0x155D JUMP JUMPDEST SWAP1 SSTORE DUP2 DUP5 MSTORE PUSH1 0x3 PUSH1 0x20 SWAP1 DUP2 MSTORE PUSH1 0x40 DUP1 DUP7 KECCAK256 CALLER DUP8 MSTORE SWAP1 SWAP2 MSTORE DUP5 KECCAK256 SLOAD PUSH1 0xFF AND ISZERO PUSH2 0xF1C JUMPI JUMPDEST POP PUSH1 0x40 MLOAD SWAP2 DUP3 MSTORE PUSH32 0xE555DA28BDB778F65D22794D88927EBAECA03F7DE9D1B7D39245BC8FB5CA078A PUSH1 0x20 CALLER SWAP4 LOG3 DUP1 RETURN JUMPDEST PUSH1 0x7 ADD PUSH2 0xF29 DUP2 SLOAD PUSH2 0x155D JUMP JUMPDEST SWAP1 SSTORE DUP1 DUP4 MSTORE PUSH1 0x3 PUSH1 0x20 SWAP1 DUP2 MSTORE PUSH1 0x40 DUP1 DUP6 KECCAK256 CALLER DUP7 MSTORE SWAP1 SWAP2 MSTORE DUP4 KECCAK256 DUP1 SLOAD PUSH1 0xFF NOT AND PUSH1 0x1 OR SWAP1 SSTORE DUP4 PUSH2 0xEEC JUMP JUMPDEST PUSH4 0x12171D83 PUSH1 0xE3 SHL DUP5 MSTORE PUSH1 0x4 DUP5 REVERT JUMPDEST PUSH2 0xF84 SWAP2 POP PUSH1 0x20 RETURNDATASIZE PUSH1 0x20 GT PUSH2 0xF8A JUMPI JUMPDEST PUSH2 0xF7C DUP2 DUP4 PUSH2 0x13AE JUMP JUMPDEST DUP2 ADD SWAP1 PUSH2 0x13CF JUMP JUMPDEST DUP6 PUSH2 0xE1F JUMP JUMPDEST POP RETURNDATASIZE PUSH2 0xF72 JUMP JUMPDEST PUSH1 0x40 MLOAD RETURNDATASIZE DUP8 DUP3 RETURNDATACOPY RETURNDATASIZE SWAP1 REVERT JUMPDEST PUSH4 0xBDD5839B PUSH1 0xE0 SHL DUP5 MSTORE PUSH1 0x4 DUP5 REVERT JUMPDEST PUSH4 0xDA8944ED PUSH1 0xE0 SHL DUP5 MSTORE PUSH1 0x4 MSTORE PUSH1 0x24 DUP4 REVERT JUMPDEST PUSH4 0x423B515F PUSH1 0xE0 SHL PUSH1 0x0 MSTORE PUSH1 0x4 MSTORE PUSH1 0x24 PUSH1 0x0 REVERT JUMPDEST DUP3 PUSH4 0x2AD8815 PUSH1 0xE4 SHL PUSH1 0x0 MSTORE PUSH1 0x4 MSTORE PUSH1 0x24 PUSH1 0x0 REVERT JUMPDEST CALLVALUE PUSH2 0x145 JUMPI PUSH1 0x20 CALLDATASIZE PUSH1 0x3 NOT ADD SLT PUSH2 0x145 JUMPI PUSH2 0xFFF PUSH2 0x13E7 JUMP JUMPDEST POP PUSH1 0x4 CALLDATALOAD PUSH1 0x0 MSTORE PUSH1 0x1 PUSH1 0x20 MSTORE PUSH2 0x10BB PUSH1 0x40 PUSH1 0x0 KECCAK256 PUSH2 0x10A7 PUSH1 0xFF PUSH1 0x9 PUSH1 0x40 MLOAD SWAP4 PUSH2 0x1027 DUP6 PUSH2 0x1377 JUMP JUMPDEST DUP1 SLOAD DUP6 MSTORE PUSH1 0x1 DUP2 ADD SLOAD PUSH1 0x1 PUSH1 0x1 PUSH1 0xA0 SHL SUB AND PUSH1 0x20 DUP7 ADD MSTORE PUSH2 0x104A PUSH1 0x2 DUP3 ADD PUSH2 0x146E JUMP JUMPDEST PUSH1 0x40 DUP7 ADD MSTORE PUSH2 0x105B PUSH1 0x3 DUP3 ADD PUSH2 0x146E JUMP JUMPDEST PUSH1 0x60 DUP7 ADD MSTORE PUSH2 0x106C PUSH1 0x4 DUP3 ADD PUSH2 0x146E JUMP JUMPDEST PUSH1 0x80 DUP7 ADD MSTORE PUSH1 0x5 DUP2 ADD SLOAD PUSH1 0xA0 DUP7 ADD MSTORE PUSH1 0x6 DUP2 ADD SLOAD PUSH1 0xC0 DUP7 ADD MSTORE PUSH1 0x7 DUP2 ADD SLOAD PUSH1 0xE0 DUP7 ADD MSTORE PUSH1 0x8 DUP2 ADD SLOAD PUSH2 0x100 DUP7 ADD MSTORE ADD SLOAD AND PUSH2 0x120 DUP4 ADD PUSH2 0x1512 JUMP JUMPDEST PUSH1 0x40 MLOAD SWAP2 DUP3 SWAP2 PUSH1 0x20 DUP4 MSTORE PUSH1 0x20 DUP4 ADD SWAP1 PUSH2 0x126F JUMP JUMPDEST SUB SWAP1 RETURN JUMPDEST CALLVALUE PUSH2 0x145 JUMPI PUSH1 0x40 CALLDATASIZE PUSH1 0x3 NOT ADD SLT PUSH2 0x145 JUMPI PUSH1 0x24 CALLDATALOAD PUSH1 0x1 PUSH1 0x1 PUSH1 0xA0 SHL SUB DUP2 AND SWAP1 PUSH1 0x4 CALLDATALOAD SWAP1 DUP3 SWAP1 SUB PUSH2 0x145 JUMPI DUP1 ISZERO PUSH2 0x1207 JUMPI CALLER PUSH1 0x0 MSTORE PUSH1 0x6 PUSH1 0x20 MSTORE PUSH1 0x40 PUSH1 0x0 KECCAK256 SLOAD DUP1 DUP3 GT PUSH2 0x11EF JUMPI POP CALLER PUSH1 0x0 MSTORE PUSH1 0x6 PUSH1 0x20 MSTORE PUSH1 0x40 PUSH1 0x0 KECCAK256 PUSH2 0x111F DUP3 DUP3 SLOAD PUSH2 0x136A JUMP JUMPDEST SWAP1 SSTORE PUSH1 0x40 MLOAD PUSH4 0xA9059CBB PUSH1 0xE0 SHL DUP2 MSTORE PUSH1 0x4 DUP2 ADD DUP4 SWAP1 MSTORE PUSH1 0x24 DUP2 ADD DUP3 SWAP1 MSTORE PUSH1 0x20 DUP2 PUSH1 0x44 DUP2 PUSH1 0x0 PUSH32 0x0 PUSH1 0x1 PUSH1 0x1 PUSH1 0xA0 SHL SUB AND GAS CALL SWAP1 DUP2 ISZERO PUSH2 0x11E3 JUMPI PUSH1 0x0 SWAP2 PUSH2 0x11C4 JUMPI JUMPDEST POP ISZERO PUSH2 0x11B3 JUMPI PUSH1 0x40 MLOAD SWAP1 DUP2 MSTORE PUSH32 0xA92FF919B850E4909AB2261D907EF955F11BC1716733A6CBECE38D163A69AF8A PUSH1 0x20 CALLER SWAP3 LOG3 STOP JUMPDEST PUSH4 0x12171D83 PUSH1 0xE3 SHL PUSH1 0x0 MSTORE PUSH1 0x4 PUSH1 0x0 REVERT JUMPDEST PUSH2 0x11DD SWAP2 POP PUSH1 0x20 RETURNDATASIZE PUSH1 0x20 GT PUSH2 0xF8A JUMPI PUSH2 0xF7C DUP2 DUP4 PUSH2 0x13AE JUMP JUMPDEST DUP4 PUSH2 0x117F JUMP JUMPDEST PUSH1 0x40 MLOAD RETURNDATASIZE PUSH1 0x0 DUP3 RETURNDATACOPY RETURNDATASIZE SWAP1 REVERT JUMPDEST SWAP1 PUSH4 0xCF479181 PUSH1 0xE0 SHL PUSH1 0x0 MSTORE PUSH1 0x4 MSTORE PUSH1 0x24 MSTORE PUSH1 0x44 PUSH1 0x0 REVERT JUMPDEST PUSH4 0x9ABC7491 PUSH1 0xE0 SHL PUSH1 0x0 MSTORE PUSH1 0x4 PUSH1 0x0 REVERT JUMPDEST PUSH1 0x4 CALLDATALOAD SWAP1 PUSH1 0x1 PUSH1 0x1 PUSH1 0xA0 SHL SUB DUP3 AND DUP3 SUB PUSH2 0x145 JUMPI JUMP JUMPDEST SWAP2 SWAP1 DUP3 MLOAD SWAP3 DUP4 DUP3 MSTORE PUSH1 0x0 JUMPDEST DUP5 DUP2 LT PUSH2 0x125A JUMPI POP POP DUP3 PUSH1 0x0 PUSH1 0x20 DUP1 SWAP5 SWAP6 DUP5 ADD ADD MSTORE PUSH1 0x1F DUP1 NOT SWAP2 ADD AND ADD ADD SWAP1 JUMP JUMPDEST DUP1 PUSH1 0x20 DUP1 SWAP3 DUP5 ADD ADD MLOAD DUP3 DUP3 DUP7 ADD ADD MSTORE ADD PUSH2 0x1239 JUMP JUMPDEST SWAP1 DUP2 MLOAD DUP2 MSTORE PUSH1 0x1 DUP1 PUSH1 0xA0 SHL SUB PUSH1 0x20 DUP4 ADD MLOAD AND PUSH1 0x20 DUP3 ADD MSTORE PUSH2 0x120 PUSH2 0x12CE PUSH2 0x12BC PUSH2 0x12AA PUSH1 0x40 DUP7 ADD MLOAD PUSH2 0x140 PUSH1 0x40 DUP8 ADD MSTORE PUSH2 0x140 DUP7 ADD SWAP1 PUSH2 0x122E JUMP JUMPDEST PUSH1 0x60 DUP7 ADD MLOAD DUP6 DUP3 SUB PUSH1 0x60 DUP8 ADD MSTORE PUSH2 0x122E JUMP JUMPDEST PUSH1 0x80 DUP6 ADD MLOAD DUP5 DUP3 SUB PUSH1 0x80 DUP7 ADD MSTORE PUSH2 0x122E JUMP JUMPDEST SWAP3 PUSH1 0xA0 DUP2 ADD MLOAD PUSH1 0xA0 DUP5 ADD MSTORE PUSH1 0xC0 DUP2 ADD MLOAD PUSH1 0xC0 DUP5 ADD MSTORE PUSH1 0xE0 DUP2 ADD MLOAD PUSH1 0xE0 DUP5 ADD MSTORE PUSH2 0x100 DUP2 ADD MLOAD PUSH2 0x100 DUP5 ADD MSTORE ADD MLOAD SWAP1 PUSH1 0x3 DUP3 LT ISZERO PUSH2 0x4B4 JUMPI PUSH2 0x120 ADD MSTORE SWAP1 JUMP JUMPDEST SWAP2 DUP2 PUSH1 0x1F DUP5 ADD SLT ISZERO PUSH2 0x145 JUMPI DUP3 CALLDATALOAD SWAP2 PUSH1 0x1 PUSH1 0x1 PUSH1 0x40 SHL SUB DUP4 GT PUSH2 0x145 JUMPI PUSH1 0x20 DUP4 DUP2 DUP7 ADD SWAP6 ADD ADD GT PUSH2 0x145 JUMPI JUMP JUMPDEST SWAP2 DUP2 PUSH1 0x1F DUP5 ADD SLT ISZERO PUSH2 0x145 JUMPI DUP3 CALLDATALOAD SWAP2 PUSH1 0x1 PUSH1 0x1 PUSH1 0x40 SHL SUB DUP4 GT PUSH2 0x145 JUMPI PUSH1 0x20 DUP1 DUP6 ADD SWAP5 DUP5 PUSH1 0x5 SHL ADD ADD GT PUSH2 0x145 JUMPI JUMP JUMPDEST SWAP2 SWAP1 DUP3 SUB SWAP2 DUP3 GT PUSH2 0xC00 JUMPI JUMP JUMPDEST PUSH2 0x140 DUP2 ADD SWAP1 DUP2 LT PUSH1 0x1 PUSH1 0x1 PUSH1 0x40 SHL SUB DUP3 GT OR PUSH2 0xA4C JUMPI PUSH1 0x40 MSTORE JUMP JUMPDEST PUSH1 0x60 DUP2 ADD SWAP1 DUP2 LT PUSH1 0x1 PUSH1 0x1 PUSH1 0x40 SHL SUB DUP3 GT OR PUSH2 0xA4C JUMPI PUSH1 0x40 MSTORE JUMP JUMPDEST SWAP1 PUSH1 0x1F DUP1 NOT SWAP2 ADD AND DUP2 ADD SWAP1 DUP2 LT PUSH1 0x1 PUSH1 0x1 PUSH1 0x40 SHL SUB DUP3 GT OR PUSH2 0xA4C JUMPI PUSH1 0x40 MSTORE JUMP JUMPDEST SWAP1 DUP2 PUSH1 0x20 SWAP2 SUB SLT PUSH2 0x145 JUMPI MLOAD DUP1 ISZERO ISZERO DUP2 SUB PUSH2 0x145 JUMPI SWAP1 JUMP JUMPDEST PUSH1 0x40 MLOAD SWAP1 PUSH2 0x13F4 DUP3 PUSH2 0x1377 JUMP JUMPDEST PUSH1 0x0 PUSH2 0x120 DUP4 DUP3 DUP2 MSTORE DUP3 PUSH1 0x20 DUP3 ADD MSTORE PUSH1 0x60 PUSH1 0x40 DUP3 ADD MSTORE PUSH1 0x60 DUP1 DUP3 ADD MSTORE PUSH1 0x60 PUSH1 0x80 DUP3 ADD MSTORE DUP3 PUSH1 0xA0 DUP3 ADD MSTORE DUP3 PUSH1 0xC0 DUP3 ADD MSTORE DUP3 PUSH1 0xE0 DUP3 ADD MSTORE DUP3 PUSH2 0x100 DUP3 ADD MSTORE ADD MSTORE JUMP JUMPDEST SWAP1 PUSH1 0x1 DUP3 DUP2 SHR SWAP3 AND DUP1 ISZERO PUSH2 0x1464 JUMPI JUMPDEST PUSH1 0x20 DUP4 LT EQ PUSH2 0x144E JUMPI JUMP JUMPDEST PUSH4 0x4E487B71 PUSH1 0xE0 SHL PUSH1 0x0 MSTORE PUSH1 0x22 PUSH1 0x4 MSTORE PUSH1 0x24 PUSH1 0x0 REVERT JUMPDEST SWAP2 PUSH1 0x7F AND SWAP2 PUSH2 0x1443 JUMP JUMPDEST SWAP1 PUSH1 0x40 MLOAD SWAP2 DUP3 PUSH1 0x0 DUP3 SLOAD SWAP3 PUSH2 0x1482 DUP5 PUSH2 0x1434 JUMP JUMPDEST DUP1 DUP5 MSTORE SWAP4 PUSH1 0x1 DUP2 AND SWAP1 DUP2 ISZERO PUSH2 0x14F0 JUMPI POP PUSH1 0x1 EQ PUSH2 0x14A9 JUMPI JUMPDEST POP PUSH2 0x14A7 SWAP3 POP SUB DUP4 PUSH2 0x13AE JUMP JUMPDEST JUMP JUMPDEST SWAP1 POP PUSH1 0x0 SWAP3 SWAP2 SWAP3 MSTORE PUSH1 0x20 PUSH1 0x0 KECCAK256 SWAP1 PUSH1 0x0 SWAP2 JUMPDEST DUP2 DUP4 LT PUSH2 0x14D4 JUMPI POP POP SWAP1 PUSH1 0x20 PUSH2 0x14A7 SWAP3 DUP3 ADD ADD CODESIZE PUSH2 0x149A JUMP JUMPDEST PUSH1 0x20 SWAP2 SWAP4 POP DUP1 PUSH1 0x1 SWAP2 SLOAD DUP4 DUP6 DUP10 ADD ADD MSTORE ADD SWAP2 ADD SWAP1 SWAP2 DUP5 SWAP3 PUSH2 0x14BB JUMP JUMPDEST SWAP1 POP PUSH1 0x20 SWAP3 POP PUSH2 0x14A7 SWAP5 SWAP2 POP PUSH1 0xFF NOT AND DUP3 DUP5 ADD MSTORE ISZERO ISZERO PUSH1 0x5 SHL DUP3 ADD ADD CODESIZE PUSH2 0x149A JUMP JUMPDEST PUSH1 0x3 DUP3 LT ISZERO PUSH2 0x4B4 JUMPI MSTORE JUMP JUMPDEST DUP1 SLOAD DUP3 LT ISZERO PUSH2 0x153A JUMPI PUSH1 0x0 MSTORE PUSH1 0x3 PUSH1 0x20 PUSH1 0x0 KECCAK256 SWAP2 MUL ADD SWAP1 PUSH1 0x0 SWAP1 JUMP JUMPDEST PUSH4 0x4E487B71 PUSH1 0xE0 SHL PUSH1 0x0 MSTORE PUSH1 0x32 PUSH1 0x4 MSTORE PUSH1 0x24 PUSH1 0x0 REVERT JUMPDEST SWAP2 SWAP1 DUP3 ADD DUP1 SWAP3 GT PUSH2 0xC00 JUMPI JUMP JUMPDEST PUSH1 0x0 NOT DUP2 EQ PUSH2 0xC00 JUMPI PUSH1 0x1 ADD SWAP1 JUMP JUMPDEST PUSH1 0x1 PUSH1 0x1 PUSH1 0x40 SHL SUB DUP2 GT PUSH2 0xA4C JUMPI PUSH1 0x5 SHL PUSH1 0x20 ADD SWAP1 JUMP JUMPDEST DUP1 MLOAD DUP3 LT ISZERO PUSH2 0x153A JUMPI PUSH1 0x20 SWAP2 PUSH1 0x5 SHL ADD ADD SWAP1 JUMP JUMPDEST SWAP3 SWAP2 SWAP1 DUP4 PUSH1 0x0 MSTORE PUSH1 0x1 PUSH1 0x20 MSTORE PUSH1 0x40 PUSH1 0x0 KECCAK256 SLOAD ISZERO PUSH2 0x4CA JUMPI DUP4 PUSH1 0x0 MSTORE PUSH1 0x2 PUSH1 0x20 MSTORE PUSH1 0x40 PUSH1 0x0 KECCAK256 SLOAD DUP2 GT PUSH1 0x0 EQ PUSH2 0x1619 JUMPI POP POP PUSH1 0x40 MLOAD SWAP1 SWAP2 POP PUSH1 0x0 PUSH2 0x15DB PUSH1 0x20 DUP4 PUSH2 0x13AE JUMP JUMPDEST DUP2 MSTORE PUSH1 0x0 DUP1 JUMPDEST DUP2 DUP2 LT PUSH2 0x15ED JUMPI POP POP SWAP1 JUMP JUMPDEST PUSH1 0x20 SWAP1 PUSH1 0x40 MLOAD PUSH2 0x15FC DUP2 PUSH2 0x1393 JUMP JUMPDEST PUSH1 0x0 DUP2 MSTORE PUSH1 0x0 DUP4 DUP3 ADD MSTORE PUSH1 0x0 PUSH1 0x40 DUP3 ADD MSTORE DUP3 DUP3 DUP7 ADD ADD MSTORE ADD PUSH2 0x15E1 JUMP JUMPDEST PUSH2 0x1623 DUP3 DUP3 PUSH2 0x1550 JUMP JUMPDEST DUP5 PUSH1 0x0 MSTORE PUSH1 0x2 PUSH1 0x20 MSTORE PUSH1 0x40 PUSH1 0x0 KECCAK256 SLOAD LT PUSH2 0x1715 JUMPI JUMPDEST PUSH2 0x1641 DUP3 PUSH2 0x156C JUMP JUMPDEST SWAP1 PUSH2 0x164F PUSH1 0x40 MLOAD SWAP3 DUP4 PUSH2 0x13AE JUMP JUMPDEST DUP3 DUP3 MSTORE PUSH1 0x1F NOT PUSH2 0x165E DUP5 PUSH2 0x156C JUMP JUMPDEST ADD PUSH1 0x0 JUMPDEST DUP2 DUP2 LT PUSH2 0x16E9 JUMPI POP POP DUP2 SWAP5 PUSH1 0x0 JUMPDEST DUP5 DUP2 LT PUSH2 0x167E JUMPI POP POP POP POP POP JUMP JUMPDEST PUSH1 0x1 SWAP1 DUP3 PUSH1 0x0 MSTORE PUSH1 0x2 PUSH1 0x20 MSTORE PUSH2 0x16A2 PUSH1 0x40 PUSH1 0x0 KECCAK256 PUSH2 0x169C DUP7 DUP5 PUSH2 0x1550 JUMP JUMPDEST SWAP1 PUSH2 0x151E JUMP JUMPDEST POP PUSH1 0x2 PUSH1 0x40 MLOAD SWAP2 PUSH2 0x16B2 DUP4 PUSH2 0x1393 JUMP JUMPDEST DUP5 DUP1 PUSH1 0xA0 SHL SUB DUP2 SLOAD AND DUP4 MSTORE DUP5 DUP2 ADD SLOAD PUSH1 0x20 DUP5 ADD MSTORE ADD SLOAD PUSH1 0x40 DUP3 ADD MSTORE PUSH2 0x16D7 DUP3 DUP8 PUSH2 0x1583 JUMP JUMPDEST MSTORE PUSH2 0x16E2 DUP2 DUP7 PUSH2 0x1583 JUMP JUMPDEST POP ADD PUSH2 0x1670 JUMP JUMPDEST PUSH1 0x20 SWAP1 PUSH1 0x40 MLOAD PUSH2 0x16F8 DUP2 PUSH2 0x1393 JUMP JUMPDEST PUSH1 0x0 DUP2 MSTORE PUSH1 0x0 DUP4 DUP3 ADD MSTORE PUSH1 0x0 PUSH1 0x40 DUP3 ADD MSTORE DUP3 DUP3 DUP8 ADD ADD MSTORE ADD PUSH2 0x1662 JUMP JUMPDEST SWAP1 POP DUP3 PUSH1 0x0 MSTORE PUSH1 0x2 PUSH1 0x20 MSTORE PUSH2 0x172F DUP2 PUSH1 0x40 PUSH1 0x0 KECCAK256 SLOAD PUSH2 0x136A JUMP JUMPDEST SWAP1 PUSH2 0x1638 JUMP JUMPDEST SWAP2 SWAP1 DUP2 LT ISZERO PUSH2 0x153A JUMPI PUSH1 0x5 SHL ADD SWAP1 JUMP JUMPDEST SWAP3 SWAP2 SWAP3 PUSH1 0x1 PUSH1 0x1 PUSH1 0x40 SHL SUB DUP3 GT PUSH2 0xA4C JUMPI PUSH1 0x40 MLOAD SWAP2 PUSH2 0x176E PUSH1 0x1F DUP3 ADD PUSH1 0x1F NOT AND PUSH1 0x20 ADD DUP5 PUSH2 0x13AE JUMP JUMPDEST DUP3 SWAP5 DUP2 DUP5 MSTORE DUP2 DUP4 ADD GT PUSH2 0x145 JUMPI DUP3 DUP2 PUSH1 0x20 SWAP4 DUP5 PUSH1 0x0 SWAP7 ADD CALLDATACOPY ADD ADD MSTORE JUMP JUMPDEST DUP1 SLOAD PUSH9 0x10000000000000000 DUP2 LT ISZERO PUSH2 0xA4C JUMPI PUSH2 0x17AD SWAP2 PUSH1 0x1 DUP3 ADD DUP2 SSTORE PUSH2 0x151E JUMP JUMPDEST SWAP2 SWAP1 SWAP2 PUSH2 0x17E8 JUMPI DUP1 MLOAD DUP3 SLOAD PUSH1 0x1 PUSH1 0x1 PUSH1 0xA0 SHL SUB NOT AND PUSH1 0x1 PUSH1 0x1 PUSH1 0xA0 SHL SUB SWAP2 SWAP1 SWAP2 AND OR DUP3 SSTORE PUSH1 0x20 DUP2 ADD MLOAD PUSH1 0x1 DUP4 ADD SSTORE PUSH1 0x40 ADD MLOAD PUSH1 0x2 SWAP2 SWAP1 SWAP2 ADD SSTORE JUMP JUMPDEST PUSH4 0x4E487B71 PUSH1 0xE0 SHL PUSH1 0x0 MSTORE PUSH1 0x0 PUSH1 0x4 MSTORE PUSH1 0x24 PUSH1 0x0 REVERT JUMPDEST SWAP1 DUP1 PUSH1 0x20 SWAP4 SWAP3 DUP2 DUP5 MSTORE DUP5 DUP5 ADD CALLDATACOPY PUSH1 0x0 DUP3 DUP3 ADD DUP5 ADD MSTORE PUSH1 0x1F ADD PUSH1 0x1F NOT AND ADD ADD SWAP1 JUMP JUMPDEST PUSH1 0x1 PUSH1 0x1 PUSH1 0xA0 SHL SUB AND PUSH1 0x0 DUP2 DUP2 MSTORE PUSH1 0x4 PUSH1 0x20 MSTORE PUSH1 0x40 SWAP1 KECCAK256 SLOAD SWAP1 SWAP4 SWAP3 SWAP1 DUP3 GT ISZERO PUSH2 0x1880 JUMPI POP POP PUSH1 0x40 MLOAD SWAP1 SWAP2 POP PUSH1 0x0 PUSH2 0x1857 PUSH1 0x20 DUP4 PUSH2 0x13AE JUMP JUMPDEST DUP2 MSTORE PUSH1 0x0 DUP1 JUMPDEST DUP2 DUP2 LT PUSH2 0x1869 JUMPI POP POP SWAP1 JUMP JUMPDEST PUSH1 0x20 SWAP1 PUSH2 0x1874 PUSH2 0x13E7 JUMP JUMPDEST DUP3 DUP3 DUP7 ADD ADD MSTORE ADD PUSH2 0x185D JUMP JUMPDEST PUSH2 0x188A DUP2 DUP4 PUSH2 0x1550 JUMP JUMPDEST DUP5 PUSH1 0x0 MSTORE PUSH1 0x4 PUSH1 0x20 MSTORE PUSH1 0x40 PUSH1 0x0 KECCAK256 SLOAD LT PUSH2 0x1987 JUMPI JUMPDEST PUSH2 0x18A8 DUP2 PUSH2 0x156C JUMP JUMPDEST SWAP2 PUSH2 0x18B6 PUSH1 0x40 MLOAD SWAP4 DUP5 PUSH2 0x13AE JUMP JUMPDEST DUP2 DUP4 MSTORE PUSH1 0x1F NOT PUSH2 0x18C5 DUP4 PUSH2 0x156C JUMP JUMPDEST ADD PUSH1 0x0 JUMPDEST DUP2 DUP2 LT PUSH2 0x1970 JUMPI POP POP DUP3 SWAP5 PUSH1 0x0 JUMPDEST DUP4 DUP2 LT PUSH2 0x18E5 JUMPI POP POP POP POP POP JUMP JUMPDEST DUP2 PUSH1 0x0 MSTORE PUSH1 0x4 PUSH1 0x20 MSTORE PUSH1 0x40 PUSH1 0x0 KECCAK256 SWAP1 PUSH2 0x18FE DUP5 DUP3 PUSH2 0x1550 JUMP JUMPDEST DUP3 SLOAD DUP2 LT ISZERO PUSH2 0x153A JUMPI PUSH1 0x1 SWAP3 PUSH1 0x0 MSTORE PUSH1 0x20 PUSH1 0x0 KECCAK256 ADD SLOAD PUSH1 0x0 MSTORE DUP2 PUSH1 0x20 MSTORE PUSH1 0x40 PUSH1 0x0 KECCAK256 PUSH2 0x1954 PUSH1 0xFF PUSH1 0x9 PUSH1 0x40 MLOAD SWAP4 PUSH2 0x1934 DUP6 PUSH2 0x1377 JUMP JUMPDEST DUP1 SLOAD DUP6 MSTORE DUP7 DUP1 PUSH1 0xA0 SHL SUB DUP8 DUP3 ADD SLOAD AND PUSH1 0x20 DUP7 ADD MSTORE PUSH2 0x104A PUSH1 0x2 DUP3 ADD PUSH2 0x146E JUMP JUMPDEST PUSH2 0x195E DUP3 DUP9 PUSH2 0x1583 JUMP JUMPDEST MSTORE PUSH2 0x1969 DUP2 DUP8 PUSH2 0x1583 JUMP JUMPDEST POP ADD PUSH2 0x18D7 JUMP JUMPDEST PUSH1 0x20 SWAP1 PUSH2 0x197B PUSH2 0x13E7 JUMP JUMPDEST DUP3 DUP3 DUP9 ADD ADD MSTORE ADD PUSH2 0x18C9 JUMP JUMPDEST POP DUP3 PUSH1 0x0 MSTORE PUSH1 0x4 PUSH1 0x20 MSTORE PUSH2 0x19A0 DUP2 PUSH1 0x40 PUSH1 0x0 KECCAK256 SLOAD PUSH2 0x136A JUMP JUMPDEST PUSH2 0x189F JUMP JUMPDEST PUSH1 0x0 MSTORE PUSH1 0x2 PUSH1 0x20 MSTORE PUSH1 0x40 PUSH1 0x0 KECCAK256 PUSH1 0x0 SWAP1 DUP1 SLOAD SWAP2 JUMPDEST DUP3 DUP2 LT PUSH2 0x19C8 JUMPI POP POP POP PUSH1 0x1 SWAP1 JUMP JUMPDEST PUSH2 0x19D2 DUP2 DUP4 PUSH2 0x151E JUMP JUMPDEST POP SLOAD PUSH1 0x1 PUSH1 0x1 PUSH1 0xA0 SHL SUB AND ISZERO PUSH2 0x19EA JUMPI PUSH1 0x1 ADD PUSH2 0x19B9 JUMP JUMPDEST POP POP POP PUSH1 0x0 SWAP1 JUMP INVALID LOG2 PUSH5 0x6970667358 0x22 SLT KECCAK256 CALLDATASIZE 0xAB TLOAD BALANCE 0xD5 0x4B 0xA5 0xC9 BALANCE PUSH2 0x8E65 0xCF 0xCC AND PUSH11 0xA420AC4BB53136AC20B06E 0xDD BLOBBASEFEE CALLDATACOPY JUMPDEST 0xEF PUSH5 0x736F6C6343 STOP ADDMOD SHR STOP CALLER "
        },
        "methodIdentifiers": {
          "createPool(string,string,string,bytes32[],uint256[])": "1c014f16",
          "deactivatePool(uint256)": "9abd9b05",
          "donate(uint256,uint256)": "0cdd53f6",
          "getBalanceOf(address)": "9b96eece",
          "getDonationsCount(uint256)": "683d6e58",
          "getPool(uint256)": "068bcd8d",
          "getPoolMembers(uint256,uint256,uint256)": "12b32082",
          "getPoolMembersCount(uint256)": "f535a4f5",
          "getUserPools(address,uint256,uint256)": "f75b9afa",
          "getUserPoolsCount(address)": "9ee64b65",
          "joinPool(uint256,string)": "87115102",
          "nextPoolId()": "18e56131",
          "usdc()": "3e413bee",
          "withdraw(uint256,address)": "00f714ce"
        }
      }
    }
  }
}