{
  "src/Distributor.sol": {
    "Distributor": {
      "abi": [
        {
          "inputs": [
            {
              "internalType": "address",
              "name": "_usdcAddress",
              "type": "address"
            }
          ],
          "stateMutability": "nonpayable",
          "type": "constructor"
        },
        {
          "inputs": [],
          "name": "ArrayLengthMismatch",
          "type": "error"
        },
        {
          "inputs": [],
          "name": "EmptyTitle",
          "type": "error"
        },
        {
          "inputs": [
            {
              "internalType": "uint256",
              "name": "requested",
              "type": "uint256"
            },
            {
              "internalType": "uint256",
              "name": "available",
              "type": "uint256"
            }
          ],
          "name": "InsufficientBalance",
          "type": "error"
        },
        {
          "inputs": [],
          "name": "InvalidCreatorPercentage",
          "type": "error"
        },
        {
          "inputs": [],
          "name": "InvalidDonationAmount",
          "type": "error"
        },
        {
          "inputs": [],
          "name": "InvalidInvitationCode",
          "type": "error"
        },
        {
          "inputs": [
            {
              "internalType": "uint256",
              "name": "percentage",
              "type": "uint256"
            }
          ],
          "name": "InvalidMemberPercentage",
          "type": "error"
        },
        {
          "inputs": [
            {
              "internalType": "uint256",
              "name": "totalPercentage",
              "type": "uint256"
            }
          ],
          "name": "InvalidTotalPercentage",
          "type": "error"
        },
        {
          "inputs": [],
          "name": "InvalidWithdrawalAmount",
          "type": "error"
        },
        {
          "inputs": [],
          "name": "MemberAlreadyInPool",
          "type": "error"
        },
        {
          "inputs": [],
          "name": "NoInvitationCodeForSlot",
          "type": "error"
        },
        {
          "inputs": [
            {
              "internalType": "address",
              "name": "caller",
              "type": "address"
            },
            {
              "internalType": "uint256",
              "name": "poolId",
              "type": "uint256"
            }
          ],
          "name": "NotPoolCreator",
          "type": "error"
        },
        {
          "inputs": [
            {
              "internalType": "address",
              "name": "caller",
              "type": "address"
            },
            {
              "internalType": "uint256",
              "name": "poolId",
              "type": "uint256"
            }
          ],
          "name": "NotPoolMember",
          "type": "error"
        },
        {
          "inputs": [
            {
              "internalType": "uint256",
              "name": "poolId",
              "type": "uint256"
            }
          ],
          "name": "PoolInactive",
          "type": "error"
        },
        {
          "inputs": [
            {
              "internalType": "uint256",
              "name": "poolId",
              "type": "uint256"
            }
          ],
          "name": "PoolNotFound",
          "type": "error"
        },
        {
          "inputs": [
            {
              "internalType": "uint256",
              "name": "poolId",
              "type": "uint256"
            }
          ],
          "name": "PoolPending",
          "type": "error"
        },
        {
          "inputs": [],
          "name": "SlotAlreadyFilled",
          "type": "error"
        },
        {
          "inputs": [],
          "name": "TransferFailed",
          "type": "error"
        },
        {
          "anonymous": false,
          "inputs": [
            {
              "indexed": true,
              "internalType": "uint256",
              "name": "poolId",
              "type": "uint256"
            },
            {
              "indexed": true,
              "internalType": "address",
              "name": "donor",
              "type": "address"
            },
            {
              "indexed": false,
              "internalType": "uint256",
              "name": "amount",
              "type": "uint256"
            }
          ],
          "name": "DonationMade",
          "type": "event"
        },
        {
          "anonymous": false,
          "inputs": [
            {
              "indexed": true,
              "internalType": "address",
              "name": "member",
              "type": "address"
            },
            {
              "indexed": true,
              "internalType": "address",
              "name": "recipient",
              "type": "address"
            },
            {
              "indexed": false,
              "internalType": "uint256",
              "name": "amount",
              "type": "uint256"
            }
          ],
          "name": "FundsWithdrawn",
          "type": "event"
        },
        {
          "anonymous": false,
          "inputs": [
            {
              "indexed": true,
              "internalType": "uint256",
              "name": "poolId",
              "type": "uint256"
            },
            {
              "indexed": true,
              "internalType": "address",
              "name": "member",
              "type": "address"
            },
            {
              "indexed": false,
              "internalType": "uint256",
              "name": "percentage",
              "type": "uint256"
            }
          ],
          "name": "MemberJoined",
          "type": "event"
        },
        {
          "anonymous": false,
          "inputs": [
            {
              "indexed": true,
              "internalType": "uint256",
              "name": "poolId",
              "type": "uint256"
            },
            {
              "indexed": true,
              "internalType": "address",
              "name": "creator",
              "type": "address"
            },
            {
              "indexed": false,
              "internalType": "string",
              "name": "title",
              "type": "string"
            },
            {
              "indexed": false,
              "internalType": "string",
              "name": "description",
              "type": "string"
            },
            {
              "indexed": false,
              "internalType": "string",
              "name": "imageUri",
              "type": "string"
            }
          ],
          "name": "PoolCreated",
          "type": "event"
        },
        {
          "anonymous": false,
          "inputs": [
            {
              "indexed": true,
              "internalType": "uint256",
              "name": "poolId",
              "type": "uint256"
            },
            {
              "indexed": true,
              "internalType": "address",
              "name": "deactivatedBy",
              "type": "address"
            }
          ],
          "name": "PoolDeactivated",
          "type": "event"
        },
        {
          "inputs": [
            {
              "internalType": "string",
              "name": "title",
              "type": "string"
            },
            {
              "internalType": "string",
              "name": "description",
              "type": "string"
            },
            {
              "internalType": "string",
              "name": "imageUri",
              "type": "string"
            },
            {
              "internalType": "bytes32[]",
              "name": "invitationCodes",
              "type": "bytes32[]"
            },
            {
              "internalType": "uint256[]",
              "name": "percentages",
              "type": "uint256[]"
            }
          ],
          "name": "createPool",
          "outputs": [
            {
              "internalType": "uint256",
              "name": "poolId",
              "type": "uint256"
            }
          ],
          "stateMutability": "nonpayable",
          "type": "function"
        },
        {
          "inputs": [
            {
              "internalType": "uint256",
              "name": "poolId",
              "type": "uint256"
            }
          ],
          "name": "deactivatePool",
          "outputs": [],
          "stateMutability": "nonpayable",
          "type": "function"
        },
        {
          "inputs": [
            {
              "internalType": "uint256",
              "name": "poolId",
              "type": "uint256"
            },
            {
              "internalType": "uint256",
              "name": "amount",
              "type": "uint256"
            }
          ],
          "name": "donate",
          "outputs": [],
          "stateMutability": "nonpayable",
          "type": "function"
        },
        {
          "inputs": [
            {
              "internalType": "address",
              "name": "member",
              "type": "address"
            }
          ],
          "name": "getBalanceOf",
          "outputs": [
            {
              "internalType": "uint256",
              "name": "availableAmount",
              "type": "uint256"
            }
          ],
          "stateMutability": "view",
          "type": "function"
        },
        {
          "inputs": [
            {
              "internalType": "uint256",
              "name": "poolId",
              "type": "uint256"
            }
          ],
          "name": "getPool",
          "outputs": [
            {
              "components": [
                {
                  "internalType": "uint256",
                  "name": "id",
                  "type": "uint256"
                },
                {
                  "internalType": "address",
                  "name": "creator",
                  "type": "address"
                },
                {
                  "internalType": "string",
                  "name": "title",
                  "type": "string"
                },
                {
                  "internalType": "string",
                  "name": "description",
                  "type": "string"
                },
                {
                  "internalType": "string",
                  "name": "imageUri",
                  "type": "string"
                },
                {
                  "internalType": "uint256",
                  "name": "createdAt",
                  "type": "uint256"
                },
                {
                  "internalType": "enum IDistributorStructs.PoolStatus",
                  "name": "status",
                  "type": "uint8"
                }
              ],
              "internalType": "struct IDistributorStructs.Pool",
              "name": "pool",
              "type": "tuple"
            }
          ],
          "stateMutability": "view",
          "type": "function"
        },
        {
          "inputs": [
            {
              "internalType": "uint256",
              "name": "poolId",
              "type": "uint256"
            },
            {
              "internalType": "uint256",
              "name": "offset",
              "type": "uint256"
            },
            {
              "internalType": "uint256",
              "name": "limit",
              "type": "uint256"
            }
          ],
          "name": "getPoolMembers",
          "outputs": [
            {
              "components": [
                {
                  "internalType": "address",
                  "name": "member",
                  "type": "address"
                },
                {
                  "internalType": "bytes32",
                  "name": "invitationCodeHash",
                  "type": "bytes32"
                },
                {
                  "internalType": "uint256",
                  "name": "percentage",
                  "type": "uint256"
                }
              ],
              "internalType": "struct IDistributorStructs.Member[]",
              "name": "members",
              "type": "tuple[]"
            }
          ],
          "stateMutability": "view",
          "type": "function"
        },
        {
          "inputs": [
            {
              "internalType": "uint256",
              "name": "poolId",
              "type": "uint256"
            }
          ],
          "name": "getPoolMembersCount",
          "outputs": [
            {
              "internalType": "uint256",
              "name": "total",
              "type": "uint256"
            }
          ],
          "stateMutability": "view",
          "type": "function"
        },
        {
          "inputs": [
            {
              "internalType": "uint256",
              "name": "poolId",
              "type": "uint256"
            }
          ],
          "name": "getPoolSummary",
          "outputs": [
            {
              "components": [
                {
                  "internalType": "uint256",
                  "name": "totalDonationsAmount",
                  "type": "uint256"
                },
                {
                  "internalType": "uint256",
                  "name": "totalDonationsCount",
                  "type": "uint256"
                },
                {
                  "internalType": "uint256",
                  "name": "uniqueDonatorsCount",
                  "type": "uint256"
                }
              ],
              "internalType": "struct IDistributorStructs.PoolSummary",
              "name": "summary",
              "type": "tuple"
            }
          ],
          "stateMutability": "view",
          "type": "function"
        },
        {
          "inputs": [
            {
              "internalType": "address",
              "name": "user",
              "type": "address"
            },
            {
              "internalType": "uint256",
              "name": "offset",
              "type": "uint256"
            },
            {
              "internalType": "uint256",
              "name": "limit",
              "type": "uint256"
            }
          ],
          "name": "getUserPools",
          "outputs": [
            {
              "components": [
                {
                  "internalType": "uint256",
                  "name": "id",
                  "type": "uint256"
                },
                {
                  "internalType": "address",
                  "name": "creator",
                  "type": "address"
                },
                {
                  "internalType": "string",
                  "name": "title",
                  "type": "string"
                },
                {
                  "internalType": "string",
                  "name": "description",
                  "type": "string"
                },
                {
                  "internalType": "string",
                  "name": "imageUri",
                  "type": "string"
                },
                {
                  "internalType": "uint256",
                  "name": "createdAt",
                  "type": "uint256"
                },
                {
                  "internalType": "enum IDistributorStructs.PoolStatus",
                  "name": "status",
                  "type": "uint8"
                }
              ],
              "internalType": "struct IDistributorStructs.Pool[]",
              "name": "pools",
              "type": "tuple[]"
            }
          ],
          "stateMutability": "view",
          "type": "function"
        },
        {
          "inputs": [
            {
              "internalType": "address",
              "name": "user",
              "type": "address"
            }
          ],
          "name": "getUserPoolsCount",
          "outputs": [
            {
              "internalType": "uint256",
              "name": "total",
              "type": "uint256"
            }
          ],
          "stateMutability": "view",
          "type": "function"
        },
        {
          "inputs": [
            {
              "internalType": "address",
              "name": "user",
              "type": "address"
            }
          ],
          "name": "getUserSummary",
          "outputs": [
            {
              "components": [
                {
                  "internalType": "uint256",
                  "name": "totalDonationsAmount",
                  "type": "uint256"
                },
                {
                  "internalType": "uint256",
                  "name": "totalDonationsCount",
                  "type": "uint256"
                },
                {
                  "internalType": "uint256",
                  "name": "poolCount",
                  "type": "uint256"
                }
              ],
              "internalType": "struct IDistributorStructs.UserSummary",
              "name": "summary",
              "type": "tuple"
            }
          ],
          "stateMutability": "view",
          "type": "function"
        },
        {
          "inputs": [
            {
              "internalType": "uint256",
              "name": "poolId",
              "type": "uint256"
            },
            {
              "internalType": "bytes32",
              "name": "invitationCode",
              "type": "bytes32"
            }
          ],
          "name": "joinPool",
          "outputs": [],
          "stateMutability": "nonpayable",
          "type": "function"
        },
        {
          "inputs": [],
          "name": "nextPoolId",
          "outputs": [
            {
              "internalType": "uint256",
              "name": "",
              "type": "uint256"
            }
          ],
          "stateMutability": "view",
          "type": "function"
        },
        {
          "inputs": [],
          "name": "usdc",
          "outputs": [
            {
              "internalType": "contract IERC20",
              "name": "",
              "type": "address"
            }
          ],
          "stateMutability": "view",
          "type": "function"
        },
        {
          "inputs": [
            {
              "internalType": "uint256",
              "name": "amount",
              "type": "uint256"
            },
            {
              "internalType": "address",
              "name": "recipient",
              "type": "address"
            }
          ],
          "name": "withdraw",
          "outputs": [],
          "stateMutability": "nonpayable",
          "type": "function"
        }
      ],
      "evm": {
        "bytecode": {
          "linkReferences": {},
          "object": "60a034607b57601f611c1938819003918201601f19168301916001600160401b03831184841017608057808492602094604052833981010312607b57516001600160a01b03811690819003607b576001600055608052604051611b82908161009782396080518181816103c701528181610f5501526112880152f35b600080fd5b634e487b7160e01b600052604160045260246000fdfe60a0604052600436101561001257600080fd5b60003560e01c8062f714ce14611201578063068bcd8d146111485780630cdd53f614610ed857806312b3208214610e4f57806314d056f814610dde57806318e5613114610dc05780631c014f161461062c57806326e73670146103f65780633e413bee146103b15780638fbd0c2d1461029a5780639abd9b05146101f55780639b96eece146101bb5780639ee64b6514610181578063f535a4f5146101555763f75b9afa146100c057600080fd5b34610150576060366003190112610150576100e96100dc61135a565b604435906024359061197a565b6040518091602082016020835281518091526040830190602060408260051b8601019301916000905b82821061012157505050500390f35b919360019193955060206101408192603f198a820301865288516113b1565b9601920192018594939192610112565b600080fd5b346101505760203660031901126101505760043560005260046020526020604060002054604051908152f35b34610150576020366003190112610150576001600160a01b036101a261135a565b1660005260056020526020604060002054604051908152f35b34610150576020366003190112610150576001600160a01b036101dc61135a565b1660005260076020526020604060002054604051908152f35b3461015057602036600319011261015057600435806000526001602052604060002080541560001461023657506302ad881560e41b60005260045260246000fd5b60018101546001600160a01b0316330361028157600601805460ff1916600217905533907f72e6fc67ca93cc3cedc1e023204888c2cab750fbb5526e1faf3445c0327ee0ef600080a3005b506302a20f2560e21b6000523360045260245260446000fd5b34610150576020366003190112610150576102b361135a565b6102bb61168c565b906001600160a01b03166020820160005b82600052600560205260406000205481101561035d576001908360005260056020526102fc81604060002061190c565b90549060031b1c600052600260205261031b6040600020548651611659565b855283600052600560205261033481604060002061190c565b90549060031b1c600052600260205261035582604060002001548451611659565b8352016102cc565b50906060925191519060005260056020526040600020549060405192610382846114b0565b8352602083015260408201526103af60405180926040809180518452602081015160208501520151910152565bf35b34610150576000366003190112610150576040517f00000000000000000000000000000000000000000000000000000000000000006001600160a01b03168152602090f35b34610150576040366003190112610150576004358060005260016020526040600020805415610617576006015460ff166003811015610601576002146105ed57600081815260066020908152604080832033845290915290205460ff166105dc5760405160208101906024358252602081526104736040826114cb565b519020908060005260046020526040600020600080809481908454915b828110610560575b5050501561054f576104a991611627565b5080546001600160a01b031916339081179091556000828152600660209081526040808320938352928152828220805460ff1916600117905560059052206104f2908290611924565b6104fb81611aff565b61052e575b6040519182527ff4f82575ee84a81aac4be52b6a368e9ba9df524b4f5cf8177d7cfbabe861820c60203393a3005b8060005260016020526006604060002001600160ff19825416179055610500565b63046aa5bf60e01b60005260046000fd5b61056a8187611627565b50546001600160a01b031615806105c5575b806105ae575b61058e57600101610490565b96505050505060026105a08483611627565b500154926001858080610498565b5060016105bb8288611627565b5001541515610582565b508160016105d38389611627565b5001541461057c565b634c0d3fed60e11b60005260046000fd5b63423b515f60e01b60005260045260246000fd5b634e487b7160e01b600052602160045260246000fd5b506302ad881560e41b60005260045260246000fd5b346101505760a0366003190112610150576004356001600160401b0381116101505761065c90369060040161142b565b6024356001600160401b0381116101505761067b90369060040161142b565b926044356001600160401b0381116101505761069b90369060040161142b565b9390926064356001600160401b038111610150576106bd903690600401611458565b6084979197356001600160401b038111610150576106df903690600401611458565b98908515610daf57828a03610d9e57600091825b8b8110610d295750612710831015610d145761271083810311610cfe578261271014610ced5760005460805261072a608051611666565b6000558a610ce65760015b604051888b8d61078161075f8e61074b87611495565b608051875260208701953387523691611858565b6040860190815292610772368d8f611858565b92606087019384523691611858565b916080850192835260a085019342855261079f60c08701978861161b565b608051600090815260016020819052604090912096518755905190860180546001600160a01b0319166001600160a01b039290921691909117905551805160028601916001600160401b038211610b4a5781906107fc845461153d565b601f8111610c93575b50602090601f8311600114610c2e57600092610c23575b50508160011b916000199060031b1c19161790555b51805160038501916001600160401b038211610b4a578190610853845461153d565b601f8111610bd0575b50602090601f8311600114610b6b57600092610b60575b50508160011b916000199060031b1c19161790555b51805160048401916001600160401b038211610b4a576108a8835461153d565b601f8111610b02575b50602090601f8311600114610a96576006959493929160009183610a8b575b50508160011b916000199060031b1c19161790555b516005820155019051936003851015610601576109789160009560ff80198354169116179055604051610917816114b0565b8581526002602082018781526040830190888252608051895282602052604089209351845551600184015551910155608051855260046020526040852060405191610961836114b0565b33835286602084015261271003604083015261189e565b608051835260066020526040832060018060a01b033316845260205260408320600160ff1982541617905533835260056020526109ba60805160408520611924565b825b8b8110610a37578a8a7f3488d52145f2da8302f4410707e81efde09f4f605b2182bbfb96b966837e32cd8b8b610a28610a158d8d610a07604051968796606088526060880191611959565b918583036020870152611959565b8281036040840152339660805196611959565b0390a360206040516080518152f35b60019060805185526004602052610a858d610a5783604089209288611848565b3590610a64848a88611848565b359160405192610a73846114b0565b8984526020840152604083015261189e565b016109bc565b0151905038806108d0565b90601f1983169184600052816000209260005b818110610aea57509160019391856006999897969410610ad1575b505050811b0190556108e5565b015160001960f88460031b161c19169055388080610ac4565b92936020600181928786015181550195019301610aa9565b836000526020600020601f840160051c81019160208510610b40575b601f0160051c01905b818110610b3457506108b1565b60008155600101610b27565b9091508190610b1e565b634e487b7160e01b600052604160045260246000fd5b015190503880610873565b60008581528281209350601f198516905b818110610bb85750908460019594939210610b9f575b505050811b019055610888565b015160001960f88460031b161c19169055388080610b92565b92936020600181928786015181550195019301610b7c565b909150836000526020600020601f840160051c81019160208510610c19575b90601f859493920160051c01905b818110610c0a575061085c565b60008155849350600101610bfd565b9091508190610bef565b01519050388061081c565b60008581528281209350601f198516905b818110610c7b5750908460019594939210610c62575b505050811b019055610831565b015160001960f88460031b161c19169055388080610c55565b92936020600181928786015181550195019301610c3f565b909150836000526020600020601f840160051c81019160208510610cdc575b90601f859493920160051c01905b818110610ccd5750610805565b60008155849350600101610cc0565b9091508190610cb2565b6000610735565b630781666160e51b60005260046000fd5b634e487b7160e01b600052601160045260246000fd5b82634a31414760e01b60005260045260246000fd5b92610d35848d85611848565b3515848d8215610d85575b5050610d6557610d5e600191610d57868f87611848565b3590611659565b93016106f3565b610d70848d85611848565b3563447e90bf60e11b60005260045260246000fd5b612710925090610d959186611848565b3511848d610d40565b63512509d360e11b60005260046000fd5b6352ddcdef60e11b60005260046000fd5b34610150576000366003190112610150576020600054604051908152f35b3461015057602036600319011261015057610df761168c565b50600435600052600260205260606040600020600260405191610e19836114b0565b8054835260018101546020840152015460408201526103af60405180926040809180518452602081015160208501520151910152565b3461015057606036600319011261015057610e716044356024356004356116bf565b60405180916020820160208352815180915260206040840192019060005b818110610e9d575050500390f35b825180516001600160a01b03168552602081810151818701526040918201519186019190915286955060609094019390920191600101610e8f565b3461015057604036600319011261015057600435602435908060005260016020526040600020805415610617576006015460ff169160038310156106015760028314611133576000921561111f578015611110576040516323b872dd60e01b815233600482015230602482015260448101829052602081606481877f00000000000000000000000000000000000000000000000000000000000000006001600160a01b03165af19081156111055784916110d6575b50156110c757818352600460205260408320835b8154811015611013576002610fb68284611627565b5001548084029084820403610fff5790600191610fd38285611627565b50838060a01b0390541687526007602052610ff76127106040892092048254611659565b905501610fa1565b634e487b7160e01b86526011600452602486fd5b50509080835260026020526040832061102d838254611659565b81556001810161103d8154611666565b905581845260036020908152604080862033875290915284205460ff1615611090575b506040519182527fe555da28bdb778f65d22794d88927ebaeca03f7de9d1b7d39245bc8fb5ca078a60203393a380f35b60020161109d8154611666565b90558083526003602090815260408085203386529091528320805460ff1916600117905583611060565b6312171d8360e31b8352600483fd5b6110f8915060203d6020116110fe575b6110f081836114cb565b8101906114ec565b84610f8d565b503d6110e6565b6040513d86823e3d90fd5b63bdd5839b60e01b8352600483fd5b63da8944ed60e01b83526004829052602483fd5b5063423b515f60e01b60005260045260246000fd5b3461015057602036600319011261015057611161611504565b5060043560005260016020526111fd60406000206111e960ff60066040519361118985611495565b8054855260018101546001600160a01b031660208601526111ac60028201611577565b60408601526111bd60038201611577565b60608601526111ce60048201611577565b6080860152600581015460a086015201541660c0830161161b565b6040519182916020835260208301906113b1565b0390f35b34610150576040366003190112610150576024356001600160a01b03811690600435908290036101505780156113495733600052600760205260406000205480821161133157503360005260076020526040600020611261828254611488565b905560405163a9059cbb60e01b8152600481018390526024810182905260208160448160007f00000000000000000000000000000000000000000000000000000000000000006001600160a01b03165af190811561132557600091611306575b50156112f5576040519081527fa92ff919b850e4909ab2261d907ef955f11bc1716733a6cbece38d163a69af8a60203392a3005b6312171d8360e31b60005260046000fd5b61131f915060203d6020116110fe576110f081836114cb565b836112c1565b6040513d6000823e3d90fd5b9063cf47918160e01b60005260045260245260446000fd5b639abc749160e01b60005260046000fd5b600435906001600160a01b038216820361015057565b919082519283825260005b84811061139c575050826000602080949584010152601f8019910116010190565b8060208092840101518282860101520161137b565b908151815260018060a01b03602083015116602082015260c061140d6113fb6113e9604086015160e0604087015260e0860190611370565b60608601518582036060870152611370565b60808501518482036080860152611370565b9260a081015160a084015201519060038210156106015760c0015290565b9181601f84011215610150578235916001600160401b038311610150576020838186019501011161015057565b9181601f84011215610150578235916001600160401b038311610150576020808501948460051b01011161015057565b91908203918211610cfe57565b60e081019081106001600160401b03821117610b4a57604052565b606081019081106001600160401b03821117610b4a57604052565b90601f801991011681019081106001600160401b03821117610b4a57604052565b90816020910312610150575180151581036101505790565b6040519061151182611495565b600060c08382815282602082015260606040820152606080820152606060808201528260a08201520152565b90600182811c9216801561156d575b602083101461155757565b634e487b7160e01b600052602260045260246000fd5b91607f169161154c565b906040519182600082549261158b8461153d565b80845293600181169081156115f957506001146115b2575b506115b0925003836114cb565b565b90506000929192526020600020906000915b8183106115dd5750509060206115b092820101386115a3565b60209193508060019154838589010152019101909184926115c4565b9050602092506115b094915060ff191682840152151560051b820101386115a3565b60038210156106015752565b8054821015611643576000526003602060002091020190600090565b634e487b7160e01b600052603260045260246000fd5b91908201809211610cfe57565b6000198114610cfe5760010190565b6001600160401b038111610b4a5760051b60200190565b60405190611699826114b0565b60006040838281528260208201520152565b80518210156116435760209160051b010190565b9291908360005260016020526040600020541561183357836000526004602052604060002054811160001461172c57505060405190915060006117036020836114cb565b81526000805b81811061171557505090565b60209061172061168c565b82828601015201611709565b6117368282611659565b84600052600460205260406000205410611813575b61175482611675565b9061176260405192836114cb565b828252601f1961177184611675565b0160005b8181106117fc575050819460005b848110611791575050505050565b6001908260005260046020526117b560406000206117af8684611659565b90611627565b506002604051916117c5836114b0565b848060a01b038154168352848101546020840152015460408201526117ea82876116ab565b526117f581866116ab565b5001611783565b60209061180761168c565b82828701015201611775565b905082600052600460205261182d81604060002054611488565b9061174b565b836302ad881560e41b60005260045260246000fd5b91908110156116435760051b0190565b9291926001600160401b038211610b4a5760405191611881601f8201601f1916602001846114cb565b829481845281830111610150578281602093846000960137010152565b8054600160401b811015610b4a576118bb91600182018155611627565b9190916118f657805182546001600160a01b0319166001600160a01b0391909116178255602081015160018301556040015160029190910155565b634e487b7160e01b600052600060045260246000fd5b80548210156116435760005260206000200190600090565b8054600160401b811015610b4a576119419160018201815561190c565b819291549060031b91821b91600019901b1916179055565b908060209392818452848401376000828201840152601f01601f1916010190565b6001600160a01b031660008181526005602052604090205490939291908111156119dc57505060405190915060006119b36020836114cb565b81526000805b8181106119c557505090565b6020906119d0611504565b828286010152016119b9565b6119e68282611659565b84600052600560205260406000205410611adf575b611a0482611675565b90611a1260405192836114cb565b828252601f19611a2184611675565b0160005b818110611ac8575050819460005b848110611a41575050505050565b600190826000526005602052611a656040600020611a5f8684611659565b9061190c565b90549060031b1c600052816020526040600020611aac60ff600660405193611a8c85611495565b80548552868060a01b03878201541660208601526111ac60028201611577565b611ab682876116ab565b52611ac181866116ab565b5001611a33565b602090611ad3611504565b82828701015201611a25565b9050826000526005602052611af981604060002054611488565b906119fb565b600052600460205260406000206000908054915b828110611b2257505050600190565b611b2c8183611627565b50546001600160a01b031615611b4457600101611b13565b50505060009056fea2646970667358221220ae39eb84b13d0de9d6d47ca202a21edf40f6be277040effa8e61f498a0fb09fc64736f6c634300081c0033",
          "opcodes": "PUSH1 0xA0 CALLVALUE PUSH1 0x7B JUMPI PUSH1 0x1F PUSH2 0x1C19 CODESIZE DUP2 SWAP1 SUB SWAP2 DUP3 ADD PUSH1 0x1F NOT AND DUP4 ADD SWAP2 PUSH1 0x1 PUSH1 0x1 PUSH1 0x40 SHL SUB DUP4 GT DUP5 DUP5 LT OR PUSH1 0x80 JUMPI DUP1 DUP5 SWAP3 PUSH1 0x20 SWAP5 PUSH1 0x40 MSTORE DUP4 CODECOPY DUP2 ADD SUB SLT PUSH1 0x7B JUMPI MLOAD PUSH1 0x1 PUSH1 0x1 PUSH1 0xA0 SHL SUB DUP2 AND SWAP1 DUP2 SWAP1 SUB PUSH1 0x7B JUMPI PUSH1 0x1 PUSH1 0x0 SSTORE PUSH1 0x80 MSTORE PUSH1 0x40 MLOAD PUSH2 0x1B82 SWAP1 DUP2 PUSH2 0x97 DUP3 CODECOPY PUSH1 0x80 MLOAD DUP2 DUP2 DUP2 PUSH2 0x3C7 ADD MSTORE DUP2 DUP2 PUSH2 0xF55 ADD MSTORE PUSH2 0x1288 ADD MSTORE RETURN JUMPDEST PUSH1 0x0 DUP1 REVERT JUMPDEST PUSH4 0x4E487B71 PUSH1 0xE0 SHL PUSH1 0x0 MSTORE PUSH1 0x41 PUSH1 0x4 MSTORE PUSH1 0x24 PUSH1 0x0 REVERT INVALID PUSH1 0xA0 PUSH1 0x40 MSTORE PUSH1 0x4 CALLDATASIZE LT ISZERO PUSH2 0x12 JUMPI PUSH1 0x0 DUP1 REVERT JUMPDEST PUSH1 0x0 CALLDATALOAD PUSH1 0xE0 SHR DUP1 PUSH3 0xF714CE EQ PUSH2 0x1201 JUMPI DUP1 PUSH4 0x68BCD8D EQ PUSH2 0x1148 JUMPI DUP1 PUSH4 0xCDD53F6 EQ PUSH2 0xED8 JUMPI DUP1 PUSH4 0x12B32082 EQ PUSH2 0xE4F JUMPI DUP1 PUSH4 0x14D056F8 EQ PUSH2 0xDDE JUMPI DUP1 PUSH4 0x18E56131 EQ PUSH2 0xDC0 JUMPI DUP1 PUSH4 0x1C014F16 EQ PUSH2 0x62C JUMPI DUP1 PUSH4 0x26E73670 EQ PUSH2 0x3F6 JUMPI DUP1 PUSH4 0x3E413BEE EQ PUSH2 0x3B1 JUMPI DUP1 PUSH4 0x8FBD0C2D EQ PUSH2 0x29A JUMPI DUP1 PUSH4 0x9ABD9B05 EQ PUSH2 0x1F5 JUMPI DUP1 PUSH4 0x9B96EECE EQ PUSH2 0x1BB JUMPI DUP1 PUSH4 0x9EE64B65 EQ PUSH2 0x181 JUMPI DUP1 PUSH4 0xF535A4F5 EQ PUSH2 0x155 JUMPI PUSH4 0xF75B9AFA EQ PUSH2 0xC0 JUMPI PUSH1 0x0 DUP1 REVERT JUMPDEST CALLVALUE PUSH2 0x150 JUMPI PUSH1 0x60 CALLDATASIZE PUSH1 0x3 NOT ADD SLT PUSH2 0x150 JUMPI PUSH2 0xE9 PUSH2 0xDC PUSH2 0x135A JUMP JUMPDEST PUSH1 0x44 CALLDATALOAD SWAP1 PUSH1 0x24 CALLDATALOAD SWAP1 PUSH2 0x197A JUMP JUMPDEST PUSH1 0x40 MLOAD DUP1 SWAP2 PUSH1 0x20 DUP3 ADD PUSH1 0x20 DUP4 MSTORE DUP2 MLOAD DUP1 SWAP2 MSTORE PUSH1 0x40 DUP4 ADD SWAP1 PUSH1 0x20 PUSH1 0x40 DUP3 PUSH1 0x5 SHL DUP7 ADD ADD SWAP4 ADD SWAP2 PUSH1 0x0 SWAP1 JUMPDEST DUP3 DUP3 LT PUSH2 0x121 JUMPI POP POP POP POP SUB SWAP1 RETURN JUMPDEST SWAP2 SWAP4 PUSH1 0x1 SWAP2 SWAP4 SWAP6 POP PUSH1 0x20 PUSH2 0x140 DUP2 SWAP3 PUSH1 0x3F NOT DUP11 DUP3 SUB ADD DUP7 MSTORE DUP9 MLOAD PUSH2 0x13B1 JUMP JUMPDEST SWAP7 ADD SWAP3 ADD SWAP3 ADD DUP6 SWAP5 SWAP4 SWAP2 SWAP3 PUSH2 0x112 JUMP JUMPDEST PUSH1 0x0 DUP1 REVERT JUMPDEST CALLVALUE PUSH2 0x150 JUMPI PUSH1 0x20 CALLDATASIZE PUSH1 0x3 NOT ADD SLT PUSH2 0x150 JUMPI PUSH1 0x4 CALLDATALOAD PUSH1 0x0 MSTORE PUSH1 0x4 PUSH1 0x20 MSTORE PUSH1 0x20 PUSH1 0x40 PUSH1 0x0 KECCAK256 SLOAD PUSH1 0x40 MLOAD SWAP1 DUP2 MSTORE RETURN JUMPDEST CALLVALUE PUSH2 0x150 JUMPI PUSH1 0x20 CALLDATASIZE PUSH1 0x3 NOT ADD SLT PUSH2 0x150 JUMPI PUSH1 0x1 PUSH1 0x1 PUSH1 0xA0 SHL SUB PUSH2 0x1A2 PUSH2 0x135A JUMP JUMPDEST AND PUSH1 0x0 MSTORE PUSH1 0x5 PUSH1 0x20 MSTORE PUSH1 0x20 PUSH1 0x40 PUSH1 0x0 KECCAK256 SLOAD PUSH1 0x40 MLOAD SWAP1 DUP2 MSTORE RETURN JUMPDEST CALLVALUE PUSH2 0x150 JUMPI PUSH1 0x20 CALLDATASIZE PUSH1 0x3 NOT ADD SLT PUSH2 0x150 JUMPI PUSH1 0x1 PUSH1 0x1 PUSH1 0xA0 SHL SUB PUSH2 0x1DC PUSH2 0x135A JUMP JUMPDEST AND PUSH1 0x0 MSTORE PUSH1 0x7 PUSH1 0x20 MSTORE PUSH1 0x20 PUSH1 0x40 PUSH1 0x0 KECCAK256 SLOAD PUSH1 0x40 MLOAD SWAP1 DUP2 MSTORE RETURN JUMPDEST CALLVALUE PUSH2 0x150 JUMPI PUSH1 0x20 CALLDATASIZE PUSH1 0x3 NOT ADD SLT PUSH2 0x150 JUMPI PUSH1 0x4 CALLDATALOAD DUP1 PUSH1 0x0 MSTORE PUSH1 0x1 PUSH1 0x20 MSTORE PUSH1 0x40 PUSH1 0x0 KECCAK256 DUP1 SLOAD ISZERO PUSH1 0x0 EQ PUSH2 0x236 JUMPI POP PUSH4 0x2AD8815 PUSH1 0xE4 SHL PUSH1 0x0 MSTORE PUSH1 0x4 MSTORE PUSH1 0x24 PUSH1 0x0 REVERT JUMPDEST PUSH1 0x1 DUP2 ADD SLOAD PUSH1 0x1 PUSH1 0x1 PUSH1 0xA0 SHL SUB AND CALLER SUB PUSH2 0x281 JUMPI PUSH1 0x6 ADD DUP1 SLOAD PUSH1 0xFF NOT AND PUSH1 0x2 OR SWAP1 SSTORE CALLER SWAP1 PUSH32 0x72E6FC67CA93CC3CEDC1E023204888C2CAB750FBB5526E1FAF3445C0327EE0EF PUSH1 0x0 DUP1 LOG3 STOP JUMPDEST POP PUSH4 0x2A20F25 PUSH1 0xE2 SHL PUSH1 0x0 MSTORE CALLER PUSH1 0x4 MSTORE PUSH1 0x24 MSTORE PUSH1 0x44 PUSH1 0x0 REVERT JUMPDEST CALLVALUE PUSH2 0x150 JUMPI PUSH1 0x20 CALLDATASIZE PUSH1 0x3 NOT ADD SLT PUSH2 0x150 JUMPI PUSH2 0x2B3 PUSH2 0x135A JUMP JUMPDEST PUSH2 0x2BB PUSH2 0x168C JUMP JUMPDEST SWAP1 PUSH1 0x1 PUSH1 0x1 PUSH1 0xA0 SHL SUB AND PUSH1 0x20 DUP3 ADD PUSH1 0x0 JUMPDEST DUP3 PUSH1 0x0 MSTORE PUSH1 0x5 PUSH1 0x20 MSTORE PUSH1 0x40 PUSH1 0x0 KECCAK256 SLOAD DUP2 LT ISZERO PUSH2 0x35D JUMPI PUSH1 0x1 SWAP1 DUP4 PUSH1 0x0 MSTORE PUSH1 0x5 PUSH1 0x20 MSTORE PUSH2 0x2FC DUP2 PUSH1 0x40 PUSH1 0x0 KECCAK256 PUSH2 0x190C JUMP JUMPDEST SWAP1 SLOAD SWAP1 PUSH1 0x3 SHL SHR PUSH1 0x0 MSTORE PUSH1 0x2 PUSH1 0x20 MSTORE PUSH2 0x31B PUSH1 0x40 PUSH1 0x0 KECCAK256 SLOAD DUP7 MLOAD PUSH2 0x1659 JUMP JUMPDEST DUP6 MSTORE DUP4 PUSH1 0x0 MSTORE PUSH1 0x5 PUSH1 0x20 MSTORE PUSH2 0x334 DUP2 PUSH1 0x40 PUSH1 0x0 KECCAK256 PUSH2 0x190C JUMP JUMPDEST SWAP1 SLOAD SWAP1 PUSH1 0x3 SHL SHR PUSH1 0x0 MSTORE PUSH1 0x2 PUSH1 0x20 MSTORE PUSH2 0x355 DUP3 PUSH1 0x40 PUSH1 0x0 KECCAK256 ADD SLOAD DUP5 MLOAD PUSH2 0x1659 JUMP JUMPDEST DUP4 MSTORE ADD PUSH2 0x2CC JUMP JUMPDEST POP SWAP1 PUSH1 0x60 SWAP3 MLOAD SWAP2 MLOAD SWAP1 PUSH1 0x0 MSTORE PUSH1 0x5 PUSH1 0x20 MSTORE PUSH1 0x40 PUSH1 0x0 KECCAK256 SLOAD SWAP1 PUSH1 0x40 MLOAD SWAP3 PUSH2 0x382 DUP5 PUSH2 0x14B0 JUMP JUMPDEST DUP4 MSTORE PUSH1 0x20 DUP4 ADD MSTORE PUSH1 0x40 DUP3 ADD MSTORE PUSH2 0x3AF PUSH1 0x40 MLOAD DUP1 SWAP3 PUSH1 0x40 DUP1 SWAP2 DUP1 MLOAD DUP5 MSTORE PUSH1 0x20 DUP2 ADD MLOAD PUSH1 0x20 DUP6 ADD MSTORE ADD MLOAD SWAP2 ADD MSTORE JUMP JUMPDEST RETURN JUMPDEST CALLVALUE PUSH2 0x150 JUMPI PUSH1 0x0 CALLDATASIZE PUSH1 0x3 NOT ADD SLT PUSH2 0x150 JUMPI PUSH1 0x40 MLOAD PUSH32 0x0 PUSH1 0x1 PUSH1 0x1 PUSH1 0xA0 SHL SUB AND DUP2 MSTORE PUSH1 0x20 SWAP1 RETURN JUMPDEST CALLVALUE PUSH2 0x150 JUMPI PUSH1 0x40 CALLDATASIZE PUSH1 0x3 NOT ADD SLT PUSH2 0x150 JUMPI PUSH1 0x4 CALLDATALOAD DUP1 PUSH1 0x0 MSTORE PUSH1 0x1 PUSH1 0x20 MSTORE PUSH1 0x40 PUSH1 0x0 KECCAK256 DUP1 SLOAD ISZERO PUSH2 0x617 JUMPI PUSH1 0x6 ADD SLOAD PUSH1 0xFF AND PUSH1 0x3 DUP2 LT ISZERO PUSH2 0x601 JUMPI PUSH1 0x2 EQ PUSH2 0x5ED JUMPI PUSH1 0x0 DUP2 DUP2 MSTORE PUSH1 0x6 PUSH1 0x20 SWAP1 DUP2 MSTORE PUSH1 0x40 DUP1 DUP4 KECCAK256 CALLER DUP5 MSTORE SWAP1 SWAP2 MSTORE SWAP1 KECCAK256 SLOAD PUSH1 0xFF AND PUSH2 0x5DC JUMPI PUSH1 0x40 MLOAD PUSH1 0x20 DUP2 ADD SWAP1 PUSH1 0x24 CALLDATALOAD DUP3 MSTORE PUSH1 0x20 DUP2 MSTORE PUSH2 0x473 PUSH1 0x40 DUP3 PUSH2 0x14CB JUMP JUMPDEST MLOAD SWAP1 KECCAK256 SWAP1 DUP1 PUSH1 0x0 MSTORE PUSH1 0x4 PUSH1 0x20 MSTORE PUSH1 0x40 PUSH1 0x0 KECCAK256 PUSH1 0x0 DUP1 DUP1 SWAP5 DUP2 SWAP1 DUP5 SLOAD SWAP2 JUMPDEST DUP3 DUP2 LT PUSH2 0x560 JUMPI JUMPDEST POP POP POP ISZERO PUSH2 0x54F JUMPI PUSH2 0x4A9 SWAP2 PUSH2 0x1627 JUMP JUMPDEST POP DUP1 SLOAD PUSH1 0x1 PUSH1 0x1 PUSH1 0xA0 SHL SUB NOT AND CALLER SWAP1 DUP2 OR SWAP1 SWAP2 SSTORE PUSH1 0x0 DUP3 DUP2 MSTORE PUSH1 0x6 PUSH1 0x20 SWAP1 DUP2 MSTORE PUSH1 0x40 DUP1 DUP4 KECCAK256 SWAP4 DUP4 MSTORE SWAP3 DUP2 MSTORE DUP3 DUP3 KECCAK256 DUP1 SLOAD PUSH1 0xFF NOT AND PUSH1 0x1 OR SWAP1 SSTORE PUSH1 0x5 SWAP1 MSTORE KECCAK256 PUSH2 0x4F2 SWAP1 DUP3 SWAP1 PUSH2 0x1924 JUMP JUMPDEST PUSH2 0x4FB DUP2 PUSH2 0x1AFF JUMP JUMPDEST PUSH2 0x52E JUMPI JUMPDEST PUSH1 0x40 MLOAD SWAP2 DUP3 MSTORE PUSH32 0xF4F82575EE84A81AAC4BE52B6A368E9BA9DF524B4F5CF8177D7CFBABE861820C PUSH1 0x20 CALLER SWAP4 LOG3 STOP JUMPDEST DUP1 PUSH1 0x0 MSTORE PUSH1 0x1 PUSH1 0x20 MSTORE PUSH1 0x6 PUSH1 0x40 PUSH1 0x0 KECCAK256 ADD PUSH1 0x1 PUSH1 0xFF NOT DUP3 SLOAD AND OR SWAP1 SSTORE PUSH2 0x500 JUMP JUMPDEST PUSH4 0x46AA5BF PUSH1 0xE0 SHL PUSH1 0x0 MSTORE PUSH1 0x4 PUSH1 0x0 REVERT JUMPDEST PUSH2 0x56A DUP2 DUP8 PUSH2 0x1627 JUMP JUMPDEST POP SLOAD PUSH1 0x1 PUSH1 0x1 PUSH1 0xA0 SHL SUB AND ISZERO DUP1 PUSH2 0x5C5 JUMPI JUMPDEST DUP1 PUSH2 0x5AE JUMPI JUMPDEST PUSH2 0x58E JUMPI PUSH1 0x1 ADD PUSH2 0x490 JUMP JUMPDEST SWAP7 POP POP POP POP POP PUSH1 0x2 PUSH2 0x5A0 DUP5 DUP4 PUSH2 0x1627 JUMP JUMPDEST POP ADD SLOAD SWAP3 PUSH1 0x1 DUP6 DUP1 DUP1 PUSH2 0x498 JUMP JUMPDEST POP PUSH1 0x1 PUSH2 0x5BB DUP3 DUP9 PUSH2 0x1627 JUMP JUMPDEST POP ADD SLOAD ISZERO ISZERO PUSH2 0x582 JUMP JUMPDEST POP DUP2 PUSH1 0x1 PUSH2 0x5D3 DUP4 DUP10 PUSH2 0x1627 JUMP JUMPDEST POP ADD SLOAD EQ PUSH2 0x57C JUMP JUMPDEST PUSH4 0x4C0D3FED PUSH1 0xE1 SHL PUSH1 0x0 MSTORE PUSH1 0x4 PUSH1 0x0 REVERT JUMPDEST PUSH4 0x423B515F PUSH1 0xE0 SHL PUSH1 0x0 MSTORE PUSH1 0x4 MSTORE PUSH1 0x24 PUSH1 0x0 REVERT JUMPDEST PUSH4 0x4E487B71 PUSH1 0xE0 SHL PUSH1 0x0 MSTORE PUSH1 0x21 PUSH1 0x4 MSTORE PUSH1 0x24 PUSH1 0x0 REVERT JUMPDEST POP PUSH4 0x2AD8815 PUSH1 0xE4 SHL PUSH1 0x0 MSTORE PUSH1 0x4 MSTORE PUSH1 0x24 PUSH1 0x0 REVERT JUMPDEST CALLVALUE PUSH2 0x150 JUMPI PUSH1 0xA0 CALLDATASIZE PUSH1 0x3 NOT ADD SLT PUSH2 0x150 JUMPI PUSH1 0x4 CALLDATALOAD PUSH1 0x1 PUSH1 0x1 PUSH1 0x40 SHL SUB DUP2 GT PUSH2 0x150 JUMPI PUSH2 0x65C SWAP1 CALLDATASIZE SWAP1 PUSH1 0x4 ADD PUSH2 0x142B JUMP JUMPDEST PUSH1 0x24 CALLDATALOAD PUSH1 0x1 PUSH1 0x1 PUSH1 0x40 SHL SUB DUP2 GT PUSH2 0x150 JUMPI PUSH2 0x67B SWAP1 CALLDATASIZE SWAP1 PUSH1 0x4 ADD PUSH2 0x142B JUMP JUMPDEST SWAP3 PUSH1 0x44 CALLDATALOAD PUSH1 0x1 PUSH1 0x1 PUSH1 0x40 SHL SUB DUP2 GT PUSH2 0x150 JUMPI PUSH2 0x69B SWAP1 CALLDATASIZE SWAP1 PUSH1 0x4 ADD PUSH2 0x142B JUMP JUMPDEST SWAP4 SWAP1 SWAP3 PUSH1 0x64 CALLDATALOAD PUSH1 0x1 PUSH1 0x1 PUSH1 0x40 SHL SUB DUP2 GT PUSH2 0x150 JUMPI PUSH2 0x6BD SWAP1 CALLDATASIZE SWAP1 PUSH1 0x4 ADD PUSH2 0x1458 JUMP JUMPDEST PUSH1 0x84 SWAP8 SWAP2 SWAP8 CALLDATALOAD PUSH1 0x1 PUSH1 0x1 PUSH1 0x40 SHL SUB DUP2 GT PUSH2 0x150 JUMPI PUSH2 0x6DF SWAP1 CALLDATASIZE SWAP1 PUSH1 0x4 ADD PUSH2 0x1458 JUMP JUMPDEST SWAP9 SWAP1 DUP6 ISZERO PUSH2 0xDAF JUMPI DUP3 DUP11 SUB PUSH2 0xD9E JUMPI PUSH1 0x0 SWAP2 DUP3 JUMPDEST DUP12 DUP2 LT PUSH2 0xD29 JUMPI POP PUSH2 0x2710 DUP4 LT ISZERO PUSH2 0xD14 JUMPI PUSH2 0x2710 DUP4 DUP2 SUB GT PUSH2 0xCFE JUMPI DUP3 PUSH2 0x2710 EQ PUSH2 0xCED JUMPI PUSH1 0x0 SLOAD PUSH1 0x80 MSTORE PUSH2 0x72A PUSH1 0x80 MLOAD PUSH2 0x1666 JUMP JUMPDEST PUSH1 0x0 SSTORE DUP11 PUSH2 0xCE6 JUMPI PUSH1 0x1 JUMPDEST PUSH1 0x40 MLOAD DUP9 DUP12 DUP14 PUSH2 0x781 PUSH2 0x75F DUP15 PUSH2 0x74B DUP8 PUSH2 0x1495 JUMP JUMPDEST PUSH1 0x80 MLOAD DUP8 MSTORE PUSH1 0x20 DUP8 ADD SWAP6 CALLER DUP8 MSTORE CALLDATASIZE SWAP2 PUSH2 0x1858 JUMP JUMPDEST PUSH1 0x40 DUP7 ADD SWAP1 DUP2 MSTORE SWAP3 PUSH2 0x772 CALLDATASIZE DUP14 DUP16 PUSH2 0x1858 JUMP JUMPDEST SWAP3 PUSH1 0x60 DUP8 ADD SWAP4 DUP5 MSTORE CALLDATASIZE SWAP2 PUSH2 0x1858 JUMP JUMPDEST SWAP2 PUSH1 0x80 DUP6 ADD SWAP3 DUP4 MSTORE PUSH1 0xA0 DUP6 ADD SWAP4 TIMESTAMP DUP6 MSTORE PUSH2 0x79F PUSH1 0xC0 DUP8 ADD SWAP8 DUP9 PUSH2 0x161B JUMP JUMPDEST PUSH1 0x80 MLOAD PUSH1 0x0 SWAP1 DUP2 MSTORE PUSH1 0x1 PUSH1 0x20 DUP2 SWAP1 MSTORE PUSH1 0x40 SWAP1 SWAP2 KECCAK256 SWAP7 MLOAD DUP8 SSTORE SWAP1 MLOAD SWAP1 DUP7 ADD DUP1 SLOAD PUSH1 0x1 PUSH1 0x1 PUSH1 0xA0 SHL SUB NOT AND PUSH1 0x1 PUSH1 0x1 PUSH1 0xA0 SHL SUB SWAP3 SWAP1 SWAP3 AND SWAP2 SWAP1 SWAP2 OR SWAP1 SSTORE MLOAD DUP1 MLOAD PUSH1 0x2 DUP7 ADD SWAP2 PUSH1 0x1 PUSH1 0x1 PUSH1 0x40 SHL SUB DUP3 GT PUSH2 0xB4A JUMPI DUP2 SWAP1 PUSH2 0x7FC DUP5 SLOAD PUSH2 0x153D JUMP JUMPDEST PUSH1 0x1F DUP2 GT PUSH2 0xC93 JUMPI JUMPDEST POP PUSH1 0x20 SWAP1 PUSH1 0x1F DUP4 GT PUSH1 0x1 EQ PUSH2 0xC2E JUMPI PUSH1 0x0 SWAP3 PUSH2 0xC23 JUMPI JUMPDEST POP POP DUP2 PUSH1 0x1 SHL SWAP2 PUSH1 0x0 NOT SWAP1 PUSH1 0x3 SHL SHR NOT AND OR SWAP1 SSTORE JUMPDEST MLOAD DUP1 MLOAD PUSH1 0x3 DUP6 ADD SWAP2 PUSH1 0x1 PUSH1 0x1 PUSH1 0x40 SHL SUB DUP3 GT PUSH2 0xB4A JUMPI DUP2 SWAP1 PUSH2 0x853 DUP5 SLOAD PUSH2 0x153D JUMP JUMPDEST PUSH1 0x1F DUP2 GT PUSH2 0xBD0 JUMPI JUMPDEST POP PUSH1 0x20 SWAP1 PUSH1 0x1F DUP4 GT PUSH1 0x1 EQ PUSH2 0xB6B JUMPI PUSH1 0x0 SWAP3 PUSH2 0xB60 JUMPI JUMPDEST POP POP DUP2 PUSH1 0x1 SHL SWAP2 PUSH1 0x0 NOT SWAP1 PUSH1 0x3 SHL SHR NOT AND OR SWAP1 SSTORE JUMPDEST MLOAD DUP1 MLOAD PUSH1 0x4 DUP5 ADD SWAP2 PUSH1 0x1 PUSH1 0x1 PUSH1 0x40 SHL SUB DUP3 GT PUSH2 0xB4A JUMPI PUSH2 0x8A8 DUP4 SLOAD PUSH2 0x153D JUMP JUMPDEST PUSH1 0x1F DUP2 GT PUSH2 0xB02 JUMPI JUMPDEST POP PUSH1 0x20 SWAP1 PUSH1 0x1F DUP4 GT PUSH1 0x1 EQ PUSH2 0xA96 JUMPI PUSH1 0x6 SWAP6 SWAP5 SWAP4 SWAP3 SWAP2 PUSH1 0x0 SWAP2 DUP4 PUSH2 0xA8B JUMPI JUMPDEST POP POP DUP2 PUSH1 0x1 SHL SWAP2 PUSH1 0x0 NOT SWAP1 PUSH1 0x3 SHL SHR NOT AND OR SWAP1 SSTORE JUMPDEST MLOAD PUSH1 0x5 DUP3 ADD SSTORE ADD SWAP1 MLOAD SWAP4 PUSH1 0x3 DUP6 LT ISZERO PUSH2 0x601 JUMPI PUSH2 0x978 SWAP2 PUSH1 0x0 SWAP6 PUSH1 0xFF DUP1 NOT DUP4 SLOAD AND SWAP2 AND OR SWAP1 SSTORE PUSH1 0x40 MLOAD PUSH2 0x917 DUP2 PUSH2 0x14B0 JUMP JUMPDEST DUP6 DUP2 MSTORE PUSH1 0x2 PUSH1 0x20 DUP3 ADD DUP8 DUP2 MSTORE PUSH1 0x40 DUP4 ADD SWAP1 DUP9 DUP3 MSTORE PUSH1 0x80 MLOAD DUP10 MSTORE DUP3 PUSH1 0x20 MSTORE PUSH1 0x40 DUP10 KECCAK256 SWAP4 MLOAD DUP5 SSTORE MLOAD PUSH1 0x1 DUP5 ADD SSTORE MLOAD SWAP2 ADD SSTORE PUSH1 0x80 MLOAD DUP6 MSTORE PUSH1 0x4 PUSH1 0x20 MSTORE PUSH1 0x40 DUP6 KECCAK256 PUSH1 0x40 MLOAD SWAP2 PUSH2 0x961 DUP4 PUSH2 0x14B0 JUMP JUMPDEST CALLER DUP4 MSTORE DUP7 PUSH1 0x20 DUP5 ADD MSTORE PUSH2 0x2710 SUB PUSH1 0x40 DUP4 ADD MSTORE PUSH2 0x189E JUMP JUMPDEST PUSH1 0x80 MLOAD DUP4 MSTORE PUSH1 0x6 PUSH1 0x20 MSTORE PUSH1 0x40 DUP4 KECCAK256 PUSH1 0x1 DUP1 PUSH1 0xA0 SHL SUB CALLER AND DUP5 MSTORE PUSH1 0x20 MSTORE PUSH1 0x40 DUP4 KECCAK256 PUSH1 0x1 PUSH1 0xFF NOT DUP3 SLOAD AND OR SWAP1 SSTORE CALLER DUP4 MSTORE PUSH1 0x5 PUSH1 0x20 MSTORE PUSH2 0x9BA PUSH1 0x80 MLOAD PUSH1 0x40 DUP6 KECCAK256 PUSH2 0x1924 JUMP JUMPDEST DUP3 JUMPDEST DUP12 DUP2 LT PUSH2 0xA37 JUMPI DUP11 DUP11 PUSH32 0x3488D52145F2DA8302F4410707E81EFDE09F4F605B2182BBFB96B966837E32CD DUP12 DUP12 PUSH2 0xA28 PUSH2 0xA15 DUP14 DUP14 PUSH2 0xA07 PUSH1 0x40 MLOAD SWAP7 DUP8 SWAP7 PUSH1 0x60 DUP9 MSTORE PUSH1 0x60 DUP9 ADD SWAP2 PUSH2 0x1959 JUMP JUMPDEST SWAP2 DUP6 DUP4 SUB PUSH1 0x20 DUP8 ADD MSTORE PUSH2 0x1959 JUMP JUMPDEST DUP3 DUP2 SUB PUSH1 0x40 DUP5 ADD MSTORE CALLER SWAP7 PUSH1 0x80 MLOAD SWAP7 PUSH2 0x1959 JUMP JUMPDEST SUB SWAP1 LOG3 PUSH1 0x20 PUSH1 0x40 MLOAD PUSH1 0x80 MLOAD DUP2 MSTORE RETURN JUMPDEST PUSH1 0x1 SWAP1 PUSH1 0x80 MLOAD DUP6 MSTORE PUSH1 0x4 PUSH1 0x20 MSTORE PUSH2 0xA85 DUP14 PUSH2 0xA57 DUP4 PUSH1 0x40 DUP10 KECCAK256 SWAP3 DUP9 PUSH2 0x1848 JUMP JUMPDEST CALLDATALOAD SWAP1 PUSH2 0xA64 DUP5 DUP11 DUP9 PUSH2 0x1848 JUMP JUMPDEST CALLDATALOAD SWAP2 PUSH1 0x40 MLOAD SWAP3 PUSH2 0xA73 DUP5 PUSH2 0x14B0 JUMP JUMPDEST DUP10 DUP5 MSTORE PUSH1 0x20 DUP5 ADD MSTORE PUSH1 0x40 DUP4 ADD MSTORE PUSH2 0x189E JUMP JUMPDEST ADD PUSH2 0x9BC JUMP JUMPDEST ADD MLOAD SWAP1 POP CODESIZE DUP1 PUSH2 0x8D0 JUMP JUMPDEST SWAP1 PUSH1 0x1F NOT DUP4 AND SWAP2 DUP5 PUSH1 0x0 MSTORE DUP2 PUSH1 0x0 KECCAK256 SWAP3 PUSH1 0x0 JUMPDEST DUP2 DUP2 LT PUSH2 0xAEA JUMPI POP SWAP2 PUSH1 0x1 SWAP4 SWAP2 DUP6 PUSH1 0x6 SWAP10 SWAP9 SWAP8 SWAP7 SWAP5 LT PUSH2 0xAD1 JUMPI JUMPDEST POP POP POP DUP2 SHL ADD SWAP1 SSTORE PUSH2 0x8E5 JUMP JUMPDEST ADD MLOAD PUSH1 0x0 NOT PUSH1 0xF8 DUP5 PUSH1 0x3 SHL AND SHR NOT AND SWAP1 SSTORE CODESIZE DUP1 DUP1 PUSH2 0xAC4 JUMP JUMPDEST SWAP3 SWAP4 PUSH1 0x20 PUSH1 0x1 DUP2 SWAP3 DUP8 DUP7 ADD MLOAD DUP2 SSTORE ADD SWAP6 ADD SWAP4 ADD PUSH2 0xAA9 JUMP JUMPDEST DUP4 PUSH1 0x0 MSTORE PUSH1 0x20 PUSH1 0x0 KECCAK256 PUSH1 0x1F DUP5 ADD PUSH1 0x5 SHR DUP2 ADD SWAP2 PUSH1 0x20 DUP6 LT PUSH2 0xB40 JUMPI JUMPDEST PUSH1 0x1F ADD PUSH1 0x5 SHR ADD SWAP1 JUMPDEST DUP2 DUP2 LT PUSH2 0xB34 JUMPI POP PUSH2 0x8B1 JUMP JUMPDEST PUSH1 0x0 DUP2 SSTORE PUSH1 0x1 ADD PUSH2 0xB27 JUMP JUMPDEST SWAP1 SWAP2 POP DUP2 SWAP1 PUSH2 0xB1E JUMP JUMPDEST PUSH4 0x4E487B71 PUSH1 0xE0 SHL PUSH1 0x0 MSTORE PUSH1 0x41 PUSH1 0x4 MSTORE PUSH1 0x24 PUSH1 0x0 REVERT JUMPDEST ADD MLOAD SWAP1 POP CODESIZE DUP1 PUSH2 0x873 JUMP JUMPDEST PUSH1 0x0 DUP6 DUP2 MSTORE DUP3 DUP2 KECCAK256 SWAP4 POP PUSH1 0x1F NOT DUP6 AND SWAP1 JUMPDEST DUP2 DUP2 LT PUSH2 0xBB8 JUMPI POP SWAP1 DUP5 PUSH1 0x1 SWAP6 SWAP5 SWAP4 SWAP3 LT PUSH2 0xB9F JUMPI JUMPDEST POP POP POP DUP2 SHL ADD SWAP1 SSTORE PUSH2 0x888 JUMP JUMPDEST ADD MLOAD PUSH1 0x0 NOT PUSH1 0xF8 DUP5 PUSH1 0x3 SHL AND SHR NOT AND SWAP1 SSTORE CODESIZE DUP1 DUP1 PUSH2 0xB92 JUMP JUMPDEST SWAP3 SWAP4 PUSH1 0x20 PUSH1 0x1 DUP2 SWAP3 DUP8 DUP7 ADD MLOAD DUP2 SSTORE ADD SWAP6 ADD SWAP4 ADD PUSH2 0xB7C JUMP JUMPDEST SWAP1 SWAP2 POP DUP4 PUSH1 0x0 MSTORE PUSH1 0x20 PUSH1 0x0 KECCAK256 PUSH1 0x1F DUP5 ADD PUSH1 0x5 SHR DUP2 ADD SWAP2 PUSH1 0x20 DUP6 LT PUSH2 0xC19 JUMPI JUMPDEST SWAP1 PUSH1 0x1F DUP6 SWAP5 SWAP4 SWAP3 ADD PUSH1 0x5 SHR ADD SWAP1 JUMPDEST DUP2 DUP2 LT PUSH2 0xC0A JUMPI POP PUSH2 0x85C JUMP JUMPDEST PUSH1 0x0 DUP2 SSTORE DUP5 SWAP4 POP PUSH1 0x1 ADD PUSH2 0xBFD JUMP JUMPDEST SWAP1 SWAP2 POP DUP2 SWAP1 PUSH2 0xBEF JUMP JUMPDEST ADD MLOAD SWAP1 POP CODESIZE DUP1 PUSH2 0x81C JUMP JUMPDEST PUSH1 0x0 DUP6 DUP2 MSTORE DUP3 DUP2 KECCAK256 SWAP4 POP PUSH1 0x1F NOT DUP6 AND SWAP1 JUMPDEST DUP2 DUP2 LT PUSH2 0xC7B JUMPI POP SWAP1 DUP5 PUSH1 0x1 SWAP6 SWAP5 SWAP4 SWAP3 LT PUSH2 0xC62 JUMPI JUMPDEST POP POP POP DUP2 SHL ADD SWAP1 SSTORE PUSH2 0x831 JUMP JUMPDEST ADD MLOAD PUSH1 0x0 NOT PUSH1 0xF8 DUP5 PUSH1 0x3 SHL AND SHR NOT AND SWAP1 SSTORE CODESIZE DUP1 DUP1 PUSH2 0xC55 JUMP JUMPDEST SWAP3 SWAP4 PUSH1 0x20 PUSH1 0x1 DUP2 SWAP3 DUP8 DUP7 ADD MLOAD DUP2 SSTORE ADD SWAP6 ADD SWAP4 ADD PUSH2 0xC3F JUMP JUMPDEST SWAP1 SWAP2 POP DUP4 PUSH1 0x0 MSTORE PUSH1 0x20 PUSH1 0x0 KECCAK256 PUSH1 0x1F DUP5 ADD PUSH1 0x5 SHR DUP2 ADD SWAP2 PUSH1 0x20 DUP6 LT PUSH2 0xCDC JUMPI JUMPDEST SWAP1 PUSH1 0x1F DUP6 SWAP5 SWAP4 SWAP3 ADD PUSH1 0x5 SHR ADD SWAP1 JUMPDEST DUP2 DUP2 LT PUSH2 0xCCD JUMPI POP PUSH2 0x805 JUMP JUMPDEST PUSH1 0x0 DUP2 SSTORE DUP5 SWAP4 POP PUSH1 0x1 ADD PUSH2 0xCC0 JUMP JUMPDEST SWAP1 SWAP2 POP DUP2 SWAP1 PUSH2 0xCB2 JUMP JUMPDEST PUSH1 0x0 PUSH2 0x735 JUMP JUMPDEST PUSH4 0x7816661 PUSH1 0xE5 SHL PUSH1 0x0 MSTORE PUSH1 0x4 PUSH1 0x0 REVERT JUMPDEST PUSH4 0x4E487B71 PUSH1 0xE0 SHL PUSH1 0x0 MSTORE PUSH1 0x11 PUSH1 0x4 MSTORE PUSH1 0x24 PUSH1 0x0 REVERT JUMPDEST DUP3 PUSH4 0x4A314147 PUSH1 0xE0 SHL PUSH1 0x0 MSTORE PUSH1 0x4 MSTORE PUSH1 0x24 PUSH1 0x0 REVERT JUMPDEST SWAP3 PUSH2 0xD35 DUP5 DUP14 DUP6 PUSH2 0x1848 JUMP JUMPDEST CALLDATALOAD ISZERO DUP5 DUP14 DUP3 ISZERO PUSH2 0xD85 JUMPI JUMPDEST POP POP PUSH2 0xD65 JUMPI PUSH2 0xD5E PUSH1 0x1 SWAP2 PUSH2 0xD57 DUP7 DUP16 DUP8 PUSH2 0x1848 JUMP JUMPDEST CALLDATALOAD SWAP1 PUSH2 0x1659 JUMP JUMPDEST SWAP4 ADD PUSH2 0x6F3 JUMP JUMPDEST PUSH2 0xD70 DUP5 DUP14 DUP6 PUSH2 0x1848 JUMP JUMPDEST CALLDATALOAD PUSH4 0x447E90BF PUSH1 0xE1 SHL PUSH1 0x0 MSTORE PUSH1 0x4 MSTORE PUSH1 0x24 PUSH1 0x0 REVERT JUMPDEST PUSH2 0x2710 SWAP3 POP SWAP1 PUSH2 0xD95 SWAP2 DUP7 PUSH2 0x1848 JUMP JUMPDEST CALLDATALOAD GT DUP5 DUP14 PUSH2 0xD40 JUMP JUMPDEST PUSH4 0x512509D3 PUSH1 0xE1 SHL PUSH1 0x0 MSTORE PUSH1 0x4 PUSH1 0x0 REVERT JUMPDEST PUSH4 0x52DDCDEF PUSH1 0xE1 SHL PUSH1 0x0 MSTORE PUSH1 0x4 PUSH1 0x0 REVERT JUMPDEST CALLVALUE PUSH2 0x150 JUMPI PUSH1 0x0 CALLDATASIZE PUSH1 0x3 NOT ADD SLT PUSH2 0x150 JUMPI PUSH1 0x20 PUSH1 0x0 SLOAD PUSH1 0x40 MLOAD SWAP1 DUP2 MSTORE RETURN JUMPDEST CALLVALUE PUSH2 0x150 JUMPI PUSH1 0x20 CALLDATASIZE PUSH1 0x3 NOT ADD SLT PUSH2 0x150 JUMPI PUSH2 0xDF7 PUSH2 0x168C JUMP JUMPDEST POP PUSH1 0x4 CALLDATALOAD PUSH1 0x0 MSTORE PUSH1 0x2 PUSH1 0x20 MSTORE PUSH1 0x60 PUSH1 0x40 PUSH1 0x0 KECCAK256 PUSH1 0x2 PUSH1 0x40 MLOAD SWAP2 PUSH2 0xE19 DUP4 PUSH2 0x14B0 JUMP JUMPDEST DUP1 SLOAD DUP4 MSTORE PUSH1 0x1 DUP2 ADD SLOAD PUSH1 0x20 DUP5 ADD MSTORE ADD SLOAD PUSH1 0x40 DUP3 ADD MSTORE PUSH2 0x3AF PUSH1 0x40 MLOAD DUP1 SWAP3 PUSH1 0x40 DUP1 SWAP2 DUP1 MLOAD DUP5 MSTORE PUSH1 0x20 DUP2 ADD MLOAD PUSH1 0x20 DUP6 ADD MSTORE ADD MLOAD SWAP2 ADD MSTORE JUMP JUMPDEST CALLVALUE PUSH2 0x150 JUMPI PUSH1 0x60 CALLDATASIZE PUSH1 0x3 NOT ADD SLT PUSH2 0x150 JUMPI PUSH2 0xE71 PUSH1 0x44 CALLDATALOAD PUSH1 0x24 CALLDATALOAD PUSH1 0x4 CALLDATALOAD PUSH2 0x16BF JUMP JUMPDEST PUSH1 0x40 MLOAD DUP1 SWAP2 PUSH1 0x20 DUP3 ADD PUSH1 0x20 DUP4 MSTORE DUP2 MLOAD DUP1 SWAP2 MSTORE PUSH1 0x20 PUSH1 0x40 DUP5 ADD SWAP3 ADD SWAP1 PUSH1 0x0 JUMPDEST DUP2 DUP2 LT PUSH2 0xE9D JUMPI POP POP POP SUB SWAP1 RETURN JUMPDEST DUP3 MLOAD DUP1 MLOAD PUSH1 0x1 PUSH1 0x1 PUSH1 0xA0 SHL SUB AND DUP6 MSTORE PUSH1 0x20 DUP2 DUP2 ADD MLOAD DUP2 DUP8 ADD MSTORE PUSH1 0x40 SWAP2 DUP3 ADD MLOAD SWAP2 DUP7 ADD SWAP2 SWAP1 SWAP2 MSTORE DUP7 SWAP6 POP PUSH1 0x60 SWAP1 SWAP5 ADD SWAP4 SWAP1 SWAP3 ADD SWAP2 PUSH1 0x1 ADD PUSH2 0xE8F JUMP JUMPDEST CALLVALUE PUSH2 0x150 JUMPI PUSH1 0x40 CALLDATASIZE PUSH1 0x3 NOT ADD SLT PUSH2 0x150 JUMPI PUSH1 0x4 CALLDATALOAD PUSH1 0x24 CALLDATALOAD SWAP1 DUP1 PUSH1 0x0 MSTORE PUSH1 0x1 PUSH1 0x20 MSTORE PUSH1 0x40 PUSH1 0x0 KECCAK256 DUP1 SLOAD ISZERO PUSH2 0x617 JUMPI PUSH1 0x6 ADD SLOAD PUSH1 0xFF AND SWAP2 PUSH1 0x3 DUP4 LT ISZERO PUSH2 0x601 JUMPI PUSH1 0x2 DUP4 EQ PUSH2 0x1133 JUMPI PUSH1 0x0 SWAP3 ISZERO PUSH2 0x111F JUMPI DUP1 ISZERO PUSH2 0x1110 JUMPI PUSH1 0x40 MLOAD PUSH4 0x23B872DD PUSH1 0xE0 SHL DUP2 MSTORE CALLER PUSH1 0x4 DUP3 ADD MSTORE ADDRESS PUSH1 0x24 DUP3 ADD MSTORE PUSH1 0x44 DUP2 ADD DUP3 SWAP1 MSTORE PUSH1 0x20 DUP2 PUSH1 0x64 DUP2 DUP8 PUSH32 0x0 PUSH1 0x1 PUSH1 0x1 PUSH1 0xA0 SHL SUB AND GAS CALL SWAP1 DUP2 ISZERO PUSH2 0x1105 JUMPI DUP5 SWAP2 PUSH2 0x10D6 JUMPI JUMPDEST POP ISZERO PUSH2 0x10C7 JUMPI DUP2 DUP4 MSTORE PUSH1 0x4 PUSH1 0x20 MSTORE PUSH1 0x40 DUP4 KECCAK256 DUP4 JUMPDEST DUP2 SLOAD DUP2 LT ISZERO PUSH2 0x1013 JUMPI PUSH1 0x2 PUSH2 0xFB6 DUP3 DUP5 PUSH2 0x1627 JUMP JUMPDEST POP ADD SLOAD DUP1 DUP5 MUL SWAP1 DUP5 DUP3 DIV SUB PUSH2 0xFFF JUMPI SWAP1 PUSH1 0x1 SWAP2 PUSH2 0xFD3 DUP3 DUP6 PUSH2 0x1627 JUMP JUMPDEST POP DUP4 DUP1 PUSH1 0xA0 SHL SUB SWAP1 SLOAD AND DUP8 MSTORE PUSH1 0x7 PUSH1 0x20 MSTORE PUSH2 0xFF7 PUSH2 0x2710 PUSH1 0x40 DUP10 KECCAK256 SWAP3 DIV DUP3 SLOAD PUSH2 0x1659 JUMP JUMPDEST SWAP1 SSTORE ADD PUSH2 0xFA1 JUMP JUMPDEST PUSH4 0x4E487B71 PUSH1 0xE0 SHL DUP7 MSTORE PUSH1 0x11 PUSH1 0x4 MSTORE PUSH1 0x24 DUP7 REVERT JUMPDEST POP POP SWAP1 DUP1 DUP4 MSTORE PUSH1 0x2 PUSH1 0x20 MSTORE PUSH1 0x40 DUP4 KECCAK256 PUSH2 0x102D DUP4 DUP3 SLOAD PUSH2 0x1659 JUMP JUMPDEST DUP2 SSTORE PUSH1 0x1 DUP2 ADD PUSH2 0x103D DUP2 SLOAD PUSH2 0x1666 JUMP JUMPDEST SWAP1 SSTORE DUP2 DUP5 MSTORE PUSH1 0x3 PUSH1 0x20 SWAP1 DUP2 MSTORE PUSH1 0x40 DUP1 DUP7 KECCAK256 CALLER DUP8 MSTORE SWAP1 SWAP2 MSTORE DUP5 KECCAK256 SLOAD PUSH1 0xFF AND ISZERO PUSH2 0x1090 JUMPI JUMPDEST POP PUSH1 0x40 MLOAD SWAP2 DUP3 MSTORE PUSH32 0xE555DA28BDB778F65D22794D88927EBAECA03F7DE9D1B7D39245BC8FB5CA078A PUSH1 0x20 CALLER SWAP4 LOG3 DUP1 RETURN JUMPDEST PUSH1 0x2 ADD PUSH2 0x109D DUP2 SLOAD PUSH2 0x1666 JUMP JUMPDEST SWAP1 SSTORE DUP1 DUP4 MSTORE PUSH1 0x3 PUSH1 0x20 SWAP1 DUP2 MSTORE PUSH1 0x40 DUP1 DUP6 KECCAK256 CALLER DUP7 MSTORE SWAP1 SWAP2 MSTORE DUP4 KECCAK256 DUP1 SLOAD PUSH1 0xFF NOT AND PUSH1 0x1 OR SWAP1 SSTORE DUP4 PUSH2 0x1060 JUMP JUMPDEST PUSH4 0x12171D83 PUSH1 0xE3 SHL DUP4 MSTORE PUSH1 0x4 DUP4 REVERT JUMPDEST PUSH2 0x10F8 SWAP2 POP PUSH1 0x20 RETURNDATASIZE PUSH1 0x20 GT PUSH2 0x10FE JUMPI JUMPDEST PUSH2 0x10F0 DUP2 DUP4 PUSH2 0x14CB JUMP JUMPDEST DUP2 ADD SWAP1 PUSH2 0x14EC JUMP JUMPDEST DUP5 PUSH2 0xF8D JUMP JUMPDEST POP RETURNDATASIZE PUSH2 0x10E6 JUMP JUMPDEST PUSH1 0x40 MLOAD RETURNDATASIZE DUP7 DUP3 RETURNDATACOPY RETURNDATASIZE SWAP1 REVERT JUMPDEST PUSH4 0xBDD5839B PUSH1 0xE0 SHL DUP4 MSTORE PUSH1 0x4 DUP4 REVERT JUMPDEST PUSH4 0xDA8944ED PUSH1 0xE0 SHL DUP4 MSTORE PUSH1 0x4 DUP3 SWAP1 MSTORE PUSH1 0x24 DUP4 REVERT JUMPDEST POP PUSH4 0x423B515F PUSH1 0xE0 SHL PUSH1 0x0 MSTORE PUSH1 0x4 MSTORE PUSH1 0x24 PUSH1 0x0 REVERT JUMPDEST CALLVALUE PUSH2 0x150 JUMPI PUSH1 0x20 CALLDATASIZE PUSH1 0x3 NOT ADD SLT PUSH2 0x150 JUMPI PUSH2 0x1161 PUSH2 0x1504 JUMP JUMPDEST POP PUSH1 0x4 CALLDATALOAD PUSH1 0x0 MSTORE PUSH1 0x1 PUSH1 0x20 MSTORE PUSH2 0x11FD PUSH1 0x40 PUSH1 0x0 KECCAK256 PUSH2 0x11E9 PUSH1 0xFF PUSH1 0x6 PUSH1 0x40 MLOAD SWAP4 PUSH2 0x1189 DUP6 PUSH2 0x1495 JUMP JUMPDEST DUP1 SLOAD DUP6 MSTORE PUSH1 0x1 DUP2 ADD SLOAD PUSH1 0x1 PUSH1 0x1 PUSH1 0xA0 SHL SUB AND PUSH1 0x20 DUP7 ADD MSTORE PUSH2 0x11AC PUSH1 0x2 DUP3 ADD PUSH2 0x1577 JUMP JUMPDEST PUSH1 0x40 DUP7 ADD MSTORE PUSH2 0x11BD PUSH1 0x3 DUP3 ADD PUSH2 0x1577 JUMP JUMPDEST PUSH1 0x60 DUP7 ADD MSTORE PUSH2 0x11CE PUSH1 0x4 DUP3 ADD PUSH2 0x1577 JUMP JUMPDEST PUSH1 0x80 DUP7 ADD MSTORE PUSH1 0x5 DUP2 ADD SLOAD PUSH1 0xA0 DUP7 ADD MSTORE ADD SLOAD AND PUSH1 0xC0 DUP4 ADD PUSH2 0x161B JUMP JUMPDEST PUSH1 0x40 MLOAD SWAP2 DUP3 SWAP2 PUSH1 0x20 DUP4 MSTORE PUSH1 0x20 DUP4 ADD SWAP1 PUSH2 0x13B1 JUMP JUMPDEST SUB SWAP1 RETURN JUMPDEST CALLVALUE PUSH2 0x150 JUMPI PUSH1 0x40 CALLDATASIZE PUSH1 0x3 NOT ADD SLT PUSH2 0x150 JUMPI PUSH1 0x24 CALLDATALOAD PUSH1 0x1 PUSH1 0x1 PUSH1 0xA0 SHL SUB DUP2 AND SWAP1 PUSH1 0x4 CALLDATALOAD SWAP1 DUP3 SWAP1 SUB PUSH2 0x150 JUMPI DUP1 ISZERO PUSH2 0x1349 JUMPI CALLER PUSH1 0x0 MSTORE PUSH1 0x7 PUSH1 0x20 MSTORE PUSH1 0x40 PUSH1 0x0 KECCAK256 SLOAD DUP1 DUP3 GT PUSH2 0x1331 JUMPI POP CALLER PUSH1 0x0 MSTORE PUSH1 0x7 PUSH1 0x20 MSTORE PUSH1 0x40 PUSH1 0x0 KECCAK256 PUSH2 0x1261 DUP3 DUP3 SLOAD PUSH2 0x1488 JUMP JUMPDEST SWAP1 SSTORE PUSH1 0x40 MLOAD PUSH4 0xA9059CBB PUSH1 0xE0 SHL DUP2 MSTORE PUSH1 0x4 DUP2 ADD DUP4 SWAP1 MSTORE PUSH1 0x24 DUP2 ADD DUP3 SWAP1 MSTORE PUSH1 0x20 DUP2 PUSH1 0x44 DUP2 PUSH1 0x0 PUSH32 0x0 PUSH1 0x1 PUSH1 0x1 PUSH1 0xA0 SHL SUB AND GAS CALL SWAP1 DUP2 ISZERO PUSH2 0x1325 JUMPI PUSH1 0x0 SWAP2 PUSH2 0x1306 JUMPI JUMPDEST POP ISZERO PUSH2 0x12F5 JUMPI PUSH1 0x40 MLOAD SWAP1 DUP2 MSTORE PUSH32 0xA92FF919B850E4909AB2261D907EF955F11BC1716733A6CBECE38D163A69AF8A PUSH1 0x20 CALLER SWAP3 LOG3 STOP JUMPDEST PUSH4 0x12171D83 PUSH1 0xE3 SHL PUSH1 0x0 MSTORE PUSH1 0x4 PUSH1 0x0 REVERT JUMPDEST PUSH2 0x131F SWAP2 POP PUSH1 0x20 RETURNDATASIZE PUSH1 0x20 GT PUSH2 0x10FE JUMPI PUSH2 0x10F0 DUP2 DUP4 PUSH2 0x14CB JUMP JUMPDEST DUP4 PUSH2 0x12C1 JUMP JUMPDEST PUSH1 0x40 MLOAD RETURNDATASIZE PUSH1 0x0 DUP3 RETURNDATACOPY RETURNDATASIZE SWAP1 REVERT JUMPDEST SWAP1 PUSH4 0xCF479181 PUSH1 0xE0 SHL PUSH1 0x0 MSTORE PUSH1 0x4 MSTORE PUSH1 0x24 MSTORE PUSH1 0x44 PUSH1 0x0 REVERT JUMPDEST PUSH4 0x9ABC7491 PUSH1 0xE0 SHL PUSH1 0x0 MSTORE PUSH1 0x4 PUSH1 0x0 REVERT JUMPDEST PUSH1 0x4 CALLDATALOAD SWAP1 PUSH1 0x1 PUSH1 0x1 PUSH1 0xA0 SHL SUB DUP3 AND DUP3 SUB PUSH2 0x150 JUMPI JUMP JUMPDEST SWAP2 SWAP1 DUP3 MLOAD SWAP3 DUP4 DUP3 MSTORE PUSH1 0x0 JUMPDEST DUP5 DUP2 LT PUSH2 0x139C JUMPI POP POP DUP3 PUSH1 0x0 PUSH1 0x20 DUP1 SWAP5 SWAP6 DUP5 ADD ADD MSTORE PUSH1 0x1F DUP1 NOT SWAP2 ADD AND ADD ADD SWAP1 JUMP JUMPDEST DUP1 PUSH1 0x20 DUP1 SWAP3 DUP5 ADD ADD MLOAD DUP3 DUP3 DUP7 ADD ADD MSTORE ADD PUSH2 0x137B JUMP JUMPDEST SWAP1 DUP2 MLOAD DUP2 MSTORE PUSH1 0x1 DUP1 PUSH1 0xA0 SHL SUB PUSH1 0x20 DUP4 ADD MLOAD AND PUSH1 0x20 DUP3 ADD MSTORE PUSH1 0xC0 PUSH2 0x140D PUSH2 0x13FB PUSH2 0x13E9 PUSH1 0x40 DUP7 ADD MLOAD PUSH1 0xE0 PUSH1 0x40 DUP8 ADD MSTORE PUSH1 0xE0 DUP7 ADD SWAP1 PUSH2 0x1370 JUMP JUMPDEST PUSH1 0x60 DUP7 ADD MLOAD DUP6 DUP3 SUB PUSH1 0x60 DUP8 ADD MSTORE PUSH2 0x1370 JUMP JUMPDEST PUSH1 0x80 DUP6 ADD MLOAD DUP5 DUP3 SUB PUSH1 0x80 DUP7 ADD MSTORE PUSH2 0x1370 JUMP JUMPDEST SWAP3 PUSH1 0xA0 DUP2 ADD MLOAD PUSH1 0xA0 DUP5 ADD MSTORE ADD MLOAD SWAP1 PUSH1 0x3 DUP3 LT ISZERO PUSH2 0x601 JUMPI PUSH1 0xC0 ADD MSTORE SWAP1 JUMP JUMPDEST SWAP2 DUP2 PUSH1 0x1F DUP5 ADD SLT ISZERO PUSH2 0x150 JUMPI DUP3 CALLDATALOAD SWAP2 PUSH1 0x1 PUSH1 0x1 PUSH1 0x40 SHL SUB DUP4 GT PUSH2 0x150 JUMPI PUSH1 0x20 DUP4 DUP2 DUP7 ADD SWAP6 ADD ADD GT PUSH2 0x150 JUMPI JUMP JUMPDEST SWAP2 DUP2 PUSH1 0x1F DUP5 ADD SLT ISZERO PUSH2 0x150 JUMPI DUP3 CALLDATALOAD SWAP2 PUSH1 0x1 PUSH1 0x1 PUSH1 0x40 SHL SUB DUP4 GT PUSH2 0x150 JUMPI PUSH1 0x20 DUP1 DUP6 ADD SWAP5 DUP5 PUSH1 0x5 SHL ADD ADD GT PUSH2 0x150 JUMPI JUMP JUMPDEST SWAP2 SWAP1 DUP3 SUB SWAP2 DUP3 GT PUSH2 0xCFE JUMPI JUMP JUMPDEST PUSH1 0xE0 DUP2 ADD SWAP1 DUP2 LT PUSH1 0x1 PUSH1 0x1 PUSH1 0x40 SHL SUB DUP3 GT OR PUSH2 0xB4A JUMPI PUSH1 0x40 MSTORE JUMP JUMPDEST PUSH1 0x60 DUP2 ADD SWAP1 DUP2 LT PUSH1 0x1 PUSH1 0x1 PUSH1 0x40 SHL SUB DUP3 GT OR PUSH2 0xB4A JUMPI PUSH1 0x40 MSTORE JUMP JUMPDEST SWAP1 PUSH1 0x1F DUP1 NOT SWAP2 ADD AND DUP2 ADD SWAP1 DUP2 LT PUSH1 0x1 PUSH1 0x1 PUSH1 0x40 SHL SUB DUP3 GT OR PUSH2 0xB4A JUMPI PUSH1 0x40 MSTORE JUMP JUMPDEST SWAP1 DUP2 PUSH1 0x20 SWAP2 SUB SLT PUSH2 0x150 JUMPI MLOAD DUP1 ISZERO ISZERO DUP2 SUB PUSH2 0x150 JUMPI SWAP1 JUMP JUMPDEST PUSH1 0x40 MLOAD SWAP1 PUSH2 0x1511 DUP3 PUSH2 0x1495 JUMP JUMPDEST PUSH1 0x0 PUSH1 0xC0 DUP4 DUP3 DUP2 MSTORE DUP3 PUSH1 0x20 DUP3 ADD MSTORE PUSH1 0x60 PUSH1 0x40 DUP3 ADD MSTORE PUSH1 0x60 DUP1 DUP3 ADD MSTORE PUSH1 0x60 PUSH1 0x80 DUP3 ADD MSTORE DUP3 PUSH1 0xA0 DUP3 ADD MSTORE ADD MSTORE JUMP JUMPDEST SWAP1 PUSH1 0x1 DUP3 DUP2 SHR SWAP3 AND DUP1 ISZERO PUSH2 0x156D JUMPI JUMPDEST PUSH1 0x20 DUP4 LT EQ PUSH2 0x1557 JUMPI JUMP JUMPDEST PUSH4 0x4E487B71 PUSH1 0xE0 SHL PUSH1 0x0 MSTORE PUSH1 0x22 PUSH1 0x4 MSTORE PUSH1 0x24 PUSH1 0x0 REVERT JUMPDEST SWAP2 PUSH1 0x7F AND SWAP2 PUSH2 0x154C JUMP JUMPDEST SWAP1 PUSH1 0x40 MLOAD SWAP2 DUP3 PUSH1 0x0 DUP3 SLOAD SWAP3 PUSH2 0x158B DUP5 PUSH2 0x153D JUMP JUMPDEST DUP1 DUP5 MSTORE SWAP4 PUSH1 0x1 DUP2 AND SWAP1 DUP2 ISZERO PUSH2 0x15F9 JUMPI POP PUSH1 0x1 EQ PUSH2 0x15B2 JUMPI JUMPDEST POP PUSH2 0x15B0 SWAP3 POP SUB DUP4 PUSH2 0x14CB JUMP JUMPDEST JUMP JUMPDEST SWAP1 POP PUSH1 0x0 SWAP3 SWAP2 SWAP3 MSTORE PUSH1 0x20 PUSH1 0x0 KECCAK256 SWAP1 PUSH1 0x0 SWAP2 JUMPDEST DUP2 DUP4 LT PUSH2 0x15DD JUMPI POP POP SWAP1 PUSH1 0x20 PUSH2 0x15B0 SWAP3 DUP3 ADD ADD CODESIZE PUSH2 0x15A3 JUMP JUMPDEST PUSH1 0x20 SWAP2 SWAP4 POP DUP1 PUSH1 0x1 SWAP2 SLOAD DUP4 DUP6 DUP10 ADD ADD MSTORE ADD SWAP2 ADD SWAP1 SWAP2 DUP5 SWAP3 PUSH2 0x15C4 JUMP JUMPDEST SWAP1 POP PUSH1 0x20 SWAP3 POP PUSH2 0x15B0 SWAP5 SWAP2 POP PUSH1 0xFF NOT AND DUP3 DUP5 ADD MSTORE ISZERO ISZERO PUSH1 0x5 SHL DUP3 ADD ADD CODESIZE PUSH2 0x15A3 JUMP JUMPDEST PUSH1 0x3 DUP3 LT ISZERO PUSH2 0x601 JUMPI MSTORE JUMP JUMPDEST DUP1 SLOAD DUP3 LT ISZERO PUSH2 0x1643 JUMPI PUSH1 0x0 MSTORE PUSH1 0x3 PUSH1 0x20 PUSH1 0x0 KECCAK256 SWAP2 MUL ADD SWAP1 PUSH1 0x0 SWAP1 JUMP JUMPDEST PUSH4 0x4E487B71 PUSH1 0xE0 SHL PUSH1 0x0 MSTORE PUSH1 0x32 PUSH1 0x4 MSTORE PUSH1 0x24 PUSH1 0x0 REVERT JUMPDEST SWAP2 SWAP1 DUP3 ADD DUP1 SWAP3 GT PUSH2 0xCFE JUMPI JUMP JUMPDEST PUSH1 0x0 NOT DUP2 EQ PUSH2 0xCFE JUMPI PUSH1 0x1 ADD SWAP1 JUMP JUMPDEST PUSH1 0x1 PUSH1 0x1 PUSH1 0x40 SHL SUB DUP2 GT PUSH2 0xB4A JUMPI PUSH1 0x5 SHL PUSH1 0x20 ADD SWAP1 JUMP JUMPDEST PUSH1 0x40 MLOAD SWAP1 PUSH2 0x1699 DUP3 PUSH2 0x14B0 JUMP JUMPDEST PUSH1 0x0 PUSH1 0x40 DUP4 DUP3 DUP2 MSTORE DUP3 PUSH1 0x20 DUP3 ADD MSTORE ADD MSTORE JUMP JUMPDEST DUP1 MLOAD DUP3 LT ISZERO PUSH2 0x1643 JUMPI PUSH1 0x20 SWAP2 PUSH1 0x5 SHL ADD ADD SWAP1 JUMP JUMPDEST SWAP3 SWAP2 SWAP1 DUP4 PUSH1 0x0 MSTORE PUSH1 0x1 PUSH1 0x20 MSTORE PUSH1 0x40 PUSH1 0x0 KECCAK256 SLOAD ISZERO PUSH2 0x1833 JUMPI DUP4 PUSH1 0x0 MSTORE PUSH1 0x4 PUSH1 0x20 MSTORE PUSH1 0x40 PUSH1 0x0 KECCAK256 SLOAD DUP2 GT PUSH1 0x0 EQ PUSH2 0x172C JUMPI POP POP PUSH1 0x40 MLOAD SWAP1 SWAP2 POP PUSH1 0x0 PUSH2 0x1703 PUSH1 0x20 DUP4 PUSH2 0x14CB JUMP JUMPDEST DUP2 MSTORE PUSH1 0x0 DUP1 JUMPDEST DUP2 DUP2 LT PUSH2 0x1715 JUMPI POP POP SWAP1 JUMP JUMPDEST PUSH1 0x20 SWAP1 PUSH2 0x1720 PUSH2 0x168C JUMP JUMPDEST DUP3 DUP3 DUP7 ADD ADD MSTORE ADD PUSH2 0x1709 JUMP JUMPDEST PUSH2 0x1736 DUP3 DUP3 PUSH2 0x1659 JUMP JUMPDEST DUP5 PUSH1 0x0 MSTORE PUSH1 0x4 PUSH1 0x20 MSTORE PUSH1 0x40 PUSH1 0x0 KECCAK256 SLOAD LT PUSH2 0x1813 JUMPI JUMPDEST PUSH2 0x1754 DUP3 PUSH2 0x1675 JUMP JUMPDEST SWAP1 PUSH2 0x1762 PUSH1 0x40 MLOAD SWAP3 DUP4 PUSH2 0x14CB JUMP JUMPDEST DUP3 DUP3 MSTORE PUSH1 0x1F NOT PUSH2 0x1771 DUP5 PUSH2 0x1675 JUMP JUMPDEST ADD PUSH1 0x0 JUMPDEST DUP2 DUP2 LT PUSH2 0x17FC JUMPI POP POP DUP2 SWAP5 PUSH1 0x0 JUMPDEST DUP5 DUP2 LT PUSH2 0x1791 JUMPI POP POP POP POP POP JUMP JUMPDEST PUSH1 0x1 SWAP1 DUP3 PUSH1 0x0 MSTORE PUSH1 0x4 PUSH1 0x20 MSTORE PUSH2 0x17B5 PUSH1 0x40 PUSH1 0x0 KECCAK256 PUSH2 0x17AF DUP7 DUP5 PUSH2 0x1659 JUMP JUMPDEST SWAP1 PUSH2 0x1627 JUMP JUMPDEST POP PUSH1 0x2 PUSH1 0x40 MLOAD SWAP2 PUSH2 0x17C5 DUP4 PUSH2 0x14B0 JUMP JUMPDEST DUP5 DUP1 PUSH1 0xA0 SHL SUB DUP2 SLOAD AND DUP4 MSTORE DUP5 DUP2 ADD SLOAD PUSH1 0x20 DUP5 ADD MSTORE ADD SLOAD PUSH1 0x40 DUP3 ADD MSTORE PUSH2 0x17EA DUP3 DUP8 PUSH2 0x16AB JUMP JUMPDEST MSTORE PUSH2 0x17F5 DUP2 DUP7 PUSH2 0x16AB JUMP JUMPDEST POP ADD PUSH2 0x1783 JUMP JUMPDEST PUSH1 0x20 SWAP1 PUSH2 0x1807 PUSH2 0x168C JUMP JUMPDEST DUP3 DUP3 DUP8 ADD ADD MSTORE ADD PUSH2 0x1775 JUMP JUMPDEST SWAP1 POP DUP3 PUSH1 0x0 MSTORE PUSH1 0x4 PUSH1 0x20 MSTORE PUSH2 0x182D DUP2 PUSH1 0x40 PUSH1 0x0 KECCAK256 SLOAD PUSH2 0x1488 JUMP JUMPDEST SWAP1 PUSH2 0x174B JUMP JUMPDEST DUP4 PUSH4 0x2AD8815 PUSH1 0xE4 SHL PUSH1 0x0 MSTORE PUSH1 0x4 MSTORE PUSH1 0x24 PUSH1 0x0 REVERT JUMPDEST SWAP2 SWAP1 DUP2 LT ISZERO PUSH2 0x1643 JUMPI PUSH1 0x5 SHL ADD SWAP1 JUMP JUMPDEST SWAP3 SWAP2 SWAP3 PUSH1 0x1 PUSH1 0x1 PUSH1 0x40 SHL SUB DUP3 GT PUSH2 0xB4A JUMPI PUSH1 0x40 MLOAD SWAP2 PUSH2 0x1881 PUSH1 0x1F DUP3 ADD PUSH1 0x1F NOT AND PUSH1 0x20 ADD DUP5 PUSH2 0x14CB JUMP JUMPDEST DUP3 SWAP5 DUP2 DUP5 MSTORE DUP2 DUP4 ADD GT PUSH2 0x150 JUMPI DUP3 DUP2 PUSH1 0x20 SWAP4 DUP5 PUSH1 0x0 SWAP7 ADD CALLDATACOPY ADD ADD MSTORE JUMP JUMPDEST DUP1 SLOAD PUSH1 0x1 PUSH1 0x40 SHL DUP2 LT ISZERO PUSH2 0xB4A JUMPI PUSH2 0x18BB SWAP2 PUSH1 0x1 DUP3 ADD DUP2 SSTORE PUSH2 0x1627 JUMP JUMPDEST SWAP2 SWAP1 SWAP2 PUSH2 0x18F6 JUMPI DUP1 MLOAD DUP3 SLOAD PUSH1 0x1 PUSH1 0x1 PUSH1 0xA0 SHL SUB NOT AND PUSH1 0x1 PUSH1 0x1 PUSH1 0xA0 SHL SUB SWAP2 SWAP1 SWAP2 AND OR DUP3 SSTORE PUSH1 0x20 DUP2 ADD MLOAD PUSH1 0x1 DUP4 ADD SSTORE PUSH1 0x40 ADD MLOAD PUSH1 0x2 SWAP2 SWAP1 SWAP2 ADD SSTORE JUMP JUMPDEST PUSH4 0x4E487B71 PUSH1 0xE0 SHL PUSH1 0x0 MSTORE PUSH1 0x0 PUSH1 0x4 MSTORE PUSH1 0x24 PUSH1 0x0 REVERT JUMPDEST DUP1 SLOAD DUP3 LT ISZERO PUSH2 0x1643 JUMPI PUSH1 0x0 MSTORE PUSH1 0x20 PUSH1 0x0 KECCAK256 ADD SWAP1 PUSH1 0x0 SWAP1 JUMP JUMPDEST DUP1 SLOAD PUSH1 0x1 PUSH1 0x40 SHL DUP2 LT ISZERO PUSH2 0xB4A JUMPI PUSH2 0x1941 SWAP2 PUSH1 0x1 DUP3 ADD DUP2 SSTORE PUSH2 0x190C JUMP JUMPDEST DUP2 SWAP3 SWAP2 SLOAD SWAP1 PUSH1 0x3 SHL SWAP2 DUP3 SHL SWAP2 PUSH1 0x0 NOT SWAP1 SHL NOT AND OR SWAP1 SSTORE JUMP JUMPDEST SWAP1 DUP1 PUSH1 0x20 SWAP4 SWAP3 DUP2 DUP5 MSTORE DUP5 DUP5 ADD CALLDATACOPY PUSH1 0x0 DUP3 DUP3 ADD DUP5 ADD MSTORE PUSH1 0x1F ADD PUSH1 0x1F NOT AND ADD ADD SWAP1 JUMP JUMPDEST PUSH1 0x1 PUSH1 0x1 PUSH1 0xA0 SHL SUB AND PUSH1 0x0 DUP2 DUP2 MSTORE PUSH1 0x5 PUSH1 0x20 MSTORE PUSH1 0x40 SWAP1 KECCAK256 SLOAD SWAP1 SWAP4 SWAP3 SWAP2 SWAP1 DUP2 GT ISZERO PUSH2 0x19DC JUMPI POP POP PUSH1 0x40 MLOAD SWAP1 SWAP2 POP PUSH1 0x0 PUSH2 0x19B3 PUSH1 0x20 DUP4 PUSH2 0x14CB JUMP JUMPDEST DUP2 MSTORE PUSH1 0x0 DUP1 JUMPDEST DUP2 DUP2 LT PUSH2 0x19C5 JUMPI POP POP SWAP1 JUMP JUMPDEST PUSH1 0x20 SWAP1 PUSH2 0x19D0 PUSH2 0x1504 JUMP JUMPDEST DUP3 DUP3 DUP7 ADD ADD MSTORE ADD PUSH2 0x19B9 JUMP JUMPDEST PUSH2 0x19E6 DUP3 DUP3 PUSH2 0x1659 JUMP JUMPDEST DUP5 PUSH1 0x0 MSTORE PUSH1 0x5 PUSH1 0x20 MSTORE PUSH1 0x40 PUSH1 0x0 KECCAK256 SLOAD LT PUSH2 0x1ADF JUMPI JUMPDEST PUSH2 0x1A04 DUP3 PUSH2 0x1675 JUMP JUMPDEST SWAP1 PUSH2 0x1A12 PUSH1 0x40 MLOAD SWAP3 DUP4 PUSH2 0x14CB JUMP JUMPDEST DUP3 DUP3 MSTORE PUSH1 0x1F NOT PUSH2 0x1A21 DUP5 PUSH2 0x1675 JUMP JUMPDEST ADD PUSH1 0x0 JUMPDEST DUP2 DUP2 LT PUSH2 0x1AC8 JUMPI POP POP DUP2 SWAP5 PUSH1 0x0 JUMPDEST DUP5 DUP2 LT PUSH2 0x1A41 JUMPI POP POP POP POP POP JUMP JUMPDEST PUSH1 0x1 SWAP1 DUP3 PUSH1 0x0 MSTORE PUSH1 0x5 PUSH1 0x20 MSTORE PUSH2 0x1A65 PUSH1 0x40 PUSH1 0x0 KECCAK256 PUSH2 0x1A5F DUP7 DUP5 PUSH2 0x1659 JUMP JUMPDEST SWAP1 PUSH2 0x190C JUMP JUMPDEST SWAP1 SLOAD SWAP1 PUSH1 0x3 SHL SHR PUSH1 0x0 MSTORE DUP2 PUSH1 0x20 MSTORE PUSH1 0x40 PUSH1 0x0 KECCAK256 PUSH2 0x1AAC PUSH1 0xFF PUSH1 0x6 PUSH1 0x40 MLOAD SWAP4 PUSH2 0x1A8C DUP6 PUSH2 0x1495 JUMP JUMPDEST DUP1 SLOAD DUP6 MSTORE DUP7 DUP1 PUSH1 0xA0 SHL SUB DUP8 DUP3 ADD SLOAD AND PUSH1 0x20 DUP7 ADD MSTORE PUSH2 0x11AC PUSH1 0x2 DUP3 ADD PUSH2 0x1577 JUMP JUMPDEST PUSH2 0x1AB6 DUP3 DUP8 PUSH2 0x16AB JUMP JUMPDEST MSTORE PUSH2 0x1AC1 DUP2 DUP7 PUSH2 0x16AB JUMP JUMPDEST POP ADD PUSH2 0x1A33 JUMP JUMPDEST PUSH1 0x20 SWAP1 PUSH2 0x1AD3 PUSH2 0x1504 JUMP JUMPDEST DUP3 DUP3 DUP8 ADD ADD MSTORE ADD PUSH2 0x1A25 JUMP JUMPDEST SWAP1 POP DUP3 PUSH1 0x0 MSTORE PUSH1 0x5 PUSH1 0x20 MSTORE PUSH2 0x1AF9 DUP2 PUSH1 0x40 PUSH1 0x0 KECCAK256 SLOAD PUSH2 0x1488 JUMP JUMPDEST SWAP1 PUSH2 0x19FB JUMP JUMPDEST PUSH1 0x0 MSTORE PUSH1 0x4 PUSH1 0x20 MSTORE PUSH1 0x40 PUSH1 0x0 KECCAK256 PUSH1 0x0 SWAP1 DUP1 SLOAD SWAP2 JUMPDEST DUP3 DUP2 LT PUSH2 0x1B22 JUMPI POP POP POP PUSH1 0x1 SWAP1 JUMP JUMPDEST PUSH2 0x1B2C DUP2 DUP4 PUSH2 0x1627 JUMP JUMPDEST POP SLOAD PUSH1 0x1 PUSH1 0x1 PUSH1 0xA0 SHL SUB AND ISZERO PUSH2 0x1B44 JUMPI PUSH1 0x1 ADD PUSH2 0x1B13 JUMP JUMPDEST POP POP POP PUSH1 0x0 SWAP1 JUMP INVALID LOG2 PUSH5 0x6970667358 0x22 SLT KECCAK256 0xAE CODECOPY 0xEB DUP5 0xB1 RETURNDATASIZE 0xD 0xE9 0xD6 0xD4 PUSH29 0xA202A21EDF40F6BE277040EFFA8E61F498A0FB09FC64736F6C63430008 SHR STOP CALLER "
        },
        "methodIdentifiers": {
          "createPool(string,string,string,bytes32[],uint256[])": "1c014f16",
          "deactivatePool(uint256)": "9abd9b05",
          "donate(uint256,uint256)": "0cdd53f6",
          "getBalanceOf(address)": "9b96eece",
          "getPool(uint256)": "068bcd8d",
          "getPoolMembers(uint256,uint256,uint256)": "12b32082",
          "getPoolMembersCount(uint256)": "f535a4f5",
          "getPoolSummary(uint256)": "14d056f8",
          "getUserPools(address,uint256,uint256)": "f75b9afa",
          "getUserPoolsCount(address)": "9ee64b65",
          "getUserSummary(address)": "8fbd0c2d",
          "joinPool(uint256,bytes32)": "26e73670",
          "nextPoolId()": "18e56131",
          "usdc()": "3e413bee",
          "withdraw(uint256,address)": "00f714ce"
        }
      }
    }
  }
}