{
  "src/Distributor.sol": {
    "Distributor": {
      "abi": [
        {
          "inputs": [
            {
              "internalType": "address",
              "name": "_usdcAddress",
              "type": "address"
            }
          ],
          "stateMutability": "nonpayable",
          "type": "constructor"
        },
        {
          "inputs": [],
          "name": "ArrayLengthMismatch",
          "type": "error"
        },
        {
          "inputs": [],
          "name": "EmptyTitle",
          "type": "error"
        },
        {
          "inputs": [
            {
              "internalType": "uint256",
              "name": "requested",
              "type": "uint256"
            },
            {
              "internalType": "uint256",
              "name": "available",
              "type": "uint256"
            }
          ],
          "name": "InsufficientBalance",
          "type": "error"
        },
        {
          "inputs": [],
          "name": "InvalidCreatorPercentage",
          "type": "error"
        },
        {
          "inputs": [],
          "name": "InvalidDonationAmount",
          "type": "error"
        },
        {
          "inputs": [],
          "name": "InvalidInvitationCode",
          "type": "error"
        },
        {
          "inputs": [
            {
              "internalType": "uint256",
              "name": "percentage",
              "type": "uint256"
            }
          ],
          "name": "InvalidMemberPercentage",
          "type": "error"
        },
        {
          "inputs": [
            {
              "internalType": "uint256",
              "name": "totalPercentage",
              "type": "uint256"
            }
          ],
          "name": "InvalidTotalPercentage",
          "type": "error"
        },
        {
          "inputs": [],
          "name": "InvalidWithdrawalAmount",
          "type": "error"
        },
        {
          "inputs": [],
          "name": "MemberAlreadyInPool",
          "type": "error"
        },
        {
          "inputs": [],
          "name": "NoInvitationCodeForSlot",
          "type": "error"
        },
        {
          "inputs": [
            {
              "internalType": "address",
              "name": "caller",
              "type": "address"
            },
            {
              "internalType": "uint256",
              "name": "poolId",
              "type": "uint256"
            }
          ],
          "name": "NotPoolCreator",
          "type": "error"
        },
        {
          "inputs": [
            {
              "internalType": "address",
              "name": "caller",
              "type": "address"
            },
            {
              "internalType": "uint256",
              "name": "poolId",
              "type": "uint256"
            }
          ],
          "name": "NotPoolMember",
          "type": "error"
        },
        {
          "inputs": [
            {
              "internalType": "uint256",
              "name": "poolId",
              "type": "uint256"
            }
          ],
          "name": "PoolInactive",
          "type": "error"
        },
        {
          "inputs": [
            {
              "internalType": "uint256",
              "name": "poolId",
              "type": "uint256"
            }
          ],
          "name": "PoolNotFound",
          "type": "error"
        },
        {
          "inputs": [
            {
              "internalType": "uint256",
              "name": "poolId",
              "type": "uint256"
            }
          ],
          "name": "PoolPending",
          "type": "error"
        },
        {
          "inputs": [],
          "name": "SlotAlreadyFilled",
          "type": "error"
        },
        {
          "inputs": [],
          "name": "TransferFailed",
          "type": "error"
        },
        {
          "anonymous": false,
          "inputs": [
            {
              "indexed": true,
              "internalType": "uint256",
              "name": "poolId",
              "type": "uint256"
            },
            {
              "indexed": true,
              "internalType": "address",
              "name": "donor",
              "type": "address"
            },
            {
              "indexed": false,
              "internalType": "uint256",
              "name": "amount",
              "type": "uint256"
            }
          ],
          "name": "DonationMade",
          "type": "event"
        },
        {
          "anonymous": false,
          "inputs": [
            {
              "indexed": true,
              "internalType": "address",
              "name": "member",
              "type": "address"
            },
            {
              "indexed": true,
              "internalType": "address",
              "name": "recipient",
              "type": "address"
            },
            {
              "indexed": false,
              "internalType": "uint256",
              "name": "amount",
              "type": "uint256"
            }
          ],
          "name": "FundsWithdrawn",
          "type": "event"
        },
        {
          "anonymous": false,
          "inputs": [
            {
              "indexed": true,
              "internalType": "uint256",
              "name": "poolId",
              "type": "uint256"
            },
            {
              "indexed": true,
              "internalType": "address",
              "name": "member",
              "type": "address"
            },
            {
              "indexed": false,
              "internalType": "uint256",
              "name": "percentage",
              "type": "uint256"
            }
          ],
          "name": "MemberJoined",
          "type": "event"
        },
        {
          "anonymous": false,
          "inputs": [
            {
              "indexed": true,
              "internalType": "uint256",
              "name": "poolId",
              "type": "uint256"
            },
            {
              "indexed": true,
              "internalType": "address",
              "name": "creator",
              "type": "address"
            },
            {
              "indexed": false,
              "internalType": "string",
              "name": "title",
              "type": "string"
            },
            {
              "indexed": false,
              "internalType": "string",
              "name": "description",
              "type": "string"
            },
            {
              "indexed": false,
              "internalType": "string",
              "name": "imageUri",
              "type": "string"
            }
          ],
          "name": "PoolCreated",
          "type": "event"
        },
        {
          "anonymous": false,
          "inputs": [
            {
              "indexed": true,
              "internalType": "uint256",
              "name": "poolId",
              "type": "uint256"
            },
            {
              "indexed": true,
              "internalType": "address",
              "name": "deactivatedBy",
              "type": "address"
            }
          ],
          "name": "PoolDeactivated",
          "type": "event"
        },
        {
          "inputs": [
            {
              "internalType": "string",
              "name": "title",
              "type": "string"
            },
            {
              "internalType": "string",
              "name": "description",
              "type": "string"
            },
            {
              "internalType": "string",
              "name": "imageUri",
              "type": "string"
            },
            {
              "internalType": "bytes32[]",
              "name": "invitationCodes",
              "type": "bytes32[]"
            },
            {
              "internalType": "uint256[]",
              "name": "percentages",
              "type": "uint256[]"
            }
          ],
          "name": "createPool",
          "outputs": [
            {
              "internalType": "uint256",
              "name": "poolId",
              "type": "uint256"
            }
          ],
          "stateMutability": "nonpayable",
          "type": "function"
        },
        {
          "inputs": [
            {
              "internalType": "uint256",
              "name": "poolId",
              "type": "uint256"
            }
          ],
          "name": "deactivatePool",
          "outputs": [],
          "stateMutability": "nonpayable",
          "type": "function"
        },
        {
          "inputs": [
            {
              "internalType": "uint256",
              "name": "poolId",
              "type": "uint256"
            },
            {
              "internalType": "uint256",
              "name": "amount",
              "type": "uint256"
            }
          ],
          "name": "donate",
          "outputs": [],
          "stateMutability": "nonpayable",
          "type": "function"
        },
        {
          "inputs": [
            {
              "internalType": "uint256",
              "name": "poolId",
              "type": "uint256"
            }
          ],
          "name": "getPool",
          "outputs": [
            {
              "components": [
                {
                  "internalType": "uint256",
                  "name": "id",
                  "type": "uint256"
                },
                {
                  "internalType": "address",
                  "name": "creator",
                  "type": "address"
                },
                {
                  "internalType": "string",
                  "name": "title",
                  "type": "string"
                },
                {
                  "internalType": "string",
                  "name": "description",
                  "type": "string"
                },
                {
                  "internalType": "string",
                  "name": "imageUri",
                  "type": "string"
                },
                {
                  "internalType": "uint256",
                  "name": "createdAt",
                  "type": "uint256"
                },
                {
                  "internalType": "enum IDistributorStructs.PoolStatus",
                  "name": "status",
                  "type": "uint8"
                }
              ],
              "internalType": "struct IDistributorStructs.Pool",
              "name": "pool",
              "type": "tuple"
            }
          ],
          "stateMutability": "view",
          "type": "function"
        },
        {
          "inputs": [
            {
              "internalType": "uint256",
              "name": "poolId",
              "type": "uint256"
            },
            {
              "internalType": "uint256",
              "name": "offset",
              "type": "uint256"
            },
            {
              "internalType": "uint256",
              "name": "limit",
              "type": "uint256"
            }
          ],
          "name": "getPoolMembers",
          "outputs": [
            {
              "components": [
                {
                  "internalType": "address",
                  "name": "member",
                  "type": "address"
                },
                {
                  "internalType": "bytes32",
                  "name": "invitationCodeHash",
                  "type": "bytes32"
                },
                {
                  "internalType": "uint256",
                  "name": "percentage",
                  "type": "uint256"
                }
              ],
              "internalType": "struct IDistributorStructs.Member[]",
              "name": "members",
              "type": "tuple[]"
            }
          ],
          "stateMutability": "view",
          "type": "function"
        },
        {
          "inputs": [
            {
              "internalType": "uint256",
              "name": "poolId",
              "type": "uint256"
            }
          ],
          "name": "getPoolMembersCount",
          "outputs": [
            {
              "internalType": "uint256",
              "name": "total",
              "type": "uint256"
            }
          ],
          "stateMutability": "view",
          "type": "function"
        },
        {
          "inputs": [
            {
              "internalType": "uint256",
              "name": "poolId",
              "type": "uint256"
            }
          ],
          "name": "getPoolSummary",
          "outputs": [
            {
              "components": [
                {
                  "internalType": "uint256",
                  "name": "totalDonationsAmount",
                  "type": "uint256"
                },
                {
                  "internalType": "uint256",
                  "name": "totalDonationsCount",
                  "type": "uint256"
                },
                {
                  "internalType": "uint256",
                  "name": "uniqueDonatorsCount",
                  "type": "uint256"
                }
              ],
              "internalType": "struct IDistributorStructs.PoolSummary",
              "name": "summary",
              "type": "tuple"
            }
          ],
          "stateMutability": "view",
          "type": "function"
        },
        {
          "inputs": [
            {
              "internalType": "address",
              "name": "user",
              "type": "address"
            },
            {
              "internalType": "uint256",
              "name": "offset",
              "type": "uint256"
            },
            {
              "internalType": "uint256",
              "name": "limit",
              "type": "uint256"
            }
          ],
          "name": "getUserPools",
          "outputs": [
            {
              "components": [
                {
                  "internalType": "uint256",
                  "name": "id",
                  "type": "uint256"
                },
                {
                  "internalType": "address",
                  "name": "creator",
                  "type": "address"
                },
                {
                  "internalType": "string",
                  "name": "title",
                  "type": "string"
                },
                {
                  "internalType": "string",
                  "name": "description",
                  "type": "string"
                },
                {
                  "internalType": "string",
                  "name": "imageUri",
                  "type": "string"
                },
                {
                  "internalType": "uint256",
                  "name": "createdAt",
                  "type": "uint256"
                },
                {
                  "internalType": "enum IDistributorStructs.PoolStatus",
                  "name": "status",
                  "type": "uint8"
                }
              ],
              "internalType": "struct IDistributorStructs.Pool[]",
              "name": "pools",
              "type": "tuple[]"
            }
          ],
          "stateMutability": "view",
          "type": "function"
        },
        {
          "inputs": [
            {
              "internalType": "address",
              "name": "user",
              "type": "address"
            }
          ],
          "name": "getUserPoolsCount",
          "outputs": [
            {
              "internalType": "uint256",
              "name": "total",
              "type": "uint256"
            }
          ],
          "stateMutability": "view",
          "type": "function"
        },
        {
          "inputs": [
            {
              "internalType": "address",
              "name": "user",
              "type": "address"
            }
          ],
          "name": "getUserSummary",
          "outputs": [
            {
              "components": [
                {
                  "internalType": "uint256",
                  "name": "totalDonationsAmount",
                  "type": "uint256"
                },
                {
                  "internalType": "uint256",
                  "name": "totalDonationsCount",
                  "type": "uint256"
                },
                {
                  "internalType": "uint256",
                  "name": "poolCount",
                  "type": "uint256"
                }
              ],
              "internalType": "struct IDistributorStructs.UserSummary",
              "name": "summary",
              "type": "tuple"
            }
          ],
          "stateMutability": "view",
          "type": "function"
        },
        {
          "inputs": [
            {
              "internalType": "uint256",
              "name": "poolId",
              "type": "uint256"
            },
            {
              "internalType": "bytes32",
              "name": "invitationCode",
              "type": "bytes32"
            }
          ],
          "name": "joinPool",
          "outputs": [],
          "stateMutability": "nonpayable",
          "type": "function"
        },
        {
          "inputs": [],
          "name": "nextPoolId",
          "outputs": [
            {
              "internalType": "uint256",
              "name": "",
              "type": "uint256"
            }
          ],
          "stateMutability": "view",
          "type": "function"
        },
        {
          "inputs": [],
          "name": "usdc",
          "outputs": [
            {
              "internalType": "contract IERC20",
              "name": "",
              "type": "address"
            }
          ],
          "stateMutability": "view",
          "type": "function"
        }
      ],
      "evm": {
        "bytecode": {
          "linkReferences": {},
          "object": "60a034607457601f611af838819003918201601f19168301916001600160401b03831184841017607957808492602094604052833981010312607457516001600160a01b038116908190036074576001600055608052604051611a68908161009082396080518181816103d60152610f470152f35b600080fd5b634e487b7160e01b600052604160045260246000fdfe60a0604052600436101561001257600080fd5b60003560e01c8063068bcd8d146111875780630cdd53f614610ed157806312b3208214610e4857806314d056f814610dd757806318e5613114610db95780631c014f161461062557806326e73670146104055780633e413bee146103c05780638fbd0c2d1461024b5780639abd9b05146101a65780639ee64b651461016c578063f535a4f5146101405763f75b9afa146100ab57600080fd5b3461013b57606036600319011261013b576100d46100c7611358565b6044359060243590611860565b6040518091602082016020835281518091526040830190602060408260051b8601019301916000905b82821061010c57505050500390f35b9193600191939550602061012b8192603f198a82030186528851611281565b96019201920185949391926100fd565b600080fd5b3461013b57602036600319011261013b5760043560005260036020526020604060002054604051908152f35b3461013b57602036600319011261013b576001600160a01b0361018d611358565b1660005260046020526020604060002054604051908152f35b3461013b57602036600319011261013b5760043580600052600160205260406000208054156000146101e757506302ad881560e41b60005260045260246000fd5b60018101546001600160a01b0316330361023257600601805460ff1916600217905533907f72e6fc67ca93cc3cedc1e023204888c2cab750fbb5526e1faf3445c0327ee0ef600080a3005b506302a20f2560e21b6000523360045260245260446000fd5b3461013b57602036600319011261013b57610264611358565b61026c611572565b6000916001600160a01b031660208201835b82600052600460205260406000205481101561037c578260005260046020526102ab8160406000206117f2565b90549060031b1c60005260026020526102ca6040600020548551611532565b84528260005260046020526102e38160406000206117f2565b90549060031b1c60005260026020526103056001604060002001548351611532565b825282600052600460205261031e8160406000206117f2565b90549060031b1c600052600160205260ff60066040600020015416600381101561036657600114610352575b60010161027e565b9361035e60019161153f565b94905061034a565b634e487b7160e01b600052602160045260246000fd5b60608286865191516040519261039184611389565b8352602083015260408201526103be60405180926040809180518452602081015160208501520151910152565bf35b3461013b57600036600319011261013b576040517f00000000000000000000000000000000000000000000000000000000000000006001600160a01b03168152602090f35b3461013b57604036600319011261013b576004358060005260016020526040600020805415610610576006015460ff166003811015610366576002146105fc57600081815260056020908152604080832033845290915290205460ff166105eb5760405160208101906024358252602081526104826040826113a4565b519020908060005260036020526040600020600080809481908454915b82811061056f575b5050501561055e576104b891611500565b5080546001600160a01b031916339081179091556000828152600560209081526040808320938352928152828220805460ff19166001179055600490522061050190829061180a565b61050a816119e5565b61053d575b6040519182527ff4f82575ee84a81aac4be52b6a368e9ba9df524b4f5cf8177d7cfbabe861820c60203393a3005b8060005260016020526006604060002001600160ff1982541617905561050f565b63046aa5bf60e01b60005260046000fd5b6105798187611500565b50546001600160a01b031615806105d4575b806105bd575b61059d5760010161049f565b96505050505060026105af8483611500565b5001549260018580806104a7565b5060016105ca8288611500565b5001541515610591565b508160016105e28389611500565b5001541461058b565b634c0d3fed60e11b60005260046000fd5b63423b515f60e01b60005260045260246000fd5b506302ad881560e41b60005260045260246000fd5b3461013b5760a036600319011261013b576004356001600160401b03811161013b576106559036906004016112fb565b6024356001600160401b03811161013b576106749036906004016112fb565b926044356001600160401b03811161013b576106949036906004016112fb565b9390926064356001600160401b03811161013b576106b6903690600401611328565b6084979197356001600160401b03811161013b576106d8903690600401611328565b98908515610da857828a03610d9757600091825b8b8110610d225750612710831015610d0d5761271083810311610cf7578261271014610ce65760005460805261072360805161153f565b6000558a610cdf5760015b604051888b8d61077a6107588e6107448761136e565b60805187526020870195338752369161173e565b604086019081529261076b368d8f61173e565b9260608701938452369161173e565b916080850192835260a085019342855261079860c0870197886114dc565b608051600090815260016020819052604090912096518755905190860180546001600160a01b0319166001600160a01b039290921691909117905551805160028601916001600160401b038211610b435781906107f584546113fe565b601f8111610c8c575b50602090601f8311600114610c2757600092610c1c575b50508160011b916000199060031b1c19161790555b51805160038501916001600160401b038211610b4357819061084c84546113fe565b601f8111610bc9575b50602090601f8311600114610b6457600092610b59575b50508160011b916000199060031b1c19161790555b51805160048401916001600160401b038211610b43576108a183546113fe565b601f8111610afb575b50602090601f8311600114610a8f576006959493929160009183610a84575b50508160011b916000199060031b1c19161790555b516005820155019051936003851015610366576109719160009560ff8019835416911617905560405161091081611389565b858152600260208201878152604083019088825260805189528260205260408920935184555160018401555191015560805185526003602052604085206040519161095a83611389565b338352866020840152612710036040830152611784565b608051835260056020526040832060018060a01b033316845260205260408320600160ff1982541617905533835260046020526109b36080516040852061180a565b825b8b8110610a30578a8a7f3488d52145f2da8302f4410707e81efde09f4f605b2182bbfb96b966837e32cd8b8b610a21610a0e8d8d610a0060405196879660608852606088019161183f565b91858303602087015261183f565b828103604084015233966080519661183f565b0390a360206040516080518152f35b60019060805185526003602052610a7e8d610a508360408920928861172e565b3590610a5d848a8861172e565b359160405192610a6c84611389565b89845260208401526040830152611784565b016109b5565b0151905038806108c9565b90601f1983169184600052816000209260005b818110610ae357509160019391856006999897969410610aca575b505050811b0190556108de565b015160001960f88460031b161c19169055388080610abd565b92936020600181928786015181550195019301610aa2565b836000526020600020601f840160051c81019160208510610b39575b601f0160051c01905b818110610b2d57506108aa565b60008155600101610b20565b9091508190610b17565b634e487b7160e01b600052604160045260246000fd5b01519050388061086c565b60008581528281209350601f198516905b818110610bb15750908460019594939210610b98575b505050811b019055610881565b015160001960f88460031b161c19169055388080610b8b565b92936020600181928786015181550195019301610b75565b909150836000526020600020601f840160051c81019160208510610c12575b90601f859493920160051c01905b818110610c035750610855565b60008155849350600101610bf6565b9091508190610be8565b015190503880610815565b60008581528281209350601f198516905b818110610c745750908460019594939210610c5b575b505050811b01905561082a565b015160001960f88460031b161c19169055388080610c4e565b92936020600181928786015181550195019301610c38565b909150836000526020600020601f840160051c81019160208510610cd5575b90601f859493920160051c01905b818110610cc657506107fe565b60008155849350600101610cb9565b9091508190610cab565b600061072e565b630781666160e51b60005260046000fd5b634e487b7160e01b600052601160045260246000fd5b82634a31414760e01b60005260045260246000fd5b92610d2e848d8561172e565b3515848d8215610d7e575b5050610d5e57610d57600191610d50868f8761172e565b3590611532565b93016106ec565b610d69848d8561172e565b3563447e90bf60e11b60005260045260246000fd5b612710925090610d8e918661172e565b3511848d610d39565b63512509d360e11b60005260046000fd5b6352ddcdef60e11b60005260046000fd5b3461013b57600036600319011261013b576020600054604051908152f35b3461013b57602036600319011261013b57610df0611572565b50600435600052600260205260606040600020600260405191610e1283611389565b8054835260018101546020840152015460408201526103be60405180926040809180518452602081015160208501520151910152565b3461013b57606036600319011261013b57610e6a6044356024356004356115a5565b60405180916020820160208352815180915260206040840192019060005b818110610e96575050500390f35b825180516001600160a01b03168552602081810151818701526040918201519186019190915286955060609094019390920191600101610e88565b3461013b57604036600319011261013b57600435602435908060005260016020526040600020805415610610576006015460ff169160038310156103665760028314611172576000921561115e57801561114f576040516323b872dd60e01b8152336004820152306024820152604481018290527f00000000000000000000000000000000000000000000000000000000000000006001600160a01b03169060208160648188865af1908115611144578591611125575b501561111657828452600360205260408420845b8154811015611061576002610fb18284611500565b50015490818502918583040361104d57612710610fce8285611500565b505460405163a9059cbb60e01b81526001600160a01b039091166004820152920460248301526020826044818a885af191821561104257600192611014575b5001610f9c565b6110349060203d811161103b575b61102c81836113a4565b8101906114e8565b508761100d565b503d611022565b6040513d89823e3d90fd5b634e487b7160e01b87526011600452602487fd5b5050509080835260026020526040832061107c838254611532565b81556001810161108c815461153f565b905581845260066020908152604080862033875290915284205460ff16156110df575b506040519182527fe555da28bdb778f65d22794d88927ebaeca03f7de9d1b7d39245bc8fb5ca078a60203393a380f35b6002016110ec815461153f565b90558083526006602090815260408085203386529091528320805460ff19166001179055836110af565b6312171d8360e31b8452600484fd5b61113e915060203d60201161103b5761102c81836113a4565b85610f88565b6040513d87823e3d90fd5b63bdd5839b60e01b8352600483fd5b63da8944ed60e01b83526004829052602483fd5b5063423b515f60e01b60005260045260246000fd5b3461013b57602036600319011261013b576111a06113c5565b50600435600052600160205261123c604060002061122860ff6006604051936111c88561136e565b8054855260018101546001600160a01b031660208601526111eb60028201611438565b60408601526111fc60038201611438565b606086015261120d60048201611438565b6080860152600581015460a086015201541660c083016114dc565b604051918291602083526020830190611281565b0390f35b919082519283825260005b84811061126c575050826000602080949584010152601f8019910116010190565b8060208092840101518282860101520161124b565b908151815260018060a01b03602083015116602082015260c06112dd6112cb6112b9604086015160e0604087015260e0860190611240565b60608601518582036060870152611240565b60808501518482036080860152611240565b9260a081015160a084015201519060038210156103665760c0015290565b9181601f8401121561013b578235916001600160401b03831161013b576020838186019501011161013b57565b9181601f8401121561013b578235916001600160401b03831161013b576020808501948460051b01011161013b57565b600435906001600160a01b038216820361013b57565b60e081019081106001600160401b03821117610b4357604052565b606081019081106001600160401b03821117610b4357604052565b90601f801991011681019081106001600160401b03821117610b4357604052565b604051906113d28261136e565b600060c08382815282602082015260606040820152606080820152606060808201528260a08201520152565b90600182811c9216801561142e575b602083101461141857565b634e487b7160e01b600052602260045260246000fd5b91607f169161140d565b906040519182600082549261144c846113fe565b80845293600181169081156114ba5750600114611473575b50611471925003836113a4565b565b90506000929192526020600020906000915b81831061149e5750509060206114719282010138611464565b6020919350806001915483858901015201910190918492611485565b90506020925061147194915060ff191682840152151560051b82010138611464565b60038210156103665752565b9081602091031261013b5751801515810361013b5790565b805482101561151c576000526003602060002091020190600090565b634e487b7160e01b600052603260045260246000fd5b91908201809211610cf757565b6000198114610cf75760010190565b91908203918211610cf757565b6001600160401b038111610b435760051b60200190565b6040519061157f82611389565b60006040838281528260208201520152565b805182101561151c5760209160051b010190565b9291908360005260016020526040600020541561171957836000526003602052604060002054811160001461161257505060405190915060006115e96020836113a4565b81526000805b8181106115fb57505090565b602090611606611572565b828286010152016115ef565b61161c8282611532565b846000526003602052604060002054106116f9575b61163a8261155b565b9061164860405192836113a4565b828252601f196116578461155b565b0160005b8181106116e2575050819460005b848110611677575050505050565b60019082600052600360205261169b60406000206116958684611532565b90611500565b506002604051916116ab83611389565b848060a01b038154168352848101546020840152015460408201526116d08287611591565b526116db8186611591565b5001611669565b6020906116ed611572565b8282870101520161165b565b90508260005260036020526117138160406000205461154e565b90611631565b836302ad881560e41b60005260045260246000fd5b919081101561151c5760051b0190565b9291926001600160401b038211610b435760405191611767601f8201601f1916602001846113a4565b82948184528183011161013b578281602093846000960137010152565b8054600160401b811015610b43576117a191600182018155611500565b9190916117dc57805182546001600160a01b0319166001600160a01b0391909116178255602081015160018301556040015160029190910155565b634e487b7160e01b600052600060045260246000fd5b805482101561151c5760005260206000200190600090565b8054600160401b811015610b4357611827916001820181556117f2565b819291549060031b91821b91600019901b1916179055565b908060209392818452848401376000828201840152601f01601f1916010190565b6001600160a01b031660008181526004602052604090205490939291908111156118c257505060405190915060006118996020836113a4565b81526000805b8181106118ab57505090565b6020906118b66113c5565b8282860101520161189f565b6118cc8282611532565b846000526004602052604060002054106119c5575b6118ea8261155b565b906118f860405192836113a4565b828252601f196119078461155b565b0160005b8181106119ae575050819460005b848110611927575050505050565b60019082600052600460205261194b60406000206119458684611532565b906117f2565b90549060031b1c60005281602052604060002061199260ff6006604051936119728561136e565b80548552868060a01b03878201541660208601526111eb60028201611438565b61199c8287611591565b526119a78186611591565b5001611919565b6020906119b96113c5565b8282870101520161190b565b90508260005260046020526119df8160406000205461154e565b906118e1565b600052600360205260406000206000908054915b828110611a0857505050600190565b611a128183611500565b50546001600160a01b031615611a2a576001016119f9565b50505060009056fea26469706673582212205c1aee3bd9bb9d3de2bc477dbc5d801d4d450b586816ecd4fe68eafd14dd410a64736f6c634300081c0033",
          "opcodes": "PUSH1 0xA0 CALLVALUE PUSH1 0x74 JUMPI PUSH1 0x1F PUSH2 0x1AF8 CODESIZE DUP2 SWAP1 SUB SWAP2 DUP3 ADD PUSH1 0x1F NOT AND DUP4 ADD SWAP2 PUSH1 0x1 PUSH1 0x1 PUSH1 0x40 SHL SUB DUP4 GT DUP5 DUP5 LT OR PUSH1 0x79 JUMPI DUP1 DUP5 SWAP3 PUSH1 0x20 SWAP5 PUSH1 0x40 MSTORE DUP4 CODECOPY DUP2 ADD SUB SLT PUSH1 0x74 JUMPI MLOAD PUSH1 0x1 PUSH1 0x1 PUSH1 0xA0 SHL SUB DUP2 AND SWAP1 DUP2 SWAP1 SUB PUSH1 0x74 JUMPI PUSH1 0x1 PUSH1 0x0 SSTORE PUSH1 0x80 MSTORE PUSH1 0x40 MLOAD PUSH2 0x1A68 SWAP1 DUP2 PUSH2 0x90 DUP3 CODECOPY PUSH1 0x80 MLOAD DUP2 DUP2 DUP2 PUSH2 0x3D6 ADD MSTORE PUSH2 0xF47 ADD MSTORE RETURN JUMPDEST PUSH1 0x0 DUP1 REVERT JUMPDEST PUSH4 0x4E487B71 PUSH1 0xE0 SHL PUSH1 0x0 MSTORE PUSH1 0x41 PUSH1 0x4 MSTORE PUSH1 0x24 PUSH1 0x0 REVERT INVALID PUSH1 0xA0 PUSH1 0x40 MSTORE PUSH1 0x4 CALLDATASIZE LT ISZERO PUSH2 0x12 JUMPI PUSH1 0x0 DUP1 REVERT JUMPDEST PUSH1 0x0 CALLDATALOAD PUSH1 0xE0 SHR DUP1 PUSH4 0x68BCD8D EQ PUSH2 0x1187 JUMPI DUP1 PUSH4 0xCDD53F6 EQ PUSH2 0xED1 JUMPI DUP1 PUSH4 0x12B32082 EQ PUSH2 0xE48 JUMPI DUP1 PUSH4 0x14D056F8 EQ PUSH2 0xDD7 JUMPI DUP1 PUSH4 0x18E56131 EQ PUSH2 0xDB9 JUMPI DUP1 PUSH4 0x1C014F16 EQ PUSH2 0x625 JUMPI DUP1 PUSH4 0x26E73670 EQ PUSH2 0x405 JUMPI DUP1 PUSH4 0x3E413BEE EQ PUSH2 0x3C0 JUMPI DUP1 PUSH4 0x8FBD0C2D EQ PUSH2 0x24B JUMPI DUP1 PUSH4 0x9ABD9B05 EQ PUSH2 0x1A6 JUMPI DUP1 PUSH4 0x9EE64B65 EQ PUSH2 0x16C JUMPI DUP1 PUSH4 0xF535A4F5 EQ PUSH2 0x140 JUMPI PUSH4 0xF75B9AFA EQ PUSH2 0xAB JUMPI PUSH1 0x0 DUP1 REVERT JUMPDEST CALLVALUE PUSH2 0x13B JUMPI PUSH1 0x60 CALLDATASIZE PUSH1 0x3 NOT ADD SLT PUSH2 0x13B JUMPI PUSH2 0xD4 PUSH2 0xC7 PUSH2 0x1358 JUMP JUMPDEST PUSH1 0x44 CALLDATALOAD SWAP1 PUSH1 0x24 CALLDATALOAD SWAP1 PUSH2 0x1860 JUMP JUMPDEST PUSH1 0x40 MLOAD DUP1 SWAP2 PUSH1 0x20 DUP3 ADD PUSH1 0x20 DUP4 MSTORE DUP2 MLOAD DUP1 SWAP2 MSTORE PUSH1 0x40 DUP4 ADD SWAP1 PUSH1 0x20 PUSH1 0x40 DUP3 PUSH1 0x5 SHL DUP7 ADD ADD SWAP4 ADD SWAP2 PUSH1 0x0 SWAP1 JUMPDEST DUP3 DUP3 LT PUSH2 0x10C JUMPI POP POP POP POP SUB SWAP1 RETURN JUMPDEST SWAP2 SWAP4 PUSH1 0x1 SWAP2 SWAP4 SWAP6 POP PUSH1 0x20 PUSH2 0x12B DUP2 SWAP3 PUSH1 0x3F NOT DUP11 DUP3 SUB ADD DUP7 MSTORE DUP9 MLOAD PUSH2 0x1281 JUMP JUMPDEST SWAP7 ADD SWAP3 ADD SWAP3 ADD DUP6 SWAP5 SWAP4 SWAP2 SWAP3 PUSH2 0xFD JUMP JUMPDEST PUSH1 0x0 DUP1 REVERT JUMPDEST CALLVALUE PUSH2 0x13B JUMPI PUSH1 0x20 CALLDATASIZE PUSH1 0x3 NOT ADD SLT PUSH2 0x13B JUMPI PUSH1 0x4 CALLDATALOAD PUSH1 0x0 MSTORE PUSH1 0x3 PUSH1 0x20 MSTORE PUSH1 0x20 PUSH1 0x40 PUSH1 0x0 KECCAK256 SLOAD PUSH1 0x40 MLOAD SWAP1 DUP2 MSTORE RETURN JUMPDEST CALLVALUE PUSH2 0x13B JUMPI PUSH1 0x20 CALLDATASIZE PUSH1 0x3 NOT ADD SLT PUSH2 0x13B JUMPI PUSH1 0x1 PUSH1 0x1 PUSH1 0xA0 SHL SUB PUSH2 0x18D PUSH2 0x1358 JUMP JUMPDEST AND PUSH1 0x0 MSTORE PUSH1 0x4 PUSH1 0x20 MSTORE PUSH1 0x20 PUSH1 0x40 PUSH1 0x0 KECCAK256 SLOAD PUSH1 0x40 MLOAD SWAP1 DUP2 MSTORE RETURN JUMPDEST CALLVALUE PUSH2 0x13B JUMPI PUSH1 0x20 CALLDATASIZE PUSH1 0x3 NOT ADD SLT PUSH2 0x13B JUMPI PUSH1 0x4 CALLDATALOAD DUP1 PUSH1 0x0 MSTORE PUSH1 0x1 PUSH1 0x20 MSTORE PUSH1 0x40 PUSH1 0x0 KECCAK256 DUP1 SLOAD ISZERO PUSH1 0x0 EQ PUSH2 0x1E7 JUMPI POP PUSH4 0x2AD8815 PUSH1 0xE4 SHL PUSH1 0x0 MSTORE PUSH1 0x4 MSTORE PUSH1 0x24 PUSH1 0x0 REVERT JUMPDEST PUSH1 0x1 DUP2 ADD SLOAD PUSH1 0x1 PUSH1 0x1 PUSH1 0xA0 SHL SUB AND CALLER SUB PUSH2 0x232 JUMPI PUSH1 0x6 ADD DUP1 SLOAD PUSH1 0xFF NOT AND PUSH1 0x2 OR SWAP1 SSTORE CALLER SWAP1 PUSH32 0x72E6FC67CA93CC3CEDC1E023204888C2CAB750FBB5526E1FAF3445C0327EE0EF PUSH1 0x0 DUP1 LOG3 STOP JUMPDEST POP PUSH4 0x2A20F25 PUSH1 0xE2 SHL PUSH1 0x0 MSTORE CALLER PUSH1 0x4 MSTORE PUSH1 0x24 MSTORE PUSH1 0x44 PUSH1 0x0 REVERT JUMPDEST CALLVALUE PUSH2 0x13B JUMPI PUSH1 0x20 CALLDATASIZE PUSH1 0x3 NOT ADD SLT PUSH2 0x13B JUMPI PUSH2 0x264 PUSH2 0x1358 JUMP JUMPDEST PUSH2 0x26C PUSH2 0x1572 JUMP JUMPDEST PUSH1 0x0 SWAP2 PUSH1 0x1 PUSH1 0x1 PUSH1 0xA0 SHL SUB AND PUSH1 0x20 DUP3 ADD DUP4 JUMPDEST DUP3 PUSH1 0x0 MSTORE PUSH1 0x4 PUSH1 0x20 MSTORE PUSH1 0x40 PUSH1 0x0 KECCAK256 SLOAD DUP2 LT ISZERO PUSH2 0x37C JUMPI DUP3 PUSH1 0x0 MSTORE PUSH1 0x4 PUSH1 0x20 MSTORE PUSH2 0x2AB DUP2 PUSH1 0x40 PUSH1 0x0 KECCAK256 PUSH2 0x17F2 JUMP JUMPDEST SWAP1 SLOAD SWAP1 PUSH1 0x3 SHL SHR PUSH1 0x0 MSTORE PUSH1 0x2 PUSH1 0x20 MSTORE PUSH2 0x2CA PUSH1 0x40 PUSH1 0x0 KECCAK256 SLOAD DUP6 MLOAD PUSH2 0x1532 JUMP JUMPDEST DUP5 MSTORE DUP3 PUSH1 0x0 MSTORE PUSH1 0x4 PUSH1 0x20 MSTORE PUSH2 0x2E3 DUP2 PUSH1 0x40 PUSH1 0x0 KECCAK256 PUSH2 0x17F2 JUMP JUMPDEST SWAP1 SLOAD SWAP1 PUSH1 0x3 SHL SHR PUSH1 0x0 MSTORE PUSH1 0x2 PUSH1 0x20 MSTORE PUSH2 0x305 PUSH1 0x1 PUSH1 0x40 PUSH1 0x0 KECCAK256 ADD SLOAD DUP4 MLOAD PUSH2 0x1532 JUMP JUMPDEST DUP3 MSTORE DUP3 PUSH1 0x0 MSTORE PUSH1 0x4 PUSH1 0x20 MSTORE PUSH2 0x31E DUP2 PUSH1 0x40 PUSH1 0x0 KECCAK256 PUSH2 0x17F2 JUMP JUMPDEST SWAP1 SLOAD SWAP1 PUSH1 0x3 SHL SHR PUSH1 0x0 MSTORE PUSH1 0x1 PUSH1 0x20 MSTORE PUSH1 0xFF PUSH1 0x6 PUSH1 0x40 PUSH1 0x0 KECCAK256 ADD SLOAD AND PUSH1 0x3 DUP2 LT ISZERO PUSH2 0x366 JUMPI PUSH1 0x1 EQ PUSH2 0x352 JUMPI JUMPDEST PUSH1 0x1 ADD PUSH2 0x27E JUMP JUMPDEST SWAP4 PUSH2 0x35E PUSH1 0x1 SWAP2 PUSH2 0x153F JUMP JUMPDEST SWAP5 SWAP1 POP PUSH2 0x34A JUMP JUMPDEST PUSH4 0x4E487B71 PUSH1 0xE0 SHL PUSH1 0x0 MSTORE PUSH1 0x21 PUSH1 0x4 MSTORE PUSH1 0x24 PUSH1 0x0 REVERT JUMPDEST PUSH1 0x60 DUP3 DUP7 DUP7 MLOAD SWAP2 MLOAD PUSH1 0x40 MLOAD SWAP3 PUSH2 0x391 DUP5 PUSH2 0x1389 JUMP JUMPDEST DUP4 MSTORE PUSH1 0x20 DUP4 ADD MSTORE PUSH1 0x40 DUP3 ADD MSTORE PUSH2 0x3BE PUSH1 0x40 MLOAD DUP1 SWAP3 PUSH1 0x40 DUP1 SWAP2 DUP1 MLOAD DUP5 MSTORE PUSH1 0x20 DUP2 ADD MLOAD PUSH1 0x20 DUP6 ADD MSTORE ADD MLOAD SWAP2 ADD MSTORE JUMP JUMPDEST RETURN JUMPDEST CALLVALUE PUSH2 0x13B JUMPI PUSH1 0x0 CALLDATASIZE PUSH1 0x3 NOT ADD SLT PUSH2 0x13B JUMPI PUSH1 0x40 MLOAD PUSH32 0x0 PUSH1 0x1 PUSH1 0x1 PUSH1 0xA0 SHL SUB AND DUP2 MSTORE PUSH1 0x20 SWAP1 RETURN JUMPDEST CALLVALUE PUSH2 0x13B JUMPI PUSH1 0x40 CALLDATASIZE PUSH1 0x3 NOT ADD SLT PUSH2 0x13B JUMPI PUSH1 0x4 CALLDATALOAD DUP1 PUSH1 0x0 MSTORE PUSH1 0x1 PUSH1 0x20 MSTORE PUSH1 0x40 PUSH1 0x0 KECCAK256 DUP1 SLOAD ISZERO PUSH2 0x610 JUMPI PUSH1 0x6 ADD SLOAD PUSH1 0xFF AND PUSH1 0x3 DUP2 LT ISZERO PUSH2 0x366 JUMPI PUSH1 0x2 EQ PUSH2 0x5FC JUMPI PUSH1 0x0 DUP2 DUP2 MSTORE PUSH1 0x5 PUSH1 0x20 SWAP1 DUP2 MSTORE PUSH1 0x40 DUP1 DUP4 KECCAK256 CALLER DUP5 MSTORE SWAP1 SWAP2 MSTORE SWAP1 KECCAK256 SLOAD PUSH1 0xFF AND PUSH2 0x5EB JUMPI PUSH1 0x40 MLOAD PUSH1 0x20 DUP2 ADD SWAP1 PUSH1 0x24 CALLDATALOAD DUP3 MSTORE PUSH1 0x20 DUP2 MSTORE PUSH2 0x482 PUSH1 0x40 DUP3 PUSH2 0x13A4 JUMP JUMPDEST MLOAD SWAP1 KECCAK256 SWAP1 DUP1 PUSH1 0x0 MSTORE PUSH1 0x3 PUSH1 0x20 MSTORE PUSH1 0x40 PUSH1 0x0 KECCAK256 PUSH1 0x0 DUP1 DUP1 SWAP5 DUP2 SWAP1 DUP5 SLOAD SWAP2 JUMPDEST DUP3 DUP2 LT PUSH2 0x56F JUMPI JUMPDEST POP POP POP ISZERO PUSH2 0x55E JUMPI PUSH2 0x4B8 SWAP2 PUSH2 0x1500 JUMP JUMPDEST POP DUP1 SLOAD PUSH1 0x1 PUSH1 0x1 PUSH1 0xA0 SHL SUB NOT AND CALLER SWAP1 DUP2 OR SWAP1 SWAP2 SSTORE PUSH1 0x0 DUP3 DUP2 MSTORE PUSH1 0x5 PUSH1 0x20 SWAP1 DUP2 MSTORE PUSH1 0x40 DUP1 DUP4 KECCAK256 SWAP4 DUP4 MSTORE SWAP3 DUP2 MSTORE DUP3 DUP3 KECCAK256 DUP1 SLOAD PUSH1 0xFF NOT AND PUSH1 0x1 OR SWAP1 SSTORE PUSH1 0x4 SWAP1 MSTORE KECCAK256 PUSH2 0x501 SWAP1 DUP3 SWAP1 PUSH2 0x180A JUMP JUMPDEST PUSH2 0x50A DUP2 PUSH2 0x19E5 JUMP JUMPDEST PUSH2 0x53D JUMPI JUMPDEST PUSH1 0x40 MLOAD SWAP2 DUP3 MSTORE PUSH32 0xF4F82575EE84A81AAC4BE52B6A368E9BA9DF524B4F5CF8177D7CFBABE861820C PUSH1 0x20 CALLER SWAP4 LOG3 STOP JUMPDEST DUP1 PUSH1 0x0 MSTORE PUSH1 0x1 PUSH1 0x20 MSTORE PUSH1 0x6 PUSH1 0x40 PUSH1 0x0 KECCAK256 ADD PUSH1 0x1 PUSH1 0xFF NOT DUP3 SLOAD AND OR SWAP1 SSTORE PUSH2 0x50F JUMP JUMPDEST PUSH4 0x46AA5BF PUSH1 0xE0 SHL PUSH1 0x0 MSTORE PUSH1 0x4 PUSH1 0x0 REVERT JUMPDEST PUSH2 0x579 DUP2 DUP8 PUSH2 0x1500 JUMP JUMPDEST POP SLOAD PUSH1 0x1 PUSH1 0x1 PUSH1 0xA0 SHL SUB AND ISZERO DUP1 PUSH2 0x5D4 JUMPI JUMPDEST DUP1 PUSH2 0x5BD JUMPI JUMPDEST PUSH2 0x59D JUMPI PUSH1 0x1 ADD PUSH2 0x49F JUMP JUMPDEST SWAP7 POP POP POP POP POP PUSH1 0x2 PUSH2 0x5AF DUP5 DUP4 PUSH2 0x1500 JUMP JUMPDEST POP ADD SLOAD SWAP3 PUSH1 0x1 DUP6 DUP1 DUP1 PUSH2 0x4A7 JUMP JUMPDEST POP PUSH1 0x1 PUSH2 0x5CA DUP3 DUP9 PUSH2 0x1500 JUMP JUMPDEST POP ADD SLOAD ISZERO ISZERO PUSH2 0x591 JUMP JUMPDEST POP DUP2 PUSH1 0x1 PUSH2 0x5E2 DUP4 DUP10 PUSH2 0x1500 JUMP JUMPDEST POP ADD SLOAD EQ PUSH2 0x58B JUMP JUMPDEST PUSH4 0x4C0D3FED PUSH1 0xE1 SHL PUSH1 0x0 MSTORE PUSH1 0x4 PUSH1 0x0 REVERT JUMPDEST PUSH4 0x423B515F PUSH1 0xE0 SHL PUSH1 0x0 MSTORE PUSH1 0x4 MSTORE PUSH1 0x24 PUSH1 0x0 REVERT JUMPDEST POP PUSH4 0x2AD8815 PUSH1 0xE4 SHL PUSH1 0x0 MSTORE PUSH1 0x4 MSTORE PUSH1 0x24 PUSH1 0x0 REVERT JUMPDEST CALLVALUE PUSH2 0x13B JUMPI PUSH1 0xA0 CALLDATASIZE PUSH1 0x3 NOT ADD SLT PUSH2 0x13B JUMPI PUSH1 0x4 CALLDATALOAD PUSH1 0x1 PUSH1 0x1 PUSH1 0x40 SHL SUB DUP2 GT PUSH2 0x13B JUMPI PUSH2 0x655 SWAP1 CALLDATASIZE SWAP1 PUSH1 0x4 ADD PUSH2 0x12FB JUMP JUMPDEST PUSH1 0x24 CALLDATALOAD PUSH1 0x1 PUSH1 0x1 PUSH1 0x40 SHL SUB DUP2 GT PUSH2 0x13B JUMPI PUSH2 0x674 SWAP1 CALLDATASIZE SWAP1 PUSH1 0x4 ADD PUSH2 0x12FB JUMP JUMPDEST SWAP3 PUSH1 0x44 CALLDATALOAD PUSH1 0x1 PUSH1 0x1 PUSH1 0x40 SHL SUB DUP2 GT PUSH2 0x13B JUMPI PUSH2 0x694 SWAP1 CALLDATASIZE SWAP1 PUSH1 0x4 ADD PUSH2 0x12FB JUMP JUMPDEST SWAP4 SWAP1 SWAP3 PUSH1 0x64 CALLDATALOAD PUSH1 0x1 PUSH1 0x1 PUSH1 0x40 SHL SUB DUP2 GT PUSH2 0x13B JUMPI PUSH2 0x6B6 SWAP1 CALLDATASIZE SWAP1 PUSH1 0x4 ADD PUSH2 0x1328 JUMP JUMPDEST PUSH1 0x84 SWAP8 SWAP2 SWAP8 CALLDATALOAD PUSH1 0x1 PUSH1 0x1 PUSH1 0x40 SHL SUB DUP2 GT PUSH2 0x13B JUMPI PUSH2 0x6D8 SWAP1 CALLDATASIZE SWAP1 PUSH1 0x4 ADD PUSH2 0x1328 JUMP JUMPDEST SWAP9 SWAP1 DUP6 ISZERO PUSH2 0xDA8 JUMPI DUP3 DUP11 SUB PUSH2 0xD97 JUMPI PUSH1 0x0 SWAP2 DUP3 JUMPDEST DUP12 DUP2 LT PUSH2 0xD22 JUMPI POP PUSH2 0x2710 DUP4 LT ISZERO PUSH2 0xD0D JUMPI PUSH2 0x2710 DUP4 DUP2 SUB GT PUSH2 0xCF7 JUMPI DUP3 PUSH2 0x2710 EQ PUSH2 0xCE6 JUMPI PUSH1 0x0 SLOAD PUSH1 0x80 MSTORE PUSH2 0x723 PUSH1 0x80 MLOAD PUSH2 0x153F JUMP JUMPDEST PUSH1 0x0 SSTORE DUP11 PUSH2 0xCDF JUMPI PUSH1 0x1 JUMPDEST PUSH1 0x40 MLOAD DUP9 DUP12 DUP14 PUSH2 0x77A PUSH2 0x758 DUP15 PUSH2 0x744 DUP8 PUSH2 0x136E JUMP JUMPDEST PUSH1 0x80 MLOAD DUP8 MSTORE PUSH1 0x20 DUP8 ADD SWAP6 CALLER DUP8 MSTORE CALLDATASIZE SWAP2 PUSH2 0x173E JUMP JUMPDEST PUSH1 0x40 DUP7 ADD SWAP1 DUP2 MSTORE SWAP3 PUSH2 0x76B CALLDATASIZE DUP14 DUP16 PUSH2 0x173E JUMP JUMPDEST SWAP3 PUSH1 0x60 DUP8 ADD SWAP4 DUP5 MSTORE CALLDATASIZE SWAP2 PUSH2 0x173E JUMP JUMPDEST SWAP2 PUSH1 0x80 DUP6 ADD SWAP3 DUP4 MSTORE PUSH1 0xA0 DUP6 ADD SWAP4 TIMESTAMP DUP6 MSTORE PUSH2 0x798 PUSH1 0xC0 DUP8 ADD SWAP8 DUP9 PUSH2 0x14DC JUMP JUMPDEST PUSH1 0x80 MLOAD PUSH1 0x0 SWAP1 DUP2 MSTORE PUSH1 0x1 PUSH1 0x20 DUP2 SWAP1 MSTORE PUSH1 0x40 SWAP1 SWAP2 KECCAK256 SWAP7 MLOAD DUP8 SSTORE SWAP1 MLOAD SWAP1 DUP7 ADD DUP1 SLOAD PUSH1 0x1 PUSH1 0x1 PUSH1 0xA0 SHL SUB NOT AND PUSH1 0x1 PUSH1 0x1 PUSH1 0xA0 SHL SUB SWAP3 SWAP1 SWAP3 AND SWAP2 SWAP1 SWAP2 OR SWAP1 SSTORE MLOAD DUP1 MLOAD PUSH1 0x2 DUP7 ADD SWAP2 PUSH1 0x1 PUSH1 0x1 PUSH1 0x40 SHL SUB DUP3 GT PUSH2 0xB43 JUMPI DUP2 SWAP1 PUSH2 0x7F5 DUP5 SLOAD PUSH2 0x13FE JUMP JUMPDEST PUSH1 0x1F DUP2 GT PUSH2 0xC8C JUMPI JUMPDEST POP PUSH1 0x20 SWAP1 PUSH1 0x1F DUP4 GT PUSH1 0x1 EQ PUSH2 0xC27 JUMPI PUSH1 0x0 SWAP3 PUSH2 0xC1C JUMPI JUMPDEST POP POP DUP2 PUSH1 0x1 SHL SWAP2 PUSH1 0x0 NOT SWAP1 PUSH1 0x3 SHL SHR NOT AND OR SWAP1 SSTORE JUMPDEST MLOAD DUP1 MLOAD PUSH1 0x3 DUP6 ADD SWAP2 PUSH1 0x1 PUSH1 0x1 PUSH1 0x40 SHL SUB DUP3 GT PUSH2 0xB43 JUMPI DUP2 SWAP1 PUSH2 0x84C DUP5 SLOAD PUSH2 0x13FE JUMP JUMPDEST PUSH1 0x1F DUP2 GT PUSH2 0xBC9 JUMPI JUMPDEST POP PUSH1 0x20 SWAP1 PUSH1 0x1F DUP4 GT PUSH1 0x1 EQ PUSH2 0xB64 JUMPI PUSH1 0x0 SWAP3 PUSH2 0xB59 JUMPI JUMPDEST POP POP DUP2 PUSH1 0x1 SHL SWAP2 PUSH1 0x0 NOT SWAP1 PUSH1 0x3 SHL SHR NOT AND OR SWAP1 SSTORE JUMPDEST MLOAD DUP1 MLOAD PUSH1 0x4 DUP5 ADD SWAP2 PUSH1 0x1 PUSH1 0x1 PUSH1 0x40 SHL SUB DUP3 GT PUSH2 0xB43 JUMPI PUSH2 0x8A1 DUP4 SLOAD PUSH2 0x13FE JUMP JUMPDEST PUSH1 0x1F DUP2 GT PUSH2 0xAFB JUMPI JUMPDEST POP PUSH1 0x20 SWAP1 PUSH1 0x1F DUP4 GT PUSH1 0x1 EQ PUSH2 0xA8F JUMPI PUSH1 0x6 SWAP6 SWAP5 SWAP4 SWAP3 SWAP2 PUSH1 0x0 SWAP2 DUP4 PUSH2 0xA84 JUMPI JUMPDEST POP POP DUP2 PUSH1 0x1 SHL SWAP2 PUSH1 0x0 NOT SWAP1 PUSH1 0x3 SHL SHR NOT AND OR SWAP1 SSTORE JUMPDEST MLOAD PUSH1 0x5 DUP3 ADD SSTORE ADD SWAP1 MLOAD SWAP4 PUSH1 0x3 DUP6 LT ISZERO PUSH2 0x366 JUMPI PUSH2 0x971 SWAP2 PUSH1 0x0 SWAP6 PUSH1 0xFF DUP1 NOT DUP4 SLOAD AND SWAP2 AND OR SWAP1 SSTORE PUSH1 0x40 MLOAD PUSH2 0x910 DUP2 PUSH2 0x1389 JUMP JUMPDEST DUP6 DUP2 MSTORE PUSH1 0x2 PUSH1 0x20 DUP3 ADD DUP8 DUP2 MSTORE PUSH1 0x40 DUP4 ADD SWAP1 DUP9 DUP3 MSTORE PUSH1 0x80 MLOAD DUP10 MSTORE DUP3 PUSH1 0x20 MSTORE PUSH1 0x40 DUP10 KECCAK256 SWAP4 MLOAD DUP5 SSTORE MLOAD PUSH1 0x1 DUP5 ADD SSTORE MLOAD SWAP2 ADD SSTORE PUSH1 0x80 MLOAD DUP6 MSTORE PUSH1 0x3 PUSH1 0x20 MSTORE PUSH1 0x40 DUP6 KECCAK256 PUSH1 0x40 MLOAD SWAP2 PUSH2 0x95A DUP4 PUSH2 0x1389 JUMP JUMPDEST CALLER DUP4 MSTORE DUP7 PUSH1 0x20 DUP5 ADD MSTORE PUSH2 0x2710 SUB PUSH1 0x40 DUP4 ADD MSTORE PUSH2 0x1784 JUMP JUMPDEST PUSH1 0x80 MLOAD DUP4 MSTORE PUSH1 0x5 PUSH1 0x20 MSTORE PUSH1 0x40 DUP4 KECCAK256 PUSH1 0x1 DUP1 PUSH1 0xA0 SHL SUB CALLER AND DUP5 MSTORE PUSH1 0x20 MSTORE PUSH1 0x40 DUP4 KECCAK256 PUSH1 0x1 PUSH1 0xFF NOT DUP3 SLOAD AND OR SWAP1 SSTORE CALLER DUP4 MSTORE PUSH1 0x4 PUSH1 0x20 MSTORE PUSH2 0x9B3 PUSH1 0x80 MLOAD PUSH1 0x40 DUP6 KECCAK256 PUSH2 0x180A JUMP JUMPDEST DUP3 JUMPDEST DUP12 DUP2 LT PUSH2 0xA30 JUMPI DUP11 DUP11 PUSH32 0x3488D52145F2DA8302F4410707E81EFDE09F4F605B2182BBFB96B966837E32CD DUP12 DUP12 PUSH2 0xA21 PUSH2 0xA0E DUP14 DUP14 PUSH2 0xA00 PUSH1 0x40 MLOAD SWAP7 DUP8 SWAP7 PUSH1 0x60 DUP9 MSTORE PUSH1 0x60 DUP9 ADD SWAP2 PUSH2 0x183F JUMP JUMPDEST SWAP2 DUP6 DUP4 SUB PUSH1 0x20 DUP8 ADD MSTORE PUSH2 0x183F JUMP JUMPDEST DUP3 DUP2 SUB PUSH1 0x40 DUP5 ADD MSTORE CALLER SWAP7 PUSH1 0x80 MLOAD SWAP7 PUSH2 0x183F JUMP JUMPDEST SUB SWAP1 LOG3 PUSH1 0x20 PUSH1 0x40 MLOAD PUSH1 0x80 MLOAD DUP2 MSTORE RETURN JUMPDEST PUSH1 0x1 SWAP1 PUSH1 0x80 MLOAD DUP6 MSTORE PUSH1 0x3 PUSH1 0x20 MSTORE PUSH2 0xA7E DUP14 PUSH2 0xA50 DUP4 PUSH1 0x40 DUP10 KECCAK256 SWAP3 DUP9 PUSH2 0x172E JUMP JUMPDEST CALLDATALOAD SWAP1 PUSH2 0xA5D DUP5 DUP11 DUP9 PUSH2 0x172E JUMP JUMPDEST CALLDATALOAD SWAP2 PUSH1 0x40 MLOAD SWAP3 PUSH2 0xA6C DUP5 PUSH2 0x1389 JUMP JUMPDEST DUP10 DUP5 MSTORE PUSH1 0x20 DUP5 ADD MSTORE PUSH1 0x40 DUP4 ADD MSTORE PUSH2 0x1784 JUMP JUMPDEST ADD PUSH2 0x9B5 JUMP JUMPDEST ADD MLOAD SWAP1 POP CODESIZE DUP1 PUSH2 0x8C9 JUMP JUMPDEST SWAP1 PUSH1 0x1F NOT DUP4 AND SWAP2 DUP5 PUSH1 0x0 MSTORE DUP2 PUSH1 0x0 KECCAK256 SWAP3 PUSH1 0x0 JUMPDEST DUP2 DUP2 LT PUSH2 0xAE3 JUMPI POP SWAP2 PUSH1 0x1 SWAP4 SWAP2 DUP6 PUSH1 0x6 SWAP10 SWAP9 SWAP8 SWAP7 SWAP5 LT PUSH2 0xACA JUMPI JUMPDEST POP POP POP DUP2 SHL ADD SWAP1 SSTORE PUSH2 0x8DE JUMP JUMPDEST ADD MLOAD PUSH1 0x0 NOT PUSH1 0xF8 DUP5 PUSH1 0x3 SHL AND SHR NOT AND SWAP1 SSTORE CODESIZE DUP1 DUP1 PUSH2 0xABD JUMP JUMPDEST SWAP3 SWAP4 PUSH1 0x20 PUSH1 0x1 DUP2 SWAP3 DUP8 DUP7 ADD MLOAD DUP2 SSTORE ADD SWAP6 ADD SWAP4 ADD PUSH2 0xAA2 JUMP JUMPDEST DUP4 PUSH1 0x0 MSTORE PUSH1 0x20 PUSH1 0x0 KECCAK256 PUSH1 0x1F DUP5 ADD PUSH1 0x5 SHR DUP2 ADD SWAP2 PUSH1 0x20 DUP6 LT PUSH2 0xB39 JUMPI JUMPDEST PUSH1 0x1F ADD PUSH1 0x5 SHR ADD SWAP1 JUMPDEST DUP2 DUP2 LT PUSH2 0xB2D JUMPI POP PUSH2 0x8AA JUMP JUMPDEST PUSH1 0x0 DUP2 SSTORE PUSH1 0x1 ADD PUSH2 0xB20 JUMP JUMPDEST SWAP1 SWAP2 POP DUP2 SWAP1 PUSH2 0xB17 JUMP JUMPDEST PUSH4 0x4E487B71 PUSH1 0xE0 SHL PUSH1 0x0 MSTORE PUSH1 0x41 PUSH1 0x4 MSTORE PUSH1 0x24 PUSH1 0x0 REVERT JUMPDEST ADD MLOAD SWAP1 POP CODESIZE DUP1 PUSH2 0x86C JUMP JUMPDEST PUSH1 0x0 DUP6 DUP2 MSTORE DUP3 DUP2 KECCAK256 SWAP4 POP PUSH1 0x1F NOT DUP6 AND SWAP1 JUMPDEST DUP2 DUP2 LT PUSH2 0xBB1 JUMPI POP SWAP1 DUP5 PUSH1 0x1 SWAP6 SWAP5 SWAP4 SWAP3 LT PUSH2 0xB98 JUMPI JUMPDEST POP POP POP DUP2 SHL ADD SWAP1 SSTORE PUSH2 0x881 JUMP JUMPDEST ADD MLOAD PUSH1 0x0 NOT PUSH1 0xF8 DUP5 PUSH1 0x3 SHL AND SHR NOT AND SWAP1 SSTORE CODESIZE DUP1 DUP1 PUSH2 0xB8B JUMP JUMPDEST SWAP3 SWAP4 PUSH1 0x20 PUSH1 0x1 DUP2 SWAP3 DUP8 DUP7 ADD MLOAD DUP2 SSTORE ADD SWAP6 ADD SWAP4 ADD PUSH2 0xB75 JUMP JUMPDEST SWAP1 SWAP2 POP DUP4 PUSH1 0x0 MSTORE PUSH1 0x20 PUSH1 0x0 KECCAK256 PUSH1 0x1F DUP5 ADD PUSH1 0x5 SHR DUP2 ADD SWAP2 PUSH1 0x20 DUP6 LT PUSH2 0xC12 JUMPI JUMPDEST SWAP1 PUSH1 0x1F DUP6 SWAP5 SWAP4 SWAP3 ADD PUSH1 0x5 SHR ADD SWAP1 JUMPDEST DUP2 DUP2 LT PUSH2 0xC03 JUMPI POP PUSH2 0x855 JUMP JUMPDEST PUSH1 0x0 DUP2 SSTORE DUP5 SWAP4 POP PUSH1 0x1 ADD PUSH2 0xBF6 JUMP JUMPDEST SWAP1 SWAP2 POP DUP2 SWAP1 PUSH2 0xBE8 JUMP JUMPDEST ADD MLOAD SWAP1 POP CODESIZE DUP1 PUSH2 0x815 JUMP JUMPDEST PUSH1 0x0 DUP6 DUP2 MSTORE DUP3 DUP2 KECCAK256 SWAP4 POP PUSH1 0x1F NOT DUP6 AND SWAP1 JUMPDEST DUP2 DUP2 LT PUSH2 0xC74 JUMPI POP SWAP1 DUP5 PUSH1 0x1 SWAP6 SWAP5 SWAP4 SWAP3 LT PUSH2 0xC5B JUMPI JUMPDEST POP POP POP DUP2 SHL ADD SWAP1 SSTORE PUSH2 0x82A JUMP JUMPDEST ADD MLOAD PUSH1 0x0 NOT PUSH1 0xF8 DUP5 PUSH1 0x3 SHL AND SHR NOT AND SWAP1 SSTORE CODESIZE DUP1 DUP1 PUSH2 0xC4E JUMP JUMPDEST SWAP3 SWAP4 PUSH1 0x20 PUSH1 0x1 DUP2 SWAP3 DUP8 DUP7 ADD MLOAD DUP2 SSTORE ADD SWAP6 ADD SWAP4 ADD PUSH2 0xC38 JUMP JUMPDEST SWAP1 SWAP2 POP DUP4 PUSH1 0x0 MSTORE PUSH1 0x20 PUSH1 0x0 KECCAK256 PUSH1 0x1F DUP5 ADD PUSH1 0x5 SHR DUP2 ADD SWAP2 PUSH1 0x20 DUP6 LT PUSH2 0xCD5 JUMPI JUMPDEST SWAP1 PUSH1 0x1F DUP6 SWAP5 SWAP4 SWAP3 ADD PUSH1 0x5 SHR ADD SWAP1 JUMPDEST DUP2 DUP2 LT PUSH2 0xCC6 JUMPI POP PUSH2 0x7FE JUMP JUMPDEST PUSH1 0x0 DUP2 SSTORE DUP5 SWAP4 POP PUSH1 0x1 ADD PUSH2 0xCB9 JUMP JUMPDEST SWAP1 SWAP2 POP DUP2 SWAP1 PUSH2 0xCAB JUMP JUMPDEST PUSH1 0x0 PUSH2 0x72E JUMP JUMPDEST PUSH4 0x7816661 PUSH1 0xE5 SHL PUSH1 0x0 MSTORE PUSH1 0x4 PUSH1 0x0 REVERT JUMPDEST PUSH4 0x4E487B71 PUSH1 0xE0 SHL PUSH1 0x0 MSTORE PUSH1 0x11 PUSH1 0x4 MSTORE PUSH1 0x24 PUSH1 0x0 REVERT JUMPDEST DUP3 PUSH4 0x4A314147 PUSH1 0xE0 SHL PUSH1 0x0 MSTORE PUSH1 0x4 MSTORE PUSH1 0x24 PUSH1 0x0 REVERT JUMPDEST SWAP3 PUSH2 0xD2E DUP5 DUP14 DUP6 PUSH2 0x172E JUMP JUMPDEST CALLDATALOAD ISZERO DUP5 DUP14 DUP3 ISZERO PUSH2 0xD7E JUMPI JUMPDEST POP POP PUSH2 0xD5E JUMPI PUSH2 0xD57 PUSH1 0x1 SWAP2 PUSH2 0xD50 DUP7 DUP16 DUP8 PUSH2 0x172E JUMP JUMPDEST CALLDATALOAD SWAP1 PUSH2 0x1532 JUMP JUMPDEST SWAP4 ADD PUSH2 0x6EC JUMP JUMPDEST PUSH2 0xD69 DUP5 DUP14 DUP6 PUSH2 0x172E JUMP JUMPDEST CALLDATALOAD PUSH4 0x447E90BF PUSH1 0xE1 SHL PUSH1 0x0 MSTORE PUSH1 0x4 MSTORE PUSH1 0x24 PUSH1 0x0 REVERT JUMPDEST PUSH2 0x2710 SWAP3 POP SWAP1 PUSH2 0xD8E SWAP2 DUP7 PUSH2 0x172E JUMP JUMPDEST CALLDATALOAD GT DUP5 DUP14 PUSH2 0xD39 JUMP JUMPDEST PUSH4 0x512509D3 PUSH1 0xE1 SHL PUSH1 0x0 MSTORE PUSH1 0x4 PUSH1 0x0 REVERT JUMPDEST PUSH4 0x52DDCDEF PUSH1 0xE1 SHL PUSH1 0x0 MSTORE PUSH1 0x4 PUSH1 0x0 REVERT JUMPDEST CALLVALUE PUSH2 0x13B JUMPI PUSH1 0x0 CALLDATASIZE PUSH1 0x3 NOT ADD SLT PUSH2 0x13B JUMPI PUSH1 0x20 PUSH1 0x0 SLOAD PUSH1 0x40 MLOAD SWAP1 DUP2 MSTORE RETURN JUMPDEST CALLVALUE PUSH2 0x13B JUMPI PUSH1 0x20 CALLDATASIZE PUSH1 0x3 NOT ADD SLT PUSH2 0x13B JUMPI PUSH2 0xDF0 PUSH2 0x1572 JUMP JUMPDEST POP PUSH1 0x4 CALLDATALOAD PUSH1 0x0 MSTORE PUSH1 0x2 PUSH1 0x20 MSTORE PUSH1 0x60 PUSH1 0x40 PUSH1 0x0 KECCAK256 PUSH1 0x2 PUSH1 0x40 MLOAD SWAP2 PUSH2 0xE12 DUP4 PUSH2 0x1389 JUMP JUMPDEST DUP1 SLOAD DUP4 MSTORE PUSH1 0x1 DUP2 ADD SLOAD PUSH1 0x20 DUP5 ADD MSTORE ADD SLOAD PUSH1 0x40 DUP3 ADD MSTORE PUSH2 0x3BE PUSH1 0x40 MLOAD DUP1 SWAP3 PUSH1 0x40 DUP1 SWAP2 DUP1 MLOAD DUP5 MSTORE PUSH1 0x20 DUP2 ADD MLOAD PUSH1 0x20 DUP6 ADD MSTORE ADD MLOAD SWAP2 ADD MSTORE JUMP JUMPDEST CALLVALUE PUSH2 0x13B JUMPI PUSH1 0x60 CALLDATASIZE PUSH1 0x3 NOT ADD SLT PUSH2 0x13B JUMPI PUSH2 0xE6A PUSH1 0x44 CALLDATALOAD PUSH1 0x24 CALLDATALOAD PUSH1 0x4 CALLDATALOAD PUSH2 0x15A5 JUMP JUMPDEST PUSH1 0x40 MLOAD DUP1 SWAP2 PUSH1 0x20 DUP3 ADD PUSH1 0x20 DUP4 MSTORE DUP2 MLOAD DUP1 SWAP2 MSTORE PUSH1 0x20 PUSH1 0x40 DUP5 ADD SWAP3 ADD SWAP1 PUSH1 0x0 JUMPDEST DUP2 DUP2 LT PUSH2 0xE96 JUMPI POP POP POP SUB SWAP1 RETURN JUMPDEST DUP3 MLOAD DUP1 MLOAD PUSH1 0x1 PUSH1 0x1 PUSH1 0xA0 SHL SUB AND DUP6 MSTORE PUSH1 0x20 DUP2 DUP2 ADD MLOAD DUP2 DUP8 ADD MSTORE PUSH1 0x40 SWAP2 DUP3 ADD MLOAD SWAP2 DUP7 ADD SWAP2 SWAP1 SWAP2 MSTORE DUP7 SWAP6 POP PUSH1 0x60 SWAP1 SWAP5 ADD SWAP4 SWAP1 SWAP3 ADD SWAP2 PUSH1 0x1 ADD PUSH2 0xE88 JUMP JUMPDEST CALLVALUE PUSH2 0x13B JUMPI PUSH1 0x40 CALLDATASIZE PUSH1 0x3 NOT ADD SLT PUSH2 0x13B JUMPI PUSH1 0x4 CALLDATALOAD PUSH1 0x24 CALLDATALOAD SWAP1 DUP1 PUSH1 0x0 MSTORE PUSH1 0x1 PUSH1 0x20 MSTORE PUSH1 0x40 PUSH1 0x0 KECCAK256 DUP1 SLOAD ISZERO PUSH2 0x610 JUMPI PUSH1 0x6 ADD SLOAD PUSH1 0xFF AND SWAP2 PUSH1 0x3 DUP4 LT ISZERO PUSH2 0x366 JUMPI PUSH1 0x2 DUP4 EQ PUSH2 0x1172 JUMPI PUSH1 0x0 SWAP3 ISZERO PUSH2 0x115E JUMPI DUP1 ISZERO PUSH2 0x114F JUMPI PUSH1 0x40 MLOAD PUSH4 0x23B872DD PUSH1 0xE0 SHL DUP2 MSTORE CALLER PUSH1 0x4 DUP3 ADD MSTORE ADDRESS PUSH1 0x24 DUP3 ADD MSTORE PUSH1 0x44 DUP2 ADD DUP3 SWAP1 MSTORE PUSH32 0x0 PUSH1 0x1 PUSH1 0x1 PUSH1 0xA0 SHL SUB AND SWAP1 PUSH1 0x20 DUP2 PUSH1 0x64 DUP2 DUP9 DUP7 GAS CALL SWAP1 DUP2 ISZERO PUSH2 0x1144 JUMPI DUP6 SWAP2 PUSH2 0x1125 JUMPI JUMPDEST POP ISZERO PUSH2 0x1116 JUMPI DUP3 DUP5 MSTORE PUSH1 0x3 PUSH1 0x20 MSTORE PUSH1 0x40 DUP5 KECCAK256 DUP5 JUMPDEST DUP2 SLOAD DUP2 LT ISZERO PUSH2 0x1061 JUMPI PUSH1 0x2 PUSH2 0xFB1 DUP3 DUP5 PUSH2 0x1500 JUMP JUMPDEST POP ADD SLOAD SWAP1 DUP2 DUP6 MUL SWAP2 DUP6 DUP4 DIV SUB PUSH2 0x104D JUMPI PUSH2 0x2710 PUSH2 0xFCE DUP3 DUP6 PUSH2 0x1500 JUMP JUMPDEST POP SLOAD PUSH1 0x40 MLOAD PUSH4 0xA9059CBB PUSH1 0xE0 SHL DUP2 MSTORE PUSH1 0x1 PUSH1 0x1 PUSH1 0xA0 SHL SUB SWAP1 SWAP2 AND PUSH1 0x4 DUP3 ADD MSTORE SWAP3 DIV PUSH1 0x24 DUP4 ADD MSTORE PUSH1 0x20 DUP3 PUSH1 0x44 DUP2 DUP11 DUP9 GAS CALL SWAP2 DUP3 ISZERO PUSH2 0x1042 JUMPI PUSH1 0x1 SWAP3 PUSH2 0x1014 JUMPI JUMPDEST POP ADD PUSH2 0xF9C JUMP JUMPDEST PUSH2 0x1034 SWAP1 PUSH1 0x20 RETURNDATASIZE DUP2 GT PUSH2 0x103B JUMPI JUMPDEST PUSH2 0x102C DUP2 DUP4 PUSH2 0x13A4 JUMP JUMPDEST DUP2 ADD SWAP1 PUSH2 0x14E8 JUMP JUMPDEST POP DUP8 PUSH2 0x100D JUMP JUMPDEST POP RETURNDATASIZE PUSH2 0x1022 JUMP JUMPDEST PUSH1 0x40 MLOAD RETURNDATASIZE DUP10 DUP3 RETURNDATACOPY RETURNDATASIZE SWAP1 REVERT JUMPDEST PUSH4 0x4E487B71 PUSH1 0xE0 SHL DUP8 MSTORE PUSH1 0x11 PUSH1 0x4 MSTORE PUSH1 0x24 DUP8 REVERT JUMPDEST POP POP POP SWAP1 DUP1 DUP4 MSTORE PUSH1 0x2 PUSH1 0x20 MSTORE PUSH1 0x40 DUP4 KECCAK256 PUSH2 0x107C DUP4 DUP3 SLOAD PUSH2 0x1532 JUMP JUMPDEST DUP2 SSTORE PUSH1 0x1 DUP2 ADD PUSH2 0x108C DUP2 SLOAD PUSH2 0x153F JUMP JUMPDEST SWAP1 SSTORE DUP2 DUP5 MSTORE PUSH1 0x6 PUSH1 0x20 SWAP1 DUP2 MSTORE PUSH1 0x40 DUP1 DUP7 KECCAK256 CALLER DUP8 MSTORE SWAP1 SWAP2 MSTORE DUP5 KECCAK256 SLOAD PUSH1 0xFF AND ISZERO PUSH2 0x10DF JUMPI JUMPDEST POP PUSH1 0x40 MLOAD SWAP2 DUP3 MSTORE PUSH32 0xE555DA28BDB778F65D22794D88927EBAECA03F7DE9D1B7D39245BC8FB5CA078A PUSH1 0x20 CALLER SWAP4 LOG3 DUP1 RETURN JUMPDEST PUSH1 0x2 ADD PUSH2 0x10EC DUP2 SLOAD PUSH2 0x153F JUMP JUMPDEST SWAP1 SSTORE DUP1 DUP4 MSTORE PUSH1 0x6 PUSH1 0x20 SWAP1 DUP2 MSTORE PUSH1 0x40 DUP1 DUP6 KECCAK256 CALLER DUP7 MSTORE SWAP1 SWAP2 MSTORE DUP4 KECCAK256 DUP1 SLOAD PUSH1 0xFF NOT AND PUSH1 0x1 OR SWAP1 SSTORE DUP4 PUSH2 0x10AF JUMP JUMPDEST PUSH4 0x12171D83 PUSH1 0xE3 SHL DUP5 MSTORE PUSH1 0x4 DUP5 REVERT JUMPDEST PUSH2 0x113E SWAP2 POP PUSH1 0x20 RETURNDATASIZE PUSH1 0x20 GT PUSH2 0x103B JUMPI PUSH2 0x102C DUP2 DUP4 PUSH2 0x13A4 JUMP JUMPDEST DUP6 PUSH2 0xF88 JUMP JUMPDEST PUSH1 0x40 MLOAD RETURNDATASIZE DUP8 DUP3 RETURNDATACOPY RETURNDATASIZE SWAP1 REVERT JUMPDEST PUSH4 0xBDD5839B PUSH1 0xE0 SHL DUP4 MSTORE PUSH1 0x4 DUP4 REVERT JUMPDEST PUSH4 0xDA8944ED PUSH1 0xE0 SHL DUP4 MSTORE PUSH1 0x4 DUP3 SWAP1 MSTORE PUSH1 0x24 DUP4 REVERT JUMPDEST POP PUSH4 0x423B515F PUSH1 0xE0 SHL PUSH1 0x0 MSTORE PUSH1 0x4 MSTORE PUSH1 0x24 PUSH1 0x0 REVERT JUMPDEST CALLVALUE PUSH2 0x13B JUMPI PUSH1 0x20 CALLDATASIZE PUSH1 0x3 NOT ADD SLT PUSH2 0x13B JUMPI PUSH2 0x11A0 PUSH2 0x13C5 JUMP JUMPDEST POP PUSH1 0x4 CALLDATALOAD PUSH1 0x0 MSTORE PUSH1 0x1 PUSH1 0x20 MSTORE PUSH2 0x123C PUSH1 0x40 PUSH1 0x0 KECCAK256 PUSH2 0x1228 PUSH1 0xFF PUSH1 0x6 PUSH1 0x40 MLOAD SWAP4 PUSH2 0x11C8 DUP6 PUSH2 0x136E JUMP JUMPDEST DUP1 SLOAD DUP6 MSTORE PUSH1 0x1 DUP2 ADD SLOAD PUSH1 0x1 PUSH1 0x1 PUSH1 0xA0 SHL SUB AND PUSH1 0x20 DUP7 ADD MSTORE PUSH2 0x11EB PUSH1 0x2 DUP3 ADD PUSH2 0x1438 JUMP JUMPDEST PUSH1 0x40 DUP7 ADD MSTORE PUSH2 0x11FC PUSH1 0x3 DUP3 ADD PUSH2 0x1438 JUMP JUMPDEST PUSH1 0x60 DUP7 ADD MSTORE PUSH2 0x120D PUSH1 0x4 DUP3 ADD PUSH2 0x1438 JUMP JUMPDEST PUSH1 0x80 DUP7 ADD MSTORE PUSH1 0x5 DUP2 ADD SLOAD PUSH1 0xA0 DUP7 ADD MSTORE ADD SLOAD AND PUSH1 0xC0 DUP4 ADD PUSH2 0x14DC JUMP JUMPDEST PUSH1 0x40 MLOAD SWAP2 DUP3 SWAP2 PUSH1 0x20 DUP4 MSTORE PUSH1 0x20 DUP4 ADD SWAP1 PUSH2 0x1281 JUMP JUMPDEST SUB SWAP1 RETURN JUMPDEST SWAP2 SWAP1 DUP3 MLOAD SWAP3 DUP4 DUP3 MSTORE PUSH1 0x0 JUMPDEST DUP5 DUP2 LT PUSH2 0x126C JUMPI POP POP DUP3 PUSH1 0x0 PUSH1 0x20 DUP1 SWAP5 SWAP6 DUP5 ADD ADD MSTORE PUSH1 0x1F DUP1 NOT SWAP2 ADD AND ADD ADD SWAP1 JUMP JUMPDEST DUP1 PUSH1 0x20 DUP1 SWAP3 DUP5 ADD ADD MLOAD DUP3 DUP3 DUP7 ADD ADD MSTORE ADD PUSH2 0x124B JUMP JUMPDEST SWAP1 DUP2 MLOAD DUP2 MSTORE PUSH1 0x1 DUP1 PUSH1 0xA0 SHL SUB PUSH1 0x20 DUP4 ADD MLOAD AND PUSH1 0x20 DUP3 ADD MSTORE PUSH1 0xC0 PUSH2 0x12DD PUSH2 0x12CB PUSH2 0x12B9 PUSH1 0x40 DUP7 ADD MLOAD PUSH1 0xE0 PUSH1 0x40 DUP8 ADD MSTORE PUSH1 0xE0 DUP7 ADD SWAP1 PUSH2 0x1240 JUMP JUMPDEST PUSH1 0x60 DUP7 ADD MLOAD DUP6 DUP3 SUB PUSH1 0x60 DUP8 ADD MSTORE PUSH2 0x1240 JUMP JUMPDEST PUSH1 0x80 DUP6 ADD MLOAD DUP5 DUP3 SUB PUSH1 0x80 DUP7 ADD MSTORE PUSH2 0x1240 JUMP JUMPDEST SWAP3 PUSH1 0xA0 DUP2 ADD MLOAD PUSH1 0xA0 DUP5 ADD MSTORE ADD MLOAD SWAP1 PUSH1 0x3 DUP3 LT ISZERO PUSH2 0x366 JUMPI PUSH1 0xC0 ADD MSTORE SWAP1 JUMP JUMPDEST SWAP2 DUP2 PUSH1 0x1F DUP5 ADD SLT ISZERO PUSH2 0x13B JUMPI DUP3 CALLDATALOAD SWAP2 PUSH1 0x1 PUSH1 0x1 PUSH1 0x40 SHL SUB DUP4 GT PUSH2 0x13B JUMPI PUSH1 0x20 DUP4 DUP2 DUP7 ADD SWAP6 ADD ADD GT PUSH2 0x13B JUMPI JUMP JUMPDEST SWAP2 DUP2 PUSH1 0x1F DUP5 ADD SLT ISZERO PUSH2 0x13B JUMPI DUP3 CALLDATALOAD SWAP2 PUSH1 0x1 PUSH1 0x1 PUSH1 0x40 SHL SUB DUP4 GT PUSH2 0x13B JUMPI PUSH1 0x20 DUP1 DUP6 ADD SWAP5 DUP5 PUSH1 0x5 SHL ADD ADD GT PUSH2 0x13B JUMPI JUMP JUMPDEST PUSH1 0x4 CALLDATALOAD SWAP1 PUSH1 0x1 PUSH1 0x1 PUSH1 0xA0 SHL SUB DUP3 AND DUP3 SUB PUSH2 0x13B JUMPI JUMP JUMPDEST PUSH1 0xE0 DUP2 ADD SWAP1 DUP2 LT PUSH1 0x1 PUSH1 0x1 PUSH1 0x40 SHL SUB DUP3 GT OR PUSH2 0xB43 JUMPI PUSH1 0x40 MSTORE JUMP JUMPDEST PUSH1 0x60 DUP2 ADD SWAP1 DUP2 LT PUSH1 0x1 PUSH1 0x1 PUSH1 0x40 SHL SUB DUP3 GT OR PUSH2 0xB43 JUMPI PUSH1 0x40 MSTORE JUMP JUMPDEST SWAP1 PUSH1 0x1F DUP1 NOT SWAP2 ADD AND DUP2 ADD SWAP1 DUP2 LT PUSH1 0x1 PUSH1 0x1 PUSH1 0x40 SHL SUB DUP3 GT OR PUSH2 0xB43 JUMPI PUSH1 0x40 MSTORE JUMP JUMPDEST PUSH1 0x40 MLOAD SWAP1 PUSH2 0x13D2 DUP3 PUSH2 0x136E JUMP JUMPDEST PUSH1 0x0 PUSH1 0xC0 DUP4 DUP3 DUP2 MSTORE DUP3 PUSH1 0x20 DUP3 ADD MSTORE PUSH1 0x60 PUSH1 0x40 DUP3 ADD MSTORE PUSH1 0x60 DUP1 DUP3 ADD MSTORE PUSH1 0x60 PUSH1 0x80 DUP3 ADD MSTORE DUP3 PUSH1 0xA0 DUP3 ADD MSTORE ADD MSTORE JUMP JUMPDEST SWAP1 PUSH1 0x1 DUP3 DUP2 SHR SWAP3 AND DUP1 ISZERO PUSH2 0x142E JUMPI JUMPDEST PUSH1 0x20 DUP4 LT EQ PUSH2 0x1418 JUMPI JUMP JUMPDEST PUSH4 0x4E487B71 PUSH1 0xE0 SHL PUSH1 0x0 MSTORE PUSH1 0x22 PUSH1 0x4 MSTORE PUSH1 0x24 PUSH1 0x0 REVERT JUMPDEST SWAP2 PUSH1 0x7F AND SWAP2 PUSH2 0x140D JUMP JUMPDEST SWAP1 PUSH1 0x40 MLOAD SWAP2 DUP3 PUSH1 0x0 DUP3 SLOAD SWAP3 PUSH2 0x144C DUP5 PUSH2 0x13FE JUMP JUMPDEST DUP1 DUP5 MSTORE SWAP4 PUSH1 0x1 DUP2 AND SWAP1 DUP2 ISZERO PUSH2 0x14BA JUMPI POP PUSH1 0x1 EQ PUSH2 0x1473 JUMPI JUMPDEST POP PUSH2 0x1471 SWAP3 POP SUB DUP4 PUSH2 0x13A4 JUMP JUMPDEST JUMP JUMPDEST SWAP1 POP PUSH1 0x0 SWAP3 SWAP2 SWAP3 MSTORE PUSH1 0x20 PUSH1 0x0 KECCAK256 SWAP1 PUSH1 0x0 SWAP2 JUMPDEST DUP2 DUP4 LT PUSH2 0x149E JUMPI POP POP SWAP1 PUSH1 0x20 PUSH2 0x1471 SWAP3 DUP3 ADD ADD CODESIZE PUSH2 0x1464 JUMP JUMPDEST PUSH1 0x20 SWAP2 SWAP4 POP DUP1 PUSH1 0x1 SWAP2 SLOAD DUP4 DUP6 DUP10 ADD ADD MSTORE ADD SWAP2 ADD SWAP1 SWAP2 DUP5 SWAP3 PUSH2 0x1485 JUMP JUMPDEST SWAP1 POP PUSH1 0x20 SWAP3 POP PUSH2 0x1471 SWAP5 SWAP2 POP PUSH1 0xFF NOT AND DUP3 DUP5 ADD MSTORE ISZERO ISZERO PUSH1 0x5 SHL DUP3 ADD ADD CODESIZE PUSH2 0x1464 JUMP JUMPDEST PUSH1 0x3 DUP3 LT ISZERO PUSH2 0x366 JUMPI MSTORE JUMP JUMPDEST SWAP1 DUP2 PUSH1 0x20 SWAP2 SUB SLT PUSH2 0x13B JUMPI MLOAD DUP1 ISZERO ISZERO DUP2 SUB PUSH2 0x13B JUMPI SWAP1 JUMP JUMPDEST DUP1 SLOAD DUP3 LT ISZERO PUSH2 0x151C JUMPI PUSH1 0x0 MSTORE PUSH1 0x3 PUSH1 0x20 PUSH1 0x0 KECCAK256 SWAP2 MUL ADD SWAP1 PUSH1 0x0 SWAP1 JUMP JUMPDEST PUSH4 0x4E487B71 PUSH1 0xE0 SHL PUSH1 0x0 MSTORE PUSH1 0x32 PUSH1 0x4 MSTORE PUSH1 0x24 PUSH1 0x0 REVERT JUMPDEST SWAP2 SWAP1 DUP3 ADD DUP1 SWAP3 GT PUSH2 0xCF7 JUMPI JUMP JUMPDEST PUSH1 0x0 NOT DUP2 EQ PUSH2 0xCF7 JUMPI PUSH1 0x1 ADD SWAP1 JUMP JUMPDEST SWAP2 SWAP1 DUP3 SUB SWAP2 DUP3 GT PUSH2 0xCF7 JUMPI JUMP JUMPDEST PUSH1 0x1 PUSH1 0x1 PUSH1 0x40 SHL SUB DUP2 GT PUSH2 0xB43 JUMPI PUSH1 0x5 SHL PUSH1 0x20 ADD SWAP1 JUMP JUMPDEST PUSH1 0x40 MLOAD SWAP1 PUSH2 0x157F DUP3 PUSH2 0x1389 JUMP JUMPDEST PUSH1 0x0 PUSH1 0x40 DUP4 DUP3 DUP2 MSTORE DUP3 PUSH1 0x20 DUP3 ADD MSTORE ADD MSTORE JUMP JUMPDEST DUP1 MLOAD DUP3 LT ISZERO PUSH2 0x151C JUMPI PUSH1 0x20 SWAP2 PUSH1 0x5 SHL ADD ADD SWAP1 JUMP JUMPDEST SWAP3 SWAP2 SWAP1 DUP4 PUSH1 0x0 MSTORE PUSH1 0x1 PUSH1 0x20 MSTORE PUSH1 0x40 PUSH1 0x0 KECCAK256 SLOAD ISZERO PUSH2 0x1719 JUMPI DUP4 PUSH1 0x0 MSTORE PUSH1 0x3 PUSH1 0x20 MSTORE PUSH1 0x40 PUSH1 0x0 KECCAK256 SLOAD DUP2 GT PUSH1 0x0 EQ PUSH2 0x1612 JUMPI POP POP PUSH1 0x40 MLOAD SWAP1 SWAP2 POP PUSH1 0x0 PUSH2 0x15E9 PUSH1 0x20 DUP4 PUSH2 0x13A4 JUMP JUMPDEST DUP2 MSTORE PUSH1 0x0 DUP1 JUMPDEST DUP2 DUP2 LT PUSH2 0x15FB JUMPI POP POP SWAP1 JUMP JUMPDEST PUSH1 0x20 SWAP1 PUSH2 0x1606 PUSH2 0x1572 JUMP JUMPDEST DUP3 DUP3 DUP7 ADD ADD MSTORE ADD PUSH2 0x15EF JUMP JUMPDEST PUSH2 0x161C DUP3 DUP3 PUSH2 0x1532 JUMP JUMPDEST DUP5 PUSH1 0x0 MSTORE PUSH1 0x3 PUSH1 0x20 MSTORE PUSH1 0x40 PUSH1 0x0 KECCAK256 SLOAD LT PUSH2 0x16F9 JUMPI JUMPDEST PUSH2 0x163A DUP3 PUSH2 0x155B JUMP JUMPDEST SWAP1 PUSH2 0x1648 PUSH1 0x40 MLOAD SWAP3 DUP4 PUSH2 0x13A4 JUMP JUMPDEST DUP3 DUP3 MSTORE PUSH1 0x1F NOT PUSH2 0x1657 DUP5 PUSH2 0x155B JUMP JUMPDEST ADD PUSH1 0x0 JUMPDEST DUP2 DUP2 LT PUSH2 0x16E2 JUMPI POP POP DUP2 SWAP5 PUSH1 0x0 JUMPDEST DUP5 DUP2 LT PUSH2 0x1677 JUMPI POP POP POP POP POP JUMP JUMPDEST PUSH1 0x1 SWAP1 DUP3 PUSH1 0x0 MSTORE PUSH1 0x3 PUSH1 0x20 MSTORE PUSH2 0x169B PUSH1 0x40 PUSH1 0x0 KECCAK256 PUSH2 0x1695 DUP7 DUP5 PUSH2 0x1532 JUMP JUMPDEST SWAP1 PUSH2 0x1500 JUMP JUMPDEST POP PUSH1 0x2 PUSH1 0x40 MLOAD SWAP2 PUSH2 0x16AB DUP4 PUSH2 0x1389 JUMP JUMPDEST DUP5 DUP1 PUSH1 0xA0 SHL SUB DUP2 SLOAD AND DUP4 MSTORE DUP5 DUP2 ADD SLOAD PUSH1 0x20 DUP5 ADD MSTORE ADD SLOAD PUSH1 0x40 DUP3 ADD MSTORE PUSH2 0x16D0 DUP3 DUP8 PUSH2 0x1591 JUMP JUMPDEST MSTORE PUSH2 0x16DB DUP2 DUP7 PUSH2 0x1591 JUMP JUMPDEST POP ADD PUSH2 0x1669 JUMP JUMPDEST PUSH1 0x20 SWAP1 PUSH2 0x16ED PUSH2 0x1572 JUMP JUMPDEST DUP3 DUP3 DUP8 ADD ADD MSTORE ADD PUSH2 0x165B JUMP JUMPDEST SWAP1 POP DUP3 PUSH1 0x0 MSTORE PUSH1 0x3 PUSH1 0x20 MSTORE PUSH2 0x1713 DUP2 PUSH1 0x40 PUSH1 0x0 KECCAK256 SLOAD PUSH2 0x154E JUMP JUMPDEST SWAP1 PUSH2 0x1631 JUMP JUMPDEST DUP4 PUSH4 0x2AD8815 PUSH1 0xE4 SHL PUSH1 0x0 MSTORE PUSH1 0x4 MSTORE PUSH1 0x24 PUSH1 0x0 REVERT JUMPDEST SWAP2 SWAP1 DUP2 LT ISZERO PUSH2 0x151C JUMPI PUSH1 0x5 SHL ADD SWAP1 JUMP JUMPDEST SWAP3 SWAP2 SWAP3 PUSH1 0x1 PUSH1 0x1 PUSH1 0x40 SHL SUB DUP3 GT PUSH2 0xB43 JUMPI PUSH1 0x40 MLOAD SWAP2 PUSH2 0x1767 PUSH1 0x1F DUP3 ADD PUSH1 0x1F NOT AND PUSH1 0x20 ADD DUP5 PUSH2 0x13A4 JUMP JUMPDEST DUP3 SWAP5 DUP2 DUP5 MSTORE DUP2 DUP4 ADD GT PUSH2 0x13B JUMPI DUP3 DUP2 PUSH1 0x20 SWAP4 DUP5 PUSH1 0x0 SWAP7 ADD CALLDATACOPY ADD ADD MSTORE JUMP JUMPDEST DUP1 SLOAD PUSH1 0x1 PUSH1 0x40 SHL DUP2 LT ISZERO PUSH2 0xB43 JUMPI PUSH2 0x17A1 SWAP2 PUSH1 0x1 DUP3 ADD DUP2 SSTORE PUSH2 0x1500 JUMP JUMPDEST SWAP2 SWAP1 SWAP2 PUSH2 0x17DC JUMPI DUP1 MLOAD DUP3 SLOAD PUSH1 0x1 PUSH1 0x1 PUSH1 0xA0 SHL SUB NOT AND PUSH1 0x1 PUSH1 0x1 PUSH1 0xA0 SHL SUB SWAP2 SWAP1 SWAP2 AND OR DUP3 SSTORE PUSH1 0x20 DUP2 ADD MLOAD PUSH1 0x1 DUP4 ADD SSTORE PUSH1 0x40 ADD MLOAD PUSH1 0x2 SWAP2 SWAP1 SWAP2 ADD SSTORE JUMP JUMPDEST PUSH4 0x4E487B71 PUSH1 0xE0 SHL PUSH1 0x0 MSTORE PUSH1 0x0 PUSH1 0x4 MSTORE PUSH1 0x24 PUSH1 0x0 REVERT JUMPDEST DUP1 SLOAD DUP3 LT ISZERO PUSH2 0x151C JUMPI PUSH1 0x0 MSTORE PUSH1 0x20 PUSH1 0x0 KECCAK256 ADD SWAP1 PUSH1 0x0 SWAP1 JUMP JUMPDEST DUP1 SLOAD PUSH1 0x1 PUSH1 0x40 SHL DUP2 LT ISZERO PUSH2 0xB43 JUMPI PUSH2 0x1827 SWAP2 PUSH1 0x1 DUP3 ADD DUP2 SSTORE PUSH2 0x17F2 JUMP JUMPDEST DUP2 SWAP3 SWAP2 SLOAD SWAP1 PUSH1 0x3 SHL SWAP2 DUP3 SHL SWAP2 PUSH1 0x0 NOT SWAP1 SHL NOT AND OR SWAP1 SSTORE JUMP JUMPDEST SWAP1 DUP1 PUSH1 0x20 SWAP4 SWAP3 DUP2 DUP5 MSTORE DUP5 DUP5 ADD CALLDATACOPY PUSH1 0x0 DUP3 DUP3 ADD DUP5 ADD MSTORE PUSH1 0x1F ADD PUSH1 0x1F NOT AND ADD ADD SWAP1 JUMP JUMPDEST PUSH1 0x1 PUSH1 0x1 PUSH1 0xA0 SHL SUB AND PUSH1 0x0 DUP2 DUP2 MSTORE PUSH1 0x4 PUSH1 0x20 MSTORE PUSH1 0x40 SWAP1 KECCAK256 SLOAD SWAP1 SWAP4 SWAP3 SWAP2 SWAP1 DUP2 GT ISZERO PUSH2 0x18C2 JUMPI POP POP PUSH1 0x40 MLOAD SWAP1 SWAP2 POP PUSH1 0x0 PUSH2 0x1899 PUSH1 0x20 DUP4 PUSH2 0x13A4 JUMP JUMPDEST DUP2 MSTORE PUSH1 0x0 DUP1 JUMPDEST DUP2 DUP2 LT PUSH2 0x18AB JUMPI POP POP SWAP1 JUMP JUMPDEST PUSH1 0x20 SWAP1 PUSH2 0x18B6 PUSH2 0x13C5 JUMP JUMPDEST DUP3 DUP3 DUP7 ADD ADD MSTORE ADD PUSH2 0x189F JUMP JUMPDEST PUSH2 0x18CC DUP3 DUP3 PUSH2 0x1532 JUMP JUMPDEST DUP5 PUSH1 0x0 MSTORE PUSH1 0x4 PUSH1 0x20 MSTORE PUSH1 0x40 PUSH1 0x0 KECCAK256 SLOAD LT PUSH2 0x19C5 JUMPI JUMPDEST PUSH2 0x18EA DUP3 PUSH2 0x155B JUMP JUMPDEST SWAP1 PUSH2 0x18F8 PUSH1 0x40 MLOAD SWAP3 DUP4 PUSH2 0x13A4 JUMP JUMPDEST DUP3 DUP3 MSTORE PUSH1 0x1F NOT PUSH2 0x1907 DUP5 PUSH2 0x155B JUMP JUMPDEST ADD PUSH1 0x0 JUMPDEST DUP2 DUP2 LT PUSH2 0x19AE JUMPI POP POP DUP2 SWAP5 PUSH1 0x0 JUMPDEST DUP5 DUP2 LT PUSH2 0x1927 JUMPI POP POP POP POP POP JUMP JUMPDEST PUSH1 0x1 SWAP1 DUP3 PUSH1 0x0 MSTORE PUSH1 0x4 PUSH1 0x20 MSTORE PUSH2 0x194B PUSH1 0x40 PUSH1 0x0 KECCAK256 PUSH2 0x1945 DUP7 DUP5 PUSH2 0x1532 JUMP JUMPDEST SWAP1 PUSH2 0x17F2 JUMP JUMPDEST SWAP1 SLOAD SWAP1 PUSH1 0x3 SHL SHR PUSH1 0x0 MSTORE DUP2 PUSH1 0x20 MSTORE PUSH1 0x40 PUSH1 0x0 KECCAK256 PUSH2 0x1992 PUSH1 0xFF PUSH1 0x6 PUSH1 0x40 MLOAD SWAP4 PUSH2 0x1972 DUP6 PUSH2 0x136E JUMP JUMPDEST DUP1 SLOAD DUP6 MSTORE DUP7 DUP1 PUSH1 0xA0 SHL SUB DUP8 DUP3 ADD SLOAD AND PUSH1 0x20 DUP7 ADD MSTORE PUSH2 0x11EB PUSH1 0x2 DUP3 ADD PUSH2 0x1438 JUMP JUMPDEST PUSH2 0x199C DUP3 DUP8 PUSH2 0x1591 JUMP JUMPDEST MSTORE PUSH2 0x19A7 DUP2 DUP7 PUSH2 0x1591 JUMP JUMPDEST POP ADD PUSH2 0x1919 JUMP JUMPDEST PUSH1 0x20 SWAP1 PUSH2 0x19B9 PUSH2 0x13C5 JUMP JUMPDEST DUP3 DUP3 DUP8 ADD ADD MSTORE ADD PUSH2 0x190B JUMP JUMPDEST SWAP1 POP DUP3 PUSH1 0x0 MSTORE PUSH1 0x4 PUSH1 0x20 MSTORE PUSH2 0x19DF DUP2 PUSH1 0x40 PUSH1 0x0 KECCAK256 SLOAD PUSH2 0x154E JUMP JUMPDEST SWAP1 PUSH2 0x18E1 JUMP JUMPDEST PUSH1 0x0 MSTORE PUSH1 0x3 PUSH1 0x20 MSTORE PUSH1 0x40 PUSH1 0x0 KECCAK256 PUSH1 0x0 SWAP1 DUP1 SLOAD SWAP2 JUMPDEST DUP3 DUP2 LT PUSH2 0x1A08 JUMPI POP POP POP PUSH1 0x1 SWAP1 JUMP JUMPDEST PUSH2 0x1A12 DUP2 DUP4 PUSH2 0x1500 JUMP JUMPDEST POP SLOAD PUSH1 0x1 PUSH1 0x1 PUSH1 0xA0 SHL SUB AND ISZERO PUSH2 0x1A2A JUMPI PUSH1 0x1 ADD PUSH2 0x19F9 JUMP JUMPDEST POP POP POP PUSH1 0x0 SWAP1 JUMP INVALID LOG2 PUSH5 0x6970667358 0x22 SLT KECCAK256 TLOAD BYTE 0xEE EXTCODESIZE 0xD9 0xBB SWAP14 RETURNDATASIZE 0xE2 0xBC SELFBALANCE PUSH30 0xBC5D801D4D450B586816ECD4FE68EAFD14DD410A64736F6C634300081C00 CALLER "
        },
        "methodIdentifiers": {
          "createPool(string,string,string,bytes32[],uint256[])": "1c014f16",
          "deactivatePool(uint256)": "9abd9b05",
          "donate(uint256,uint256)": "0cdd53f6",
          "getPool(uint256)": "068bcd8d",
          "getPoolMembers(uint256,uint256,uint256)": "12b32082",
          "getPoolMembersCount(uint256)": "f535a4f5",
          "getPoolSummary(uint256)": "14d056f8",
          "getUserPools(address,uint256,uint256)": "f75b9afa",
          "getUserPoolsCount(address)": "9ee64b65",
          "getUserSummary(address)": "8fbd0c2d",
          "joinPool(uint256,bytes32)": "26e73670",
          "nextPoolId()": "18e56131",
          "usdc()": "3e413bee"
        }
      }
    }
  }
}