{
  "src/Distributor.sol": {
    "Distributor": {
      "abi": [
        {
          "inputs": [
            {
              "internalType": "address",
              "name": "_usdcAddress",
              "type": "address"
            }
          ],
          "stateMutability": "nonpayable",
          "type": "constructor"
        },
        {
          "inputs": [],
          "name": "ArrayLengthMismatch",
          "type": "error"
        },
        {
          "inputs": [],
          "name": "EmptyTitle",
          "type": "error"
        },
        {
          "inputs": [
            {
              "internalType": "uint256",
              "name": "requested",
              "type": "uint256"
            },
            {
              "internalType": "uint256",
              "name": "available",
              "type": "uint256"
            }
          ],
          "name": "InsufficientBalance",
          "type": "error"
        },
        {
          "inputs": [],
          "name": "InvalidCreatorPercentage",
          "type": "error"
        },
        {
          "inputs": [],
          "name": "InvalidDonationAmount",
          "type": "error"
        },
        {
          "inputs": [],
          "name": "InvalidInvitationCode",
          "type": "error"
        },
        {
          "inputs": [
            {
              "internalType": "uint256",
              "name": "percentage",
              "type": "uint256"
            }
          ],
          "name": "InvalidMemberPercentage",
          "type": "error"
        },
        {
          "inputs": [
            {
              "internalType": "uint256",
              "name": "totalPercentage",
              "type": "uint256"
            }
          ],
          "name": "InvalidTotalPercentage",
          "type": "error"
        },
        {
          "inputs": [],
          "name": "InvalidWithdrawalAmount",
          "type": "error"
        },
        {
          "inputs": [],
          "name": "MemberAlreadyInPool",
          "type": "error"
        },
        {
          "inputs": [],
          "name": "NoInvitationCodeForSlot",
          "type": "error"
        },
        {
          "inputs": [
            {
              "internalType": "address",
              "name": "caller",
              "type": "address"
            },
            {
              "internalType": "uint256",
              "name": "poolId",
              "type": "uint256"
            }
          ],
          "name": "NotPoolCreator",
          "type": "error"
        },
        {
          "inputs": [
            {
              "internalType": "address",
              "name": "caller",
              "type": "address"
            },
            {
              "internalType": "uint256",
              "name": "poolId",
              "type": "uint256"
            }
          ],
          "name": "NotPoolMember",
          "type": "error"
        },
        {
          "inputs": [
            {
              "internalType": "uint256",
              "name": "poolId",
              "type": "uint256"
            }
          ],
          "name": "PoolInactive",
          "type": "error"
        },
        {
          "inputs": [
            {
              "internalType": "uint256",
              "name": "poolId",
              "type": "uint256"
            }
          ],
          "name": "PoolNotFound",
          "type": "error"
        },
        {
          "inputs": [
            {
              "internalType": "uint256",
              "name": "poolId",
              "type": "uint256"
            }
          ],
          "name": "PoolPending",
          "type": "error"
        },
        {
          "inputs": [],
          "name": "SlotAlreadyFilled",
          "type": "error"
        },
        {
          "inputs": [],
          "name": "TransferFailed",
          "type": "error"
        },
        {
          "anonymous": false,
          "inputs": [
            {
              "indexed": true,
              "internalType": "uint256",
              "name": "poolId",
              "type": "uint256"
            },
            {
              "indexed": true,
              "internalType": "address",
              "name": "donor",
              "type": "address"
            },
            {
              "indexed": false,
              "internalType": "uint256",
              "name": "amount",
              "type": "uint256"
            }
          ],
          "name": "DonationMade",
          "type": "event"
        },
        {
          "anonymous": false,
          "inputs": [
            {
              "indexed": true,
              "internalType": "address",
              "name": "member",
              "type": "address"
            },
            {
              "indexed": true,
              "internalType": "address",
              "name": "recipient",
              "type": "address"
            },
            {
              "indexed": false,
              "internalType": "uint256",
              "name": "amount",
              "type": "uint256"
            }
          ],
          "name": "FundsWithdrawn",
          "type": "event"
        },
        {
          "anonymous": false,
          "inputs": [
            {
              "indexed": true,
              "internalType": "uint256",
              "name": "poolId",
              "type": "uint256"
            },
            {
              "indexed": true,
              "internalType": "address",
              "name": "member",
              "type": "address"
            },
            {
              "indexed": false,
              "internalType": "uint256",
              "name": "percentage",
              "type": "uint256"
            }
          ],
          "name": "MemberJoined",
          "type": "event"
        },
        {
          "anonymous": false,
          "inputs": [
            {
              "indexed": true,
              "internalType": "uint256",
              "name": "poolId",
              "type": "uint256"
            },
            {
              "indexed": true,
              "internalType": "address",
              "name": "creator",
              "type": "address"
            },
            {
              "indexed": false,
              "internalType": "string",
              "name": "title",
              "type": "string"
            },
            {
              "indexed": false,
              "internalType": "string",
              "name": "description",
              "type": "string"
            },
            {
              "indexed": false,
              "internalType": "string",
              "name": "imageUri",
              "type": "string"
            }
          ],
          "name": "PoolCreated",
          "type": "event"
        },
        {
          "anonymous": false,
          "inputs": [
            {
              "indexed": true,
              "internalType": "uint256",
              "name": "poolId",
              "type": "uint256"
            },
            {
              "indexed": true,
              "internalType": "address",
              "name": "deactivatedBy",
              "type": "address"
            }
          ],
          "name": "PoolDeactivated",
          "type": "event"
        },
        {
          "inputs": [
            {
              "internalType": "string",
              "name": "title",
              "type": "string"
            },
            {
              "internalType": "string",
              "name": "description",
              "type": "string"
            },
            {
              "internalType": "string",
              "name": "imageUri",
              "type": "string"
            },
            {
              "internalType": "bytes32[]",
              "name": "invitationCodes",
              "type": "bytes32[]"
            },
            {
              "internalType": "uint256[]",
              "name": "percentages",
              "type": "uint256[]"
            }
          ],
          "name": "createPool",
          "outputs": [
            {
              "internalType": "uint256",
              "name": "poolId",
              "type": "uint256"
            }
          ],
          "stateMutability": "nonpayable",
          "type": "function"
        },
        {
          "inputs": [
            {
              "internalType": "uint256",
              "name": "poolId",
              "type": "uint256"
            }
          ],
          "name": "deactivatePool",
          "outputs": [],
          "stateMutability": "nonpayable",
          "type": "function"
        },
        {
          "inputs": [
            {
              "internalType": "uint256",
              "name": "poolId",
              "type": "uint256"
            },
            {
              "internalType": "uint256",
              "name": "amount",
              "type": "uint256"
            }
          ],
          "name": "donate",
          "outputs": [],
          "stateMutability": "nonpayable",
          "type": "function"
        },
        {
          "inputs": [
            {
              "internalType": "address",
              "name": "member",
              "type": "address"
            }
          ],
          "name": "getBalanceOf",
          "outputs": [
            {
              "internalType": "uint256",
              "name": "availableAmount",
              "type": "uint256"
            }
          ],
          "stateMutability": "view",
          "type": "function"
        },
        {
          "inputs": [
            {
              "internalType": "uint256",
              "name": "poolId",
              "type": "uint256"
            }
          ],
          "name": "getPool",
          "outputs": [
            {
              "components": [
                {
                  "internalType": "uint256",
                  "name": "id",
                  "type": "uint256"
                },
                {
                  "internalType": "address",
                  "name": "creator",
                  "type": "address"
                },
                {
                  "internalType": "string",
                  "name": "title",
                  "type": "string"
                },
                {
                  "internalType": "string",
                  "name": "description",
                  "type": "string"
                },
                {
                  "internalType": "string",
                  "name": "imageUri",
                  "type": "string"
                },
                {
                  "internalType": "uint256",
                  "name": "createdAt",
                  "type": "uint256"
                },
                {
                  "internalType": "enum IDistributorStructs.PoolStatus",
                  "name": "status",
                  "type": "uint8"
                }
              ],
              "internalType": "struct IDistributorStructs.Pool",
              "name": "pool",
              "type": "tuple"
            }
          ],
          "stateMutability": "view",
          "type": "function"
        },
        {
          "inputs": [
            {
              "internalType": "uint256",
              "name": "poolId",
              "type": "uint256"
            },
            {
              "internalType": "uint256",
              "name": "offset",
              "type": "uint256"
            },
            {
              "internalType": "uint256",
              "name": "limit",
              "type": "uint256"
            }
          ],
          "name": "getPoolMembers",
          "outputs": [
            {
              "components": [
                {
                  "internalType": "address",
                  "name": "member",
                  "type": "address"
                },
                {
                  "internalType": "bytes32",
                  "name": "invitationCodeHash",
                  "type": "bytes32"
                },
                {
                  "internalType": "uint256",
                  "name": "percentage",
                  "type": "uint256"
                }
              ],
              "internalType": "struct IDistributorStructs.Member[]",
              "name": "members",
              "type": "tuple[]"
            }
          ],
          "stateMutability": "view",
          "type": "function"
        },
        {
          "inputs": [
            {
              "internalType": "uint256",
              "name": "poolId",
              "type": "uint256"
            }
          ],
          "name": "getPoolMembersCount",
          "outputs": [
            {
              "internalType": "uint256",
              "name": "total",
              "type": "uint256"
            }
          ],
          "stateMutability": "view",
          "type": "function"
        },
        {
          "inputs": [
            {
              "internalType": "uint256",
              "name": "poolId",
              "type": "uint256"
            }
          ],
          "name": "getPoolSummary",
          "outputs": [
            {
              "components": [
                {
                  "internalType": "uint256",
                  "name": "totalDonationsAmount",
                  "type": "uint256"
                },
                {
                  "internalType": "uint256",
                  "name": "totalDonationsCount",
                  "type": "uint256"
                },
                {
                  "internalType": "uint256",
                  "name": "uniqueDonatorsCount",
                  "type": "uint256"
                }
              ],
              "internalType": "struct IDistributorStructs.PoolSummary",
              "name": "summary",
              "type": "tuple"
            }
          ],
          "stateMutability": "view",
          "type": "function"
        },
        {
          "inputs": [
            {
              "internalType": "address",
              "name": "user",
              "type": "address"
            },
            {
              "internalType": "uint256",
              "name": "offset",
              "type": "uint256"
            },
            {
              "internalType": "uint256",
              "name": "limit",
              "type": "uint256"
            }
          ],
          "name": "getUserPools",
          "outputs": [
            {
              "components": [
                {
                  "internalType": "uint256",
                  "name": "id",
                  "type": "uint256"
                },
                {
                  "internalType": "address",
                  "name": "creator",
                  "type": "address"
                },
                {
                  "internalType": "string",
                  "name": "title",
                  "type": "string"
                },
                {
                  "internalType": "string",
                  "name": "description",
                  "type": "string"
                },
                {
                  "internalType": "string",
                  "name": "imageUri",
                  "type": "string"
                },
                {
                  "internalType": "uint256",
                  "name": "createdAt",
                  "type": "uint256"
                },
                {
                  "internalType": "enum IDistributorStructs.PoolStatus",
                  "name": "status",
                  "type": "uint8"
                }
              ],
              "internalType": "struct IDistributorStructs.Pool[]",
              "name": "pools",
              "type": "tuple[]"
            }
          ],
          "stateMutability": "view",
          "type": "function"
        },
        {
          "inputs": [
            {
              "internalType": "address",
              "name": "user",
              "type": "address"
            }
          ],
          "name": "getUserPoolsCount",
          "outputs": [
            {
              "internalType": "uint256",
              "name": "total",
              "type": "uint256"
            }
          ],
          "stateMutability": "view",
          "type": "function"
        },
        {
          "inputs": [
            {
              "internalType": "address",
              "name": "user",
              "type": "address"
            }
          ],
          "name": "getUserSummary",
          "outputs": [
            {
              "components": [
                {
                  "internalType": "uint256",
                  "name": "totalDonationsAmount",
                  "type": "uint256"
                },
                {
                  "internalType": "uint256",
                  "name": "totalDonationsCount",
                  "type": "uint256"
                },
                {
                  "internalType": "uint256",
                  "name": "poolCount",
                  "type": "uint256"
                }
              ],
              "internalType": "struct IDistributorStructs.UserSummary",
              "name": "summary",
              "type": "tuple"
            }
          ],
          "stateMutability": "view",
          "type": "function"
        },
        {
          "inputs": [
            {
              "internalType": "uint256",
              "name": "poolId",
              "type": "uint256"
            },
            {
              "internalType": "string",
              "name": "invitationCode",
              "type": "string"
            }
          ],
          "name": "joinPool",
          "outputs": [],
          "stateMutability": "nonpayable",
          "type": "function"
        },
        {
          "inputs": [],
          "name": "nextPoolId",
          "outputs": [
            {
              "internalType": "uint256",
              "name": "",
              "type": "uint256"
            }
          ],
          "stateMutability": "view",
          "type": "function"
        },
        {
          "inputs": [],
          "name": "usdc",
          "outputs": [
            {
              "internalType": "contract IERC20",
              "name": "",
              "type": "address"
            }
          ],
          "stateMutability": "view",
          "type": "function"
        },
        {
          "inputs": [
            {
              "internalType": "uint256",
              "name": "amount",
              "type": "uint256"
            },
            {
              "internalType": "address",
              "name": "recipient",
              "type": "address"
            }
          ],
          "name": "withdraw",
          "outputs": [],
          "stateMutability": "nonpayable",
          "type": "function"
        }
      ],
      "evm": {
        "bytecode": {
          "linkReferences": {},
          "object": "60a034607b57601f611c4538819003918201601f19168301916001600160401b03831184841017608057808492602094604052833981010312607b57516001600160a01b03811690819003607b576001600055608052604051611bae9081610097823960805181818161062901528181610f8101526112c90152f35b600080fd5b634e487b7160e01b600052604160045260246000fdfe60a0604052600436101561001257600080fd5b60003560e01c8062f714ce14611242578063068bcd8d146111895780630cdd53f614610f0457806312b3208214610e7b57806314d056f814610e0a57806318e5613114610dec5780631c014f16146106585780633e413bee1461061357806387115102146103b15780638fbd0c2d1461029a5780639abd9b05146101f55780639b96eece146101bb5780639ee64b6514610181578063f535a4f5146101555763f75b9afa146100c057600080fd5b34610150576060366003190112610150576100e96100dc61139b565b60443590602435906119a6565b6040518091602082016020835281518091526040830190602060408260051b8601019301916000905b82821061012157505050500390f35b919360019193955060206101408192603f198a820301865288516113f2565b9601920192018594939192610112565b600080fd5b346101505760203660031901126101505760043560005260046020526020604060002054604051908152f35b34610150576020366003190112610150576001600160a01b036101a261139b565b1660005260056020526020604060002054604051908152f35b34610150576020366003190112610150576001600160a01b036101dc61139b565b1660005260076020526020604060002054604051908152f35b3461015057602036600319011261015057600435806000526001602052604060002080541560001461023657506302ad881560e41b60005260045260246000fd5b60018101546001600160a01b0316330361028157600601805460ff1916600217905533907f72e6fc67ca93cc3cedc1e023204888c2cab750fbb5526e1faf3445c0327ee0ef600080a3005b506302a20f2560e21b6000523360045260245260446000fd5b34610150576020366003190112610150576102b361139b565b6102bb6116cd565b906001600160a01b03166020820160005b82600052600560205260406000205481101561035d576001908360005260056020526102fc816040600020611938565b90549060031b1c600052600260205261031b604060002054865161169a565b8552836000526005602052610334816040600020611938565b90549060031b1c60005260026020526103558260406000200154845161169a565b8352016102cc565b50906060925191519060005260056020526040600020549060405192610382846114f1565b8352602083015260408201526103af60405180926040809180518452602081015160208501520151910152565bf35b34610150576040366003190112610150576004356024356001600160401b038111610150576103e490369060040161146c565b82600052600160205260406000208054156105fe576006015460ff1660038110156105e8576002146105d357600083815260066020908152604080832033845290915290205460ff166105c257610459602060405183819483830196873781016000838201520301601f19810183528261150c565b519020908060005260046020526040600020600080809481908454915b828110610546575b505050156105355761048f91611668565b5080546001600160a01b031916339081179091556000828152600660209081526040808320938352928152828220805460ff1916600117905560059052206104d8908290611950565b6104e181611b2b565b610514575b6040519182527ff4f82575ee84a81aac4be52b6a368e9ba9df524b4f5cf8177d7cfbabe861820c60203393a3005b8060005260016020526006604060002001600160ff198254161790556104e6565b63046aa5bf60e01b60005260046000fd5b6105508187611668565b50546001600160a01b031615806105ab575b80610594575b61057457600101610476565b96505050505060026105868483611668565b50015492600185808061047e565b5060016105a18288611668565b5001541515610568565b508160016105b98389611668565b50015414610562565b634c0d3fed60e11b60005260046000fd5b8263423b515f60e01b60005260045260246000fd5b634e487b7160e01b600052602160045260246000fd5b836302ad881560e41b60005260045260246000fd5b34610150576000366003190112610150576040517f00000000000000000000000000000000000000000000000000000000000000006001600160a01b03168152602090f35b346101505760a0366003190112610150576004356001600160401b0381116101505761068890369060040161146c565b6024356001600160401b038111610150576106a790369060040161146c565b926044356001600160401b038111610150576106c790369060040161146c565b9390926064356001600160401b038111610150576106e9903690600401611499565b6084979197356001600160401b0381116101505761070b903690600401611499565b98908515610ddb57828a03610dca57600091825b8b8110610d555750612710831015610d405761271083810311610d2a578261271014610d19576000546080526107566080516116a7565b6000558a610d125760015b604051888b8d6107ad61078b8e610777876114d6565b608051875260208701953387523691611884565b604086019081529261079e368d8f611884565b92606087019384523691611884565b916080850192835260a08501934285526107cb60c08701978861165c565b608051600090815260016020819052604090912096518755905190860180546001600160a01b0319166001600160a01b039290921691909117905551805160028601916001600160401b038211610b76578190610828845461157e565b601f8111610cbf575b50602090601f8311600114610c5a57600092610c4f575b50508160011b916000199060031b1c19161790555b51805160038501916001600160401b038211610b7657819061087f845461157e565b601f8111610bfc575b50602090601f8311600114610b9757600092610b8c575b50508160011b916000199060031b1c19161790555b51805160048401916001600160401b038211610b76576108d4835461157e565b601f8111610b2e575b50602090601f8311600114610ac2576006959493929160009183610ab7575b50508160011b916000199060031b1c19161790555b5160058201550190519360038510156105e8576109a49160009560ff80198354169116179055604051610943816114f1565b858152600260208201878152604083019088825260805189528260205260408920935184555160018401555191015560805185526004602052604085206040519161098d836114f1565b3383528660208401526127100360408301526118ca565b608051835260066020526040832060018060a01b033316845260205260408320600160ff1982541617905533835260056020526109e660805160408520611950565b825b8b8110610a63578a8a7f3488d52145f2da8302f4410707e81efde09f4f605b2182bbfb96b966837e32cd8b8b610a54610a418d8d610a33604051968796606088526060880191611985565b918583036020870152611985565b8281036040840152339660805196611985565b0390a360206040516080518152f35b60019060805185526004602052610ab18d610a8383604089209288611874565b3590610a90848a88611874565b359160405192610a9f846114f1565b898452602084015260408301526118ca565b016109e8565b0151905038806108fc565b90601f1983169184600052816000209260005b818110610b1657509160019391856006999897969410610afd575b505050811b019055610911565b015160001960f88460031b161c19169055388080610af0565b92936020600181928786015181550195019301610ad5565b836000526020600020601f840160051c81019160208510610b6c575b601f0160051c01905b818110610b6057506108dd565b60008155600101610b53565b9091508190610b4a565b634e487b7160e01b600052604160045260246000fd5b01519050388061089f565b60008581528281209350601f198516905b818110610be45750908460019594939210610bcb575b505050811b0190556108b4565b015160001960f88460031b161c19169055388080610bbe565b92936020600181928786015181550195019301610ba8565b909150836000526020600020601f840160051c81019160208510610c45575b90601f859493920160051c01905b818110610c365750610888565b60008155849350600101610c29565b9091508190610c1b565b015190503880610848565b60008581528281209350601f198516905b818110610ca75750908460019594939210610c8e575b505050811b01905561085d565b015160001960f88460031b161c19169055388080610c81565b92936020600181928786015181550195019301610c6b565b909150836000526020600020601f840160051c81019160208510610d08575b90601f859493920160051c01905b818110610cf95750610831565b60008155849350600101610cec565b9091508190610cde565b6000610761565b630781666160e51b60005260046000fd5b634e487b7160e01b600052601160045260246000fd5b82634a31414760e01b60005260045260246000fd5b92610d61848d85611874565b3515848d8215610db1575b5050610d9157610d8a600191610d83868f87611874565b359061169a565b930161071f565b610d9c848d85611874565b3563447e90bf60e11b60005260045260246000fd5b612710925090610dc19186611874565b3511848d610d6c565b63512509d360e11b60005260046000fd5b6352ddcdef60e11b60005260046000fd5b34610150576000366003190112610150576020600054604051908152f35b3461015057602036600319011261015057610e236116cd565b50600435600052600260205260606040600020600260405191610e45836114f1565b8054835260018101546020840152015460408201526103af60405180926040809180518452602081015160208501520151910152565b3461015057606036600319011261015057610e9d604435602435600435611700565b60405180916020820160208352815180915260206040840192019060005b818110610ec9575050500390f35b825180516001600160a01b03168552602081810151818701526040918201519186019190915286955060609094019390920191600101610ebb565b3461015057604036600319011261015057600435602435908060005260016020526040600020805415611174576006015460ff169160038310156105e8576002831461115f576000921561114b57801561113c576040516323b872dd60e01b815233600482015230602482015260448101829052602081606481877f00000000000000000000000000000000000000000000000000000000000000006001600160a01b03165af1908115611131578491611102575b50156110f357818352600460205260408320835b815481101561103f576002610fe28284611668565b500154808402908482040361102b5790600191610fff8285611668565b50838060a01b0390541687526007602052611023612710604089209204825461169a565b905501610fcd565b634e487b7160e01b86526011600452602486fd5b50509080835260026020526040832061105983825461169a565b81556001810161106981546116a7565b905581845260036020908152604080862033875290915284205460ff16156110bc575b506040519182527fe555da28bdb778f65d22794d88927ebaeca03f7de9d1b7d39245bc8fb5ca078a60203393a380f35b6002016110c981546116a7565b90558083526003602090815260408085203386529091528320805460ff191660011790558361108c565b6312171d8360e31b8352600483fd5b611124915060203d60201161112a575b61111c818361150c565b81019061152d565b84610fb9565b503d611112565b6040513d86823e3d90fd5b63bdd5839b60e01b8352600483fd5b63da8944ed60e01b83526004829052602483fd5b5063423b515f60e01b60005260045260246000fd5b506302ad881560e41b60005260045260246000fd5b34610150576020366003190112610150576111a2611545565b50600435600052600160205261123e604060002061122a60ff6006604051936111ca856114d6565b8054855260018101546001600160a01b031660208601526111ed600282016115b8565b60408601526111fe600382016115b8565b606086015261120f600482016115b8565b6080860152600581015460a086015201541660c0830161165c565b6040519182916020835260208301906113f2565b0390f35b34610150576040366003190112610150576024356001600160a01b038116906004359082900361015057801561138a57336000526007602052604060002054808211611372575033600052600760205260406000206112a28282546114c9565b905560405163a9059cbb60e01b8152600481018390526024810182905260208160448160007f00000000000000000000000000000000000000000000000000000000000000006001600160a01b03165af190811561136657600091611347575b5015611336576040519081527fa92ff919b850e4909ab2261d907ef955f11bc1716733a6cbece38d163a69af8a60203392a3005b6312171d8360e31b60005260046000fd5b611360915060203d60201161112a5761111c818361150c565b83611302565b6040513d6000823e3d90fd5b9063cf47918160e01b60005260045260245260446000fd5b639abc749160e01b60005260046000fd5b600435906001600160a01b038216820361015057565b919082519283825260005b8481106113dd575050826000602080949584010152601f8019910116010190565b806020809284010151828286010152016113bc565b908151815260018060a01b03602083015116602082015260c061144e61143c61142a604086015160e0604087015260e08601906113b1565b606086015185820360608701526113b1565b608085015184820360808601526113b1565b9260a081015160a084015201519060038210156105e85760c0015290565b9181601f84011215610150578235916001600160401b038311610150576020838186019501011161015057565b9181601f84011215610150578235916001600160401b038311610150576020808501948460051b01011161015057565b91908203918211610d2a57565b60e081019081106001600160401b03821117610b7657604052565b606081019081106001600160401b03821117610b7657604052565b90601f801991011681019081106001600160401b03821117610b7657604052565b90816020910312610150575180151581036101505790565b60405190611552826114d6565b600060c08382815282602082015260606040820152606080820152606060808201528260a08201520152565b90600182811c921680156115ae575b602083101461159857565b634e487b7160e01b600052602260045260246000fd5b91607f169161158d565b90604051918260008254926115cc8461157e565b808452936001811690811561163a57506001146115f3575b506115f19250038361150c565b565b90506000929192526020600020906000915b81831061161e5750509060206115f192820101386115e4565b6020919350806001915483858901015201910190918492611605565b9050602092506115f194915060ff191682840152151560051b820101386115e4565b60038210156105e85752565b8054821015611684576000526003602060002091020190600090565b634e487b7160e01b600052603260045260246000fd5b91908201809211610d2a57565b6000198114610d2a5760010190565b6001600160401b038111610b765760051b60200190565b604051906116da826114f1565b60006040838281528260208201520152565b80518210156116845760209160051b010190565b929190836000526001602052604060002054156105fe57836000526004602052604060002054811160001461176d575050604051909150600061174460208361150c565b81526000805b81811061175657505090565b6020906117616116cd565b8282860101520161174a565b611777828261169a565b84600052600460205260406000205410611854575b611795826116b6565b906117a3604051928361150c565b828252601f196117b2846116b6565b0160005b81811061183d575050819460005b8481106117d2575050505050565b6001908260005260046020526117f660406000206117f0868461169a565b90611668565b50600260405191611806836114f1565b848060a01b0381541683528481015460208401520154604082015261182b82876116ec565b5261183681866116ec565b50016117c4565b6020906118486116cd565b828287010152016117b6565b905082600052600460205261186e816040600020546114c9565b9061178c565b91908110156116845760051b0190565b9291926001600160401b038211610b7657604051916118ad601f8201601f19166020018461150c565b829481845281830111610150578281602093846000960137010152565b8054600160401b811015610b76576118e791600182018155611668565b91909161192257805182546001600160a01b0319166001600160a01b0391909116178255602081015160018301556040015160029190910155565b634e487b7160e01b600052600060045260246000fd5b80548210156116845760005260206000200190600090565b8054600160401b811015610b765761196d91600182018155611938565b819291549060031b91821b91600019901b1916179055565b908060209392818452848401376000828201840152601f01601f1916010190565b6001600160a01b03166000818152600560205260409020549093929190811115611a0857505060405190915060006119df60208361150c565b81526000805b8181106119f157505090565b6020906119fc611545565b828286010152016119e5565b611a12828261169a565b84600052600560205260406000205410611b0b575b611a30826116b6565b90611a3e604051928361150c565b828252601f19611a4d846116b6565b0160005b818110611af4575050819460005b848110611a6d575050505050565b600190826000526005602052611a916040600020611a8b868461169a565b90611938565b90549060031b1c600052816020526040600020611ad860ff600660405193611ab8856114d6565b80548552868060a01b03878201541660208601526111ed600282016115b8565b611ae282876116ec565b52611aed81866116ec565b5001611a5f565b602090611aff611545565b82828701015201611a51565b9050826000526005602052611b25816040600020546114c9565b90611a27565b600052600460205260406000206000908054915b828110611b4e57505050600190565b611b588183611668565b50546001600160a01b031615611b7057600101611b3f565b50505060009056fea2646970667358221220357851103ff83b186e8b166ade5bfa8361e6634dc7e0511de7f886a59d93ae8164736f6c634300081c0033",
          "opcodes": "PUSH1 0xA0 CALLVALUE PUSH1 0x7B JUMPI PUSH1 0x1F PUSH2 0x1C45 CODESIZE DUP2 SWAP1 SUB SWAP2 DUP3 ADD PUSH1 0x1F NOT AND DUP4 ADD SWAP2 PUSH1 0x1 PUSH1 0x1 PUSH1 0x40 SHL SUB DUP4 GT DUP5 DUP5 LT OR PUSH1 0x80 JUMPI DUP1 DUP5 SWAP3 PUSH1 0x20 SWAP5 PUSH1 0x40 MSTORE DUP4 CODECOPY DUP2 ADD SUB SLT PUSH1 0x7B JUMPI MLOAD PUSH1 0x1 PUSH1 0x1 PUSH1 0xA0 SHL SUB DUP2 AND SWAP1 DUP2 SWAP1 SUB PUSH1 0x7B JUMPI PUSH1 0x1 PUSH1 0x0 SSTORE PUSH1 0x80 MSTORE PUSH1 0x40 MLOAD PUSH2 0x1BAE SWAP1 DUP2 PUSH2 0x97 DUP3 CODECOPY PUSH1 0x80 MLOAD DUP2 DUP2 DUP2 PUSH2 0x629 ADD MSTORE DUP2 DUP2 PUSH2 0xF81 ADD MSTORE PUSH2 0x12C9 ADD MSTORE RETURN JUMPDEST PUSH1 0x0 DUP1 REVERT JUMPDEST PUSH4 0x4E487B71 PUSH1 0xE0 SHL PUSH1 0x0 MSTORE PUSH1 0x41 PUSH1 0x4 MSTORE PUSH1 0x24 PUSH1 0x0 REVERT INVALID PUSH1 0xA0 PUSH1 0x40 MSTORE PUSH1 0x4 CALLDATASIZE LT ISZERO PUSH2 0x12 JUMPI PUSH1 0x0 DUP1 REVERT JUMPDEST PUSH1 0x0 CALLDATALOAD PUSH1 0xE0 SHR DUP1 PUSH3 0xF714CE EQ PUSH2 0x1242 JUMPI DUP1 PUSH4 0x68BCD8D EQ PUSH2 0x1189 JUMPI DUP1 PUSH4 0xCDD53F6 EQ PUSH2 0xF04 JUMPI DUP1 PUSH4 0x12B32082 EQ PUSH2 0xE7B JUMPI DUP1 PUSH4 0x14D056F8 EQ PUSH2 0xE0A JUMPI DUP1 PUSH4 0x18E56131 EQ PUSH2 0xDEC JUMPI DUP1 PUSH4 0x1C014F16 EQ PUSH2 0x658 JUMPI DUP1 PUSH4 0x3E413BEE EQ PUSH2 0x613 JUMPI DUP1 PUSH4 0x87115102 EQ PUSH2 0x3B1 JUMPI DUP1 PUSH4 0x8FBD0C2D EQ PUSH2 0x29A JUMPI DUP1 PUSH4 0x9ABD9B05 EQ PUSH2 0x1F5 JUMPI DUP1 PUSH4 0x9B96EECE EQ PUSH2 0x1BB JUMPI DUP1 PUSH4 0x9EE64B65 EQ PUSH2 0x181 JUMPI DUP1 PUSH4 0xF535A4F5 EQ PUSH2 0x155 JUMPI PUSH4 0xF75B9AFA EQ PUSH2 0xC0 JUMPI PUSH1 0x0 DUP1 REVERT JUMPDEST CALLVALUE PUSH2 0x150 JUMPI PUSH1 0x60 CALLDATASIZE PUSH1 0x3 NOT ADD SLT PUSH2 0x150 JUMPI PUSH2 0xE9 PUSH2 0xDC PUSH2 0x139B JUMP JUMPDEST PUSH1 0x44 CALLDATALOAD SWAP1 PUSH1 0x24 CALLDATALOAD SWAP1 PUSH2 0x19A6 JUMP JUMPDEST PUSH1 0x40 MLOAD DUP1 SWAP2 PUSH1 0x20 DUP3 ADD PUSH1 0x20 DUP4 MSTORE DUP2 MLOAD DUP1 SWAP2 MSTORE PUSH1 0x40 DUP4 ADD SWAP1 PUSH1 0x20 PUSH1 0x40 DUP3 PUSH1 0x5 SHL DUP7 ADD ADD SWAP4 ADD SWAP2 PUSH1 0x0 SWAP1 JUMPDEST DUP3 DUP3 LT PUSH2 0x121 JUMPI POP POP POP POP SUB SWAP1 RETURN JUMPDEST SWAP2 SWAP4 PUSH1 0x1 SWAP2 SWAP4 SWAP6 POP PUSH1 0x20 PUSH2 0x140 DUP2 SWAP3 PUSH1 0x3F NOT DUP11 DUP3 SUB ADD DUP7 MSTORE DUP9 MLOAD PUSH2 0x13F2 JUMP JUMPDEST SWAP7 ADD SWAP3 ADD SWAP3 ADD DUP6 SWAP5 SWAP4 SWAP2 SWAP3 PUSH2 0x112 JUMP JUMPDEST PUSH1 0x0 DUP1 REVERT JUMPDEST CALLVALUE PUSH2 0x150 JUMPI PUSH1 0x20 CALLDATASIZE PUSH1 0x3 NOT ADD SLT PUSH2 0x150 JUMPI PUSH1 0x4 CALLDATALOAD PUSH1 0x0 MSTORE PUSH1 0x4 PUSH1 0x20 MSTORE PUSH1 0x20 PUSH1 0x40 PUSH1 0x0 KECCAK256 SLOAD PUSH1 0x40 MLOAD SWAP1 DUP2 MSTORE RETURN JUMPDEST CALLVALUE PUSH2 0x150 JUMPI PUSH1 0x20 CALLDATASIZE PUSH1 0x3 NOT ADD SLT PUSH2 0x150 JUMPI PUSH1 0x1 PUSH1 0x1 PUSH1 0xA0 SHL SUB PUSH2 0x1A2 PUSH2 0x139B JUMP JUMPDEST AND PUSH1 0x0 MSTORE PUSH1 0x5 PUSH1 0x20 MSTORE PUSH1 0x20 PUSH1 0x40 PUSH1 0x0 KECCAK256 SLOAD PUSH1 0x40 MLOAD SWAP1 DUP2 MSTORE RETURN JUMPDEST CALLVALUE PUSH2 0x150 JUMPI PUSH1 0x20 CALLDATASIZE PUSH1 0x3 NOT ADD SLT PUSH2 0x150 JUMPI PUSH1 0x1 PUSH1 0x1 PUSH1 0xA0 SHL SUB PUSH2 0x1DC PUSH2 0x139B JUMP JUMPDEST AND PUSH1 0x0 MSTORE PUSH1 0x7 PUSH1 0x20 MSTORE PUSH1 0x20 PUSH1 0x40 PUSH1 0x0 KECCAK256 SLOAD PUSH1 0x40 MLOAD SWAP1 DUP2 MSTORE RETURN JUMPDEST CALLVALUE PUSH2 0x150 JUMPI PUSH1 0x20 CALLDATASIZE PUSH1 0x3 NOT ADD SLT PUSH2 0x150 JUMPI PUSH1 0x4 CALLDATALOAD DUP1 PUSH1 0x0 MSTORE PUSH1 0x1 PUSH1 0x20 MSTORE PUSH1 0x40 PUSH1 0x0 KECCAK256 DUP1 SLOAD ISZERO PUSH1 0x0 EQ PUSH2 0x236 JUMPI POP PUSH4 0x2AD8815 PUSH1 0xE4 SHL PUSH1 0x0 MSTORE PUSH1 0x4 MSTORE PUSH1 0x24 PUSH1 0x0 REVERT JUMPDEST PUSH1 0x1 DUP2 ADD SLOAD PUSH1 0x1 PUSH1 0x1 PUSH1 0xA0 SHL SUB AND CALLER SUB PUSH2 0x281 JUMPI PUSH1 0x6 ADD DUP1 SLOAD PUSH1 0xFF NOT AND PUSH1 0x2 OR SWAP1 SSTORE CALLER SWAP1 PUSH32 0x72E6FC67CA93CC3CEDC1E023204888C2CAB750FBB5526E1FAF3445C0327EE0EF PUSH1 0x0 DUP1 LOG3 STOP JUMPDEST POP PUSH4 0x2A20F25 PUSH1 0xE2 SHL PUSH1 0x0 MSTORE CALLER PUSH1 0x4 MSTORE PUSH1 0x24 MSTORE PUSH1 0x44 PUSH1 0x0 REVERT JUMPDEST CALLVALUE PUSH2 0x150 JUMPI PUSH1 0x20 CALLDATASIZE PUSH1 0x3 NOT ADD SLT PUSH2 0x150 JUMPI PUSH2 0x2B3 PUSH2 0x139B JUMP JUMPDEST PUSH2 0x2BB PUSH2 0x16CD JUMP JUMPDEST SWAP1 PUSH1 0x1 PUSH1 0x1 PUSH1 0xA0 SHL SUB AND PUSH1 0x20 DUP3 ADD PUSH1 0x0 JUMPDEST DUP3 PUSH1 0x0 MSTORE PUSH1 0x5 PUSH1 0x20 MSTORE PUSH1 0x40 PUSH1 0x0 KECCAK256 SLOAD DUP2 LT ISZERO PUSH2 0x35D JUMPI PUSH1 0x1 SWAP1 DUP4 PUSH1 0x0 MSTORE PUSH1 0x5 PUSH1 0x20 MSTORE PUSH2 0x2FC DUP2 PUSH1 0x40 PUSH1 0x0 KECCAK256 PUSH2 0x1938 JUMP JUMPDEST SWAP1 SLOAD SWAP1 PUSH1 0x3 SHL SHR PUSH1 0x0 MSTORE PUSH1 0x2 PUSH1 0x20 MSTORE PUSH2 0x31B PUSH1 0x40 PUSH1 0x0 KECCAK256 SLOAD DUP7 MLOAD PUSH2 0x169A JUMP JUMPDEST DUP6 MSTORE DUP4 PUSH1 0x0 MSTORE PUSH1 0x5 PUSH1 0x20 MSTORE PUSH2 0x334 DUP2 PUSH1 0x40 PUSH1 0x0 KECCAK256 PUSH2 0x1938 JUMP JUMPDEST SWAP1 SLOAD SWAP1 PUSH1 0x3 SHL SHR PUSH1 0x0 MSTORE PUSH1 0x2 PUSH1 0x20 MSTORE PUSH2 0x355 DUP3 PUSH1 0x40 PUSH1 0x0 KECCAK256 ADD SLOAD DUP5 MLOAD PUSH2 0x169A JUMP JUMPDEST DUP4 MSTORE ADD PUSH2 0x2CC JUMP JUMPDEST POP SWAP1 PUSH1 0x60 SWAP3 MLOAD SWAP2 MLOAD SWAP1 PUSH1 0x0 MSTORE PUSH1 0x5 PUSH1 0x20 MSTORE PUSH1 0x40 PUSH1 0x0 KECCAK256 SLOAD SWAP1 PUSH1 0x40 MLOAD SWAP3 PUSH2 0x382 DUP5 PUSH2 0x14F1 JUMP JUMPDEST DUP4 MSTORE PUSH1 0x20 DUP4 ADD MSTORE PUSH1 0x40 DUP3 ADD MSTORE PUSH2 0x3AF PUSH1 0x40 MLOAD DUP1 SWAP3 PUSH1 0x40 DUP1 SWAP2 DUP1 MLOAD DUP5 MSTORE PUSH1 0x20 DUP2 ADD MLOAD PUSH1 0x20 DUP6 ADD MSTORE ADD MLOAD SWAP2 ADD MSTORE JUMP JUMPDEST RETURN JUMPDEST CALLVALUE PUSH2 0x150 JUMPI PUSH1 0x40 CALLDATASIZE PUSH1 0x3 NOT ADD SLT PUSH2 0x150 JUMPI PUSH1 0x4 CALLDATALOAD PUSH1 0x24 CALLDATALOAD PUSH1 0x1 PUSH1 0x1 PUSH1 0x40 SHL SUB DUP2 GT PUSH2 0x150 JUMPI PUSH2 0x3E4 SWAP1 CALLDATASIZE SWAP1 PUSH1 0x4 ADD PUSH2 0x146C JUMP JUMPDEST DUP3 PUSH1 0x0 MSTORE PUSH1 0x1 PUSH1 0x20 MSTORE PUSH1 0x40 PUSH1 0x0 KECCAK256 DUP1 SLOAD ISZERO PUSH2 0x5FE JUMPI PUSH1 0x6 ADD SLOAD PUSH1 0xFF AND PUSH1 0x3 DUP2 LT ISZERO PUSH2 0x5E8 JUMPI PUSH1 0x2 EQ PUSH2 0x5D3 JUMPI PUSH1 0x0 DUP4 DUP2 MSTORE PUSH1 0x6 PUSH1 0x20 SWAP1 DUP2 MSTORE PUSH1 0x40 DUP1 DUP4 KECCAK256 CALLER DUP5 MSTORE SWAP1 SWAP2 MSTORE SWAP1 KECCAK256 SLOAD PUSH1 0xFF AND PUSH2 0x5C2 JUMPI PUSH2 0x459 PUSH1 0x20 PUSH1 0x40 MLOAD DUP4 DUP2 SWAP5 DUP4 DUP4 ADD SWAP7 DUP8 CALLDATACOPY DUP2 ADD PUSH1 0x0 DUP4 DUP3 ADD MSTORE SUB ADD PUSH1 0x1F NOT DUP2 ADD DUP4 MSTORE DUP3 PUSH2 0x150C JUMP JUMPDEST MLOAD SWAP1 KECCAK256 SWAP1 DUP1 PUSH1 0x0 MSTORE PUSH1 0x4 PUSH1 0x20 MSTORE PUSH1 0x40 PUSH1 0x0 KECCAK256 PUSH1 0x0 DUP1 DUP1 SWAP5 DUP2 SWAP1 DUP5 SLOAD SWAP2 JUMPDEST DUP3 DUP2 LT PUSH2 0x546 JUMPI JUMPDEST POP POP POP ISZERO PUSH2 0x535 JUMPI PUSH2 0x48F SWAP2 PUSH2 0x1668 JUMP JUMPDEST POP DUP1 SLOAD PUSH1 0x1 PUSH1 0x1 PUSH1 0xA0 SHL SUB NOT AND CALLER SWAP1 DUP2 OR SWAP1 SWAP2 SSTORE PUSH1 0x0 DUP3 DUP2 MSTORE PUSH1 0x6 PUSH1 0x20 SWAP1 DUP2 MSTORE PUSH1 0x40 DUP1 DUP4 KECCAK256 SWAP4 DUP4 MSTORE SWAP3 DUP2 MSTORE DUP3 DUP3 KECCAK256 DUP1 SLOAD PUSH1 0xFF NOT AND PUSH1 0x1 OR SWAP1 SSTORE PUSH1 0x5 SWAP1 MSTORE KECCAK256 PUSH2 0x4D8 SWAP1 DUP3 SWAP1 PUSH2 0x1950 JUMP JUMPDEST PUSH2 0x4E1 DUP2 PUSH2 0x1B2B JUMP JUMPDEST PUSH2 0x514 JUMPI JUMPDEST PUSH1 0x40 MLOAD SWAP2 DUP3 MSTORE PUSH32 0xF4F82575EE84A81AAC4BE52B6A368E9BA9DF524B4F5CF8177D7CFBABE861820C PUSH1 0x20 CALLER SWAP4 LOG3 STOP JUMPDEST DUP1 PUSH1 0x0 MSTORE PUSH1 0x1 PUSH1 0x20 MSTORE PUSH1 0x6 PUSH1 0x40 PUSH1 0x0 KECCAK256 ADD PUSH1 0x1 PUSH1 0xFF NOT DUP3 SLOAD AND OR SWAP1 SSTORE PUSH2 0x4E6 JUMP JUMPDEST PUSH4 0x46AA5BF PUSH1 0xE0 SHL PUSH1 0x0 MSTORE PUSH1 0x4 PUSH1 0x0 REVERT JUMPDEST PUSH2 0x550 DUP2 DUP8 PUSH2 0x1668 JUMP JUMPDEST POP SLOAD PUSH1 0x1 PUSH1 0x1 PUSH1 0xA0 SHL SUB AND ISZERO DUP1 PUSH2 0x5AB JUMPI JUMPDEST DUP1 PUSH2 0x594 JUMPI JUMPDEST PUSH2 0x574 JUMPI PUSH1 0x1 ADD PUSH2 0x476 JUMP JUMPDEST SWAP7 POP POP POP POP POP PUSH1 0x2 PUSH2 0x586 DUP5 DUP4 PUSH2 0x1668 JUMP JUMPDEST POP ADD SLOAD SWAP3 PUSH1 0x1 DUP6 DUP1 DUP1 PUSH2 0x47E JUMP JUMPDEST POP PUSH1 0x1 PUSH2 0x5A1 DUP3 DUP9 PUSH2 0x1668 JUMP JUMPDEST POP ADD SLOAD ISZERO ISZERO PUSH2 0x568 JUMP JUMPDEST POP DUP2 PUSH1 0x1 PUSH2 0x5B9 DUP4 DUP10 PUSH2 0x1668 JUMP JUMPDEST POP ADD SLOAD EQ PUSH2 0x562 JUMP JUMPDEST PUSH4 0x4C0D3FED PUSH1 0xE1 SHL PUSH1 0x0 MSTORE PUSH1 0x4 PUSH1 0x0 REVERT JUMPDEST DUP3 PUSH4 0x423B515F PUSH1 0xE0 SHL PUSH1 0x0 MSTORE PUSH1 0x4 MSTORE PUSH1 0x24 PUSH1 0x0 REVERT JUMPDEST PUSH4 0x4E487B71 PUSH1 0xE0 SHL PUSH1 0x0 MSTORE PUSH1 0x21 PUSH1 0x4 MSTORE PUSH1 0x24 PUSH1 0x0 REVERT JUMPDEST DUP4 PUSH4 0x2AD8815 PUSH1 0xE4 SHL PUSH1 0x0 MSTORE PUSH1 0x4 MSTORE PUSH1 0x24 PUSH1 0x0 REVERT JUMPDEST CALLVALUE PUSH2 0x150 JUMPI PUSH1 0x0 CALLDATASIZE PUSH1 0x3 NOT ADD SLT PUSH2 0x150 JUMPI PUSH1 0x40 MLOAD PUSH32 0x0 PUSH1 0x1 PUSH1 0x1 PUSH1 0xA0 SHL SUB AND DUP2 MSTORE PUSH1 0x20 SWAP1 RETURN JUMPDEST CALLVALUE PUSH2 0x150 JUMPI PUSH1 0xA0 CALLDATASIZE PUSH1 0x3 NOT ADD SLT PUSH2 0x150 JUMPI PUSH1 0x4 CALLDATALOAD PUSH1 0x1 PUSH1 0x1 PUSH1 0x40 SHL SUB DUP2 GT PUSH2 0x150 JUMPI PUSH2 0x688 SWAP1 CALLDATASIZE SWAP1 PUSH1 0x4 ADD PUSH2 0x146C JUMP JUMPDEST PUSH1 0x24 CALLDATALOAD PUSH1 0x1 PUSH1 0x1 PUSH1 0x40 SHL SUB DUP2 GT PUSH2 0x150 JUMPI PUSH2 0x6A7 SWAP1 CALLDATASIZE SWAP1 PUSH1 0x4 ADD PUSH2 0x146C JUMP JUMPDEST SWAP3 PUSH1 0x44 CALLDATALOAD PUSH1 0x1 PUSH1 0x1 PUSH1 0x40 SHL SUB DUP2 GT PUSH2 0x150 JUMPI PUSH2 0x6C7 SWAP1 CALLDATASIZE SWAP1 PUSH1 0x4 ADD PUSH2 0x146C JUMP JUMPDEST SWAP4 SWAP1 SWAP3 PUSH1 0x64 CALLDATALOAD PUSH1 0x1 PUSH1 0x1 PUSH1 0x40 SHL SUB DUP2 GT PUSH2 0x150 JUMPI PUSH2 0x6E9 SWAP1 CALLDATASIZE SWAP1 PUSH1 0x4 ADD PUSH2 0x1499 JUMP JUMPDEST PUSH1 0x84 SWAP8 SWAP2 SWAP8 CALLDATALOAD PUSH1 0x1 PUSH1 0x1 PUSH1 0x40 SHL SUB DUP2 GT PUSH2 0x150 JUMPI PUSH2 0x70B SWAP1 CALLDATASIZE SWAP1 PUSH1 0x4 ADD PUSH2 0x1499 JUMP JUMPDEST SWAP9 SWAP1 DUP6 ISZERO PUSH2 0xDDB JUMPI DUP3 DUP11 SUB PUSH2 0xDCA JUMPI PUSH1 0x0 SWAP2 DUP3 JUMPDEST DUP12 DUP2 LT PUSH2 0xD55 JUMPI POP PUSH2 0x2710 DUP4 LT ISZERO PUSH2 0xD40 JUMPI PUSH2 0x2710 DUP4 DUP2 SUB GT PUSH2 0xD2A JUMPI DUP3 PUSH2 0x2710 EQ PUSH2 0xD19 JUMPI PUSH1 0x0 SLOAD PUSH1 0x80 MSTORE PUSH2 0x756 PUSH1 0x80 MLOAD PUSH2 0x16A7 JUMP JUMPDEST PUSH1 0x0 SSTORE DUP11 PUSH2 0xD12 JUMPI PUSH1 0x1 JUMPDEST PUSH1 0x40 MLOAD DUP9 DUP12 DUP14 PUSH2 0x7AD PUSH2 0x78B DUP15 PUSH2 0x777 DUP8 PUSH2 0x14D6 JUMP JUMPDEST PUSH1 0x80 MLOAD DUP8 MSTORE PUSH1 0x20 DUP8 ADD SWAP6 CALLER DUP8 MSTORE CALLDATASIZE SWAP2 PUSH2 0x1884 JUMP JUMPDEST PUSH1 0x40 DUP7 ADD SWAP1 DUP2 MSTORE SWAP3 PUSH2 0x79E CALLDATASIZE DUP14 DUP16 PUSH2 0x1884 JUMP JUMPDEST SWAP3 PUSH1 0x60 DUP8 ADD SWAP4 DUP5 MSTORE CALLDATASIZE SWAP2 PUSH2 0x1884 JUMP JUMPDEST SWAP2 PUSH1 0x80 DUP6 ADD SWAP3 DUP4 MSTORE PUSH1 0xA0 DUP6 ADD SWAP4 TIMESTAMP DUP6 MSTORE PUSH2 0x7CB PUSH1 0xC0 DUP8 ADD SWAP8 DUP9 PUSH2 0x165C JUMP JUMPDEST PUSH1 0x80 MLOAD PUSH1 0x0 SWAP1 DUP2 MSTORE PUSH1 0x1 PUSH1 0x20 DUP2 SWAP1 MSTORE PUSH1 0x40 SWAP1 SWAP2 KECCAK256 SWAP7 MLOAD DUP8 SSTORE SWAP1 MLOAD SWAP1 DUP7 ADD DUP1 SLOAD PUSH1 0x1 PUSH1 0x1 PUSH1 0xA0 SHL SUB NOT AND PUSH1 0x1 PUSH1 0x1 PUSH1 0xA0 SHL SUB SWAP3 SWAP1 SWAP3 AND SWAP2 SWAP1 SWAP2 OR SWAP1 SSTORE MLOAD DUP1 MLOAD PUSH1 0x2 DUP7 ADD SWAP2 PUSH1 0x1 PUSH1 0x1 PUSH1 0x40 SHL SUB DUP3 GT PUSH2 0xB76 JUMPI DUP2 SWAP1 PUSH2 0x828 DUP5 SLOAD PUSH2 0x157E JUMP JUMPDEST PUSH1 0x1F DUP2 GT PUSH2 0xCBF JUMPI JUMPDEST POP PUSH1 0x20 SWAP1 PUSH1 0x1F DUP4 GT PUSH1 0x1 EQ PUSH2 0xC5A JUMPI PUSH1 0x0 SWAP3 PUSH2 0xC4F JUMPI JUMPDEST POP POP DUP2 PUSH1 0x1 SHL SWAP2 PUSH1 0x0 NOT SWAP1 PUSH1 0x3 SHL SHR NOT AND OR SWAP1 SSTORE JUMPDEST MLOAD DUP1 MLOAD PUSH1 0x3 DUP6 ADD SWAP2 PUSH1 0x1 PUSH1 0x1 PUSH1 0x40 SHL SUB DUP3 GT PUSH2 0xB76 JUMPI DUP2 SWAP1 PUSH2 0x87F DUP5 SLOAD PUSH2 0x157E JUMP JUMPDEST PUSH1 0x1F DUP2 GT PUSH2 0xBFC JUMPI JUMPDEST POP PUSH1 0x20 SWAP1 PUSH1 0x1F DUP4 GT PUSH1 0x1 EQ PUSH2 0xB97 JUMPI PUSH1 0x0 SWAP3 PUSH2 0xB8C JUMPI JUMPDEST POP POP DUP2 PUSH1 0x1 SHL SWAP2 PUSH1 0x0 NOT SWAP1 PUSH1 0x3 SHL SHR NOT AND OR SWAP1 SSTORE JUMPDEST MLOAD DUP1 MLOAD PUSH1 0x4 DUP5 ADD SWAP2 PUSH1 0x1 PUSH1 0x1 PUSH1 0x40 SHL SUB DUP3 GT PUSH2 0xB76 JUMPI PUSH2 0x8D4 DUP4 SLOAD PUSH2 0x157E JUMP JUMPDEST PUSH1 0x1F DUP2 GT PUSH2 0xB2E JUMPI JUMPDEST POP PUSH1 0x20 SWAP1 PUSH1 0x1F DUP4 GT PUSH1 0x1 EQ PUSH2 0xAC2 JUMPI PUSH1 0x6 SWAP6 SWAP5 SWAP4 SWAP3 SWAP2 PUSH1 0x0 SWAP2 DUP4 PUSH2 0xAB7 JUMPI JUMPDEST POP POP DUP2 PUSH1 0x1 SHL SWAP2 PUSH1 0x0 NOT SWAP1 PUSH1 0x3 SHL SHR NOT AND OR SWAP1 SSTORE JUMPDEST MLOAD PUSH1 0x5 DUP3 ADD SSTORE ADD SWAP1 MLOAD SWAP4 PUSH1 0x3 DUP6 LT ISZERO PUSH2 0x5E8 JUMPI PUSH2 0x9A4 SWAP2 PUSH1 0x0 SWAP6 PUSH1 0xFF DUP1 NOT DUP4 SLOAD AND SWAP2 AND OR SWAP1 SSTORE PUSH1 0x40 MLOAD PUSH2 0x943 DUP2 PUSH2 0x14F1 JUMP JUMPDEST DUP6 DUP2 MSTORE PUSH1 0x2 PUSH1 0x20 DUP3 ADD DUP8 DUP2 MSTORE PUSH1 0x40 DUP4 ADD SWAP1 DUP9 DUP3 MSTORE PUSH1 0x80 MLOAD DUP10 MSTORE DUP3 PUSH1 0x20 MSTORE PUSH1 0x40 DUP10 KECCAK256 SWAP4 MLOAD DUP5 SSTORE MLOAD PUSH1 0x1 DUP5 ADD SSTORE MLOAD SWAP2 ADD SSTORE PUSH1 0x80 MLOAD DUP6 MSTORE PUSH1 0x4 PUSH1 0x20 MSTORE PUSH1 0x40 DUP6 KECCAK256 PUSH1 0x40 MLOAD SWAP2 PUSH2 0x98D DUP4 PUSH2 0x14F1 JUMP JUMPDEST CALLER DUP4 MSTORE DUP7 PUSH1 0x20 DUP5 ADD MSTORE PUSH2 0x2710 SUB PUSH1 0x40 DUP4 ADD MSTORE PUSH2 0x18CA JUMP JUMPDEST PUSH1 0x80 MLOAD DUP4 MSTORE PUSH1 0x6 PUSH1 0x20 MSTORE PUSH1 0x40 DUP4 KECCAK256 PUSH1 0x1 DUP1 PUSH1 0xA0 SHL SUB CALLER AND DUP5 MSTORE PUSH1 0x20 MSTORE PUSH1 0x40 DUP4 KECCAK256 PUSH1 0x1 PUSH1 0xFF NOT DUP3 SLOAD AND OR SWAP1 SSTORE CALLER DUP4 MSTORE PUSH1 0x5 PUSH1 0x20 MSTORE PUSH2 0x9E6 PUSH1 0x80 MLOAD PUSH1 0x40 DUP6 KECCAK256 PUSH2 0x1950 JUMP JUMPDEST DUP3 JUMPDEST DUP12 DUP2 LT PUSH2 0xA63 JUMPI DUP11 DUP11 PUSH32 0x3488D52145F2DA8302F4410707E81EFDE09F4F605B2182BBFB96B966837E32CD DUP12 DUP12 PUSH2 0xA54 PUSH2 0xA41 DUP14 DUP14 PUSH2 0xA33 PUSH1 0x40 MLOAD SWAP7 DUP8 SWAP7 PUSH1 0x60 DUP9 MSTORE PUSH1 0x60 DUP9 ADD SWAP2 PUSH2 0x1985 JUMP JUMPDEST SWAP2 DUP6 DUP4 SUB PUSH1 0x20 DUP8 ADD MSTORE PUSH2 0x1985 JUMP JUMPDEST DUP3 DUP2 SUB PUSH1 0x40 DUP5 ADD MSTORE CALLER SWAP7 PUSH1 0x80 MLOAD SWAP7 PUSH2 0x1985 JUMP JUMPDEST SUB SWAP1 LOG3 PUSH1 0x20 PUSH1 0x40 MLOAD PUSH1 0x80 MLOAD DUP2 MSTORE RETURN JUMPDEST PUSH1 0x1 SWAP1 PUSH1 0x80 MLOAD DUP6 MSTORE PUSH1 0x4 PUSH1 0x20 MSTORE PUSH2 0xAB1 DUP14 PUSH2 0xA83 DUP4 PUSH1 0x40 DUP10 KECCAK256 SWAP3 DUP9 PUSH2 0x1874 JUMP JUMPDEST CALLDATALOAD SWAP1 PUSH2 0xA90 DUP5 DUP11 DUP9 PUSH2 0x1874 JUMP JUMPDEST CALLDATALOAD SWAP2 PUSH1 0x40 MLOAD SWAP3 PUSH2 0xA9F DUP5 PUSH2 0x14F1 JUMP JUMPDEST DUP10 DUP5 MSTORE PUSH1 0x20 DUP5 ADD MSTORE PUSH1 0x40 DUP4 ADD MSTORE PUSH2 0x18CA JUMP JUMPDEST ADD PUSH2 0x9E8 JUMP JUMPDEST ADD MLOAD SWAP1 POP CODESIZE DUP1 PUSH2 0x8FC JUMP JUMPDEST SWAP1 PUSH1 0x1F NOT DUP4 AND SWAP2 DUP5 PUSH1 0x0 MSTORE DUP2 PUSH1 0x0 KECCAK256 SWAP3 PUSH1 0x0 JUMPDEST DUP2 DUP2 LT PUSH2 0xB16 JUMPI POP SWAP2 PUSH1 0x1 SWAP4 SWAP2 DUP6 PUSH1 0x6 SWAP10 SWAP9 SWAP8 SWAP7 SWAP5 LT PUSH2 0xAFD JUMPI JUMPDEST POP POP POP DUP2 SHL ADD SWAP1 SSTORE PUSH2 0x911 JUMP JUMPDEST ADD MLOAD PUSH1 0x0 NOT PUSH1 0xF8 DUP5 PUSH1 0x3 SHL AND SHR NOT AND SWAP1 SSTORE CODESIZE DUP1 DUP1 PUSH2 0xAF0 JUMP JUMPDEST SWAP3 SWAP4 PUSH1 0x20 PUSH1 0x1 DUP2 SWAP3 DUP8 DUP7 ADD MLOAD DUP2 SSTORE ADD SWAP6 ADD SWAP4 ADD PUSH2 0xAD5 JUMP JUMPDEST DUP4 PUSH1 0x0 MSTORE PUSH1 0x20 PUSH1 0x0 KECCAK256 PUSH1 0x1F DUP5 ADD PUSH1 0x5 SHR DUP2 ADD SWAP2 PUSH1 0x20 DUP6 LT PUSH2 0xB6C JUMPI JUMPDEST PUSH1 0x1F ADD PUSH1 0x5 SHR ADD SWAP1 JUMPDEST DUP2 DUP2 LT PUSH2 0xB60 JUMPI POP PUSH2 0x8DD JUMP JUMPDEST PUSH1 0x0 DUP2 SSTORE PUSH1 0x1 ADD PUSH2 0xB53 JUMP JUMPDEST SWAP1 SWAP2 POP DUP2 SWAP1 PUSH2 0xB4A JUMP JUMPDEST PUSH4 0x4E487B71 PUSH1 0xE0 SHL PUSH1 0x0 MSTORE PUSH1 0x41 PUSH1 0x4 MSTORE PUSH1 0x24 PUSH1 0x0 REVERT JUMPDEST ADD MLOAD SWAP1 POP CODESIZE DUP1 PUSH2 0x89F JUMP JUMPDEST PUSH1 0x0 DUP6 DUP2 MSTORE DUP3 DUP2 KECCAK256 SWAP4 POP PUSH1 0x1F NOT DUP6 AND SWAP1 JUMPDEST DUP2 DUP2 LT PUSH2 0xBE4 JUMPI POP SWAP1 DUP5 PUSH1 0x1 SWAP6 SWAP5 SWAP4 SWAP3 LT PUSH2 0xBCB JUMPI JUMPDEST POP POP POP DUP2 SHL ADD SWAP1 SSTORE PUSH2 0x8B4 JUMP JUMPDEST ADD MLOAD PUSH1 0x0 NOT PUSH1 0xF8 DUP5 PUSH1 0x3 SHL AND SHR NOT AND SWAP1 SSTORE CODESIZE DUP1 DUP1 PUSH2 0xBBE JUMP JUMPDEST SWAP3 SWAP4 PUSH1 0x20 PUSH1 0x1 DUP2 SWAP3 DUP8 DUP7 ADD MLOAD DUP2 SSTORE ADD SWAP6 ADD SWAP4 ADD PUSH2 0xBA8 JUMP JUMPDEST SWAP1 SWAP2 POP DUP4 PUSH1 0x0 MSTORE PUSH1 0x20 PUSH1 0x0 KECCAK256 PUSH1 0x1F DUP5 ADD PUSH1 0x5 SHR DUP2 ADD SWAP2 PUSH1 0x20 DUP6 LT PUSH2 0xC45 JUMPI JUMPDEST SWAP1 PUSH1 0x1F DUP6 SWAP5 SWAP4 SWAP3 ADD PUSH1 0x5 SHR ADD SWAP1 JUMPDEST DUP2 DUP2 LT PUSH2 0xC36 JUMPI POP PUSH2 0x888 JUMP JUMPDEST PUSH1 0x0 DUP2 SSTORE DUP5 SWAP4 POP PUSH1 0x1 ADD PUSH2 0xC29 JUMP JUMPDEST SWAP1 SWAP2 POP DUP2 SWAP1 PUSH2 0xC1B JUMP JUMPDEST ADD MLOAD SWAP1 POP CODESIZE DUP1 PUSH2 0x848 JUMP JUMPDEST PUSH1 0x0 DUP6 DUP2 MSTORE DUP3 DUP2 KECCAK256 SWAP4 POP PUSH1 0x1F NOT DUP6 AND SWAP1 JUMPDEST DUP2 DUP2 LT PUSH2 0xCA7 JUMPI POP SWAP1 DUP5 PUSH1 0x1 SWAP6 SWAP5 SWAP4 SWAP3 LT PUSH2 0xC8E JUMPI JUMPDEST POP POP POP DUP2 SHL ADD SWAP1 SSTORE PUSH2 0x85D JUMP JUMPDEST ADD MLOAD PUSH1 0x0 NOT PUSH1 0xF8 DUP5 PUSH1 0x3 SHL AND SHR NOT AND SWAP1 SSTORE CODESIZE DUP1 DUP1 PUSH2 0xC81 JUMP JUMPDEST SWAP3 SWAP4 PUSH1 0x20 PUSH1 0x1 DUP2 SWAP3 DUP8 DUP7 ADD MLOAD DUP2 SSTORE ADD SWAP6 ADD SWAP4 ADD PUSH2 0xC6B JUMP JUMPDEST SWAP1 SWAP2 POP DUP4 PUSH1 0x0 MSTORE PUSH1 0x20 PUSH1 0x0 KECCAK256 PUSH1 0x1F DUP5 ADD PUSH1 0x5 SHR DUP2 ADD SWAP2 PUSH1 0x20 DUP6 LT PUSH2 0xD08 JUMPI JUMPDEST SWAP1 PUSH1 0x1F DUP6 SWAP5 SWAP4 SWAP3 ADD PUSH1 0x5 SHR ADD SWAP1 JUMPDEST DUP2 DUP2 LT PUSH2 0xCF9 JUMPI POP PUSH2 0x831 JUMP JUMPDEST PUSH1 0x0 DUP2 SSTORE DUP5 SWAP4 POP PUSH1 0x1 ADD PUSH2 0xCEC JUMP JUMPDEST SWAP1 SWAP2 POP DUP2 SWAP1 PUSH2 0xCDE JUMP JUMPDEST PUSH1 0x0 PUSH2 0x761 JUMP JUMPDEST PUSH4 0x7816661 PUSH1 0xE5 SHL PUSH1 0x0 MSTORE PUSH1 0x4 PUSH1 0x0 REVERT JUMPDEST PUSH4 0x4E487B71 PUSH1 0xE0 SHL PUSH1 0x0 MSTORE PUSH1 0x11 PUSH1 0x4 MSTORE PUSH1 0x24 PUSH1 0x0 REVERT JUMPDEST DUP3 PUSH4 0x4A314147 PUSH1 0xE0 SHL PUSH1 0x0 MSTORE PUSH1 0x4 MSTORE PUSH1 0x24 PUSH1 0x0 REVERT JUMPDEST SWAP3 PUSH2 0xD61 DUP5 DUP14 DUP6 PUSH2 0x1874 JUMP JUMPDEST CALLDATALOAD ISZERO DUP5 DUP14 DUP3 ISZERO PUSH2 0xDB1 JUMPI JUMPDEST POP POP PUSH2 0xD91 JUMPI PUSH2 0xD8A PUSH1 0x1 SWAP2 PUSH2 0xD83 DUP7 DUP16 DUP8 PUSH2 0x1874 JUMP JUMPDEST CALLDATALOAD SWAP1 PUSH2 0x169A JUMP JUMPDEST SWAP4 ADD PUSH2 0x71F JUMP JUMPDEST PUSH2 0xD9C DUP5 DUP14 DUP6 PUSH2 0x1874 JUMP JUMPDEST CALLDATALOAD PUSH4 0x447E90BF PUSH1 0xE1 SHL PUSH1 0x0 MSTORE PUSH1 0x4 MSTORE PUSH1 0x24 PUSH1 0x0 REVERT JUMPDEST PUSH2 0x2710 SWAP3 POP SWAP1 PUSH2 0xDC1 SWAP2 DUP7 PUSH2 0x1874 JUMP JUMPDEST CALLDATALOAD GT DUP5 DUP14 PUSH2 0xD6C JUMP JUMPDEST PUSH4 0x512509D3 PUSH1 0xE1 SHL PUSH1 0x0 MSTORE PUSH1 0x4 PUSH1 0x0 REVERT JUMPDEST PUSH4 0x52DDCDEF PUSH1 0xE1 SHL PUSH1 0x0 MSTORE PUSH1 0x4 PUSH1 0x0 REVERT JUMPDEST CALLVALUE PUSH2 0x150 JUMPI PUSH1 0x0 CALLDATASIZE PUSH1 0x3 NOT ADD SLT PUSH2 0x150 JUMPI PUSH1 0x20 PUSH1 0x0 SLOAD PUSH1 0x40 MLOAD SWAP1 DUP2 MSTORE RETURN JUMPDEST CALLVALUE PUSH2 0x150 JUMPI PUSH1 0x20 CALLDATASIZE PUSH1 0x3 NOT ADD SLT PUSH2 0x150 JUMPI PUSH2 0xE23 PUSH2 0x16CD JUMP JUMPDEST POP PUSH1 0x4 CALLDATALOAD PUSH1 0x0 MSTORE PUSH1 0x2 PUSH1 0x20 MSTORE PUSH1 0x60 PUSH1 0x40 PUSH1 0x0 KECCAK256 PUSH1 0x2 PUSH1 0x40 MLOAD SWAP2 PUSH2 0xE45 DUP4 PUSH2 0x14F1 JUMP JUMPDEST DUP1 SLOAD DUP4 MSTORE PUSH1 0x1 DUP2 ADD SLOAD PUSH1 0x20 DUP5 ADD MSTORE ADD SLOAD PUSH1 0x40 DUP3 ADD MSTORE PUSH2 0x3AF PUSH1 0x40 MLOAD DUP1 SWAP3 PUSH1 0x40 DUP1 SWAP2 DUP1 MLOAD DUP5 MSTORE PUSH1 0x20 DUP2 ADD MLOAD PUSH1 0x20 DUP6 ADD MSTORE ADD MLOAD SWAP2 ADD MSTORE JUMP JUMPDEST CALLVALUE PUSH2 0x150 JUMPI PUSH1 0x60 CALLDATASIZE PUSH1 0x3 NOT ADD SLT PUSH2 0x150 JUMPI PUSH2 0xE9D PUSH1 0x44 CALLDATALOAD PUSH1 0x24 CALLDATALOAD PUSH1 0x4 CALLDATALOAD PUSH2 0x1700 JUMP JUMPDEST PUSH1 0x40 MLOAD DUP1 SWAP2 PUSH1 0x20 DUP3 ADD PUSH1 0x20 DUP4 MSTORE DUP2 MLOAD DUP1 SWAP2 MSTORE PUSH1 0x20 PUSH1 0x40 DUP5 ADD SWAP3 ADD SWAP1 PUSH1 0x0 JUMPDEST DUP2 DUP2 LT PUSH2 0xEC9 JUMPI POP POP POP SUB SWAP1 RETURN JUMPDEST DUP3 MLOAD DUP1 MLOAD PUSH1 0x1 PUSH1 0x1 PUSH1 0xA0 SHL SUB AND DUP6 MSTORE PUSH1 0x20 DUP2 DUP2 ADD MLOAD DUP2 DUP8 ADD MSTORE PUSH1 0x40 SWAP2 DUP3 ADD MLOAD SWAP2 DUP7 ADD SWAP2 SWAP1 SWAP2 MSTORE DUP7 SWAP6 POP PUSH1 0x60 SWAP1 SWAP5 ADD SWAP4 SWAP1 SWAP3 ADD SWAP2 PUSH1 0x1 ADD PUSH2 0xEBB JUMP JUMPDEST CALLVALUE PUSH2 0x150 JUMPI PUSH1 0x40 CALLDATASIZE PUSH1 0x3 NOT ADD SLT PUSH2 0x150 JUMPI PUSH1 0x4 CALLDATALOAD PUSH1 0x24 CALLDATALOAD SWAP1 DUP1 PUSH1 0x0 MSTORE PUSH1 0x1 PUSH1 0x20 MSTORE PUSH1 0x40 PUSH1 0x0 KECCAK256 DUP1 SLOAD ISZERO PUSH2 0x1174 JUMPI PUSH1 0x6 ADD SLOAD PUSH1 0xFF AND SWAP2 PUSH1 0x3 DUP4 LT ISZERO PUSH2 0x5E8 JUMPI PUSH1 0x2 DUP4 EQ PUSH2 0x115F JUMPI PUSH1 0x0 SWAP3 ISZERO PUSH2 0x114B JUMPI DUP1 ISZERO PUSH2 0x113C JUMPI PUSH1 0x40 MLOAD PUSH4 0x23B872DD PUSH1 0xE0 SHL DUP2 MSTORE CALLER PUSH1 0x4 DUP3 ADD MSTORE ADDRESS PUSH1 0x24 DUP3 ADD MSTORE PUSH1 0x44 DUP2 ADD DUP3 SWAP1 MSTORE PUSH1 0x20 DUP2 PUSH1 0x64 DUP2 DUP8 PUSH32 0x0 PUSH1 0x1 PUSH1 0x1 PUSH1 0xA0 SHL SUB AND GAS CALL SWAP1 DUP2 ISZERO PUSH2 0x1131 JUMPI DUP5 SWAP2 PUSH2 0x1102 JUMPI JUMPDEST POP ISZERO PUSH2 0x10F3 JUMPI DUP2 DUP4 MSTORE PUSH1 0x4 PUSH1 0x20 MSTORE PUSH1 0x40 DUP4 KECCAK256 DUP4 JUMPDEST DUP2 SLOAD DUP2 LT ISZERO PUSH2 0x103F JUMPI PUSH1 0x2 PUSH2 0xFE2 DUP3 DUP5 PUSH2 0x1668 JUMP JUMPDEST POP ADD SLOAD DUP1 DUP5 MUL SWAP1 DUP5 DUP3 DIV SUB PUSH2 0x102B JUMPI SWAP1 PUSH1 0x1 SWAP2 PUSH2 0xFFF DUP3 DUP6 PUSH2 0x1668 JUMP JUMPDEST POP DUP4 DUP1 PUSH1 0xA0 SHL SUB SWAP1 SLOAD AND DUP8 MSTORE PUSH1 0x7 PUSH1 0x20 MSTORE PUSH2 0x1023 PUSH2 0x2710 PUSH1 0x40 DUP10 KECCAK256 SWAP3 DIV DUP3 SLOAD PUSH2 0x169A JUMP JUMPDEST SWAP1 SSTORE ADD PUSH2 0xFCD JUMP JUMPDEST PUSH4 0x4E487B71 PUSH1 0xE0 SHL DUP7 MSTORE PUSH1 0x11 PUSH1 0x4 MSTORE PUSH1 0x24 DUP7 REVERT JUMPDEST POP POP SWAP1 DUP1 DUP4 MSTORE PUSH1 0x2 PUSH1 0x20 MSTORE PUSH1 0x40 DUP4 KECCAK256 PUSH2 0x1059 DUP4 DUP3 SLOAD PUSH2 0x169A JUMP JUMPDEST DUP2 SSTORE PUSH1 0x1 DUP2 ADD PUSH2 0x1069 DUP2 SLOAD PUSH2 0x16A7 JUMP JUMPDEST SWAP1 SSTORE DUP2 DUP5 MSTORE PUSH1 0x3 PUSH1 0x20 SWAP1 DUP2 MSTORE PUSH1 0x40 DUP1 DUP7 KECCAK256 CALLER DUP8 MSTORE SWAP1 SWAP2 MSTORE DUP5 KECCAK256 SLOAD PUSH1 0xFF AND ISZERO PUSH2 0x10BC JUMPI JUMPDEST POP PUSH1 0x40 MLOAD SWAP2 DUP3 MSTORE PUSH32 0xE555DA28BDB778F65D22794D88927EBAECA03F7DE9D1B7D39245BC8FB5CA078A PUSH1 0x20 CALLER SWAP4 LOG3 DUP1 RETURN JUMPDEST PUSH1 0x2 ADD PUSH2 0x10C9 DUP2 SLOAD PUSH2 0x16A7 JUMP JUMPDEST SWAP1 SSTORE DUP1 DUP4 MSTORE PUSH1 0x3 PUSH1 0x20 SWAP1 DUP2 MSTORE PUSH1 0x40 DUP1 DUP6 KECCAK256 CALLER DUP7 MSTORE SWAP1 SWAP2 MSTORE DUP4 KECCAK256 DUP1 SLOAD PUSH1 0xFF NOT AND PUSH1 0x1 OR SWAP1 SSTORE DUP4 PUSH2 0x108C JUMP JUMPDEST PUSH4 0x12171D83 PUSH1 0xE3 SHL DUP4 MSTORE PUSH1 0x4 DUP4 REVERT JUMPDEST PUSH2 0x1124 SWAP2 POP PUSH1 0x20 RETURNDATASIZE PUSH1 0x20 GT PUSH2 0x112A JUMPI JUMPDEST PUSH2 0x111C DUP2 DUP4 PUSH2 0x150C JUMP JUMPDEST DUP2 ADD SWAP1 PUSH2 0x152D JUMP JUMPDEST DUP5 PUSH2 0xFB9 JUMP JUMPDEST POP RETURNDATASIZE PUSH2 0x1112 JUMP JUMPDEST PUSH1 0x40 MLOAD RETURNDATASIZE DUP7 DUP3 RETURNDATACOPY RETURNDATASIZE SWAP1 REVERT JUMPDEST PUSH4 0xBDD5839B PUSH1 0xE0 SHL DUP4 MSTORE PUSH1 0x4 DUP4 REVERT JUMPDEST PUSH4 0xDA8944ED PUSH1 0xE0 SHL DUP4 MSTORE PUSH1 0x4 DUP3 SWAP1 MSTORE PUSH1 0x24 DUP4 REVERT JUMPDEST POP PUSH4 0x423B515F PUSH1 0xE0 SHL PUSH1 0x0 MSTORE PUSH1 0x4 MSTORE PUSH1 0x24 PUSH1 0x0 REVERT JUMPDEST POP PUSH4 0x2AD8815 PUSH1 0xE4 SHL PUSH1 0x0 MSTORE PUSH1 0x4 MSTORE PUSH1 0x24 PUSH1 0x0 REVERT JUMPDEST CALLVALUE PUSH2 0x150 JUMPI PUSH1 0x20 CALLDATASIZE PUSH1 0x3 NOT ADD SLT PUSH2 0x150 JUMPI PUSH2 0x11A2 PUSH2 0x1545 JUMP JUMPDEST POP PUSH1 0x4 CALLDATALOAD PUSH1 0x0 MSTORE PUSH1 0x1 PUSH1 0x20 MSTORE PUSH2 0x123E PUSH1 0x40 PUSH1 0x0 KECCAK256 PUSH2 0x122A PUSH1 0xFF PUSH1 0x6 PUSH1 0x40 MLOAD SWAP4 PUSH2 0x11CA DUP6 PUSH2 0x14D6 JUMP JUMPDEST DUP1 SLOAD DUP6 MSTORE PUSH1 0x1 DUP2 ADD SLOAD PUSH1 0x1 PUSH1 0x1 PUSH1 0xA0 SHL SUB AND PUSH1 0x20 DUP7 ADD MSTORE PUSH2 0x11ED PUSH1 0x2 DUP3 ADD PUSH2 0x15B8 JUMP JUMPDEST PUSH1 0x40 DUP7 ADD MSTORE PUSH2 0x11FE PUSH1 0x3 DUP3 ADD PUSH2 0x15B8 JUMP JUMPDEST PUSH1 0x60 DUP7 ADD MSTORE PUSH2 0x120F PUSH1 0x4 DUP3 ADD PUSH2 0x15B8 JUMP JUMPDEST PUSH1 0x80 DUP7 ADD MSTORE PUSH1 0x5 DUP2 ADD SLOAD PUSH1 0xA0 DUP7 ADD MSTORE ADD SLOAD AND PUSH1 0xC0 DUP4 ADD PUSH2 0x165C JUMP JUMPDEST PUSH1 0x40 MLOAD SWAP2 DUP3 SWAP2 PUSH1 0x20 DUP4 MSTORE PUSH1 0x20 DUP4 ADD SWAP1 PUSH2 0x13F2 JUMP JUMPDEST SUB SWAP1 RETURN JUMPDEST CALLVALUE PUSH2 0x150 JUMPI PUSH1 0x40 CALLDATASIZE PUSH1 0x3 NOT ADD SLT PUSH2 0x150 JUMPI PUSH1 0x24 CALLDATALOAD PUSH1 0x1 PUSH1 0x1 PUSH1 0xA0 SHL SUB DUP2 AND SWAP1 PUSH1 0x4 CALLDATALOAD SWAP1 DUP3 SWAP1 SUB PUSH2 0x150 JUMPI DUP1 ISZERO PUSH2 0x138A JUMPI CALLER PUSH1 0x0 MSTORE PUSH1 0x7 PUSH1 0x20 MSTORE PUSH1 0x40 PUSH1 0x0 KECCAK256 SLOAD DUP1 DUP3 GT PUSH2 0x1372 JUMPI POP CALLER PUSH1 0x0 MSTORE PUSH1 0x7 PUSH1 0x20 MSTORE PUSH1 0x40 PUSH1 0x0 KECCAK256 PUSH2 0x12A2 DUP3 DUP3 SLOAD PUSH2 0x14C9 JUMP JUMPDEST SWAP1 SSTORE PUSH1 0x40 MLOAD PUSH4 0xA9059CBB PUSH1 0xE0 SHL DUP2 MSTORE PUSH1 0x4 DUP2 ADD DUP4 SWAP1 MSTORE PUSH1 0x24 DUP2 ADD DUP3 SWAP1 MSTORE PUSH1 0x20 DUP2 PUSH1 0x44 DUP2 PUSH1 0x0 PUSH32 0x0 PUSH1 0x1 PUSH1 0x1 PUSH1 0xA0 SHL SUB AND GAS CALL SWAP1 DUP2 ISZERO PUSH2 0x1366 JUMPI PUSH1 0x0 SWAP2 PUSH2 0x1347 JUMPI JUMPDEST POP ISZERO PUSH2 0x1336 JUMPI PUSH1 0x40 MLOAD SWAP1 DUP2 MSTORE PUSH32 0xA92FF919B850E4909AB2261D907EF955F11BC1716733A6CBECE38D163A69AF8A PUSH1 0x20 CALLER SWAP3 LOG3 STOP JUMPDEST PUSH4 0x12171D83 PUSH1 0xE3 SHL PUSH1 0x0 MSTORE PUSH1 0x4 PUSH1 0x0 REVERT JUMPDEST PUSH2 0x1360 SWAP2 POP PUSH1 0x20 RETURNDATASIZE PUSH1 0x20 GT PUSH2 0x112A JUMPI PUSH2 0x111C DUP2 DUP4 PUSH2 0x150C JUMP JUMPDEST DUP4 PUSH2 0x1302 JUMP JUMPDEST PUSH1 0x40 MLOAD RETURNDATASIZE PUSH1 0x0 DUP3 RETURNDATACOPY RETURNDATASIZE SWAP1 REVERT JUMPDEST SWAP1 PUSH4 0xCF479181 PUSH1 0xE0 SHL PUSH1 0x0 MSTORE PUSH1 0x4 MSTORE PUSH1 0x24 MSTORE PUSH1 0x44 PUSH1 0x0 REVERT JUMPDEST PUSH4 0x9ABC7491 PUSH1 0xE0 SHL PUSH1 0x0 MSTORE PUSH1 0x4 PUSH1 0x0 REVERT JUMPDEST PUSH1 0x4 CALLDATALOAD SWAP1 PUSH1 0x1 PUSH1 0x1 PUSH1 0xA0 SHL SUB DUP3 AND DUP3 SUB PUSH2 0x150 JUMPI JUMP JUMPDEST SWAP2 SWAP1 DUP3 MLOAD SWAP3 DUP4 DUP3 MSTORE PUSH1 0x0 JUMPDEST DUP5 DUP2 LT PUSH2 0x13DD JUMPI POP POP DUP3 PUSH1 0x0 PUSH1 0x20 DUP1 SWAP5 SWAP6 DUP5 ADD ADD MSTORE PUSH1 0x1F DUP1 NOT SWAP2 ADD AND ADD ADD SWAP1 JUMP JUMPDEST DUP1 PUSH1 0x20 DUP1 SWAP3 DUP5 ADD ADD MLOAD DUP3 DUP3 DUP7 ADD ADD MSTORE ADD PUSH2 0x13BC JUMP JUMPDEST SWAP1 DUP2 MLOAD DUP2 MSTORE PUSH1 0x1 DUP1 PUSH1 0xA0 SHL SUB PUSH1 0x20 DUP4 ADD MLOAD AND PUSH1 0x20 DUP3 ADD MSTORE PUSH1 0xC0 PUSH2 0x144E PUSH2 0x143C PUSH2 0x142A PUSH1 0x40 DUP7 ADD MLOAD PUSH1 0xE0 PUSH1 0x40 DUP8 ADD MSTORE PUSH1 0xE0 DUP7 ADD SWAP1 PUSH2 0x13B1 JUMP JUMPDEST PUSH1 0x60 DUP7 ADD MLOAD DUP6 DUP3 SUB PUSH1 0x60 DUP8 ADD MSTORE PUSH2 0x13B1 JUMP JUMPDEST PUSH1 0x80 DUP6 ADD MLOAD DUP5 DUP3 SUB PUSH1 0x80 DUP7 ADD MSTORE PUSH2 0x13B1 JUMP JUMPDEST SWAP3 PUSH1 0xA0 DUP2 ADD MLOAD PUSH1 0xA0 DUP5 ADD MSTORE ADD MLOAD SWAP1 PUSH1 0x3 DUP3 LT ISZERO PUSH2 0x5E8 JUMPI PUSH1 0xC0 ADD MSTORE SWAP1 JUMP JUMPDEST SWAP2 DUP2 PUSH1 0x1F DUP5 ADD SLT ISZERO PUSH2 0x150 JUMPI DUP3 CALLDATALOAD SWAP2 PUSH1 0x1 PUSH1 0x1 PUSH1 0x40 SHL SUB DUP4 GT PUSH2 0x150 JUMPI PUSH1 0x20 DUP4 DUP2 DUP7 ADD SWAP6 ADD ADD GT PUSH2 0x150 JUMPI JUMP JUMPDEST SWAP2 DUP2 PUSH1 0x1F DUP5 ADD SLT ISZERO PUSH2 0x150 JUMPI DUP3 CALLDATALOAD SWAP2 PUSH1 0x1 PUSH1 0x1 PUSH1 0x40 SHL SUB DUP4 GT PUSH2 0x150 JUMPI PUSH1 0x20 DUP1 DUP6 ADD SWAP5 DUP5 PUSH1 0x5 SHL ADD ADD GT PUSH2 0x150 JUMPI JUMP JUMPDEST SWAP2 SWAP1 DUP3 SUB SWAP2 DUP3 GT PUSH2 0xD2A JUMPI JUMP JUMPDEST PUSH1 0xE0 DUP2 ADD SWAP1 DUP2 LT PUSH1 0x1 PUSH1 0x1 PUSH1 0x40 SHL SUB DUP3 GT OR PUSH2 0xB76 JUMPI PUSH1 0x40 MSTORE JUMP JUMPDEST PUSH1 0x60 DUP2 ADD SWAP1 DUP2 LT PUSH1 0x1 PUSH1 0x1 PUSH1 0x40 SHL SUB DUP3 GT OR PUSH2 0xB76 JUMPI PUSH1 0x40 MSTORE JUMP JUMPDEST SWAP1 PUSH1 0x1F DUP1 NOT SWAP2 ADD AND DUP2 ADD SWAP1 DUP2 LT PUSH1 0x1 PUSH1 0x1 PUSH1 0x40 SHL SUB DUP3 GT OR PUSH2 0xB76 JUMPI PUSH1 0x40 MSTORE JUMP JUMPDEST SWAP1 DUP2 PUSH1 0x20 SWAP2 SUB SLT PUSH2 0x150 JUMPI MLOAD DUP1 ISZERO ISZERO DUP2 SUB PUSH2 0x150 JUMPI SWAP1 JUMP JUMPDEST PUSH1 0x40 MLOAD SWAP1 PUSH2 0x1552 DUP3 PUSH2 0x14D6 JUMP JUMPDEST PUSH1 0x0 PUSH1 0xC0 DUP4 DUP3 DUP2 MSTORE DUP3 PUSH1 0x20 DUP3 ADD MSTORE PUSH1 0x60 PUSH1 0x40 DUP3 ADD MSTORE PUSH1 0x60 DUP1 DUP3 ADD MSTORE PUSH1 0x60 PUSH1 0x80 DUP3 ADD MSTORE DUP3 PUSH1 0xA0 DUP3 ADD MSTORE ADD MSTORE JUMP JUMPDEST SWAP1 PUSH1 0x1 DUP3 DUP2 SHR SWAP3 AND DUP1 ISZERO PUSH2 0x15AE JUMPI JUMPDEST PUSH1 0x20 DUP4 LT EQ PUSH2 0x1598 JUMPI JUMP JUMPDEST PUSH4 0x4E487B71 PUSH1 0xE0 SHL PUSH1 0x0 MSTORE PUSH1 0x22 PUSH1 0x4 MSTORE PUSH1 0x24 PUSH1 0x0 REVERT JUMPDEST SWAP2 PUSH1 0x7F AND SWAP2 PUSH2 0x158D JUMP JUMPDEST SWAP1 PUSH1 0x40 MLOAD SWAP2 DUP3 PUSH1 0x0 DUP3 SLOAD SWAP3 PUSH2 0x15CC DUP5 PUSH2 0x157E JUMP JUMPDEST DUP1 DUP5 MSTORE SWAP4 PUSH1 0x1 DUP2 AND SWAP1 DUP2 ISZERO PUSH2 0x163A JUMPI POP PUSH1 0x1 EQ PUSH2 0x15F3 JUMPI JUMPDEST POP PUSH2 0x15F1 SWAP3 POP SUB DUP4 PUSH2 0x150C JUMP JUMPDEST JUMP JUMPDEST SWAP1 POP PUSH1 0x0 SWAP3 SWAP2 SWAP3 MSTORE PUSH1 0x20 PUSH1 0x0 KECCAK256 SWAP1 PUSH1 0x0 SWAP2 JUMPDEST DUP2 DUP4 LT PUSH2 0x161E JUMPI POP POP SWAP1 PUSH1 0x20 PUSH2 0x15F1 SWAP3 DUP3 ADD ADD CODESIZE PUSH2 0x15E4 JUMP JUMPDEST PUSH1 0x20 SWAP2 SWAP4 POP DUP1 PUSH1 0x1 SWAP2 SLOAD DUP4 DUP6 DUP10 ADD ADD MSTORE ADD SWAP2 ADD SWAP1 SWAP2 DUP5 SWAP3 PUSH2 0x1605 JUMP JUMPDEST SWAP1 POP PUSH1 0x20 SWAP3 POP PUSH2 0x15F1 SWAP5 SWAP2 POP PUSH1 0xFF NOT AND DUP3 DUP5 ADD MSTORE ISZERO ISZERO PUSH1 0x5 SHL DUP3 ADD ADD CODESIZE PUSH2 0x15E4 JUMP JUMPDEST PUSH1 0x3 DUP3 LT ISZERO PUSH2 0x5E8 JUMPI MSTORE JUMP JUMPDEST DUP1 SLOAD DUP3 LT ISZERO PUSH2 0x1684 JUMPI PUSH1 0x0 MSTORE PUSH1 0x3 PUSH1 0x20 PUSH1 0x0 KECCAK256 SWAP2 MUL ADD SWAP1 PUSH1 0x0 SWAP1 JUMP JUMPDEST PUSH4 0x4E487B71 PUSH1 0xE0 SHL PUSH1 0x0 MSTORE PUSH1 0x32 PUSH1 0x4 MSTORE PUSH1 0x24 PUSH1 0x0 REVERT JUMPDEST SWAP2 SWAP1 DUP3 ADD DUP1 SWAP3 GT PUSH2 0xD2A JUMPI JUMP JUMPDEST PUSH1 0x0 NOT DUP2 EQ PUSH2 0xD2A JUMPI PUSH1 0x1 ADD SWAP1 JUMP JUMPDEST PUSH1 0x1 PUSH1 0x1 PUSH1 0x40 SHL SUB DUP2 GT PUSH2 0xB76 JUMPI PUSH1 0x5 SHL PUSH1 0x20 ADD SWAP1 JUMP JUMPDEST PUSH1 0x40 MLOAD SWAP1 PUSH2 0x16DA DUP3 PUSH2 0x14F1 JUMP JUMPDEST PUSH1 0x0 PUSH1 0x40 DUP4 DUP3 DUP2 MSTORE DUP3 PUSH1 0x20 DUP3 ADD MSTORE ADD MSTORE JUMP JUMPDEST DUP1 MLOAD DUP3 LT ISZERO PUSH2 0x1684 JUMPI PUSH1 0x20 SWAP2 PUSH1 0x5 SHL ADD ADD SWAP1 JUMP JUMPDEST SWAP3 SWAP2 SWAP1 DUP4 PUSH1 0x0 MSTORE PUSH1 0x1 PUSH1 0x20 MSTORE PUSH1 0x40 PUSH1 0x0 KECCAK256 SLOAD ISZERO PUSH2 0x5FE JUMPI DUP4 PUSH1 0x0 MSTORE PUSH1 0x4 PUSH1 0x20 MSTORE PUSH1 0x40 PUSH1 0x0 KECCAK256 SLOAD DUP2 GT PUSH1 0x0 EQ PUSH2 0x176D JUMPI POP POP PUSH1 0x40 MLOAD SWAP1 SWAP2 POP PUSH1 0x0 PUSH2 0x1744 PUSH1 0x20 DUP4 PUSH2 0x150C JUMP JUMPDEST DUP2 MSTORE PUSH1 0x0 DUP1 JUMPDEST DUP2 DUP2 LT PUSH2 0x1756 JUMPI POP POP SWAP1 JUMP JUMPDEST PUSH1 0x20 SWAP1 PUSH2 0x1761 PUSH2 0x16CD JUMP JUMPDEST DUP3 DUP3 DUP7 ADD ADD MSTORE ADD PUSH2 0x174A JUMP JUMPDEST PUSH2 0x1777 DUP3 DUP3 PUSH2 0x169A JUMP JUMPDEST DUP5 PUSH1 0x0 MSTORE PUSH1 0x4 PUSH1 0x20 MSTORE PUSH1 0x40 PUSH1 0x0 KECCAK256 SLOAD LT PUSH2 0x1854 JUMPI JUMPDEST PUSH2 0x1795 DUP3 PUSH2 0x16B6 JUMP JUMPDEST SWAP1 PUSH2 0x17A3 PUSH1 0x40 MLOAD SWAP3 DUP4 PUSH2 0x150C JUMP JUMPDEST DUP3 DUP3 MSTORE PUSH1 0x1F NOT PUSH2 0x17B2 DUP5 PUSH2 0x16B6 JUMP JUMPDEST ADD PUSH1 0x0 JUMPDEST DUP2 DUP2 LT PUSH2 0x183D JUMPI POP POP DUP2 SWAP5 PUSH1 0x0 JUMPDEST DUP5 DUP2 LT PUSH2 0x17D2 JUMPI POP POP POP POP POP JUMP JUMPDEST PUSH1 0x1 SWAP1 DUP3 PUSH1 0x0 MSTORE PUSH1 0x4 PUSH1 0x20 MSTORE PUSH2 0x17F6 PUSH1 0x40 PUSH1 0x0 KECCAK256 PUSH2 0x17F0 DUP7 DUP5 PUSH2 0x169A JUMP JUMPDEST SWAP1 PUSH2 0x1668 JUMP JUMPDEST POP PUSH1 0x2 PUSH1 0x40 MLOAD SWAP2 PUSH2 0x1806 DUP4 PUSH2 0x14F1 JUMP JUMPDEST DUP5 DUP1 PUSH1 0xA0 SHL SUB DUP2 SLOAD AND DUP4 MSTORE DUP5 DUP2 ADD SLOAD PUSH1 0x20 DUP5 ADD MSTORE ADD SLOAD PUSH1 0x40 DUP3 ADD MSTORE PUSH2 0x182B DUP3 DUP8 PUSH2 0x16EC JUMP JUMPDEST MSTORE PUSH2 0x1836 DUP2 DUP7 PUSH2 0x16EC JUMP JUMPDEST POP ADD PUSH2 0x17C4 JUMP JUMPDEST PUSH1 0x20 SWAP1 PUSH2 0x1848 PUSH2 0x16CD JUMP JUMPDEST DUP3 DUP3 DUP8 ADD ADD MSTORE ADD PUSH2 0x17B6 JUMP JUMPDEST SWAP1 POP DUP3 PUSH1 0x0 MSTORE PUSH1 0x4 PUSH1 0x20 MSTORE PUSH2 0x186E DUP2 PUSH1 0x40 PUSH1 0x0 KECCAK256 SLOAD PUSH2 0x14C9 JUMP JUMPDEST SWAP1 PUSH2 0x178C JUMP JUMPDEST SWAP2 SWAP1 DUP2 LT ISZERO PUSH2 0x1684 JUMPI PUSH1 0x5 SHL ADD SWAP1 JUMP JUMPDEST SWAP3 SWAP2 SWAP3 PUSH1 0x1 PUSH1 0x1 PUSH1 0x40 SHL SUB DUP3 GT PUSH2 0xB76 JUMPI PUSH1 0x40 MLOAD SWAP2 PUSH2 0x18AD PUSH1 0x1F DUP3 ADD PUSH1 0x1F NOT AND PUSH1 0x20 ADD DUP5 PUSH2 0x150C JUMP JUMPDEST DUP3 SWAP5 DUP2 DUP5 MSTORE DUP2 DUP4 ADD GT PUSH2 0x150 JUMPI DUP3 DUP2 PUSH1 0x20 SWAP4 DUP5 PUSH1 0x0 SWAP7 ADD CALLDATACOPY ADD ADD MSTORE JUMP JUMPDEST DUP1 SLOAD PUSH1 0x1 PUSH1 0x40 SHL DUP2 LT ISZERO PUSH2 0xB76 JUMPI PUSH2 0x18E7 SWAP2 PUSH1 0x1 DUP3 ADD DUP2 SSTORE PUSH2 0x1668 JUMP JUMPDEST SWAP2 SWAP1 SWAP2 PUSH2 0x1922 JUMPI DUP1 MLOAD DUP3 SLOAD PUSH1 0x1 PUSH1 0x1 PUSH1 0xA0 SHL SUB NOT AND PUSH1 0x1 PUSH1 0x1 PUSH1 0xA0 SHL SUB SWAP2 SWAP1 SWAP2 AND OR DUP3 SSTORE PUSH1 0x20 DUP2 ADD MLOAD PUSH1 0x1 DUP4 ADD SSTORE PUSH1 0x40 ADD MLOAD PUSH1 0x2 SWAP2 SWAP1 SWAP2 ADD SSTORE JUMP JUMPDEST PUSH4 0x4E487B71 PUSH1 0xE0 SHL PUSH1 0x0 MSTORE PUSH1 0x0 PUSH1 0x4 MSTORE PUSH1 0x24 PUSH1 0x0 REVERT JUMPDEST DUP1 SLOAD DUP3 LT ISZERO PUSH2 0x1684 JUMPI PUSH1 0x0 MSTORE PUSH1 0x20 PUSH1 0x0 KECCAK256 ADD SWAP1 PUSH1 0x0 SWAP1 JUMP JUMPDEST DUP1 SLOAD PUSH1 0x1 PUSH1 0x40 SHL DUP2 LT ISZERO PUSH2 0xB76 JUMPI PUSH2 0x196D SWAP2 PUSH1 0x1 DUP3 ADD DUP2 SSTORE PUSH2 0x1938 JUMP JUMPDEST DUP2 SWAP3 SWAP2 SLOAD SWAP1 PUSH1 0x3 SHL SWAP2 DUP3 SHL SWAP2 PUSH1 0x0 NOT SWAP1 SHL NOT AND OR SWAP1 SSTORE JUMP JUMPDEST SWAP1 DUP1 PUSH1 0x20 SWAP4 SWAP3 DUP2 DUP5 MSTORE DUP5 DUP5 ADD CALLDATACOPY PUSH1 0x0 DUP3 DUP3 ADD DUP5 ADD MSTORE PUSH1 0x1F ADD PUSH1 0x1F NOT AND ADD ADD SWAP1 JUMP JUMPDEST PUSH1 0x1 PUSH1 0x1 PUSH1 0xA0 SHL SUB AND PUSH1 0x0 DUP2 DUP2 MSTORE PUSH1 0x5 PUSH1 0x20 MSTORE PUSH1 0x40 SWAP1 KECCAK256 SLOAD SWAP1 SWAP4 SWAP3 SWAP2 SWAP1 DUP2 GT ISZERO PUSH2 0x1A08 JUMPI POP POP PUSH1 0x40 MLOAD SWAP1 SWAP2 POP PUSH1 0x0 PUSH2 0x19DF PUSH1 0x20 DUP4 PUSH2 0x150C JUMP JUMPDEST DUP2 MSTORE PUSH1 0x0 DUP1 JUMPDEST DUP2 DUP2 LT PUSH2 0x19F1 JUMPI POP POP SWAP1 JUMP JUMPDEST PUSH1 0x20 SWAP1 PUSH2 0x19FC PUSH2 0x1545 JUMP JUMPDEST DUP3 DUP3 DUP7 ADD ADD MSTORE ADD PUSH2 0x19E5 JUMP JUMPDEST PUSH2 0x1A12 DUP3 DUP3 PUSH2 0x169A JUMP JUMPDEST DUP5 PUSH1 0x0 MSTORE PUSH1 0x5 PUSH1 0x20 MSTORE PUSH1 0x40 PUSH1 0x0 KECCAK256 SLOAD LT PUSH2 0x1B0B JUMPI JUMPDEST PUSH2 0x1A30 DUP3 PUSH2 0x16B6 JUMP JUMPDEST SWAP1 PUSH2 0x1A3E PUSH1 0x40 MLOAD SWAP3 DUP4 PUSH2 0x150C JUMP JUMPDEST DUP3 DUP3 MSTORE PUSH1 0x1F NOT PUSH2 0x1A4D DUP5 PUSH2 0x16B6 JUMP JUMPDEST ADD PUSH1 0x0 JUMPDEST DUP2 DUP2 LT PUSH2 0x1AF4 JUMPI POP POP DUP2 SWAP5 PUSH1 0x0 JUMPDEST DUP5 DUP2 LT PUSH2 0x1A6D JUMPI POP POP POP POP POP JUMP JUMPDEST PUSH1 0x1 SWAP1 DUP3 PUSH1 0x0 MSTORE PUSH1 0x5 PUSH1 0x20 MSTORE PUSH2 0x1A91 PUSH1 0x40 PUSH1 0x0 KECCAK256 PUSH2 0x1A8B DUP7 DUP5 PUSH2 0x169A JUMP JUMPDEST SWAP1 PUSH2 0x1938 JUMP JUMPDEST SWAP1 SLOAD SWAP1 PUSH1 0x3 SHL SHR PUSH1 0x0 MSTORE DUP2 PUSH1 0x20 MSTORE PUSH1 0x40 PUSH1 0x0 KECCAK256 PUSH2 0x1AD8 PUSH1 0xFF PUSH1 0x6 PUSH1 0x40 MLOAD SWAP4 PUSH2 0x1AB8 DUP6 PUSH2 0x14D6 JUMP JUMPDEST DUP1 SLOAD DUP6 MSTORE DUP7 DUP1 PUSH1 0xA0 SHL SUB DUP8 DUP3 ADD SLOAD AND PUSH1 0x20 DUP7 ADD MSTORE PUSH2 0x11ED PUSH1 0x2 DUP3 ADD PUSH2 0x15B8 JUMP JUMPDEST PUSH2 0x1AE2 DUP3 DUP8 PUSH2 0x16EC JUMP JUMPDEST MSTORE PUSH2 0x1AED DUP2 DUP7 PUSH2 0x16EC JUMP JUMPDEST POP ADD PUSH2 0x1A5F JUMP JUMPDEST PUSH1 0x20 SWAP1 PUSH2 0x1AFF PUSH2 0x1545 JUMP JUMPDEST DUP3 DUP3 DUP8 ADD ADD MSTORE ADD PUSH2 0x1A51 JUMP JUMPDEST SWAP1 POP DUP3 PUSH1 0x0 MSTORE PUSH1 0x5 PUSH1 0x20 MSTORE PUSH2 0x1B25 DUP2 PUSH1 0x40 PUSH1 0x0 KECCAK256 SLOAD PUSH2 0x14C9 JUMP JUMPDEST SWAP1 PUSH2 0x1A27 JUMP JUMPDEST PUSH1 0x0 MSTORE PUSH1 0x4 PUSH1 0x20 MSTORE PUSH1 0x40 PUSH1 0x0 KECCAK256 PUSH1 0x0 SWAP1 DUP1 SLOAD SWAP2 JUMPDEST DUP3 DUP2 LT PUSH2 0x1B4E JUMPI POP POP POP PUSH1 0x1 SWAP1 JUMP JUMPDEST PUSH2 0x1B58 DUP2 DUP4 PUSH2 0x1668 JUMP JUMPDEST POP SLOAD PUSH1 0x1 PUSH1 0x1 PUSH1 0xA0 SHL SUB AND ISZERO PUSH2 0x1B70 JUMPI PUSH1 0x1 ADD PUSH2 0x1B3F JUMP JUMPDEST POP POP POP PUSH1 0x0 SWAP1 JUMP INVALID LOG2 PUSH5 0x6970667358 0x22 SLT KECCAK256 CALLDATALOAD PUSH25 0x51103FF83B186E8B166ADE5BFA8361E6634DC7E0511DE7F886 0xA5 SWAP14 SWAP4 0xAE DUP2 PUSH5 0x736F6C6343 STOP ADDMOD SHR STOP CALLER "
        },
        "methodIdentifiers": {
          "createPool(string,string,string,bytes32[],uint256[])": "1c014f16",
          "deactivatePool(uint256)": "9abd9b05",
          "donate(uint256,uint256)": "0cdd53f6",
          "getBalanceOf(address)": "9b96eece",
          "getPool(uint256)": "068bcd8d",
          "getPoolMembers(uint256,uint256,uint256)": "12b32082",
          "getPoolMembersCount(uint256)": "f535a4f5",
          "getPoolSummary(uint256)": "14d056f8",
          "getUserPools(address,uint256,uint256)": "f75b9afa",
          "getUserPoolsCount(address)": "9ee64b65",
          "getUserSummary(address)": "8fbd0c2d",
          "joinPool(uint256,string)": "87115102",
          "nextPoolId()": "18e56131",
          "usdc()": "3e413bee",
          "withdraw(uint256,address)": "00f714ce"
        }
      }
    }
  }
}